{
  "_format": "hh-sol-artifact-1",
  "contractName": "ProductManager",
  "sourceName": "contracts/ProductManager.sol",
  "abi": [
    {
      "anonymous": false,
      "inputs": [
        {
          "indexed": false,
          "internalType": "string",
          "name": "id",
          "type": "string"
        },
        {
          "indexed": false,
          "internalType": "string",
          "name": "time",
          "type": "string"
        }
      ],
      "name": "CertificateEvent",
      "type": "event"
    },
    {
      "anonymous": false,
      "inputs": [
        {
          "indexed": false,
          "internalType": "string",
          "name": "id",
          "type": "string"
        },
        {
          "indexed": false,
          "internalType": "string",
          "name": "time",
          "type": "string"
        }
      ],
      "name": "CropEvent",
      "type": "event"
    },
    {
      "anonymous": false,
      "inputs": [
        {
          "indexed": false,
          "internalType": "string",
          "name": "id",
          "type": "string"
        },
        {
          "indexed": false,
          "internalType": "string",
          "name": "time",
          "type": "string"
        }
      ],
      "name": "MidTermEvent",
      "type": "event"
    },
    {
      "anonymous": false,
      "inputs": [
        {
          "indexed": false,
          "internalType": "string",
          "name": "id",
          "type": "string"
        }
      ],
      "name": "cropRegisterEvent",
      "type": "event"
    },
    {
      "anonymous": false,
      "inputs": [
        {
          "indexed": false,
          "internalType": "string",
          "name": "id",
          "type": "string"
        }
      ],
      "name": "midTermRegisterEvent",
      "type": "event"
    },
    {
      "anonymous": false,
      "inputs": [
        {
          "indexed": false,
          "internalType": "string",
          "name": "id",
          "type": "string"
        },
        {
          "indexed": false,
          "internalType": "string",
          "name": "quality",
          "type": "string"
        },
        {
          "indexed": false,
          "internalType": "uint256",
          "name": "quantity",
          "type": "uint256"
        },
        {
          "indexed": false,
          "internalType": "uint256",
          "name": "price",
          "type": "uint256"
        },
        {
          "indexed": false,
          "internalType": "string",
          "name": "description",
          "type": "string"
        },
        {
          "indexed": false,
          "internalType": "string",
          "name": "timeofApplied",
          "type": "string"
        }
      ],
      "name": "reqCertificateEvent",
      "type": "event"
    },
    {
      "inputs": [
        {
          "internalType": "string",
          "name": "id",
          "type": "string"
        },
        {
          "internalType": "string",
          "name": "time",
          "type": "string"
        }
      ],
      "name": "approveCertificate",
      "outputs": [],
      "stateMutability": "nonpayable",
      "type": "function"
    },
    {
      "inputs": [
        {
          "internalType": "string",
          "name": "id",
          "type": "string"
        },
        {
          "internalType": "string",
          "name": "time",
          "type": "string"
        }
      ],
      "name": "approveCrop",
      "outputs": [],
      "stateMutability": "nonpayable",
      "type": "function"
    },
    {
      "inputs": [
        {
          "internalType": "string",
          "name": "id",
          "type": "string"
        },
        {
          "internalType": "string",
          "name": "time",
          "type": "string"
        }
      ],
      "name": "approveMidTerm",
      "outputs": [],
      "stateMutability": "nonpayable",
      "type": "function"
    },
    {
      "inputs": [
        {
          "internalType": "string",
          "name": "id",
          "type": "string"
        },
        {
          "internalType": "string",
          "name": "cropName",
          "type": "string"
        },
        {
          "internalType": "string",
          "name": "category",
          "type": "string"
        },
        {
          "internalType": "string",
          "name": "location",
          "type": "string"
        },
        {
          "internalType": "string",
          "name": "acre",
          "type": "string"
        },
        {
          "internalType": "string",
          "name": "months",
          "type": "string"
        },
        {
          "internalType": "uint256",
          "name": "yieldperacre",
          "type": "uint256"
        },
        {
          "internalType": "string",
          "name": "timeofApplied",
          "type": "string"
        }
      ],
      "name": "cropRegister",
      "outputs": [],
      "stateMutability": "nonpayable",
      "type": "function"
    },
    {
      "inputs": [],
      "name": "fetchProduct",
      "outputs": [
        {
          "components": [
            {
              "internalType": "string",
              "name": "id",
              "type": "string"
            },
            {
              "internalType": "string",
              "name": "productName",
              "type": "string"
            },
            {
              "internalType": "uint256",
              "name": "price",
              "type": "uint256"
            },
            {
              "internalType": "uint256",
              "name": "quantity",
              "type": "uint256"
            },
            {
              "internalType": "address",
              "name": "ETHAddress",
              "type": "address"
            },
            {
              "internalType": "string",
              "name": "description",
              "type": "string"
            },
            {
              "internalType": "string",
              "name": "cropRegistered",
              "type": "string"
            },
            {
              "internalType": "string",
              "name": "cropApproved",
              "type": "string"
            },
            {
              "internalType": "string",
              "name": "midTermRegistered",
              "type": "string"
            },
            {
              "internalType": "string",
              "name": "midTermApproved",
              "type": "string"
            },
            {
              "internalType": "string",
              "name": "certRegistered",
              "type": "string"
            },
            {
              "internalType": "string",
              "name": "certApproved",
              "type": "string"
            },
            {
              "internalType": "bool",
              "name": "show",
              "type": "bool"
            }
          ],
          "internalType": "struct ProductManager.Product[]",
          "name": "",
          "type": "tuple[]"
        }
      ],
      "stateMutability": "view",
      "type": "function"
    },
    {
      "inputs": [],
      "name": "getAllCropIds",
      "outputs": [
        {
          "internalType": "string[]",
          "name": "",
          "type": "string[]"
        }
      ],
      "stateMutability": "view",
      "type": "function"
    },
    {
      "inputs": [],
      "name": "getCertificate",
      "outputs": [
        {
          "components": [
            {
              "internalType": "string",
              "name": "id",
              "type": "string"
            },
            {
              "internalType": "string",
              "name": "cropName",
              "type": "string"
            },
            {
              "internalType": "address",
              "name": "ETHAddress",
              "type": "address"
            },
            {
              "internalType": "string",
              "name": "quality",
              "type": "string"
            },
            {
              "internalType": "uint256",
              "name": "quantity",
              "type": "uint256"
            },
            {
              "internalType": "uint256",
              "name": "price",
              "type": "uint256"
            },
            {
              "internalType": "string",
              "name": "description",
              "type": "string"
            },
            {
              "internalType": "string",
              "name": "timeofApplied",
              "type": "string"
            },
            {
              "internalType": "string",
              "name": "timeofVerified",
              "type": "string"
            },
            {
              "internalType": "bool",
              "name": "isApproved",
              "type": "bool"
            },
            {
              "internalType": "bool",
              "name": "isDisapproved",
              "type": "bool"
            }
          ],
          "internalType": "struct ProductManager.Certificate[]",
          "name": "",
          "type": "tuple[]"
        }
      ],
      "stateMutability": "view",
      "type": "function"
    },
    {
      "inputs": [],
      "name": "getCrops",
      "outputs": [
        {
          "components": [
            {
              "internalType": "string",
              "name": "id",
              "type": "string"
            },
            {
              "internalType": "string",
              "name": "cropName",
              "type": "string"
            },
            {
              "internalType": "address",
              "name": "ETHAddress",
              "type": "address"
            },
            {
              "internalType": "string",
              "name": "category",
              "type": "string"
            },
            {
              "internalType": "string",
              "name": "location",
              "type": "string"
            },
            {
              "internalType": "string",
              "name": "acre",
              "type": "string"
            },
            {
              "internalType": "string",
              "name": "months",
              "type": "string"
            },
            {
              "internalType": "uint256",
              "name": "yieldperacre",
              "type": "uint256"
            },
            {
              "internalType": "string",
              "name": "timeofApplied",
              "type": "string"
            },
            {
              "internalType": "string",
              "name": "timeofVerified",
              "type": "string"
            },
            {
              "internalType": "bool",
              "name": "isApproved",
              "type": "bool"
            },
            {
              "internalType": "bool",
              "name": "isDisapproved",
              "type": "bool"
            }
          ],
          "internalType": "struct CropManager.Crop[]",
          "name": "",
          "type": "tuple[]"
        }
      ],
      "stateMutability": "view",
      "type": "function"
    },
    {
      "inputs": [],
      "name": "getMidTerm",
      "outputs": [
        {
          "components": [
            {
              "internalType": "string",
              "name": "id",
              "type": "string"
            },
            {
              "internalType": "string",
              "name": "cropName",
              "type": "string"
            },
            {
              "internalType": "address",
              "name": "ETHAddress",
              "type": "address"
            },
            {
              "internalType": "string",
              "name": "progress",
              "type": "string"
            },
            {
              "internalType": "string",
              "name": "months",
              "type": "string"
            },
            {
              "internalType": "string",
              "name": "timeofApplied",
              "type": "string"
            },
            {
              "internalType": "string",
              "name": "timeofVerified",
              "type": "string"
            },
            {
              "internalType": "bool",
              "name": "isApproved",
              "type": "bool"
            },
            {
              "internalType": "bool",
              "name": "isDisapproved",
              "type": "bool"
            }
          ],
          "internalType": "struct CropManager.MidTerm[]",
          "name": "",
          "type": "tuple[]"
        }
      ],
      "stateMutability": "view",
      "type": "function"
    },
    {
      "inputs": [
        {
          "internalType": "address",
          "name": "ETHAddress",
          "type": "address"
        }
      ],
      "name": "hideProduct",
      "outputs": [],
      "stateMutability": "nonpayable",
      "type": "function"
    },
    {
      "inputs": [
        {
          "internalType": "string",
          "name": "id",
          "type": "string"
        },
        {
          "internalType": "string",
          "name": "progress",
          "type": "string"
        },
        {
          "internalType": "string",
          "name": "months",
          "type": "string"
        },
        {
          "internalType": "string",
          "name": "timeofApplied",
          "type": "string"
        }
      ],
      "name": "midTermRegister",
      "outputs": [],
      "stateMutability": "nonpayable",
      "type": "function"
    },
    {
      "inputs": [
        {
          "components": [
            {
              "internalType": "string",
              "name": "id",
              "type": "string"
            },
            {
              "internalType": "uint256",
              "name": "reduce",
              "type": "uint256"
            }
          ],
          "internalType": "struct ProductManager.Item[]",
          "name": "items",
          "type": "tuple[]"
        }
      ],
      "name": "reduceQuantity",
      "outputs": [],
      "stateMutability": "nonpayable",
      "type": "function"
    },
    {
      "inputs": [
        {
          "internalType": "string",
          "name": "id",
          "type": "string"
        },
        {
          "internalType": "string",
          "name": "time",
          "type": "string"
        }
      ],
      "name": "rejectCertificate",
      "outputs": [],
      "stateMutability": "nonpayable",
      "type": "function"
    },
    {
      "inputs": [
        {
          "internalType": "string",
          "name": "id",
          "type": "string"
        },
        {
          "internalType": "string",
          "name": "time",
          "type": "string"
        }
      ],
      "name": "rejectCrop",
      "outputs": [],
      "stateMutability": "nonpayable",
      "type": "function"
    },
    {
      "inputs": [
        {
          "internalType": "address",
          "name": "ETHAddress",
          "type": "address"
        },
        {
          "internalType": "string",
          "name": "time",
          "type": "string"
        }
      ],
      "name": "rejectFarmerCertificate",
      "outputs": [],
      "stateMutability": "nonpayable",
      "type": "function"
    },
    {
      "inputs": [
        {
          "internalType": "address",
          "name": "ETHAddress",
          "type": "address"
        },
        {
          "internalType": "string",
          "name": "time",
          "type": "string"
        }
      ],
      "name": "rejectFarmerCrop",
      "outputs": [],
      "stateMutability": "nonpayable",
      "type": "function"
    },
    {
      "inputs": [
        {
          "internalType": "address",
          "name": "ETHAddress",
          "type": "address"
        },
        {
          "internalType": "string",
          "name": "time",
          "type": "string"
        }
      ],
      "name": "rejectFarmerMidTerm",
      "outputs": [],
      "stateMutability": "nonpayable",
      "type": "function"
    },
    {
      "inputs": [
        {
          "internalType": "string",
          "name": "id",
          "type": "string"
        },
        {
          "internalType": "string",
          "name": "time",
          "type": "string"
        }
      ],
      "name": "rejectMidTerm",
      "outputs": [],
      "stateMutability": "nonpayable",
      "type": "function"
    },
    {
      "inputs": [
        {
          "internalType": "string",
          "name": "id",
          "type": "string"
        },
        {
          "internalType": "string",
          "name": "quality",
          "type": "string"
        },
        {
          "internalType": "uint256",
          "name": "quantity",
          "type": "uint256"
        },
        {
          "internalType": "uint256",
          "name": "price",
          "type": "uint256"
        },
        {
          "internalType": "string",
          "name": "description",
          "type": "string"
        },
        {
          "internalType": "string",
          "name": "timeofApplied",
          "type": "string"
        }
      ],
      "name": "reqCertificate",
      "outputs": [],
      "stateMutability": "nonpayable",
      "type": "function"
    }
  ],
  "bytecode": "0x608060405234801561001057600080fd5b50614130806100206000396000f3fe608060405234801561001057600080fd5b50600436106101215760003560e01c80638418ef22116100ad578063dbf9dcf111610071578063dbf9dcf114610241578063e1a6669a14610256578063ea7305b714610269578063ef37f68c1461027c578063f53a75031461028f57600080fd5b80638418ef22146101e057806397bee28a146101f35780639b932eb014610206578063ae15eb8e14610219578063c851c62f1461022e57600080fd5b80635b773ed7116100f45780635b773ed7146101745780635f073f3a146101875780637c77c16d146101a55780637e3351e8146101ba5780637e348605146101cd57600080fd5b80631005e7f814610126578063129698511461013b57806334a3cb3e1461014e5780634b0e6c0914610161575b600080fd5b6101396101343660046133cb565b6102a4565b005b61013961014936600461344b565b610419565b61013961015c36600461348f565b61054e565b61013961016f36600461344b565b61069b565b610139610182366004613504565b6107cf565b61018f6109ad565b60405161019c9190613679565b60405180910390f35b6101ad610ee7565b60405161019c91906137f1565b6101396101c836600461344b565b6112ea565b6101396101db3660046133cb565b61141e565b6101396101ee366004613917565b611552565b6101396102013660046133cb565b6115e5565b610139610214366004613939565b611755565b6102216118ef565b60405161019c91906139e6565b61013961023c3660046133cb565b611d06565b610249611e39565b60405161019c9190613b24565b6101396102643660046133cb565b6123ef565b6101396102773660046133cb565b612d1a565b61013961028a366004613ca9565b612e8f565b61029761305e565b60405161019c9190613d68565b60005b60005481101561041457826040516020016102c29190613dcc565b60405160208183030381529060405280519060200120600082815481106102eb576102eb613de8565b90600052602060002090600b020160000160405160200161030c9190613e32565b604051602081830303815290604052805190602001200361040c5760016000828154811061033c5761033c613de8565b90600052602060002090600b0201600a0160016101000a81548160ff021916908315150217905550600080828154811061037857610378613de8565b90600052602060002090600b0201600a0160006101000a81548160ff02191690831515021790555081600082815481106103b4576103b4613de8565b90600052602060002090600b020160090190816103d19190613ef8565b507f26480968b27454fbab2b659c6bf7bf338fddd435d0c49cffefec0489eb80689d8383604051610403929190613fb8565b60405180910390a15b6001016102a7565b505050565b60005b60025481101561041457826001600160a01b03166002828154811061044357610443613de8565b600091825260209091206002600a9092020101546001600160a01b031614801561049457506002818154811061047b5761047b613de8565b600091825260209091206009600a90920201015460ff16155b15610546576001600282815481106104ae576104ae613de8565b90600052602060002090600a020160090160016101000a81548160ff0219169083151502179055506000600282815481106104eb576104eb613de8565b90600052602060002090600a020160090160006101000a81548160ff021916908315150217905550816002828154811061052757610527613de8565b90600052602060002090600a020160080190816105449190613ef8565b505b60010161041c565b60005b6003548110156104145760005b82811015610692576003828154811061057957610579613de8565b90600052602060002090600d020160000160405160200161059a9190613e32565b604051602081830303815290604052805190602001208484838181106105c2576105c2613de8565b90506020028101906105d49190613fe6565b6105de9080613ffc565b6040516020016105ef92919061404a565b604051602081830303815290604052805190602001200361068a5783838281811061061c5761061c613de8565b905060200281019061062e9190613fe6565b602001356003838154811061064557610645613de8565b90600052602060002090600d020160030154610661919061405a565b6003838154811061067457610674613de8565b90600052602060002090600d0201600301819055505b60010161055e565b50600101610551565b60005b60005481101561041457826001600160a01b0316600082815481106106c5576106c5613de8565b600091825260209091206002600b9092020101546001600160a01b03161480156107165750600081815481106106fd576106fd613de8565b60009182526020909120600a600b90920201015460ff16155b156107c75760016000828154811061073057610730613de8565b90600052602060002090600b0201600a0160016101000a81548160ff021916908315150217905550600080828154811061076c5761076c613de8565b90600052602060002090600b0201600a0160006101000a81548160ff02191690831515021790555081600082815481106107a8576107a8613de8565b90600052602060002090600b020160090190816107c59190613ef8565b505b60010161069e565b6040805161018081018252898152602081018990523391810191909152606081018790526080810186905260a0810185905260c0810184905260e081018390526101008101829052610120810182905260006101408201819052610160820181905280546001810182559080528151600b9091027f290decd9548b62a8d60345a988386fc84ba6bc95484008f6362f93160ef3e563019081906108729082613ef8565b50602082015160018201906108879082613ef8565b5060408201516002820180546001600160a01b0319166001600160a01b03909216919091179055606082015160038201906108c29082613ef8565b50608082015160048201906108d79082613ef8565b5060a082015160058201906108ec9082613ef8565b5060c082015160068201906109019082613ef8565b5060e0820151600782015561010082015160088201906109219082613ef8565b5061012082015160098201906109379082613ef8565b50610140820151600a90910180546101609093015115156101000261ff00199215159290921661ffff19909316929092171790556040517f3579c5d2edbbf430361d5649858a80fb2dc50cb0446bb5bd09ed524a73fba5ce9061099b908a90614081565b60405180910390a15050505050505050565b60606000805480602002602001604051908101604052809291908181526020016000905b82821015610ede57838290600052602060002090600b020160405180610180016040529081600082018054610a0590613dfe565b80601f0160208091040260200160405190810160405280929190818152602001828054610a3190613dfe565b8015610a7e5780601f10610a5357610100808354040283529160200191610a7e565b820191906000526020600020905b815481529060010190602001808311610a6157829003601f168201915b50505050508152602001600182018054610a9790613dfe565b80601f0160208091040260200160405190810160405280929190818152602001828054610ac390613dfe565b8015610b105780601f10610ae557610100808354040283529160200191610b10565b820191906000526020600020905b815481529060010190602001808311610af357829003601f168201915b505050918352505060028201546001600160a01b03166020820152600382018054604090920191610b4090613dfe565b80601f0160208091040260200160405190810160405280929190818152602001828054610b6c90613dfe565b8015610bb95780601f10610b8e57610100808354040283529160200191610bb9565b820191906000526020600020905b815481529060010190602001808311610b9c57829003601f168201915b50505050508152602001600482018054610bd290613dfe565b80601f0160208091040260200160405190810160405280929190818152602001828054610bfe90613dfe565b8015610c4b5780601f10610c2057610100808354040283529160200191610c4b565b820191906000526020600020905b815481529060010190602001808311610c2e57829003601f168201915b50505050508152602001600582018054610c6490613dfe565b80601f0160208091040260200160405190810160405280929190818152602001828054610c9090613dfe565b8015610cdd5780601f10610cb257610100808354040283529160200191610cdd565b820191906000526020600020905b815481529060010190602001808311610cc057829003601f168201915b50505050508152602001600682018054610cf690613dfe565b80601f0160208091040260200160405190810160405280929190818152602001828054610d2290613dfe565b8015610d6f5780601f10610d4457610100808354040283529160200191610d6f565b820191906000526020600020905b815481529060010190602001808311610d5257829003601f168201915b5050505050815260200160078201548152602001600882018054610d9290613dfe565b80601f0160208091040260200160405190810160405280929190818152602001828054610dbe90613dfe565b8015610e0b5780601f10610de057610100808354040283529160200191610e0b565b820191906000526020600020905b815481529060010190602001808311610dee57829003601f168201915b50505050508152602001600982018054610e2490613dfe565b80601f0160208091040260200160405190810160405280929190818152602001828054610e5090613dfe565b8015610e9d5780601f10610e7257610100808354040283529160200191610e9d565b820191906000526020600020905b815481529060010190602001808311610e8057829003601f168201915b5050509183525050600a919091015460ff808216151560208085019190915261010090920416151560409092019190915290825260019290920191016109d1565b50505050905090565b60606001805480602002602001604051908101604052809291908181526020016000905b82821015610ede578382906000526020600020906008020160405180610120016040529081600082018054610f3f90613dfe565b80601f0160208091040260200160405190810160405280929190818152602001828054610f6b90613dfe565b8015610fb85780601f10610f8d57610100808354040283529160200191610fb8565b820191906000526020600020905b815481529060010190602001808311610f9b57829003601f168201915b50505050508152602001600182018054610fd190613dfe565b80601f0160208091040260200160405190810160405280929190818152602001828054610ffd90613dfe565b801561104a5780601f1061101f5761010080835404028352916020019161104a565b820191906000526020600020905b81548152906001019060200180831161102d57829003601f168201915b505050918352505060028201546001600160a01b0316602082015260038201805460409092019161107a90613dfe565b80601f01602080910402602001604051908101604052809291908181526020018280546110a690613dfe565b80156110f35780601f106110c8576101008083540402835291602001916110f3565b820191906000526020600020905b8154815290600101906020018083116110d657829003601f168201915b5050505050815260200160048201805461110c90613dfe565b80601f016020809104026020016040519081016040528092919081815260200182805461113890613dfe565b80156111855780601f1061115a57610100808354040283529160200191611185565b820191906000526020600020905b81548152906001019060200180831161116857829003601f168201915b5050505050815260200160058201805461119e90613dfe565b80601f01602080910402602001604051908101604052809291908181526020018280546111ca90613dfe565b80156112175780601f106111ec57610100808354040283529160200191611217565b820191906000526020600020905b8154815290600101906020018083116111fa57829003601f168201915b5050505050815260200160068201805461123090613dfe565b80601f016020809104026020016040519081016040528092919081815260200182805461125c90613dfe565b80156112a95780601f1061127e576101008083540402835291602001916112a9565b820191906000526020600020905b81548152906001019060200180831161128c57829003601f168201915b50505091835250506007919091015460ff80821615156020808501919091526101009092041615156040909201919091529082526001929092019101610f0b565b60005b60015481101561041457826001600160a01b03166001828154811061131457611314613de8565b60009182526020909120600260089092020101546001600160a01b031614801561136557506001818154811061134c5761134c613de8565b600091825260209091206007600890920201015460ff16155b1561141657600180828154811061137e5761137e613de8565b906000526020600020906008020160070160016101000a81548160ff0219169083151502179055506000600182815481106113bb576113bb613de8565b906000526020600020906008020160070160006101000a81548160ff02191690831515021790555081600182815481106113f7576113f7613de8565b906000526020600020906008020160060190816114149190613ef8565b505b6001016112ed565b60005b600054811015610414578260405160200161143c9190613dcc565b604051602081830303815290604052805190602001206000828154811061146557611465613de8565b90600052602060002090600b02016000016040516020016114869190613e32565b604051602081830303815290604052805190602001200361154a576001600082815481106114b6576114b6613de8565b90600052602060002090600b0201600a0160006101000a81548160ff02191690831515021790555081600082815481106114f2576114f2613de8565b90600052602060002090600b0201600901908161150f9190613ef8565b507f26480968b27454fbab2b659c6bf7bf338fddd435d0c49cffefec0489eb80689d8383604051611541929190613fb8565b60405180910390a15b600101611421565b60005b6003548110156115e157816001600160a01b03166003828154811061157c5761157c613de8565b600091825260209091206004600d9092020101546001600160a01b0316036115d9576000600382815481106115b3576115b3613de8565b60009182526020909120600d90910201600c01805460ff19169115159190911790555050565b600101611555565b5050565b60005b60015481101561041457826040516020016116039190613dcc565b604051602081830303815290604052805190602001206001828154811061162c5761162c613de8565b906000526020600020906008020160000160405160200161164d9190613e32565b604051602081830303815290604052805190602001200361174d57600180828154811061167c5761167c613de8565b906000526020600020906008020160070160016101000a81548160ff0219169083151502179055506000600182815481106116b9576116b9613de8565b906000526020600020906008020160070160006101000a81548160ff02191690831515021790555081600182815481106116f5576116f5613de8565b906000526020600020906008020160060190816117129190613ef8565b507f49ef88e64c9bb5e17ec530233b88888c9d8ce293ffb2664fb11a737640dfeac48383604051611744929190613fb8565b60405180910390a15b6001016115e8565b600061176085613199565b6040805161012081018252878152602081018390523391810191909152606081018690526080810185905260a0810184905260c08101849052600060e08201819052610100820181905260018054808201825591528151929350909160089091027fb10e2d527612073b26eecdfd717e6a320cf44b4afac2b0732d9fcbe2b7fa0cf6019081906117f09082613ef8565b50602082015160018201906118059082613ef8565b5060408201516002820180546001600160a01b0319166001600160a01b03909216919091179055606082015160038201906118409082613ef8565b50608082015160048201906118559082613ef8565b5060a0820151600582019061186a9082613ef8565b5060c0820151600682019061187f9082613ef8565b5060e082015160079190910180546101009384015161ffff1990911692151561ff001916929092179115159092021790556040517f24dfd674d9b41013847ae645f40587f116cac5f83d63e385afa526bd5666dc03906118e0908790614081565b60405180910390a15050505050565b60606002805480602002602001604051908101604052809291908181526020016000905b82821015610ede57838290600052602060002090600a02016040518061016001604052908160008201805461194790613dfe565b80601f016020809104026020016040519081016040528092919081815260200182805461197390613dfe565b80156119c05780601f10611995576101008083540402835291602001916119c0565b820191906000526020600020905b8154815290600101906020018083116119a357829003601f168201915b505050505081526020016001820180546119d990613dfe565b80601f0160208091040260200160405190810160405280929190818152602001828054611a0590613dfe565b8015611a525780601f10611a2757610100808354040283529160200191611a52565b820191906000526020600020905b815481529060010190602001808311611a3557829003601f168201915b505050918352505060028201546001600160a01b03166020820152600382018054604090920191611a8290613dfe565b80601f0160208091040260200160405190810160405280929190818152602001828054611aae90613dfe565b8015611afb5780601f10611ad057610100808354040283529160200191611afb565b820191906000526020600020905b815481529060010190602001808311611ade57829003601f168201915b505050505081526020016004820154815260200160058201548152602001600682018054611b2890613dfe565b80601f0160208091040260200160405190810160405280929190818152602001828054611b5490613dfe565b8015611ba15780601f10611b7657610100808354040283529160200191611ba1565b820191906000526020600020905b815481529060010190602001808311611b8457829003601f168201915b50505050508152602001600782018054611bba90613dfe565b80601f0160208091040260200160405190810160405280929190818152602001828054611be690613dfe565b8015611c335780601f10611c0857610100808354040283529160200191611c33565b820191906000526020600020905b815481529060010190602001808311611c1657829003601f168201915b50505050508152602001600882018054611c4c90613dfe565b80601f0160208091040260200160405190810160405280929190818152602001828054611c7890613dfe565b8015611cc55780601f10611c9a57610100808354040283529160200191611cc5565b820191906000526020600020905b815481529060010190602001808311611ca857829003601f168201915b50505091835250506009919091015460ff80821615156020808501919091526101009092041615156040909201919091529082526001929092019101611913565b60005b6001548110156104145782604051602001611d249190613dcc565b6040516020818303038152906040528051906020012060018281548110611d4d57611d4d613de8565b9060005260206000209060080201600001604051602001611d6e9190613e32565b6040516020818303038152906040528051906020012003611e31576001808281548110611d9d57611d9d613de8565b906000526020600020906008020160070160006101000a81548160ff0219169083151502179055508160018281548110611dd957611dd9613de8565b90600052602060002090600802016006019081611df69190613ef8565b507f49ef88e64c9bb5e17ec530233b88888c9d8ce293ffb2664fb11a737640dfeac48383604051611e28929190613fb8565b60405180910390a15b600101611d09565b60606003805480602002602001604051908101604052809291908181526020016000905b82821015610ede57838290600052602060002090600d0201604051806101a0016040529081600082018054611e9190613dfe565b80601f0160208091040260200160405190810160405280929190818152602001828054611ebd90613dfe565b8015611f0a5780601f10611edf57610100808354040283529160200191611f0a565b820191906000526020600020905b815481529060010190602001808311611eed57829003601f168201915b50505050508152602001600182018054611f2390613dfe565b80601f0160208091040260200160405190810160405280929190818152602001828054611f4f90613dfe565b8015611f9c5780601f10611f7157610100808354040283529160200191611f9c565b820191906000526020600020905b815481529060010190602001808311611f7f57829003601f168201915b5050509183525050600282015460208201526003820154604082015260048201546001600160a01b03166060820152600582018054608090920191611fe090613dfe565b80601f016020809104026020016040519081016040528092919081815260200182805461200c90613dfe565b80156120595780601f1061202e57610100808354040283529160200191612059565b820191906000526020600020905b81548152906001019060200180831161203c57829003601f168201915b5050505050815260200160068201805461207290613dfe565b80601f016020809104026020016040519081016040528092919081815260200182805461209e90613dfe565b80156120eb5780601f106120c0576101008083540402835291602001916120eb565b820191906000526020600020905b8154815290600101906020018083116120ce57829003601f168201915b5050505050815260200160078201805461210490613dfe565b80601f016020809104026020016040519081016040528092919081815260200182805461213090613dfe565b801561217d5780601f106121525761010080835404028352916020019161217d565b820191906000526020600020905b81548152906001019060200180831161216057829003601f168201915b5050505050815260200160088201805461219690613dfe565b80601f01602080910402602001604051908101604052809291908181526020018280546121c290613dfe565b801561220f5780601f106121e45761010080835404028352916020019161220f565b820191906000526020600020905b8154815290600101906020018083116121f257829003601f168201915b5050505050815260200160098201805461222890613dfe565b80601f016020809104026020016040519081016040528092919081815260200182805461225490613dfe565b80156122a15780601f10612276576101008083540402835291602001916122a1565b820191906000526020600020905b81548152906001019060200180831161228457829003601f168201915b50505050508152602001600a820180546122ba90613dfe565b80601f01602080910402602001604051908101604052809291908181526020018280546122e690613dfe565b80156123335780601f1061230857610100808354040283529160200191612333565b820191906000526020600020905b81548152906001019060200180831161231657829003601f168201915b50505050508152602001600b8201805461234c90613dfe565b80601f016020809104026020016040519081016040528092919081815260200182805461237890613dfe565b80156123c55780601f1061239a576101008083540402835291602001916123c5565b820191906000526020600020905b8154815290600101906020018083116123a857829003601f168201915b5050509183525050600c919091015460ff1615156020918201529082526001929092019101611e5d565b60005b600254811015612cdc578260405160200161240d9190613dcc565b604051602081830303815290604052805190602001206002828154811061243657612436613de8565b90600052602060002090600a02016000016040516020016124579190613e32565b6040516020818303038152906040528051906020012003612cd45760016002828154811061248757612487613de8565b90600052602060002090600a020160090160006101000a81548160ff02191690831515021790555081600282815481106124c3576124c3613de8565b90600052602060002090600a020160080190816124e09190613ef8565b5060608060608060005b6000548110156126d557876040516020016125059190613dcc565b604051602081830303815290604052805190602001206000828154811061252e5761252e613de8565b90600052602060002090600b020160000160405160200161254f9190613e32565b60405160208183030381529060405280519060200120036126cd576000818154811061257d5761257d613de8565b90600052602060002090600b0201600801805461259990613dfe565b80601f01602080910402602001604051908101604052809291908181526020018280546125c590613dfe565b80156126125780601f106125e757610100808354040283529160200191612612565b820191906000526020600020905b8154815290600101906020018083116125f557829003601f168201915b505050505094506000818154811061262c5761262c613de8565b90600052602060002090600b0201600901805461264890613dfe565b80601f016020809104026020016040519081016040528092919081815260200182805461267490613dfe565b80156126c15780601f10612696576101008083540402835291602001916126c1565b820191906000526020600020905b8154815290600101906020018083116126a457829003601f168201915b505050505093506126d5565b6001016124ea565b5060005b6001548110156128c457876040516020016126f49190613dcc565b604051602081830303815290604052805190602001206001828154811061271d5761271d613de8565b906000526020600020906008020160000160405160200161273e9190613e32565b60405160208183030381529060405280519060200120036128bc576001818154811061276c5761276c613de8565b9060005260206000209060080201600501805461278890613dfe565b80601f01602080910402602001604051908101604052809291908181526020018280546127b490613dfe565b80156128015780601f106127d657610100808354040283529160200191612801565b820191906000526020600020905b8154815290600101906020018083116127e457829003601f168201915b505050505092506001818154811061281b5761281b613de8565b9060005260206000209060080201600601805461283790613dfe565b80601f016020809104026020016040519081016040528092919081815260200182805461286390613dfe565b80156128b05780601f10612885576101008083540402835291602001916128b0565b820191906000526020600020905b81548152906001019060200180831161289357829003601f168201915b505050505091506128c4565b6001016126d9565b506003604051806101a00160405280898152602001600288815481106128ec576128ec613de8565b90600052602060002090600a0201600101805461290890613dfe565b80601f016020809104026020016040519081016040528092919081815260200182805461293490613dfe565b80156129815780601f1061295657610100808354040283529160200191612981565b820191906000526020600020905b81548152906001019060200180831161296457829003601f168201915b505050505081526020016002888154811061299e5761299e613de8565b90600052602060002090600a0201600501548152602001600288815481106129c8576129c8613de8565b90600052602060002090600a0201600401548152602001600288815481106129f2576129f2613de8565b60009182526020918290206002600a909202018101546001600160a01b031683528054929091019189908110612a2a57612a2a613de8565b90600052602060002090600a02016006018054612a4690613dfe565b80601f0160208091040260200160405190810160405280929190818152602001828054612a7290613dfe565b8015612abf5780601f10612a9457610100808354040283529160200191612abf565b820191906000526020600020905b815481529060010190602001808311612aa257829003601f168201915b5050505050815260200186815260200185815260200184815260200183815260200160028881548110612af457612af4613de8565b90600052602060002090600a02016007018054612b1090613dfe565b80601f0160208091040260200160405190810160405280929190818152602001828054612b3c90613dfe565b8015612b895780601f10612b5e57610100808354040283529160200191612b89565b820191906000526020600020905b815481529060010190602001808311612b6c57829003601f168201915b505050918352505060208082018a90526001604090920182905283549182018455600093845290922081519192600d0201908190612bc79082613ef8565b5060208201516001820190612bdc9082613ef8565b50604082015160028201556060820151600382015560808201516004820180546001600160a01b0319166001600160a01b0390921691909117905560a08201516005820190612c2b9082613ef8565b5060c08201516006820190612c409082613ef8565b5060e08201516007820190612c559082613ef8565b506101008201516008820190612c6b9082613ef8565b506101208201516009820190612c819082613ef8565b50610140820151600a820190612c979082613ef8565b50610160820151600b820190612cad9082613ef8565b506101809190910151600c909101805460ff191691151591909117905550612cdc92505050565b6001016123f2565b507fe9559372e94b2b22e5e21e376c38890b4a09b55e3f9ec539d8f7cadcc9cbc8208282604051612d0e929190613fb8565b60405180910390a15050565b60005b6002548110156104145782604051602001612d389190613dcc565b6040516020818303038152906040528051906020012060028281548110612d6157612d61613de8565b90600052602060002090600a0201600001604051602001612d829190613e32565b6040516020818303038152906040528051906020012003612e8757600160028281548110612db257612db2613de8565b90600052602060002090600a020160090160016101000a81548160ff021916908315150217905550600060028281548110612def57612def613de8565b90600052602060002090600a020160090160006101000a81548160ff0219169083151502179055508160028281548110612e2b57612e2b613de8565b90600052602060002090600a02016008019081612e489190613ef8565b507fe9559372e94b2b22e5e21e376c38890b4a09b55e3f9ec539d8f7cadcc9cbc8208383604051612e7a929190613fb8565b60405180910390a1505050565b600101612d1d565b6000612e9a87613199565b6040805161016081018252898152602081018390523391810191909152606081018890526080810187905260a0810186905260c0810185905260e08101849052610100810184905260006101208201819052610140820181905260028054600181018255915281519293509091600a9091027f405787fa12a823e0f2b7631cc41b3ba8828b3321ca811111fa75cd3aa3bb5ace01908190612f3b9082613ef8565b5060208201516001820190612f509082613ef8565b5060408201516002820180546001600160a01b0319166001600160a01b0390921691909117905560608201516003820190612f8b9082613ef8565b506080820151600482015560a0820151600582015560c08201516006820190612fb49082613ef8565b5060e08201516007820190612fc99082613ef8565b506101008201516008820190612fdf9082613ef8565b50610120820151600990910180546101409093015115156101000261ff00199215159290921661ffff19909316929092171790556040517f25d5da85cc9e1f77869a9bc4ca302d848c629ef13d63173abe5838b2989f07fd9061304d90899089908990899089908990614094565b60405180910390a150505050505050565b600080546060919067ffffffffffffffff81111561307e5761307e613328565b6040519080825280602002602001820160405280156130b157816020015b606081526020019060019003908161309c5790505b50905060005b60005481101561319357600081815481106130d4576130d4613de8565b90600052602060002090600b020160000180546130f090613dfe565b80601f016020809104026020016040519081016040528092919081815260200182805461311c90613dfe565b80156131695780601f1061313e57610100808354040283529160200191613169565b820191906000526020600020905b81548152906001019060200180831161314c57829003601f168201915b505050505082828151811061318057613180613de8565b60209081029190910101526001016130b7565b50919050565b606060005b6000548110156132db57826040516020016131b99190613dcc565b60405160208183030381529060405280519060200120600082815481106131e2576131e2613de8565b90600052602060002090600b02016000016040516020016132039190613e32565b60405160208183030381529060405280519060200120036132d3576000818154811061323157613231613de8565b90600052602060002090600b0201600101805461324d90613dfe565b80601f016020809104026020016040519081016040528092919081815260200182805461327990613dfe565b80156132c65780601f1061329b576101008083540402835291602001916132c6565b820191906000526020600020905b8154815290600101906020018083116132a957829003601f168201915b5050505050915050919050565b60010161319e565b5060405162461bcd60e51b815260206004820152601c60248201527f43726f70207769746820676976656e206964206e6f7420666f756e6400000000604482015260640160405180910390fd5b634e487b7160e01b600052604160045260246000fd5b600082601f83011261334f57600080fd5b813567ffffffffffffffff8082111561336a5761336a613328565b604051601f8301601f19908116603f0116810190828211818310171561339257613392613328565b816040528381528660208588010111156133ab57600080fd5b836020870160208301376000602085830101528094505050505092915050565b600080604083850312156133de57600080fd5b823567ffffffffffffffff808211156133f657600080fd5b6134028683870161333e565b9350602085013591508082111561341857600080fd5b506134258582860161333e565b9150509250929050565b80356001600160a01b038116811461344657600080fd5b919050565b6000806040838503121561345e57600080fd5b6134678361342f565b9150602083013567ffffffffffffffff81111561348357600080fd5b6134258582860161333e565b600080602083850312156134a257600080fd5b823567ffffffffffffffff808211156134ba57600080fd5b818501915085601f8301126134ce57600080fd5b8135818111156134dd57600080fd5b8660208260051b85010111156134f257600080fd5b60209290920196919550909350505050565b600080600080600080600080610100898b03121561352157600080fd5b883567ffffffffffffffff8082111561353957600080fd5b6135458c838d0161333e565b995060208b013591508082111561355b57600080fd5b6135678c838d0161333e565b985060408b013591508082111561357d57600080fd5b6135898c838d0161333e565b975060608b013591508082111561359f57600080fd5b6135ab8c838d0161333e565b965060808b01359150808211156135c157600080fd5b6135cd8c838d0161333e565b955060a08b01359150808211156135e357600080fd5b6135ef8c838d0161333e565b945060c08b0135935060e08b013591508082111561360c57600080fd5b506136198b828c0161333e565b9150509295985092959890939650565b60005b8381101561364457818101518382015260200161362c565b50506000910152565b60008151808452613665816020860160208601613629565b601f01601f19169290920160200192915050565b600060208083018184528085518083526040925060408601915060408160051b87010184880160005b838110156137e357603f19898403018552815161018081518186526136c98287018261364d565b915050888201518582038a8701526136e1828261364d565b915050878201516136fc898701826001600160a01b03169052565b5060608083015186830382880152613714838261364d565b925050506080808301518683038288015261372f838261364d565b9250505060a0808301518683038288015261374a838261364d565b9250505060c08083015186830382880152613765838261364d565b9250505060e0808301518187015250610100808301518683038288015261378c838261364d565b9250505061012080830151868303828801526137a8838261364d565b92505050610140808301516137c08288018215159052565b5050610160918201511515949091019390935293860193908601906001016136a2565b509098975050505050505050565b600060208083018184528085518083526040925060408601915060408160051b87010184880160005b838110156137e357603f19898403018552815161012081518186526138418287018261364d565b915050888201518582038a870152613859828261364d565b91505087820151613874898701826001600160a01b03169052565b506060808301518683038288015261388c838261364d565b92505050608080830151868303828801526138a7838261364d565b9250505060a080830151868303828801526138c2838261364d565b9250505060c080830151868303828801526138dd838261364d565b9250505060e0808301516138f48288018215159052565b50506101009182015115159490910193909352938601939086019060010161381a565b60006020828403121561392957600080fd5b6139328261342f565b9392505050565b6000806000806080858703121561394f57600080fd5b843567ffffffffffffffff8082111561396757600080fd5b6139738883890161333e565b9550602087013591508082111561398957600080fd5b6139958883890161333e565b945060408701359150808211156139ab57600080fd5b6139b78883890161333e565b935060608701359150808211156139cd57600080fd5b506139da8782880161333e565b91505092959194509250565b600060208083018184528085518083526040925060408601915060408160051b87010184880160005b838110156137e357603f1989840301855281516101608151818652613a368287018261364d565b915050888201518582038a870152613a4e828261364d565b91505087820151613a69898701826001600160a01b03169052565b5060608083015186830382880152613a81838261364d565b92505050608080830151818701525060a080830151818701525060c08083015186830382880152613ab2838261364d565b9250505060e08083015186830382880152613acd838261364d565b925050506101008083015186830382880152613ae9838261364d565b9250505061012080830151613b018288018215159052565b505061014091820151151594909101939093529386019390860190600101613a0f565b600060208083018184528085518083526040925060408601915060408160051b87010184880160005b838110156137e357603f1989840301855281516101a08151818652613b748287018261364d565b915050888201518582038a870152613b8c828261364d565b91505087820151888601526060808301518187015250608080830151613bbc828801826001600160a01b03169052565b505060a08083015186830382880152613bd5838261364d565b9250505060c08083015186830382880152613bf0838261364d565b9250505060e08083015186830382880152613c0b838261364d565b925050506101008083015186830382880152613c27838261364d565b925050506101208083015186830382880152613c43838261364d565b925050506101408083015186830382880152613c5f838261364d565b925050506101608083015186830382880152613c7b838261364d565b92505050610180808301519250613c958187018415159052565b509588019593505090860190600101613b4d565b60008060008060008060c08789031215613cc257600080fd5b863567ffffffffffffffff80821115613cda57600080fd5b613ce68a838b0161333e565b97506020890135915080821115613cfc57600080fd5b613d088a838b0161333e565b965060408901359550606089013594506080890135915080821115613d2c57600080fd5b613d388a838b0161333e565b935060a0890135915080821115613d4e57600080fd5b50613d5b89828a0161333e565b9150509295509295509295565b600060208083016020845280855180835260408601915060408160051b87010192506020870160005b82811015613dbf57603f19888603018452613dad85835161364d565b94509285019290850190600101613d91565b5092979650505050505050565b60008251613dde818460208701613629565b9190910192915050565b634e487b7160e01b600052603260045260246000fd5b600181811c90821680613e1257607f821691505b60208210810361319357634e487b7160e01b600052602260045260246000fd5b6000808354613e4081613dfe565b60018281168015613e585760018114613e6d57613e9c565b60ff1984168752821515830287019450613e9c565b8760005260208060002060005b85811015613e935781548a820152908401908201613e7a565b50505082870194505b50929695505050505050565b601f821115610414576000816000526020600020601f850160051c81016020861015613ed15750805b601f850160051c820191505b81811015613ef057828155600101613edd565b505050505050565b815167ffffffffffffffff811115613f1257613f12613328565b613f2681613f208454613dfe565b84613ea8565b602080601f831160018114613f5b5760008415613f435750858301515b600019600386901b1c1916600185901b178555613ef0565b600085815260208120601f198616915b82811015613f8a57888601518255948401946001909101908401613f6b565b5085821015613fa85787850151600019600388901b60f8161c191681555b5050505050600190811b01905550565b604081526000613fcb604083018561364d565b8281036020840152613fdd818561364d565b95945050505050565b60008235603e19833603018112613dde57600080fd5b6000808335601e1984360301811261401357600080fd5b83018035915067ffffffffffffffff82111561402e57600080fd5b60200191503681900382131561404357600080fd5b9250929050565b8183823760009101908152919050565b8181038181111561407b57634e487b7160e01b600052601160045260246000fd5b92915050565b602081526000613932602083018461364d565b60c0815260006140a760c083018961364d565b82810360208401526140b9818961364d565b905086604084015285606084015282810360808401526140d9818661364d565b905082810360a08401526140ed818561364d565b999850505050505050505056fea2646970667358221220ce505c35989ff8d59a3d3b5ede9890e8cd445ab2fcaed555a388a1a3dadb898164736f6c63430008180033",
  "linkReferences": {},
  "deployedLinkReferences": {}
}