{
  "_format": "hh-sol-artifact-1",
  "contractName": "ProductManager",
  "sourceName": "contracts/ProductManager.sol",
  "abi": [
    {
      "anonymous": false,
      "inputs": [
        {
          "indexed": false,
          "internalType": "string",
          "name": "id",
          "type": "string"
        },
        {
          "indexed": false,
          "internalType": "string",
          "name": "time",
          "type": "string"
        }
      ],
      "name": "approveCertificateEvent",
      "type": "event"
    },
    {
      "anonymous": false,
      "inputs": [
        {
          "indexed": false,
          "internalType": "string",
          "name": "id",
          "type": "string"
        },
        {
          "indexed": false,
          "internalType": "string",
          "name": "time",
          "type": "string"
        }
      ],
      "name": "approveCropEvent",
      "type": "event"
    },
    {
      "anonymous": false,
      "inputs": [
        {
          "indexed": false,
          "internalType": "string",
          "name": "id",
          "type": "string"
        },
        {
          "indexed": false,
          "internalType": "string",
          "name": "time",
          "type": "string"
        }
      ],
      "name": "approveMidTermEvent",
      "type": "event"
    },
    {
      "anonymous": false,
      "inputs": [
        {
          "indexed": false,
          "internalType": "string",
          "name": "id",
          "type": "string"
        },
        {
          "indexed": false,
          "internalType": "string",
          "name": "cropName",
          "type": "string"
        },
        {
          "indexed": false,
          "internalType": "string",
          "name": "location",
          "type": "string"
        },
        {
          "indexed": false,
          "internalType": "string",
          "name": "acre",
          "type": "string"
        },
        {
          "indexed": false,
          "internalType": "uint256",
          "name": "months",
          "type": "uint256"
        },
        {
          "indexed": false,
          "internalType": "uint256",
          "name": "yieldperacre",
          "type": "uint256"
        },
        {
          "indexed": false,
          "internalType": "string",
          "name": "timeofApplied",
          "type": "string"
        }
      ],
      "name": "cropRegisterEvent",
      "type": "event"
    },
    {
      "anonymous": false,
      "inputs": [
        {
          "indexed": false,
          "internalType": "string",
          "name": "id",
          "type": "string"
        },
        {
          "indexed": false,
          "internalType": "string",
          "name": "progress",
          "type": "string"
        },
        {
          "indexed": false,
          "internalType": "uint256",
          "name": "months",
          "type": "uint256"
        },
        {
          "indexed": false,
          "internalType": "string",
          "name": "timeofApplied",
          "type": "string"
        }
      ],
      "name": "midTermRegisterEvent",
      "type": "event"
    },
    {
      "anonymous": false,
      "inputs": [],
      "name": "orderProductEvent",
      "type": "event"
    },
    {
      "anonymous": false,
      "inputs": [],
      "name": "productDeliveredEvent",
      "type": "event"
    },
    {
      "anonymous": false,
      "inputs": [
        {
          "indexed": false,
          "internalType": "string",
          "name": "id",
          "type": "string"
        },
        {
          "indexed": false,
          "internalType": "string",
          "name": "quality",
          "type": "string"
        },
        {
          "indexed": false,
          "internalType": "uint256",
          "name": "quantity",
          "type": "uint256"
        },
        {
          "indexed": false,
          "internalType": "string",
          "name": "category",
          "type": "string"
        },
        {
          "indexed": false,
          "internalType": "uint256",
          "name": "price",
          "type": "uint256"
        },
        {
          "indexed": false,
          "internalType": "string",
          "name": "description",
          "type": "string"
        },
        {
          "indexed": false,
          "internalType": "string",
          "name": "timeofApplied",
          "type": "string"
        }
      ],
      "name": "reqCertificateEvent",
      "type": "event"
    },
    {
      "inputs": [
        {
          "internalType": "string",
          "name": "id",
          "type": "string"
        },
        {
          "internalType": "string",
          "name": "time",
          "type": "string"
        }
      ],
      "name": "approveCertificate",
      "outputs": [],
      "stateMutability": "nonpayable",
      "type": "function"
    },
    {
      "inputs": [
        {
          "internalType": "string",
          "name": "id",
          "type": "string"
        },
        {
          "internalType": "string",
          "name": "time",
          "type": "string"
        }
      ],
      "name": "approveCrop",
      "outputs": [],
      "stateMutability": "nonpayable",
      "type": "function"
    },
    {
      "inputs": [
        {
          "internalType": "string",
          "name": "id",
          "type": "string"
        },
        {
          "internalType": "string",
          "name": "time",
          "type": "string"
        }
      ],
      "name": "approveMidTerm",
      "outputs": [],
      "stateMutability": "nonpayable",
      "type": "function"
    },
    {
      "inputs": [
        {
          "internalType": "string",
          "name": "id",
          "type": "string"
        },
        {
          "internalType": "string",
          "name": "cropName",
          "type": "string"
        },
        {
          "internalType": "string",
          "name": "location",
          "type": "string"
        },
        {
          "internalType": "string",
          "name": "acre",
          "type": "string"
        },
        {
          "internalType": "uint256",
          "name": "months",
          "type": "uint256"
        },
        {
          "internalType": "uint256",
          "name": "yieldperacre",
          "type": "uint256"
        },
        {
          "internalType": "string",
          "name": "timeofApplied",
          "type": "string"
        }
      ],
      "name": "cropRegister",
      "outputs": [],
      "stateMutability": "nonpayable",
      "type": "function"
    },
    {
      "inputs": [],
      "name": "fetchProduct",
      "outputs": [
        {
          "components": [
            {
              "internalType": "string",
              "name": "id",
              "type": "string"
            },
            {
              "internalType": "string",
              "name": "productName",
              "type": "string"
            },
            {
              "internalType": "string",
              "name": "category",
              "type": "string"
            },
            {
              "internalType": "uint256",
              "name": "price",
              "type": "uint256"
            },
            {
              "internalType": "uint256",
              "name": "quantity",
              "type": "uint256"
            },
            {
              "internalType": "address",
              "name": "ETHAddress",
              "type": "address"
            },
            {
              "internalType": "string",
              "name": "description",
              "type": "string"
            },
            {
              "internalType": "string",
              "name": "cropRegistered",
              "type": "string"
            },
            {
              "internalType": "string",
              "name": "cropApproved",
              "type": "string"
            },
            {
              "internalType": "string",
              "name": "midTermRegistered",
              "type": "string"
            },
            {
              "internalType": "string",
              "name": "midTermApproved",
              "type": "string"
            },
            {
              "internalType": "string",
              "name": "certRegistered",
              "type": "string"
            },
            {
              "internalType": "string",
              "name": "certApproved",
              "type": "string"
            }
          ],
          "internalType": "struct ProductManager.Product[]",
          "name": "",
          "type": "tuple[]"
        }
      ],
      "stateMutability": "view",
      "type": "function"
    },
    {
      "inputs": [],
      "name": "getAllCropIds",
      "outputs": [
        {
          "internalType": "string[]",
          "name": "",
          "type": "string[]"
        }
      ],
      "stateMutability": "view",
      "type": "function"
    },
    {
      "inputs": [],
      "name": "getAllOrderIds",
      "outputs": [
        {
          "internalType": "string[]",
          "name": "",
          "type": "string[]"
        }
      ],
      "stateMutability": "view",
      "type": "function"
    },
    {
      "inputs": [],
      "name": "getCertificate",
      "outputs": [
        {
          "components": [
            {
              "internalType": "string",
              "name": "id",
              "type": "string"
            },
            {
              "internalType": "string",
              "name": "cropName",
              "type": "string"
            },
            {
              "internalType": "address",
              "name": "ETHAddress",
              "type": "address"
            },
            {
              "internalType": "string",
              "name": "quality",
              "type": "string"
            },
            {
              "internalType": "uint256",
              "name": "quantity",
              "type": "uint256"
            },
            {
              "internalType": "string",
              "name": "category",
              "type": "string"
            },
            {
              "internalType": "uint256",
              "name": "price",
              "type": "uint256"
            },
            {
              "internalType": "string",
              "name": "description",
              "type": "string"
            },
            {
              "internalType": "string",
              "name": "timeofApplied",
              "type": "string"
            },
            {
              "internalType": "string",
              "name": "timeofVerified",
              "type": "string"
            },
            {
              "internalType": "bool",
              "name": "isApproved",
              "type": "bool"
            },
            {
              "internalType": "bool",
              "name": "isDisapproved",
              "type": "bool"
            }
          ],
          "internalType": "struct ProductManager.Certificate[]",
          "name": "",
          "type": "tuple[]"
        }
      ],
      "stateMutability": "view",
      "type": "function"
    },
    {
      "inputs": [],
      "name": "getCrops",
      "outputs": [
        {
          "components": [
            {
              "internalType": "string",
              "name": "id",
              "type": "string"
            },
            {
              "internalType": "string",
              "name": "cropName",
              "type": "string"
            },
            {
              "internalType": "address",
              "name": "ETHAddress",
              "type": "address"
            },
            {
              "internalType": "string",
              "name": "location",
              "type": "string"
            },
            {
              "internalType": "string",
              "name": "acre",
              "type": "string"
            },
            {
              "internalType": "uint256",
              "name": "months",
              "type": "uint256"
            },
            {
              "internalType": "uint256",
              "name": "yieldperacre",
              "type": "uint256"
            },
            {
              "internalType": "string",
              "name": "timeofApplied",
              "type": "string"
            },
            {
              "internalType": "string",
              "name": "timeofVerified",
              "type": "string"
            },
            {
              "internalType": "bool",
              "name": "isApproved",
              "type": "bool"
            },
            {
              "internalType": "bool",
              "name": "isDisapproved",
              "type": "bool"
            }
          ],
          "internalType": "struct CropManager.Crop[]",
          "name": "",
          "type": "tuple[]"
        }
      ],
      "stateMutability": "view",
      "type": "function"
    },
    {
      "inputs": [],
      "name": "getMidTerm",
      "outputs": [
        {
          "components": [
            {
              "internalType": "string",
              "name": "id",
              "type": "string"
            },
            {
              "internalType": "string",
              "name": "cropName",
              "type": "string"
            },
            {
              "internalType": "string",
              "name": "progress",
              "type": "string"
            },
            {
              "internalType": "uint256",
              "name": "months",
              "type": "uint256"
            },
            {
              "internalType": "string",
              "name": "timeofApplied",
              "type": "string"
            },
            {
              "internalType": "string",
              "name": "timeofVerified",
              "type": "string"
            },
            {
              "internalType": "bool",
              "name": "isApproved",
              "type": "bool"
            },
            {
              "internalType": "bool",
              "name": "isDisapproved",
              "type": "bool"
            }
          ],
          "internalType": "struct CropManager.MidTerm[]",
          "name": "",
          "type": "tuple[]"
        }
      ],
      "stateMutability": "view",
      "type": "function"
    },
    {
      "inputs": [
        {
          "internalType": "string",
          "name": "id",
          "type": "string"
        },
        {
          "internalType": "string",
          "name": "progress",
          "type": "string"
        },
        {
          "internalType": "uint256",
          "name": "months",
          "type": "uint256"
        },
        {
          "internalType": "string",
          "name": "timeofApplied",
          "type": "string"
        }
      ],
      "name": "midTermRegister",
      "outputs": [],
      "stateMutability": "nonpayable",
      "type": "function"
    },
    {
      "inputs": [
        {
          "internalType": "string",
          "name": "pid",
          "type": "string"
        },
        {
          "internalType": "address",
          "name": "seller",
          "type": "address"
        },
        {
          "internalType": "string",
          "name": "time",
          "type": "string"
        },
        {
          "internalType": "uint256",
          "name": "quantity",
          "type": "uint256"
        },
        {
          "internalType": "string",
          "name": "oid",
          "type": "string"
        }
      ],
      "name": "orderProduct",
      "outputs": [],
      "stateMutability": "payable",
      "type": "function"
    },
    {
      "inputs": [
        {
          "internalType": "address",
          "name": "customer",
          "type": "address"
        },
        {
          "internalType": "string",
          "name": "pid",
          "type": "string"
        },
        {
          "internalType": "string",
          "name": "oid",
          "type": "string"
        },
        {
          "internalType": "string",
          "name": "time",
          "type": "string"
        }
      ],
      "name": "productDelivered",
      "outputs": [],
      "stateMutability": "nonpayable",
      "type": "function"
    },
    {
      "inputs": [
        {
          "internalType": "string",
          "name": "id",
          "type": "string"
        },
        {
          "internalType": "string",
          "name": "quality",
          "type": "string"
        },
        {
          "internalType": "uint256",
          "name": "quantity",
          "type": "uint256"
        },
        {
          "internalType": "string",
          "name": "category",
          "type": "string"
        },
        {
          "internalType": "uint256",
          "name": "price",
          "type": "uint256"
        },
        {
          "internalType": "string",
          "name": "description",
          "type": "string"
        },
        {
          "internalType": "string",
          "name": "timeofApplied",
          "type": "string"
        }
      ],
      "name": "reqCertificate",
      "outputs": [],
      "stateMutability": "nonpayable",
      "type": "function"
    }
  ],
  "bytecode": "0x608060405234801561001057600080fd5b50614648806100206000396000f3fe6080604052600436106100dd5760003560e01c8063ae15eb8e1161007f578063e0710e2411610059578063e0710e2414610237578063e07bb0b51461024a578063e1a6669a1461026a578063f53a75031461028a57600080fd5b8063ae15eb8e146101d3578063c851c62f146101f5578063dbf9dcf11461021557600080fd5b80635f073f3a116100bb5780635f073f3a1461014f5780637c77c16d146101715780637e3486051461019357806383f101b2146101b357600080fd5b80630c2b4a09146100e25780632df6a4ed146101045780634b2b612a14610124575b600080fd5b3480156100ee57600080fd5b506101026100fd3660046138b5565b61029f565b005b34801561011057600080fd5b5061010261011f3660046139b6565b6107ee565b34801561013057600080fd5b506101396109b4565b6040516101469190613a9f565b60405180910390f35b34801561015b57600080fd5b50610164610b1f565b6040516101469190613b03565b34801561017d57600080fd5b50610186610f3f565b6040516101469190613c4f565b34801561019f57600080fd5b506101026101ae366004613d48565b6112a3565b3480156101bf57600080fd5b506101026101ce366004613dac565b6114eb565b3480156101df57600080fd5b506101e861191a565b6040516101469190613e25565b34801561020157600080fd5b50610102610210366004613d48565b611dc3565b34801561022157600080fd5b5061022a612003565b6040516101469190613f7f565b610102610245366004614100565b612639565b34801561025657600080fd5b506101026102653660046141a3565b6128b5565b34801561027657600080fd5b50610102610285366004613d48565b612a75565b34801561029657600080fd5b50610139613552565b8660008060008060005b60005481101561037a57856040516020016102c4919061426c565b60405160208183030381529060405280519060200120600082815481106102ed576102ed614288565b90600052602060002090600a020160000160405160200161030e91906142d2565b604051602081830303815290604052805190602001200361032e57600194505b336001600160a01b03166000828154811061034b5761034b614288565b600091825260209091206002600a9092020101546001600160a01b03160361037257600193505b6001016102a9565b5060005b60015481101561043a5785604051602001610399919061426c565b60405160208183030381529060405280519060200120600182815481106103c2576103c2614288565b90600052602060002090600702016000016040516020016103e391906142d2565b6040516020818303038152906040528051906020012003610432576001818154811061041157610411614288565b600091825260209091206006600790920201015460ff161561043257600192505b60010161037e565b5060005b6002548110156104fa5785604051602001610459919061426c565b604051602081830303815290604052805190602001206002828154811061048257610482614288565b90600052602060002090600b02016000016040516020016104a391906142d2565b60405160208183030381529060405280519060200120036104f257600281815481106104d1576104d1614288565b60009182526020909120600a600b90920201015460ff16156104f257600191505b60010161043e565b50836105415760405162461bcd60e51b815260206004820152601160248201527010dc9bdc081251081b9bdd08199bdd5b99607a1b60448201526064015b60405180910390fd5b8261055e5760405162461bcd60e51b815260040161053890614348565b816105ab5760405162461bcd60e51b815260206004820152601760248201527f4d69645465726d206973206e6f7420617070726f7665640000000000000000006044820152606401610538565b80156105f95760405162461bcd60e51b815260206004820152601f60248201527f436572746966696361746520697320616c726561647920617070726f766564006044820152606401610538565b60006106048d613687565b60408051610180810182528f8152602081018390523391810191909152606081018e9052608081018d905260a081018c905260c081018b905260e081018a90526101008101899052610120810189905260006101408201819052610160820181905260028054600181018255915281519293509091600b9091027f405787fa12a823e0f2b7631cc41b3ba8828b3321ca811111fa75cd3aa3bb5ace019081906106ad90826143dc565b50602082015160018201906106c290826143dc565b5060408201516002820180546001600160a01b0319166001600160a01b03909216919091179055606082015160038201906106fd90826143dc565b506080820151600482015560a0820151600582019061071c90826143dc565b5060c0820151600682015560e0820151600782019061073b90826143dc565b50610100820151600882019061075190826143dc565b50610120820151600982019061076790826143dc565b50610140820151600a90910180546101609093015115156101000261ff00199215159290921661ffff19909316929092171790556040517fddb2c9d33a22403118552386f61b9c3db64d66f0b3a3e5832c0ace45a2189743906107d7908f908f908f908f908f908f908f9061449c565b60405180910390a150505050505050505050505050565b6001600160a01b0384166000908152600460205260408120600101905b81548110156109835784604051602001610825919061426c565b6040516020818303038152906040528051906020012082828154811061084d5761084d614288565b906000526020600020906008020160010160405160200161086e91906142d2565b604051602081830303815290604052805190602001201480156108fe57508360405160200161089d919061426c565b604051602081830303815290604052805190602001208282815481106108c5576108c5614288565b90600052602060002090600802016002016040516020016108e691906142d2565b60405160208183030381529060405280519060200120145b1561097b57600182828154811061091757610917614288565b60009182526020909120600890910201805460ff19166001838181111561094057610940614517565b02179055508282828154811061095857610958614288565b9060005260206000209060080201600601908161097591906143dc565b50610983565b60010161080b565b506040517f74cd5e7dfebb0156a786c55b52978ae798c1c2003fdd43701e11ea011d8c56cf90600090a15050505050565b336000908152600460205260408120600101546060919067ffffffffffffffff8111156109e3576109e3613812565b604051908082528060200260200182016040528015610a1657816020015b6060815260200190600190039081610a015790505b50905060005b33600090815260046020526040902060010154811015610b1957336000908152600460205260409020600101805482908110610a5a57610a5a614288565b90600052602060002090600802016002018054610a769061429e565b80601f0160208091040260200160405190810160405280929190818152602001828054610aa29061429e565b8015610aef5780601f10610ac457610100808354040283529160200191610aef565b820191906000526020600020905b815481529060010190602001808311610ad257829003601f168201915b5050505050828281518110610b0657610b06614288565b6020908102919091010152600101610a1c565b50919050565b60606000805480602002602001604051908101604052809291908181526020016000905b82821015610f3657838290600052602060002090600a020160405180610160016040529081600082018054610b779061429e565b80601f0160208091040260200160405190810160405280929190818152602001828054610ba39061429e565b8015610bf05780601f10610bc557610100808354040283529160200191610bf0565b820191906000526020600020905b815481529060010190602001808311610bd357829003601f168201915b50505050508152602001600182018054610c099061429e565b80601f0160208091040260200160405190810160405280929190818152602001828054610c359061429e565b8015610c825780601f10610c5757610100808354040283529160200191610c82565b820191906000526020600020905b815481529060010190602001808311610c6557829003601f168201915b505050918352505060028201546001600160a01b03166020820152600382018054604090920191610cb29061429e565b80601f0160208091040260200160405190810160405280929190818152602001828054610cde9061429e565b8015610d2b5780601f10610d0057610100808354040283529160200191610d2b565b820191906000526020600020905b815481529060010190602001808311610d0e57829003601f168201915b50505050508152602001600482018054610d449061429e565b80601f0160208091040260200160405190810160405280929190818152602001828054610d709061429e565b8015610dbd5780601f10610d9257610100808354040283529160200191610dbd565b820191906000526020600020905b815481529060010190602001808311610da057829003601f168201915b505050505081526020016005820154815260200160068201548152602001600782018054610dea9061429e565b80601f0160208091040260200160405190810160405280929190818152602001828054610e169061429e565b8015610e635780601f10610e3857610100808354040283529160200191610e63565b820191906000526020600020905b815481529060010190602001808311610e4657829003601f168201915b50505050508152602001600882018054610e7c9061429e565b80601f0160208091040260200160405190810160405280929190818152602001828054610ea89061429e565b8015610ef55780601f10610eca57610100808354040283529160200191610ef5565b820191906000526020600020905b815481529060010190602001808311610ed857829003601f168201915b50505091835250506009919091015460ff80821615156020808501919091526101009092041615156040909201919091529082526001929092019101610b43565b50505050905090565b60606001805480602002602001604051908101604052809291908181526020016000905b82821015610f36578382906000526020600020906007020160405180610100016040529081600082018054610f979061429e565b80601f0160208091040260200160405190810160405280929190818152602001828054610fc39061429e565b80156110105780601f10610fe557610100808354040283529160200191611010565b820191906000526020600020905b815481529060010190602001808311610ff357829003601f168201915b505050505081526020016001820180546110299061429e565b80601f01602080910402602001604051908101604052809291908181526020018280546110559061429e565b80156110a25780601f10611077576101008083540402835291602001916110a2565b820191906000526020600020905b81548152906001019060200180831161108557829003601f168201915b505050505081526020016002820180546110bb9061429e565b80601f01602080910402602001604051908101604052809291908181526020018280546110e79061429e565b80156111345780601f1061110957610100808354040283529160200191611134565b820191906000526020600020905b81548152906001019060200180831161111757829003601f168201915b50505050508152602001600382015481526020016004820180546111579061429e565b80601f01602080910402602001604051908101604052809291908181526020018280546111839061429e565b80156111d05780601f106111a5576101008083540402835291602001916111d0565b820191906000526020600020905b8154815290600101906020018083116111b357829003601f168201915b505050505081526020016005820180546111e99061429e565b80601f01602080910402602001604051908101604052809291908181526020018280546112159061429e565b80156112625780601f1061123757610100808354040283529160200191611262565b820191906000526020600020905b81548152906001019060200180831161124557829003601f168201915b50505091835250506006919091015460ff80821615156020808501919091526101009092041615156040909201919091529082526001929092019101610f63565b816000805b60005481101561136157826040516020016112c3919061426c565b60405160208183030381529060405280519060200120600082815481106112ec576112ec614288565b90600052602060002090600a020160000160405160200161130d91906142d2565b6040516020818303038152906040528051906020012003611359576000818154811061133b5761133b614288565b600091825260209091206009600a90920201015460ff169150611361565b6001016112a8565b5080156113b05760405162461bcd60e51b815260206004820152601860248201527f43726f7020697320616c726561647920617070726f76656400000000000000006044820152606401610538565b60005b6000548110156114e457846040516020016113ce919061426c565b60405160208183030381529060405280519060200120600082815481106113f7576113f7614288565b90600052602060002090600a020160000160405160200161141891906142d2565b60405160208183030381529060405280519060200120036114dc5760016000828154811061144857611448614288565b90600052602060002090600a020160090160006101000a81548160ff021916908315150217905550836000828154811061148457611484614288565b90600052602060002090600a020160080190816114a191906143dc565b507f7d8a46572949673dbecd78e7e8212fc91cad672dcafd6b90292bc1940ff542bc85856040516114d392919061452d565b60405180910390a15b6001016113b3565b5050505050565b8360008060008060005b6000548110156116be5785604051602001611510919061426c565b604051602081830303815290604052805190602001206000828154811061153957611539614288565b90600052602060002090600a020160000160405160200161155a91906142d2565b60405160208183030381529060405280519060200120036116b657600194506000818154811061158c5761158c614288565b600091825260209091206009600a90920201015460ff161561166d576001925060005b60015481101561166b57866040516020016115ca919061426c565b60405160208183030381529060405280519060200120600182815481106115f3576115f3614288565b906000526020600020906007020160000160405160200161161491906142d2565b6040516020818303038152906040528051906020012003611663576001818154811061164257611642614288565b600091825260209091206006600790920201015460ff161561166357600192505b6001016115af565b505b336001600160a01b03166000828154811061168a5761168a614288565b600091825260209091206002600a9092020101546001600160a01b0316036116b157600193505b6116be565b6001016114f5565b50836117005760405162461bcd60e51b815260206004820152601160248201527010dc9bdc081251081b9bdd08199bdd5b99607a1b6044820152606401610538565b8261171d5760405162461bcd60e51b815260040161053890614348565b816117615760405162461bcd60e51b815260206004820152601460248201527310dc9bdc081a5cc81b9bdd08185c1c1c9bdd995960621b6044820152606401610538565b80156117af5760405162461bcd60e51b815260206004820152601b60248201527f4d69647465726d20697320616c726561647920617070726f76656400000000006044820152606401610538565b60006117ba8a613687565b60408051610100810182528c8152602081018390529081018b9052606081018a90526080810189905260a08101899052600060c0820181905260e0820181905260018054808201825591528151929350909160079091027fb10e2d527612073b26eecdfd717e6a320cf44b4afac2b0732d9fcbe2b7fa0cf60190819061184090826143dc565b506020820151600182019061185590826143dc565b506040820151600282019061186a90826143dc565b50606082015160038201556080820151600482019061188990826143dc565b5060a0820151600582019061189e90826143dc565b5060c08201516006909101805460e09093015115156101000261ff00199215159290921661ffff19909316929092171790556040517f1c3c24898f0d1f35a0a4bf854529b7cddc4a9d7bdaac168098c029a36c8b360590611906908c908c908c908c9061455b565b60405180910390a150505050505050505050565b60606002805480602002602001604051908101604052809291908181526020016000905b82821015610f3657838290600052602060002090600b0201604051806101800160405290816000820180546119729061429e565b80601f016020809104026020016040519081016040528092919081815260200182805461199e9061429e565b80156119eb5780601f106119c0576101008083540402835291602001916119eb565b820191906000526020600020905b8154815290600101906020018083116119ce57829003601f168201915b50505050508152602001600182018054611a049061429e565b80601f0160208091040260200160405190810160405280929190818152602001828054611a309061429e565b8015611a7d5780601f10611a5257610100808354040283529160200191611a7d565b820191906000526020600020905b815481529060010190602001808311611a6057829003601f168201915b505050918352505060028201546001600160a01b03166020820152600382018054604090920191611aad9061429e565b80601f0160208091040260200160405190810160405280929190818152602001828054611ad99061429e565b8015611b265780601f10611afb57610100808354040283529160200191611b26565b820191906000526020600020905b815481529060010190602001808311611b0957829003601f168201915b5050505050815260200160048201548152602001600582018054611b499061429e565b80601f0160208091040260200160405190810160405280929190818152602001828054611b759061429e565b8015611bc25780601f10611b9757610100808354040283529160200191611bc2565b820191906000526020600020905b815481529060010190602001808311611ba557829003601f168201915b5050505050815260200160068201548152602001600782018054611be59061429e565b80601f0160208091040260200160405190810160405280929190818152602001828054611c119061429e565b8015611c5e5780601f10611c3357610100808354040283529160200191611c5e565b820191906000526020600020905b815481529060010190602001808311611c4157829003601f168201915b50505050508152602001600882018054611c779061429e565b80601f0160208091040260200160405190810160405280929190818152602001828054611ca39061429e565b8015611cf05780601f10611cc557610100808354040283529160200191611cf0565b820191906000526020600020905b815481529060010190602001808311611cd357829003601f168201915b50505050508152602001600982018054611d099061429e565b80601f0160208091040260200160405190810160405280929190818152602001828054611d359061429e565b8015611d825780601f10611d5757610100808354040283529160200191611d82565b820191906000526020600020905b815481529060010190602001808311611d6557829003601f168201915b5050509183525050600a919091015460ff8082161515602080850191909152610100909204161515604090920191909152908252600192909201910161193e565b816000805b600154811015611e815782604051602001611de3919061426c565b6040516020818303038152906040528051906020012060018281548110611e0c57611e0c614288565b9060005260206000209060070201600001604051602001611e2d91906142d2565b6040516020818303038152906040528051906020012003611e795760018181548110611e5b57611e5b614288565b600091825260209091206006600790920201015460ff169150611e81565b600101611dc8565b508015611ed05760405162461bcd60e51b815260206004820152601b60248201527f4d69645465726d20697320616c726561647920617070726f76656400000000006044820152606401610538565b60005b6001548110156114e45784604051602001611eee919061426c565b6040516020818303038152906040528051906020012060018281548110611f1757611f17614288565b9060005260206000209060070201600001604051602001611f3891906142d2565b6040516020818303038152906040528051906020012003611ffb576001808281548110611f6757611f67614288565b906000526020600020906007020160060160006101000a81548160ff0219169083151502179055508360018281548110611fa357611fa3614288565b90600052602060002090600702016005019081611fc091906143dc565b507f6bcc96769d450787abe84c5e24852350d0228ef324aeba3962acb7eba900aec78585604051611ff292919061452d565b60405180910390a15b600101611ed3565b60606003805480602002602001604051908101604052809291908181526020016000905b82821015610f3657838290600052602060002090600d0201604051806101a001604052908160008201805461205b9061429e565b80601f01602080910402602001604051908101604052809291908181526020018280546120879061429e565b80156120d45780601f106120a9576101008083540402835291602001916120d4565b820191906000526020600020905b8154815290600101906020018083116120b757829003601f168201915b505050505081526020016001820180546120ed9061429e565b80601f01602080910402602001604051908101604052809291908181526020018280546121199061429e565b80156121665780601f1061213b57610100808354040283529160200191612166565b820191906000526020600020905b81548152906001019060200180831161214957829003601f168201915b5050505050815260200160028201805461217f9061429e565b80601f01602080910402602001604051908101604052809291908181526020018280546121ab9061429e565b80156121f85780601f106121cd576101008083540402835291602001916121f8565b820191906000526020600020905b8154815290600101906020018083116121db57829003601f168201915b5050509183525050600382015460208201526004820154604082015260058201546001600160a01b0316606082015260068201805460809092019161223c9061429e565b80601f01602080910402602001604051908101604052809291908181526020018280546122689061429e565b80156122b55780601f1061228a576101008083540402835291602001916122b5565b820191906000526020600020905b81548152906001019060200180831161229857829003601f168201915b505050505081526020016007820180546122ce9061429e565b80601f01602080910402602001604051908101604052809291908181526020018280546122fa9061429e565b80156123475780601f1061231c57610100808354040283529160200191612347565b820191906000526020600020905b81548152906001019060200180831161232a57829003601f168201915b505050505081526020016008820180546123609061429e565b80601f016020809104026020016040519081016040528092919081815260200182805461238c9061429e565b80156123d95780601f106123ae576101008083540402835291602001916123d9565b820191906000526020600020905b8154815290600101906020018083116123bc57829003601f168201915b505050505081526020016009820180546123f29061429e565b80601f016020809104026020016040519081016040528092919081815260200182805461241e9061429e565b801561246b5780601f106124405761010080835404028352916020019161246b565b820191906000526020600020905b81548152906001019060200180831161244e57829003601f168201915b50505050508152602001600a820180546124849061429e565b80601f01602080910402602001604051908101604052809291908181526020018280546124b09061429e565b80156124fd5780601f106124d2576101008083540402835291602001916124fd565b820191906000526020600020905b8154815290600101906020018083116124e057829003601f168201915b50505050508152602001600b820180546125169061429e565b80601f01602080910402602001604051908101604052809291908181526020018280546125429061429e565b801561258f5780601f106125645761010080835404028352916020019161258f565b820191906000526020600020905b81548152906001019060200180831161257257829003601f168201915b50505050508152602001600c820180546125a89061429e565b80601f01602080910402602001604051908101604052809291908181526020018280546125d49061429e565b80156126215780601f106125f657610100808354040283529160200191612621565b820191906000526020600020905b81548152906001019060200180831161260457829003601f168201915b50505050508152505081526020019060010190612027565b6000805b6003548110156126ed5786604051602001612658919061426c565b604051602081830303815290604052805190602001206003828154811061268157612681614288565b90600052602060002090600d02016000016040516020016126a291906142d2565b60405160208183030381529060405280519060200120036126e557600381815481106126d0576126d0614288565b90600052602060002090600d02016003015491505b60010161263d565b5080341461272e5760405162461bcd60e51b815260206004820152600e60248201526d141056535153950811905253115160921b6044820152606401610538565b6040805161010081018252600080825260208083018a9052828401869052606083018590526080830187905260a0830188905260c083018890526001600160a01b03891660e08401523382526004815292812060019081018054808301825590835293909120825160089094020180549293849391929091839160ff199091169083818111156127c0576127c0614517565b0217905550602082015160018201906127d990826143dc565b50604082015160028201906127ee90826143dc565b50606082015160038201556080820151600482015560a0820151600582019061281790826143dc565b5060c0820151600682019061282c90826143dc565b5060e09190910151600790910180546001600160a01b0319166001600160a01b03928316179055604051908716906108fc8415029084906000818181858888f19350505050158015612882573d6000803e3d6000fd5b506040517f7bab8ad11f8ad37ca148565c8640766d077c4ce878bcbfab5cfc8f5c01721d1e90600090a150505050505050565b6040805161016081018252888152602081018890523391810191909152606081018690526080810185905260a0810184905260c0810183905260e08101829052610100810182905260006101208201819052610140820181905280546001810182559080528151600a9091027f290decd9548b62a8d60345a988386fc84ba6bc95484008f6362f93160ef3e5630190819061295090826143dc565b506020820151600182019061296590826143dc565b5060408201516002820180546001600160a01b0319166001600160a01b03909216919091179055606082015160038201906129a090826143dc565b50608082015160048201906129b590826143dc565b5060a0820151600582015560c0820151600682015560e082015160078201906129de90826143dc565b5061010082015160088201906129f490826143dc565b50610120820151600990910180546101409093015115156101000261ff00199215159290921661ffff19909316929092171790556040517fc22020035c625f99d852f1f135f80d5408f7498e744d034aea3633f08f0d463290612a649089908990899089908990899089906145a5565b60405180910390a150505050505050565b816000805b600254811015612b335782604051602001612a95919061426c565b6040516020818303038152906040528051906020012060028281548110612abe57612abe614288565b90600052602060002090600b0201600001604051602001612adf91906142d2565b6040516020818303038152906040528051906020012003612b2b5760028181548110612b0d57612b0d614288565b60009182526020909120600a600b90920201015460ff169150612b33565b600101612a7a565b508015612b825760405162461bcd60e51b815260206004820152601f60248201527f436572746966696361746520697320616c726561647920617070726f766564006044820152606401610538565b60005b6002548110156135125784604051602001612ba0919061426c565b6040516020818303038152906040528051906020012060028281548110612bc957612bc9614288565b90600052602060002090600b0201600001604051602001612bea91906142d2565b604051602081830303815290604052805190602001200361350a57600160028281548110612c1a57612c1a614288565b90600052602060002090600b0201600a0160006101000a81548160ff0219169083151502179055508360028281548110612c5657612c56614288565b90600052602060002090600b02016009019081612c7391906143dc565b5060608060608060005b600054811015612e685789604051602001612c98919061426c565b6040516020818303038152906040528051906020012060008281548110612cc157612cc1614288565b90600052602060002090600a0201600001604051602001612ce291906142d2565b6040516020818303038152906040528051906020012003612e605760008181548110612d1057612d10614288565b90600052602060002090600a02016007018054612d2c9061429e565b80601f0160208091040260200160405190810160405280929190818152602001828054612d589061429e565b8015612da55780601f10612d7a57610100808354040283529160200191612da5565b820191906000526020600020905b815481529060010190602001808311612d8857829003601f168201915b5050505050945060008181548110612dbf57612dbf614288565b90600052602060002090600a02016008018054612ddb9061429e565b80601f0160208091040260200160405190810160405280929190818152602001828054612e079061429e565b8015612e545780601f10612e2957610100808354040283529160200191612e54565b820191906000526020600020905b815481529060010190602001808311612e3757829003601f168201915b50505050509350612e68565b600101612c7d565b5060005b6001548110156130575789604051602001612e87919061426c565b6040516020818303038152906040528051906020012060018281548110612eb057612eb0614288565b9060005260206000209060070201600001604051602001612ed191906142d2565b604051602081830303815290604052805190602001200361304f5760018181548110612eff57612eff614288565b90600052602060002090600702016004018054612f1b9061429e565b80601f0160208091040260200160405190810160405280929190818152602001828054612f479061429e565b8015612f945780601f10612f6957610100808354040283529160200191612f94565b820191906000526020600020905b815481529060010190602001808311612f7757829003601f168201915b5050505050925060018181548110612fae57612fae614288565b90600052602060002090600702016005018054612fca9061429e565b80601f0160208091040260200160405190810160405280929190818152602001828054612ff69061429e565b80156130435780601f1061301857610100808354040283529160200191613043565b820191906000526020600020905b81548152906001019060200180831161302657829003601f168201915b50505050509150613057565b600101612e6c565b506003604051806101a001604052808b81526020016002888154811061307f5761307f614288565b90600052602060002090600b0201600101805461309b9061429e565b80601f01602080910402602001604051908101604052809291908181526020018280546130c79061429e565b80156131145780601f106130e957610100808354040283529160200191613114565b820191906000526020600020905b8154815290600101906020018083116130f757829003601f168201915b505050505081526020016002888154811061313157613131614288565b90600052602060002090600b0201600501805461314d9061429e565b80601f01602080910402602001604051908101604052809291908181526020018280546131799061429e565b80156131c65780601f1061319b576101008083540402835291602001916131c6565b820191906000526020600020905b8154815290600101906020018083116131a957829003601f168201915b50505050508152602001600288815481106131e3576131e3614288565b90600052602060002090600b02016006015481526020016002888154811061320d5761320d614288565b90600052602060002090600b02016004015481526020016002888154811061323757613237614288565b60009182526020918290206002600b909202018101546001600160a01b03168352805492909101918990811061326f5761326f614288565b90600052602060002090600b0201600701805461328b9061429e565b80601f01602080910402602001604051908101604052809291908181526020018280546132b79061429e565b80156133045780601f106132d957610100808354040283529160200191613304565b820191906000526020600020905b8154815290600101906020018083116132e757829003601f168201915b505050505081526020018681526020018581526020018481526020018381526020016002888154811061333957613339614288565b90600052602060002090600b020160080180546133559061429e565b80601f01602080910402602001604051908101604052809291908181526020018280546133819061429e565b80156133ce5780601f106133a3576101008083540402835291602001916133ce565b820191906000526020600020905b8154815290600101906020018083116133b157829003601f168201915b505050918352505060209081018b905282546001810184556000938452922081519192600d020190819061340290826143dc565b506020820151600182019061341790826143dc565b506040820151600282019061342c90826143dc565b50606082015160038201556080820151600482015560a08201516005820180546001600160a01b0319166001600160a01b0390921691909117905560c0820151600682019061347b90826143dc565b5060e0820151600782019061349090826143dc565b5061010082015160088201906134a690826143dc565b5061012082015160098201906134bc90826143dc565b50610140820151600a8201906134d290826143dc565b50610160820151600b8201906134e890826143dc565b50610180820151600c8201906134fe90826143dc565b50505050505050613512565b600101612b85565b507f3ee3e8930da41d543552da6e34cbc398956870864421f02f19b357e53c5d692c848460405161354492919061452d565b60405180910390a150505050565b600080546060919067ffffffffffffffff81111561357257613572613812565b6040519080825280602002602001820160405280156135a557816020015b60608152602001906001900390816135905790505b50905060005b600054811015610b1957600081815481106135c8576135c8614288565b90600052602060002090600a020160000180546135e49061429e565b80601f01602080910402602001604051908101604052809291908181526020018280546136109061429e565b801561365d5780601f106136325761010080835404028352916020019161365d565b820191906000526020600020905b81548152906001019060200180831161364057829003601f168201915b505050505082828151811061367457613674614288565b60209081029190910101526001016135ab565b606060005b6000548110156137c957826040516020016136a7919061426c565b60405160208183030381529060405280519060200120600082815481106136d0576136d0614288565b90600052602060002090600a02016000016040516020016136f191906142d2565b60405160208183030381529060405280519060200120036137c1576000818154811061371f5761371f614288565b90600052602060002090600a0201600101805461373b9061429e565b80601f01602080910402602001604051908101604052809291908181526020018280546137679061429e565b80156137b45780601f10613789576101008083540402835291602001916137b4565b820191906000526020600020905b81548152906001019060200180831161379757829003601f168201915b5050505050915050919050565b60010161368c565b5060405162461bcd60e51b815260206004820152601c60248201527f43726f70207769746820676976656e206964206e6f7420666f756e64000000006044820152606401610538565b634e487b7160e01b600052604160045260246000fd5b600082601f83011261383957600080fd5b813567ffffffffffffffff8082111561385457613854613812565b604051601f8301601f19908116603f0116810190828211818310171561387c5761387c613812565b8160405283815286602085880101111561389557600080fd5b836020870160208301376000602085830101528094505050505092915050565b600080600080600080600060e0888a0312156138d057600080fd5b873567ffffffffffffffff808211156138e857600080fd5b6138f48b838c01613828565b985060208a013591508082111561390a57600080fd5b6139168b838c01613828565b975060408a0135965060608a013591508082111561393357600080fd5b61393f8b838c01613828565b955060808a0135945060a08a013591508082111561395c57600080fd5b6139688b838c01613828565b935060c08a013591508082111561397e57600080fd5b5061398b8a828b01613828565b91505092959891949750929550565b80356001600160a01b03811681146139b157600080fd5b919050565b600080600080608085870312156139cc57600080fd5b6139d58561399a565b9350602085013567ffffffffffffffff808211156139f257600080fd5b6139fe88838901613828565b94506040870135915080821115613a1457600080fd5b613a2088838901613828565b93506060870135915080821115613a3657600080fd5b50613a4387828801613828565b91505092959194509250565b60005b83811015613a6a578181015183820152602001613a52565b50506000910152565b60008151808452613a8b816020860160208601613a4f565b601f01601f19169290920160200192915050565b600060208083016020845280855180835260408601915060408160051b87010192506020870160005b82811015613af657603f19888603018452613ae4858351613a73565b94509285019290850190600101613ac8565b5092979650505050505050565b600060208083018184528085518083526040925060408601915060408160051b87010184880160005b83811015613c4157603f1989840301855281516101608151818652613b5382870182613a73565b915050888201518582038a870152613b6b8282613a73565b91505087820151613b86898701826001600160a01b03169052565b5060608083015186830382880152613b9e8382613a73565b9250505060808083015186830382880152613bb98382613a73565b9250505060a080830151818701525060c080830151818701525060e08083015186830382880152613bea8382613a73565b925050506101008083015186830382880152613c068382613a73565b9250505061012080830151613c1e8288018215159052565b505061014091820151151594909101939093529386019390860190600101613b2c565b509098975050505050505050565b600060208083018184528085518083526040925060408601915060408160051b87010184880160005b83811015613c4157603f1989840301855281516101008151818652613c9f82870182613a73565b915050888201518582038a870152613cb78282613a73565b9150508782015185820389870152613ccf8282613a73565b915050606080830151818701525060808083015186830382880152613cf48382613a73565b9250505060a08083015186830382880152613d0f8382613a73565b9250505060c080830151613d268288018215159052565b505060e091820151151594909101939093529386019390860190600101613c78565b60008060408385031215613d5b57600080fd5b823567ffffffffffffffff80821115613d7357600080fd5b613d7f86838701613828565b93506020850135915080821115613d9557600080fd5b50613da285828601613828565b9150509250929050565b60008060008060808587031215613dc257600080fd5b843567ffffffffffffffff80821115613dda57600080fd5b613de688838901613828565b95506020870135915080821115613dfc57600080fd5b613e0888838901613828565b9450604087013593506060870135915080821115613a3657600080fd5b600060208083018184528085518083526040925060408601915060408160051b87010184880160005b83811015613c4157603f1989840301855281516101808151818652613e7582870182613a73565b915050888201518582038a870152613e8d8282613a73565b91505087820151613ea8898701826001600160a01b03169052565b5060608083015186830382880152613ec08382613a73565b92505050608080830151818701525060a08083015186830382880152613ee68382613a73565b9250505060c080830151818701525060e08083015186830382880152613f0c8382613a73565b925050506101008083015186830382880152613f288382613a73565b925050506101208083015186830382880152613f448382613a73565b9250505061014080830151613f5c8288018215159052565b505061016091820151151594909101939093529386019390860190600101613e4e565b600060208083018184528085518083526040925060408601915060408160051b87010184880160005b83811015613c4157603f1989840301855281516101a08151818652613fcf82870182613a73565b915050888201518582038a870152613fe78282613a73565b9150508782015185820389870152613fff8282613a73565b606084810151908801526080808501519088015260a0808501516001600160a01b03169088015260c080850151888303828a015291935091506140428382613a73565b9250505060e0808301518683038288015261405d8382613a73565b9250505061010080830151868303828801526140798382613a73565b9250505061012080830151868303828801526140958382613a73565b9250505061014080830151868303828801526140b18382613a73565b9250505061016080830151868303828801526140cd8382613a73565b9250505061018080830151925085820381870152506140ec8183613a73565b968901969450505090860190600101613fa8565b600080600080600060a0868803121561411857600080fd5b853567ffffffffffffffff8082111561413057600080fd5b61413c89838a01613828565b965061414a6020890161399a565b9550604088013591508082111561416057600080fd5b61416c89838a01613828565b945060608801359350608088013591508082111561418957600080fd5b5061419688828901613828565b9150509295509295909350565b600080600080600080600060e0888a0312156141be57600080fd5b873567ffffffffffffffff808211156141d657600080fd5b6141e28b838c01613828565b985060208a01359150808211156141f857600080fd5b6142048b838c01613828565b975060408a013591508082111561421a57600080fd5b6142268b838c01613828565b965060608a013591508082111561423c57600080fd5b6142488b838c01613828565b955060808a0135945060a08a0135935060c08a013591508082111561397e57600080fd5b6000825161427e818460208701613a4f565b9190910192915050565b634e487b7160e01b600052603260045260246000fd5b600181811c908216806142b257607f821691505b602082108103610b1957634e487b7160e01b600052602260045260246000fd5b60008083546142e08161429e565b600182811680156142f8576001811461430d5761433c565b60ff198416875282151583028701945061433c565b8760005260208060002060005b858110156143335781548a82015290840190820161431a565b50505082870194505b50929695505050505050565b60208082526023908201527f53656e646572206973206e6f7420746865206f776e6572206f662074686520636040820152620726f760ec1b606082015260800190565b601f8211156143d7576000816000526020600020601f850160051c810160208610156143b45750805b601f850160051c820191505b818110156143d3578281556001016143c0565b5050505b505050565b815167ffffffffffffffff8111156143f6576143f6613812565b61440a81614404845461429e565b8461438b565b602080601f83116001811461443f57600084156144275750858301515b600019600386901b1c1916600185901b1785556143d3565b600085815260208120601f198616915b8281101561446e5788860151825594840194600190910190840161444f565b508582101561448c5787850151600019600388901b60f8161c191681555b5050505050600190811b01905550565b60e0815260006144af60e083018a613a73565b82810360208401526144c1818a613a73565b905087604084015282810360608401526144db8188613a73565b905085608084015282810360a08401526144f58186613a73565b905082810360c08401526145098185613a73565b9a9950505050505050505050565b634e487b7160e01b600052602160045260246000fd5b6040815260006145406040830185613a73565b82810360208401526145528185613a73565b95945050505050565b60808152600061456e6080830187613a73565b82810360208401526145808187613a73565b9050846040840152828103606084015261459a8185613a73565b979650505050505050565b60e0815260006145b860e083018a613a73565b82810360208401526145ca818a613a73565b905082810360408401526145de8189613a73565b905082810360608401526145f28188613a73565b90508560808401528460a084015282810360c08401526145098185613a7356fea2646970667358221220313e0290f7ae6cf711e33b2a403a3eeebef46fd9978e78bde9b21d21fd64b58064736f6c63430008180033",
  "linkReferences": {},
  "deployedLinkReferences": {}
}