{
  "_format": "hh-sol-artifact-1",
  "contractName": "ProductManager",
  "sourceName": "contracts/ProductManager.sol",
  "abi": [
    {
      "anonymous": false,
      "inputs": [
        {
          "indexed": false,
          "internalType": "string",
          "name": "id",
          "type": "string"
        },
        {
          "indexed": false,
          "internalType": "string",
          "name": "time",
          "type": "string"
        }
      ],
      "name": "CertificateEvent",
      "type": "event"
    },
    {
      "anonymous": false,
      "inputs": [
        {
          "indexed": false,
          "internalType": "string",
          "name": "id",
          "type": "string"
        },
        {
          "indexed": false,
          "internalType": "string",
          "name": "time",
          "type": "string"
        }
      ],
      "name": "CropEvent",
      "type": "event"
    },
    {
      "anonymous": false,
      "inputs": [
        {
          "indexed": false,
          "internalType": "string",
          "name": "id",
          "type": "string"
        },
        {
          "indexed": false,
          "internalType": "string",
          "name": "time",
          "type": "string"
        }
      ],
      "name": "MidTermEvent",
      "type": "event"
    },
    {
      "anonymous": false,
      "inputs": [
        {
          "indexed": false,
          "internalType": "string",
          "name": "id",
          "type": "string"
        }
      ],
      "name": "cropRegisterEvent",
      "type": "event"
    },
    {
      "anonymous": false,
      "inputs": [
        {
          "indexed": false,
          "internalType": "string",
          "name": "id",
          "type": "string"
        }
      ],
      "name": "midTermRegisterEvent",
      "type": "event"
    },
    {
      "anonymous": false,
      "inputs": [
        {
          "indexed": false,
          "internalType": "string",
          "name": "id",
          "type": "string"
        },
        {
          "indexed": false,
          "internalType": "string",
          "name": "quality",
          "type": "string"
        },
        {
          "indexed": false,
          "internalType": "uint256",
          "name": "quantity",
          "type": "uint256"
        },
        {
          "indexed": false,
          "internalType": "uint256",
          "name": "price",
          "type": "uint256"
        },
        {
          "indexed": false,
          "internalType": "string",
          "name": "description",
          "type": "string"
        },
        {
          "indexed": false,
          "internalType": "string",
          "name": "timeofApplied",
          "type": "string"
        }
      ],
      "name": "reqCertificateEvent",
      "type": "event"
    },
    {
      "inputs": [
        {
          "internalType": "string",
          "name": "id",
          "type": "string"
        },
        {
          "internalType": "string",
          "name": "time",
          "type": "string"
        }
      ],
      "name": "approveCertificate",
      "outputs": [],
      "stateMutability": "nonpayable",
      "type": "function"
    },
    {
      "inputs": [
        {
          "internalType": "string",
          "name": "id",
          "type": "string"
        },
        {
          "internalType": "string",
          "name": "time",
          "type": "string"
        }
      ],
      "name": "approveCrop",
      "outputs": [],
      "stateMutability": "nonpayable",
      "type": "function"
    },
    {
      "inputs": [
        {
          "internalType": "string",
          "name": "id",
          "type": "string"
        },
        {
          "internalType": "string",
          "name": "time",
          "type": "string"
        }
      ],
      "name": "approveMidTerm",
      "outputs": [],
      "stateMutability": "nonpayable",
      "type": "function"
    },
    {
      "inputs": [
        {
          "internalType": "string",
          "name": "id",
          "type": "string"
        },
        {
          "internalType": "string",
          "name": "cropName",
          "type": "string"
        },
        {
          "internalType": "string",
          "name": "location",
          "type": "string"
        },
        {
          "internalType": "string",
          "name": "acre",
          "type": "string"
        },
        {
          "internalType": "string",
          "name": "months",
          "type": "string"
        },
        {
          "internalType": "uint256",
          "name": "yieldperacre",
          "type": "uint256"
        },
        {
          "internalType": "string",
          "name": "timeofApplied",
          "type": "string"
        }
      ],
      "name": "cropRegister",
      "outputs": [],
      "stateMutability": "nonpayable",
      "type": "function"
    },
    {
      "inputs": [],
      "name": "fetchProduct",
      "outputs": [
        {
          "components": [
            {
              "internalType": "string",
              "name": "id",
              "type": "string"
            },
            {
              "internalType": "string",
              "name": "productName",
              "type": "string"
            },
            {
              "internalType": "uint256",
              "name": "price",
              "type": "uint256"
            },
            {
              "internalType": "uint256",
              "name": "quantity",
              "type": "uint256"
            },
            {
              "internalType": "address",
              "name": "ETHAddress",
              "type": "address"
            },
            {
              "internalType": "string",
              "name": "description",
              "type": "string"
            },
            {
              "internalType": "string",
              "name": "cropRegistered",
              "type": "string"
            },
            {
              "internalType": "string",
              "name": "cropApproved",
              "type": "string"
            },
            {
              "internalType": "string",
              "name": "midTermRegistered",
              "type": "string"
            },
            {
              "internalType": "string",
              "name": "midTermApproved",
              "type": "string"
            },
            {
              "internalType": "string",
              "name": "certRegistered",
              "type": "string"
            },
            {
              "internalType": "string",
              "name": "certApproved",
              "type": "string"
            },
            {
              "internalType": "bool",
              "name": "show",
              "type": "bool"
            }
          ],
          "internalType": "struct ProductManager.Product[]",
          "name": "",
          "type": "tuple[]"
        }
      ],
      "stateMutability": "view",
      "type": "function"
    },
    {
      "inputs": [],
      "name": "getAllCropIds",
      "outputs": [
        {
          "internalType": "string[]",
          "name": "",
          "type": "string[]"
        }
      ],
      "stateMutability": "view",
      "type": "function"
    },
    {
      "inputs": [],
      "name": "getCertificate",
      "outputs": [
        {
          "components": [
            {
              "internalType": "string",
              "name": "id",
              "type": "string"
            },
            {
              "internalType": "string",
              "name": "cropName",
              "type": "string"
            },
            {
              "internalType": "address",
              "name": "ETHAddress",
              "type": "address"
            },
            {
              "internalType": "string",
              "name": "quality",
              "type": "string"
            },
            {
              "internalType": "uint256",
              "name": "quantity",
              "type": "uint256"
            },
            {
              "internalType": "uint256",
              "name": "price",
              "type": "uint256"
            },
            {
              "internalType": "string",
              "name": "description",
              "type": "string"
            },
            {
              "internalType": "string",
              "name": "timeofApplied",
              "type": "string"
            },
            {
              "internalType": "string",
              "name": "timeofVerified",
              "type": "string"
            },
            {
              "internalType": "bool",
              "name": "isApproved",
              "type": "bool"
            },
            {
              "internalType": "bool",
              "name": "isDisapproved",
              "type": "bool"
            }
          ],
          "internalType": "struct ProductManager.Certificate[]",
          "name": "",
          "type": "tuple[]"
        }
      ],
      "stateMutability": "view",
      "type": "function"
    },
    {
      "inputs": [],
      "name": "getCrops",
      "outputs": [
        {
          "components": [
            {
              "internalType": "string",
              "name": "id",
              "type": "string"
            },
            {
              "internalType": "string",
              "name": "cropName",
              "type": "string"
            },
            {
              "internalType": "address",
              "name": "ETHAddress",
              "type": "address"
            },
            {
              "internalType": "string",
              "name": "location",
              "type": "string"
            },
            {
              "internalType": "string",
              "name": "acre",
              "type": "string"
            },
            {
              "internalType": "string",
              "name": "months",
              "type": "string"
            },
            {
              "internalType": "uint256",
              "name": "yieldperacre",
              "type": "uint256"
            },
            {
              "internalType": "string",
              "name": "timeofApplied",
              "type": "string"
            },
            {
              "internalType": "string",
              "name": "timeofVerified",
              "type": "string"
            },
            {
              "internalType": "bool",
              "name": "isApproved",
              "type": "bool"
            },
            {
              "internalType": "bool",
              "name": "isDisapproved",
              "type": "bool"
            }
          ],
          "internalType": "struct CropManager.Crop[]",
          "name": "",
          "type": "tuple[]"
        }
      ],
      "stateMutability": "view",
      "type": "function"
    },
    {
      "inputs": [],
      "name": "getMidTerm",
      "outputs": [
        {
          "components": [
            {
              "internalType": "string",
              "name": "id",
              "type": "string"
            },
            {
              "internalType": "string",
              "name": "cropName",
              "type": "string"
            },
            {
              "internalType": "address",
              "name": "ETHAddress",
              "type": "address"
            },
            {
              "internalType": "string",
              "name": "progress",
              "type": "string"
            },
            {
              "internalType": "string",
              "name": "months",
              "type": "string"
            },
            {
              "internalType": "string",
              "name": "timeofApplied",
              "type": "string"
            },
            {
              "internalType": "string",
              "name": "timeofVerified",
              "type": "string"
            },
            {
              "internalType": "bool",
              "name": "isApproved",
              "type": "bool"
            },
            {
              "internalType": "bool",
              "name": "isDisapproved",
              "type": "bool"
            }
          ],
          "internalType": "struct CropManager.MidTerm[]",
          "name": "",
          "type": "tuple[]"
        }
      ],
      "stateMutability": "view",
      "type": "function"
    },
    {
      "inputs": [
        {
          "internalType": "address",
          "name": "ETHAddress",
          "type": "address"
        }
      ],
      "name": "hideProduct",
      "outputs": [],
      "stateMutability": "nonpayable",
      "type": "function"
    },
    {
      "inputs": [
        {
          "internalType": "string",
          "name": "id",
          "type": "string"
        },
        {
          "internalType": "string",
          "name": "progress",
          "type": "string"
        },
        {
          "internalType": "string",
          "name": "months",
          "type": "string"
        },
        {
          "internalType": "string",
          "name": "timeofApplied",
          "type": "string"
        }
      ],
      "name": "midTermRegister",
      "outputs": [],
      "stateMutability": "nonpayable",
      "type": "function"
    },
    {
      "inputs": [
        {
          "components": [
            {
              "internalType": "string",
              "name": "id",
              "type": "string"
            },
            {
              "internalType": "uint256",
              "name": "reduce",
              "type": "uint256"
            }
          ],
          "internalType": "struct ProductManager.Item[]",
          "name": "items",
          "type": "tuple[]"
        }
      ],
      "name": "reduceQuantity",
      "outputs": [],
      "stateMutability": "nonpayable",
      "type": "function"
    },
    {
      "inputs": [
        {
          "internalType": "string",
          "name": "id",
          "type": "string"
        },
        {
          "internalType": "string",
          "name": "time",
          "type": "string"
        }
      ],
      "name": "rejectCertificate",
      "outputs": [],
      "stateMutability": "nonpayable",
      "type": "function"
    },
    {
      "inputs": [
        {
          "internalType": "string",
          "name": "id",
          "type": "string"
        },
        {
          "internalType": "string",
          "name": "time",
          "type": "string"
        }
      ],
      "name": "rejectCrop",
      "outputs": [],
      "stateMutability": "nonpayable",
      "type": "function"
    },
    {
      "inputs": [
        {
          "internalType": "address",
          "name": "ETHAddress",
          "type": "address"
        },
        {
          "internalType": "string",
          "name": "time",
          "type": "string"
        }
      ],
      "name": "rejectFarmerCertificate",
      "outputs": [],
      "stateMutability": "nonpayable",
      "type": "function"
    },
    {
      "inputs": [
        {
          "internalType": "address",
          "name": "ETHAddress",
          "type": "address"
        },
        {
          "internalType": "string",
          "name": "time",
          "type": "string"
        }
      ],
      "name": "rejectFarmerCrop",
      "outputs": [],
      "stateMutability": "nonpayable",
      "type": "function"
    },
    {
      "inputs": [
        {
          "internalType": "address",
          "name": "ETHAddress",
          "type": "address"
        },
        {
          "internalType": "string",
          "name": "time",
          "type": "string"
        }
      ],
      "name": "rejectFarmerMidTerm",
      "outputs": [],
      "stateMutability": "nonpayable",
      "type": "function"
    },
    {
      "inputs": [
        {
          "internalType": "string",
          "name": "id",
          "type": "string"
        },
        {
          "internalType": "string",
          "name": "time",
          "type": "string"
        }
      ],
      "name": "rejectMidTerm",
      "outputs": [],
      "stateMutability": "nonpayable",
      "type": "function"
    },
    {
      "inputs": [
        {
          "internalType": "string",
          "name": "id",
          "type": "string"
        },
        {
          "internalType": "string",
          "name": "quality",
          "type": "string"
        },
        {
          "internalType": "uint256",
          "name": "quantity",
          "type": "uint256"
        },
        {
          "internalType": "uint256",
          "name": "price",
          "type": "uint256"
        },
        {
          "internalType": "string",
          "name": "description",
          "type": "string"
        },
        {
          "internalType": "string",
          "name": "timeofApplied",
          "type": "string"
        }
      ],
      "name": "reqCertificate",
      "outputs": [],
      "stateMutability": "nonpayable",
      "type": "function"
    }
  ],
  "bytecode": "0x608060405234801561001057600080fd5b5061402d806100206000396000f3fe608060405234801561001057600080fd5b50600436106101215760003560e01c806397bee28a116100ad578063ddba905b11610071578063ddba905b14610243578063e1a6669a14610256578063ea7305b714610269578063ef37f68c1461027c578063f53a75031461028f57600080fd5b806397bee28a146101e05780639b932eb0146101f3578063ae15eb8e14610206578063c851c62f1461021b578063dbf9dcf11461022e57600080fd5b80635f073f3a116100f45780635f073f3a146101745780637c77c16d146101925780637e3351e8146101a75780637e348605146101ba5780638418ef22146101cd57600080fd5b80631005e7f814610126578063129698511461013b57806334a3cb3e1461014e5780634b0e6c0914610161575b600080fd5b610139610134366004613309565b6102a4565b005b610139610149366004613389565b610419565b61013961015c3660046133cd565b61054e565b61013961016f366004613389565b61069b565b61017c6107cf565b6040516101899190613492565b60405180910390f35b61019a610c77565b60405161018991906135ee565b6101396101b5366004613389565b61107a565b6101396101c8366004613309565b6111ae565b6101396101db366004613714565b6112e2565b6101396101ee366004613309565b611375565b610139610201366004613736565b6114e5565b61020e61167f565b60405161018991906137e3565b610139610229366004613309565b611a96565b610236611bc9565b6040516101899190613921565b610139610251366004613aa6565b61217f565b610139610264366004613309565b61233e565b610139610277366004613309565b612c69565b61013961028a366004613ba6565b612dde565b610297612f9c565b6040516101899190613c65565b60005b60005481101561041457826040516020016102c29190613cc9565b60405160208183030381529060405280519060200120600082815481106102eb576102eb613ce5565b90600052602060002090600a020160000160405160200161030c9190613d2f565b604051602081830303815290604052805190602001200361040c5760016000828154811061033c5761033c613ce5565b90600052602060002090600a020160090160016101000a81548160ff021916908315150217905550600080828154811061037857610378613ce5565b90600052602060002090600a020160090160006101000a81548160ff02191690831515021790555081600082815481106103b4576103b4613ce5565b90600052602060002090600a020160080190816103d19190613df5565b507f26480968b27454fbab2b659c6bf7bf338fddd435d0c49cffefec0489eb80689d8383604051610403929190613eb5565b60405180910390a15b6001016102a7565b505050565b60005b60025481101561041457826001600160a01b03166002828154811061044357610443613ce5565b600091825260209091206002600a9092020101546001600160a01b031614801561049457506002818154811061047b5761047b613ce5565b600091825260209091206009600a90920201015460ff16155b15610546576001600282815481106104ae576104ae613ce5565b90600052602060002090600a020160090160016101000a81548160ff0219169083151502179055506000600282815481106104eb576104eb613ce5565b90600052602060002090600a020160090160006101000a81548160ff021916908315150217905550816002828154811061052757610527613ce5565b90600052602060002090600a020160080190816105449190613df5565b505b60010161041c565b60005b6003548110156104145760005b82811015610692576003828154811061057957610579613ce5565b90600052602060002090600d020160000160405160200161059a9190613d2f565b604051602081830303815290604052805190602001208484838181106105c2576105c2613ce5565b90506020028101906105d49190613ee3565b6105de9080613ef9565b6040516020016105ef929190613f47565b604051602081830303815290604052805190602001200361068a5783838281811061061c5761061c613ce5565b905060200281019061062e9190613ee3565b602001356003838154811061064557610645613ce5565b90600052602060002090600d0201600301546106619190613f57565b6003838154811061067457610674613ce5565b90600052602060002090600d0201600301819055505b60010161055e565b50600101610551565b60005b60005481101561041457826001600160a01b0316600082815481106106c5576106c5613ce5565b600091825260209091206002600a9092020101546001600160a01b03161480156107165750600081815481106106fd576106fd613ce5565b600091825260209091206009600a90920201015460ff16155b156107c75760016000828154811061073057610730613ce5565b90600052602060002090600a020160090160016101000a81548160ff021916908315150217905550600080828154811061076c5761076c613ce5565b90600052602060002090600a020160090160006101000a81548160ff02191690831515021790555081600082815481106107a8576107a8613ce5565b90600052602060002090600a020160080190816107c59190613df5565b505b60010161069e565b60606000805480602002602001604051908101604052809291908181526020016000905b82821015610c6e57838290600052602060002090600a02016040518061016001604052908160008201805461082790613cfb565b80601f016020809104026020016040519081016040528092919081815260200182805461085390613cfb565b80156108a05780601f10610875576101008083540402835291602001916108a0565b820191906000526020600020905b81548152906001019060200180831161088357829003601f168201915b505050505081526020016001820180546108b990613cfb565b80601f01602080910402602001604051908101604052809291908181526020018280546108e590613cfb565b80156109325780601f1061090757610100808354040283529160200191610932565b820191906000526020600020905b81548152906001019060200180831161091557829003601f168201915b505050918352505060028201546001600160a01b0316602082015260038201805460409092019161096290613cfb565b80601f016020809104026020016040519081016040528092919081815260200182805461098e90613cfb565b80156109db5780601f106109b0576101008083540402835291602001916109db565b820191906000526020600020905b8154815290600101906020018083116109be57829003601f168201915b505050505081526020016004820180546109f490613cfb565b80601f0160208091040260200160405190810160405280929190818152602001828054610a2090613cfb565b8015610a6d5780601f10610a4257610100808354040283529160200191610a6d565b820191906000526020600020905b815481529060010190602001808311610a5057829003601f168201915b50505050508152602001600582018054610a8690613cfb565b80601f0160208091040260200160405190810160405280929190818152602001828054610ab290613cfb565b8015610aff5780601f10610ad457610100808354040283529160200191610aff565b820191906000526020600020905b815481529060010190602001808311610ae257829003601f168201915b5050505050815260200160068201548152602001600782018054610b2290613cfb565b80601f0160208091040260200160405190810160405280929190818152602001828054610b4e90613cfb565b8015610b9b5780601f10610b7057610100808354040283529160200191610b9b565b820191906000526020600020905b815481529060010190602001808311610b7e57829003601f168201915b50505050508152602001600882018054610bb490613cfb565b80601f0160208091040260200160405190810160405280929190818152602001828054610be090613cfb565b8015610c2d5780601f10610c0257610100808354040283529160200191610c2d565b820191906000526020600020905b815481529060010190602001808311610c1057829003601f168201915b50505091835250506009919091015460ff808216151560208085019190915261010090920416151560409092019190915290825260019290920191016107f3565b50505050905090565b60606001805480602002602001604051908101604052809291908181526020016000905b82821015610c6e578382906000526020600020906008020160405180610120016040529081600082018054610ccf90613cfb565b80601f0160208091040260200160405190810160405280929190818152602001828054610cfb90613cfb565b8015610d485780601f10610d1d57610100808354040283529160200191610d48565b820191906000526020600020905b815481529060010190602001808311610d2b57829003601f168201915b50505050508152602001600182018054610d6190613cfb565b80601f0160208091040260200160405190810160405280929190818152602001828054610d8d90613cfb565b8015610dda5780601f10610daf57610100808354040283529160200191610dda565b820191906000526020600020905b815481529060010190602001808311610dbd57829003601f168201915b505050918352505060028201546001600160a01b03166020820152600382018054604090920191610e0a90613cfb565b80601f0160208091040260200160405190810160405280929190818152602001828054610e3690613cfb565b8015610e835780601f10610e5857610100808354040283529160200191610e83565b820191906000526020600020905b815481529060010190602001808311610e6657829003601f168201915b50505050508152602001600482018054610e9c90613cfb565b80601f0160208091040260200160405190810160405280929190818152602001828054610ec890613cfb565b8015610f155780601f10610eea57610100808354040283529160200191610f15565b820191906000526020600020905b815481529060010190602001808311610ef857829003601f168201915b50505050508152602001600582018054610f2e90613cfb565b80601f0160208091040260200160405190810160405280929190818152602001828054610f5a90613cfb565b8015610fa75780601f10610f7c57610100808354040283529160200191610fa7565b820191906000526020600020905b815481529060010190602001808311610f8a57829003601f168201915b50505050508152602001600682018054610fc090613cfb565b80601f0160208091040260200160405190810160405280929190818152602001828054610fec90613cfb565b80156110395780601f1061100e57610100808354040283529160200191611039565b820191906000526020600020905b81548152906001019060200180831161101c57829003601f168201915b50505091835250506007919091015460ff80821615156020808501919091526101009092041615156040909201919091529082526001929092019101610c9b565b60005b60015481101561041457826001600160a01b0316600182815481106110a4576110a4613ce5565b60009182526020909120600260089092020101546001600160a01b03161480156110f55750600181815481106110dc576110dc613ce5565b600091825260209091206007600890920201015460ff16155b156111a657600180828154811061110e5761110e613ce5565b906000526020600020906008020160070160016101000a81548160ff02191690831515021790555060006001828154811061114b5761114b613ce5565b906000526020600020906008020160070160006101000a81548160ff021916908315150217905550816001828154811061118757611187613ce5565b906000526020600020906008020160060190816111a49190613df5565b505b60010161107d565b60005b60005481101561041457826040516020016111cc9190613cc9565b60405160208183030381529060405280519060200120600082815481106111f5576111f5613ce5565b90600052602060002090600a02016000016040516020016112169190613d2f565b60405160208183030381529060405280519060200120036112da5760016000828154811061124657611246613ce5565b90600052602060002090600a020160090160006101000a81548160ff021916908315150217905550816000828154811061128257611282613ce5565b90600052602060002090600a0201600801908161129f9190613df5565b507f26480968b27454fbab2b659c6bf7bf338fddd435d0c49cffefec0489eb80689d83836040516112d1929190613eb5565b60405180910390a15b6001016111b1565b60005b60035481101561137157816001600160a01b03166003828154811061130c5761130c613ce5565b600091825260209091206004600d9092020101546001600160a01b0316036113695760006003828154811061134357611343613ce5565b60009182526020909120600d90910201600c01805460ff19169115159190911790555050565b6001016112e5565b5050565b60005b60015481101561041457826040516020016113939190613cc9565b60405160208183030381529060405280519060200120600182815481106113bc576113bc613ce5565b90600052602060002090600802016000016040516020016113dd9190613d2f565b60405160208183030381529060405280519060200120036114dd57600180828154811061140c5761140c613ce5565b906000526020600020906008020160070160016101000a81548160ff02191690831515021790555060006001828154811061144957611449613ce5565b906000526020600020906008020160070160006101000a81548160ff021916908315150217905550816001828154811061148557611485613ce5565b906000526020600020906008020160060190816114a29190613df5565b507f49ef88e64c9bb5e17ec530233b88888c9d8ce293ffb2664fb11a737640dfeac483836040516114d4929190613eb5565b60405180910390a15b600101611378565b60006114f0856130d7565b6040805161012081018252878152602081018390523391810191909152606081018690526080810185905260a0810184905260c08101849052600060e08201819052610100820181905260018054808201825591528151929350909160089091027fb10e2d527612073b26eecdfd717e6a320cf44b4afac2b0732d9fcbe2b7fa0cf6019081906115809082613df5565b50602082015160018201906115959082613df5565b5060408201516002820180546001600160a01b0319166001600160a01b03909216919091179055606082015160038201906115d09082613df5565b50608082015160048201906115e59082613df5565b5060a082015160058201906115fa9082613df5565b5060c0820151600682019061160f9082613df5565b5060e082015160079190910180546101009384015161ffff1990911692151561ff001916929092179115159092021790556040517f24dfd674d9b41013847ae645f40587f116cac5f83d63e385afa526bd5666dc0390611670908790613f7e565b60405180910390a15050505050565b60606002805480602002602001604051908101604052809291908181526020016000905b82821015610c6e57838290600052602060002090600a0201604051806101600160405290816000820180546116d790613cfb565b80601f016020809104026020016040519081016040528092919081815260200182805461170390613cfb565b80156117505780601f1061172557610100808354040283529160200191611750565b820191906000526020600020905b81548152906001019060200180831161173357829003601f168201915b5050505050815260200160018201805461176990613cfb565b80601f016020809104026020016040519081016040528092919081815260200182805461179590613cfb565b80156117e25780601f106117b7576101008083540402835291602001916117e2565b820191906000526020600020905b8154815290600101906020018083116117c557829003601f168201915b505050918352505060028201546001600160a01b0316602082015260038201805460409092019161181290613cfb565b80601f016020809104026020016040519081016040528092919081815260200182805461183e90613cfb565b801561188b5780601f106118605761010080835404028352916020019161188b565b820191906000526020600020905b81548152906001019060200180831161186e57829003601f168201915b5050505050815260200160048201548152602001600582015481526020016006820180546118b890613cfb565b80601f01602080910402602001604051908101604052809291908181526020018280546118e490613cfb565b80156119315780601f1061190657610100808354040283529160200191611931565b820191906000526020600020905b81548152906001019060200180831161191457829003601f168201915b5050505050815260200160078201805461194a90613cfb565b80601f016020809104026020016040519081016040528092919081815260200182805461197690613cfb565b80156119c35780601f10611998576101008083540402835291602001916119c3565b820191906000526020600020905b8154815290600101906020018083116119a657829003601f168201915b505050505081526020016008820180546119dc90613cfb565b80601f0160208091040260200160405190810160405280929190818152602001828054611a0890613cfb565b8015611a555780601f10611a2a57610100808354040283529160200191611a55565b820191906000526020600020905b815481529060010190602001808311611a3857829003601f168201915b50505091835250506009919091015460ff808216151560208085019190915261010090920416151560409092019190915290825260019290920191016116a3565b60005b6001548110156104145782604051602001611ab49190613cc9565b6040516020818303038152906040528051906020012060018281548110611add57611add613ce5565b9060005260206000209060080201600001604051602001611afe9190613d2f565b6040516020818303038152906040528051906020012003611bc1576001808281548110611b2d57611b2d613ce5565b906000526020600020906008020160070160006101000a81548160ff0219169083151502179055508160018281548110611b6957611b69613ce5565b90600052602060002090600802016006019081611b869190613df5565b507f49ef88e64c9bb5e17ec530233b88888c9d8ce293ffb2664fb11a737640dfeac48383604051611bb8929190613eb5565b60405180910390a15b600101611a99565b60606003805480602002602001604051908101604052809291908181526020016000905b82821015610c6e57838290600052602060002090600d0201604051806101a0016040529081600082018054611c2190613cfb565b80601f0160208091040260200160405190810160405280929190818152602001828054611c4d90613cfb565b8015611c9a5780601f10611c6f57610100808354040283529160200191611c9a565b820191906000526020600020905b815481529060010190602001808311611c7d57829003601f168201915b50505050508152602001600182018054611cb390613cfb565b80601f0160208091040260200160405190810160405280929190818152602001828054611cdf90613cfb565b8015611d2c5780601f10611d0157610100808354040283529160200191611d2c565b820191906000526020600020905b815481529060010190602001808311611d0f57829003601f168201915b5050509183525050600282015460208201526003820154604082015260048201546001600160a01b03166060820152600582018054608090920191611d7090613cfb565b80601f0160208091040260200160405190810160405280929190818152602001828054611d9c90613cfb565b8015611de95780601f10611dbe57610100808354040283529160200191611de9565b820191906000526020600020905b815481529060010190602001808311611dcc57829003601f168201915b50505050508152602001600682018054611e0290613cfb565b80601f0160208091040260200160405190810160405280929190818152602001828054611e2e90613cfb565b8015611e7b5780601f10611e5057610100808354040283529160200191611e7b565b820191906000526020600020905b815481529060010190602001808311611e5e57829003601f168201915b50505050508152602001600782018054611e9490613cfb565b80601f0160208091040260200160405190810160405280929190818152602001828054611ec090613cfb565b8015611f0d5780601f10611ee257610100808354040283529160200191611f0d565b820191906000526020600020905b815481529060010190602001808311611ef057829003601f168201915b50505050508152602001600882018054611f2690613cfb565b80601f0160208091040260200160405190810160405280929190818152602001828054611f5290613cfb565b8015611f9f5780601f10611f7457610100808354040283529160200191611f9f565b820191906000526020600020905b815481529060010190602001808311611f8257829003601f168201915b50505050508152602001600982018054611fb890613cfb565b80601f0160208091040260200160405190810160405280929190818152602001828054611fe490613cfb565b80156120315780601f1061200657610100808354040283529160200191612031565b820191906000526020600020905b81548152906001019060200180831161201457829003601f168201915b50505050508152602001600a8201805461204a90613cfb565b80601f016020809104026020016040519081016040528092919081815260200182805461207690613cfb565b80156120c35780601f10612098576101008083540402835291602001916120c3565b820191906000526020600020905b8154815290600101906020018083116120a657829003601f168201915b50505050508152602001600b820180546120dc90613cfb565b80601f016020809104026020016040519081016040528092919081815260200182805461210890613cfb565b80156121555780601f1061212a57610100808354040283529160200191612155565b820191906000526020600020905b81548152906001019060200180831161213857829003601f168201915b5050509183525050600c919091015460ff1615156020918201529082526001929092019101611bed565b6040805161016081018252888152602081018890523391810191909152606081018690526080810185905260a0810184905260c0810183905260e08101829052610100810182905260006101208201819052610140820181905280546001810182559080528151600a9091027f290decd9548b62a8d60345a988386fc84ba6bc95484008f6362f93160ef3e5630190819061221a9082613df5565b506020820151600182019061222f9082613df5565b5060408201516002820180546001600160a01b0319166001600160a01b039092169190911790556060820151600382019061226a9082613df5565b506080820151600482019061227f9082613df5565b5060a082015160058201906122949082613df5565b5060c0820151600682015560e082015160078201906122b39082613df5565b5061010082015160088201906122c99082613df5565b50610120820151600990910180546101409093015115156101000261ff00199215159290921661ffff19909316929092171790556040517f3579c5d2edbbf430361d5649858a80fb2dc50cb0446bb5bd09ed524a73fba5ce9061232d908990613f7e565b60405180910390a150505050505050565b60005b600254811015612c2b578260405160200161235c9190613cc9565b604051602081830303815290604052805190602001206002828154811061238557612385613ce5565b90600052602060002090600a02016000016040516020016123a69190613d2f565b6040516020818303038152906040528051906020012003612c23576001600282815481106123d6576123d6613ce5565b90600052602060002090600a020160090160006101000a81548160ff021916908315150217905550816002828154811061241257612412613ce5565b90600052602060002090600a0201600801908161242f9190613df5565b5060608060608060005b60005481101561262457876040516020016124549190613cc9565b604051602081830303815290604052805190602001206000828154811061247d5761247d613ce5565b90600052602060002090600a020160000160405160200161249e9190613d2f565b604051602081830303815290604052805190602001200361261c57600081815481106124cc576124cc613ce5565b90600052602060002090600a020160070180546124e890613cfb565b80601f016020809104026020016040519081016040528092919081815260200182805461251490613cfb565b80156125615780601f1061253657610100808354040283529160200191612561565b820191906000526020600020905b81548152906001019060200180831161254457829003601f168201915b505050505094506000818154811061257b5761257b613ce5565b90600052602060002090600a0201600801805461259790613cfb565b80601f01602080910402602001604051908101604052809291908181526020018280546125c390613cfb565b80156126105780601f106125e557610100808354040283529160200191612610565b820191906000526020600020905b8154815290600101906020018083116125f357829003601f168201915b50505050509350612624565b600101612439565b5060005b60015481101561281357876040516020016126439190613cc9565b604051602081830303815290604052805190602001206001828154811061266c5761266c613ce5565b906000526020600020906008020160000160405160200161268d9190613d2f565b604051602081830303815290604052805190602001200361280b57600181815481106126bb576126bb613ce5565b906000526020600020906008020160050180546126d790613cfb565b80601f016020809104026020016040519081016040528092919081815260200182805461270390613cfb565b80156127505780601f1061272557610100808354040283529160200191612750565b820191906000526020600020905b81548152906001019060200180831161273357829003601f168201915b505050505092506001818154811061276a5761276a613ce5565b9060005260206000209060080201600601805461278690613cfb565b80601f01602080910402602001604051908101604052809291908181526020018280546127b290613cfb565b80156127ff5780601f106127d4576101008083540402835291602001916127ff565b820191906000526020600020905b8154815290600101906020018083116127e257829003601f168201915b50505050509150612813565b600101612628565b506003604051806101a001604052808981526020016002888154811061283b5761283b613ce5565b90600052602060002090600a0201600101805461285790613cfb565b80601f016020809104026020016040519081016040528092919081815260200182805461288390613cfb565b80156128d05780601f106128a5576101008083540402835291602001916128d0565b820191906000526020600020905b8154815290600101906020018083116128b357829003601f168201915b50505050508152602001600288815481106128ed576128ed613ce5565b90600052602060002090600a02016005015481526020016002888154811061291757612917613ce5565b90600052602060002090600a02016004015481526020016002888154811061294157612941613ce5565b60009182526020918290206002600a909202018101546001600160a01b03168352805492909101918990811061297957612979613ce5565b90600052602060002090600a0201600601805461299590613cfb565b80601f01602080910402602001604051908101604052809291908181526020018280546129c190613cfb565b8015612a0e5780601f106129e357610100808354040283529160200191612a0e565b820191906000526020600020905b8154815290600101906020018083116129f157829003601f168201915b5050505050815260200186815260200185815260200184815260200183815260200160028881548110612a4357612a43613ce5565b90600052602060002090600a02016007018054612a5f90613cfb565b80601f0160208091040260200160405190810160405280929190818152602001828054612a8b90613cfb565b8015612ad85780601f10612aad57610100808354040283529160200191612ad8565b820191906000526020600020905b815481529060010190602001808311612abb57829003601f168201915b505050918352505060208082018a90526001604090920182905283549182018455600093845290922081519192600d0201908190612b169082613df5565b5060208201516001820190612b2b9082613df5565b50604082015160028201556060820151600382015560808201516004820180546001600160a01b0319166001600160a01b0390921691909117905560a08201516005820190612b7a9082613df5565b5060c08201516006820190612b8f9082613df5565b5060e08201516007820190612ba49082613df5565b506101008201516008820190612bba9082613df5565b506101208201516009820190612bd09082613df5565b50610140820151600a820190612be69082613df5565b50610160820151600b820190612bfc9082613df5565b506101809190910151600c909101805460ff191691151591909117905550612c2b92505050565b600101612341565b507fe9559372e94b2b22e5e21e376c38890b4a09b55e3f9ec539d8f7cadcc9cbc8208282604051612c5d929190613eb5565b60405180910390a15050565b60005b6002548110156104145782604051602001612c879190613cc9565b6040516020818303038152906040528051906020012060028281548110612cb057612cb0613ce5565b90600052602060002090600a0201600001604051602001612cd19190613d2f565b6040516020818303038152906040528051906020012003612dd657600160028281548110612d0157612d01613ce5565b90600052602060002090600a020160090160016101000a81548160ff021916908315150217905550600060028281548110612d3e57612d3e613ce5565b90600052602060002090600a020160090160006101000a81548160ff0219169083151502179055508160028281548110612d7a57612d7a613ce5565b90600052602060002090600a02016008019081612d979190613df5565b507fe9559372e94b2b22e5e21e376c38890b4a09b55e3f9ec539d8f7cadcc9cbc8208383604051612dc9929190613eb5565b60405180910390a1505050565b600101612c6c565b6000612de9876130d7565b6040805161016081018252898152602081018390523391810191909152606081018890526080810187905260a0810186905260c0810185905260e08101849052610100810184905260006101208201819052610140820181905260028054600181018255915281519293509091600a9091027f405787fa12a823e0f2b7631cc41b3ba8828b3321ca811111fa75cd3aa3bb5ace01908190612e8a9082613df5565b5060208201516001820190612e9f9082613df5565b5060408201516002820180546001600160a01b0319166001600160a01b0390921691909117905560608201516003820190612eda9082613df5565b506080820151600482015560a0820151600582015560c08201516006820190612f039082613df5565b5060e08201516007820190612f189082613df5565b506101008201516008820190612f2e9082613df5565b50610120820151600990910180546101409093015115156101000261ff00199215159290921661ffff19909316929092171790556040517f25d5da85cc9e1f77869a9bc4ca302d848c629ef13d63173abe5838b2989f07fd9061232d90899089908990899089908990613f91565b600080546060919067ffffffffffffffff811115612fbc57612fbc613266565b604051908082528060200260200182016040528015612fef57816020015b6060815260200190600190039081612fda5790505b50905060005b6000548110156130d1576000818154811061301257613012613ce5565b90600052602060002090600a0201600001805461302e90613cfb565b80601f016020809104026020016040519081016040528092919081815260200182805461305a90613cfb565b80156130a75780601f1061307c576101008083540402835291602001916130a7565b820191906000526020600020905b81548152906001019060200180831161308a57829003601f168201915b50505050508282815181106130be576130be613ce5565b6020908102919091010152600101612ff5565b50919050565b606060005b60005481101561321957826040516020016130f79190613cc9565b604051602081830303815290604052805190602001206000828154811061312057613120613ce5565b90600052602060002090600a02016000016040516020016131419190613d2f565b6040516020818303038152906040528051906020012003613211576000818154811061316f5761316f613ce5565b90600052602060002090600a0201600101805461318b90613cfb565b80601f01602080910402602001604051908101604052809291908181526020018280546131b790613cfb565b80156132045780601f106131d957610100808354040283529160200191613204565b820191906000526020600020905b8154815290600101906020018083116131e757829003601f168201915b5050505050915050919050565b6001016130dc565b5060405162461bcd60e51b815260206004820152601c60248201527f43726f70207769746820676976656e206964206e6f7420666f756e6400000000604482015260640160405180910390fd5b634e487b7160e01b600052604160045260246000fd5b600082601f83011261328d57600080fd5b813567ffffffffffffffff808211156132a8576132a8613266565b604051601f8301601f19908116603f011681019082821181831017156132d0576132d0613266565b816040528381528660208588010111156132e957600080fd5b836020870160208301376000602085830101528094505050505092915050565b6000806040838503121561331c57600080fd5b823567ffffffffffffffff8082111561333457600080fd5b6133408683870161327c565b9350602085013591508082111561335657600080fd5b506133638582860161327c565b9150509250929050565b80356001600160a01b038116811461338457600080fd5b919050565b6000806040838503121561339c57600080fd5b6133a58361336d565b9150602083013567ffffffffffffffff8111156133c157600080fd5b6133638582860161327c565b600080602083850312156133e057600080fd5b823567ffffffffffffffff808211156133f857600080fd5b818501915085601f83011261340c57600080fd5b81358181111561341b57600080fd5b8660208260051b850101111561343057600080fd5b60209290920196919550909350505050565b60005b8381101561345d578181015183820152602001613445565b50506000910152565b6000815180845261347e816020860160208601613442565b601f01601f19169290920160200192915050565b600060208083018184528085518083526040925060408601915060408160051b87010184880160005b838110156135e057603f19898403018552815161016081518186526134e282870182613466565b915050888201518582038a8701526134fa8282613466565b91505087820151613515898701826001600160a01b03169052565b506060808301518683038288015261352d8382613466565b92505050608080830151868303828801526135488382613466565b9250505060a080830151868303828801526135638382613466565b9250505060c080830151818701525060e080830151868303828801526135898382613466565b9250505061010080830151868303828801526135a58382613466565b92505050610120808301516135bd8288018215159052565b5050610140918201511515949091019390935293860193908601906001016134bb565b509098975050505050505050565b600060208083018184528085518083526040925060408601915060408160051b87010184880160005b838110156135e057603f198984030185528151610120815181865261363e82870182613466565b915050888201518582038a8701526136568282613466565b91505087820151613671898701826001600160a01b03169052565b50606080830151868303828801526136898382613466565b92505050608080830151868303828801526136a48382613466565b9250505060a080830151868303828801526136bf8382613466565b9250505060c080830151868303828801526136da8382613466565b9250505060e0808301516136f18288018215159052565b505061010091820151151594909101939093529386019390860190600101613617565b60006020828403121561372657600080fd5b61372f8261336d565b9392505050565b6000806000806080858703121561374c57600080fd5b843567ffffffffffffffff8082111561376457600080fd5b6137708883890161327c565b9550602087013591508082111561378657600080fd5b6137928883890161327c565b945060408701359150808211156137a857600080fd5b6137b48883890161327c565b935060608701359150808211156137ca57600080fd5b506137d78782880161327c565b91505092959194509250565b600060208083018184528085518083526040925060408601915060408160051b87010184880160005b838110156135e057603f198984030185528151610160815181865261383382870182613466565b915050888201518582038a87015261384b8282613466565b91505087820151613866898701826001600160a01b03169052565b506060808301518683038288015261387e8382613466565b92505050608080830151818701525060a080830151818701525060c080830151868303828801526138af8382613466565b9250505060e080830151868303828801526138ca8382613466565b9250505061010080830151868303828801526138e68382613466565b92505050610120808301516138fe8288018215159052565b50506101409182015115159490910193909352938601939086019060010161380c565b600060208083018184528085518083526040925060408601915060408160051b87010184880160005b838110156135e057603f1989840301855281516101a0815181865261397182870182613466565b915050888201518582038a8701526139898282613466565b915050878201518886015260608083015181870152506080808301516139b9828801826001600160a01b03169052565b505060a080830151868303828801526139d28382613466565b9250505060c080830151868303828801526139ed8382613466565b9250505060e08083015186830382880152613a088382613466565b925050506101008083015186830382880152613a248382613466565b925050506101208083015186830382880152613a408382613466565b925050506101408083015186830382880152613a5c8382613466565b925050506101608083015186830382880152613a788382613466565b92505050610180808301519250613a928187018415159052565b50958801959350509086019060010161394a565b600080600080600080600060e0888a031215613ac157600080fd5b873567ffffffffffffffff80821115613ad957600080fd5b613ae58b838c0161327c565b985060208a0135915080821115613afb57600080fd5b613b078b838c0161327c565b975060408a0135915080821115613b1d57600080fd5b613b298b838c0161327c565b965060608a0135915080821115613b3f57600080fd5b613b4b8b838c0161327c565b955060808a0135915080821115613b6157600080fd5b613b6d8b838c0161327c565b945060a08a0135935060c08a0135915080821115613b8a57600080fd5b50613b978a828b0161327c565b91505092959891949750929550565b60008060008060008060c08789031215613bbf57600080fd5b863567ffffffffffffffff80821115613bd757600080fd5b613be38a838b0161327c565b97506020890135915080821115613bf957600080fd5b613c058a838b0161327c565b965060408901359550606089013594506080890135915080821115613c2957600080fd5b613c358a838b0161327c565b935060a0890135915080821115613c4b57600080fd5b50613c5889828a0161327c565b9150509295509295509295565b600060208083016020845280855180835260408601915060408160051b87010192506020870160005b82811015613cbc57603f19888603018452613caa858351613466565b94509285019290850190600101613c8e565b5092979650505050505050565b60008251613cdb818460208701613442565b9190910192915050565b634e487b7160e01b600052603260045260246000fd5b600181811c90821680613d0f57607f821691505b6020821081036130d157634e487b7160e01b600052602260045260246000fd5b6000808354613d3d81613cfb565b60018281168015613d555760018114613d6a57613d99565b60ff1984168752821515830287019450613d99565b8760005260208060002060005b85811015613d905781548a820152908401908201613d77565b50505082870194505b50929695505050505050565b601f821115610414576000816000526020600020601f850160051c81016020861015613dce5750805b601f850160051c820191505b81811015613ded57828155600101613dda565b505050505050565b815167ffffffffffffffff811115613e0f57613e0f613266565b613e2381613e1d8454613cfb565b84613da5565b602080601f831160018114613e585760008415613e405750858301515b600019600386901b1c1916600185901b178555613ded565b600085815260208120601f198616915b82811015613e8757888601518255948401946001909101908401613e68565b5085821015613ea55787850151600019600388901b60f8161c191681555b5050505050600190811b01905550565b604081526000613ec86040830185613466565b8281036020840152613eda8185613466565b95945050505050565b60008235603e19833603018112613cdb57600080fd5b6000808335601e19843603018112613f1057600080fd5b83018035915067ffffffffffffffff821115613f2b57600080fd5b602001915036819003821315613f4057600080fd5b9250929050565b8183823760009101908152919050565b81810381811115613f7857634e487b7160e01b600052601160045260246000fd5b92915050565b60208152600061372f6020830184613466565b60c081526000613fa460c0830189613466565b8281036020840152613fb68189613466565b90508660408401528560608401528281036080840152613fd68186613466565b905082810360a0840152613fea8185613466565b999850505050505050505056fea264697066735822122083b6b9cb5e208aed376ecebd5e5a13bce4cabe457b80c5fd9d872efd5594c5bd64736f6c63430008180033",
  "linkReferences": {},
  "deployedLinkReferences": {}
}