{
  "_format": "hh-sol-artifact-1",
  "contractName": "ProductManager",
  "sourceName": "contracts/ProductManager.sol",
  "abi": [
    {
      "anonymous": false,
      "inputs": [
        {
          "indexed": false,
          "internalType": "string",
          "name": "id",
          "type": "string"
        },
        {
          "indexed": false,
          "internalType": "string",
          "name": "time",
          "type": "string"
        }
      ],
      "name": "CertificateEvent",
      "type": "event"
    },
    {
      "anonymous": false,
      "inputs": [
        {
          "indexed": false,
          "internalType": "string",
          "name": "id",
          "type": "string"
        },
        {
          "indexed": false,
          "internalType": "string",
          "name": "time",
          "type": "string"
        }
      ],
      "name": "CropEvent",
      "type": "event"
    },
    {
      "anonymous": false,
      "inputs": [
        {
          "indexed": false,
          "internalType": "string",
          "name": "id",
          "type": "string"
        },
        {
          "indexed": false,
          "internalType": "string",
          "name": "time",
          "type": "string"
        }
      ],
      "name": "MidTermEvent",
      "type": "event"
    },
    {
      "anonymous": false,
      "inputs": [
        {
          "indexed": false,
          "internalType": "string",
          "name": "id",
          "type": "string"
        }
      ],
      "name": "cropRegisterEvent",
      "type": "event"
    },
    {
      "anonymous": false,
      "inputs": [
        {
          "indexed": false,
          "internalType": "string",
          "name": "id",
          "type": "string"
        }
      ],
      "name": "midTermRegisterEvent",
      "type": "event"
    },
    {
      "anonymous": false,
      "inputs": [
        {
          "indexed": false,
          "internalType": "string",
          "name": "id",
          "type": "string"
        },
        {
          "indexed": false,
          "internalType": "string",
          "name": "quality",
          "type": "string"
        },
        {
          "indexed": false,
          "internalType": "uint256",
          "name": "quantity",
          "type": "uint256"
        },
        {
          "indexed": false,
          "internalType": "string",
          "name": "category",
          "type": "string"
        },
        {
          "indexed": false,
          "internalType": "uint256",
          "name": "price",
          "type": "uint256"
        },
        {
          "indexed": false,
          "internalType": "string",
          "name": "description",
          "type": "string"
        },
        {
          "indexed": false,
          "internalType": "string",
          "name": "timeofApplied",
          "type": "string"
        }
      ],
      "name": "reqCertificateEvent",
      "type": "event"
    },
    {
      "inputs": [
        {
          "internalType": "string",
          "name": "id",
          "type": "string"
        },
        {
          "internalType": "string",
          "name": "time",
          "type": "string"
        }
      ],
      "name": "approveCertificate",
      "outputs": [],
      "stateMutability": "nonpayable",
      "type": "function"
    },
    {
      "inputs": [
        {
          "internalType": "string",
          "name": "id",
          "type": "string"
        },
        {
          "internalType": "string",
          "name": "time",
          "type": "string"
        }
      ],
      "name": "approveCrop",
      "outputs": [],
      "stateMutability": "nonpayable",
      "type": "function"
    },
    {
      "inputs": [
        {
          "internalType": "string",
          "name": "id",
          "type": "string"
        },
        {
          "internalType": "string",
          "name": "time",
          "type": "string"
        }
      ],
      "name": "approveMidTerm",
      "outputs": [],
      "stateMutability": "nonpayable",
      "type": "function"
    },
    {
      "inputs": [
        {
          "internalType": "string",
          "name": "id",
          "type": "string"
        },
        {
          "internalType": "string",
          "name": "cropName",
          "type": "string"
        },
        {
          "internalType": "string",
          "name": "location",
          "type": "string"
        },
        {
          "internalType": "string",
          "name": "acre",
          "type": "string"
        },
        {
          "internalType": "string",
          "name": "months",
          "type": "string"
        },
        {
          "internalType": "uint256",
          "name": "yieldperacre",
          "type": "uint256"
        },
        {
          "internalType": "string",
          "name": "timeofApplied",
          "type": "string"
        }
      ],
      "name": "cropRegister",
      "outputs": [],
      "stateMutability": "nonpayable",
      "type": "function"
    },
    {
      "inputs": [],
      "name": "fetchProduct",
      "outputs": [
        {
          "components": [
            {
              "internalType": "string",
              "name": "id",
              "type": "string"
            },
            {
              "internalType": "string",
              "name": "productName",
              "type": "string"
            },
            {
              "internalType": "string",
              "name": "category",
              "type": "string"
            },
            {
              "internalType": "uint256",
              "name": "price",
              "type": "uint256"
            },
            {
              "internalType": "uint256",
              "name": "quantity",
              "type": "uint256"
            },
            {
              "internalType": "address",
              "name": "ETHAddress",
              "type": "address"
            },
            {
              "internalType": "string",
              "name": "description",
              "type": "string"
            },
            {
              "internalType": "string",
              "name": "cropRegistered",
              "type": "string"
            },
            {
              "internalType": "string",
              "name": "cropApproved",
              "type": "string"
            },
            {
              "internalType": "string",
              "name": "midTermRegistered",
              "type": "string"
            },
            {
              "internalType": "string",
              "name": "midTermApproved",
              "type": "string"
            },
            {
              "internalType": "string",
              "name": "certRegistered",
              "type": "string"
            },
            {
              "internalType": "string",
              "name": "certApproved",
              "type": "string"
            },
            {
              "internalType": "bool",
              "name": "show",
              "type": "bool"
            }
          ],
          "internalType": "struct ProductManager.Product[]",
          "name": "",
          "type": "tuple[]"
        }
      ],
      "stateMutability": "view",
      "type": "function"
    },
    {
      "inputs": [],
      "name": "getAllCropIds",
      "outputs": [
        {
          "internalType": "string[]",
          "name": "",
          "type": "string[]"
        }
      ],
      "stateMutability": "view",
      "type": "function"
    },
    {
      "inputs": [],
      "name": "getCertificate",
      "outputs": [
        {
          "components": [
            {
              "internalType": "string",
              "name": "id",
              "type": "string"
            },
            {
              "internalType": "string",
              "name": "cropName",
              "type": "string"
            },
            {
              "internalType": "address",
              "name": "ETHAddress",
              "type": "address"
            },
            {
              "internalType": "string",
              "name": "quality",
              "type": "string"
            },
            {
              "internalType": "uint256",
              "name": "quantity",
              "type": "uint256"
            },
            {
              "internalType": "string",
              "name": "category",
              "type": "string"
            },
            {
              "internalType": "uint256",
              "name": "price",
              "type": "uint256"
            },
            {
              "internalType": "string",
              "name": "description",
              "type": "string"
            },
            {
              "internalType": "string",
              "name": "timeofApplied",
              "type": "string"
            },
            {
              "internalType": "string",
              "name": "timeofVerified",
              "type": "string"
            },
            {
              "internalType": "bool",
              "name": "isApproved",
              "type": "bool"
            },
            {
              "internalType": "bool",
              "name": "isDisapproved",
              "type": "bool"
            }
          ],
          "internalType": "struct ProductManager.Certificate[]",
          "name": "",
          "type": "tuple[]"
        }
      ],
      "stateMutability": "view",
      "type": "function"
    },
    {
      "inputs": [],
      "name": "getCrops",
      "outputs": [
        {
          "components": [
            {
              "internalType": "string",
              "name": "id",
              "type": "string"
            },
            {
              "internalType": "string",
              "name": "cropName",
              "type": "string"
            },
            {
              "internalType": "address",
              "name": "ETHAddress",
              "type": "address"
            },
            {
              "internalType": "string",
              "name": "location",
              "type": "string"
            },
            {
              "internalType": "string",
              "name": "acre",
              "type": "string"
            },
            {
              "internalType": "string",
              "name": "months",
              "type": "string"
            },
            {
              "internalType": "uint256",
              "name": "yieldperacre",
              "type": "uint256"
            },
            {
              "internalType": "string",
              "name": "timeofApplied",
              "type": "string"
            },
            {
              "internalType": "string",
              "name": "timeofVerified",
              "type": "string"
            },
            {
              "internalType": "bool",
              "name": "isApproved",
              "type": "bool"
            },
            {
              "internalType": "bool",
              "name": "isDisapproved",
              "type": "bool"
            }
          ],
          "internalType": "struct CropManager.Crop[]",
          "name": "",
          "type": "tuple[]"
        }
      ],
      "stateMutability": "view",
      "type": "function"
    },
    {
      "inputs": [],
      "name": "getMidTerm",
      "outputs": [
        {
          "components": [
            {
              "internalType": "string",
              "name": "id",
              "type": "string"
            },
            {
              "internalType": "string",
              "name": "cropName",
              "type": "string"
            },
            {
              "internalType": "address",
              "name": "ETHAddress",
              "type": "address"
            },
            {
              "internalType": "string",
              "name": "progress",
              "type": "string"
            },
            {
              "internalType": "string",
              "name": "months",
              "type": "string"
            },
            {
              "internalType": "string",
              "name": "timeofApplied",
              "type": "string"
            },
            {
              "internalType": "string",
              "name": "timeofVerified",
              "type": "string"
            },
            {
              "internalType": "bool",
              "name": "isApproved",
              "type": "bool"
            },
            {
              "internalType": "bool",
              "name": "isDisapproved",
              "type": "bool"
            }
          ],
          "internalType": "struct CropManager.MidTerm[]",
          "name": "",
          "type": "tuple[]"
        }
      ],
      "stateMutability": "view",
      "type": "function"
    },
    {
      "inputs": [
        {
          "internalType": "address",
          "name": "ETHAddress",
          "type": "address"
        }
      ],
      "name": "hideProduct",
      "outputs": [],
      "stateMutability": "nonpayable",
      "type": "function"
    },
    {
      "inputs": [
        {
          "internalType": "string",
          "name": "id",
          "type": "string"
        },
        {
          "internalType": "string",
          "name": "progress",
          "type": "string"
        },
        {
          "internalType": "string",
          "name": "months",
          "type": "string"
        },
        {
          "internalType": "string",
          "name": "timeofApplied",
          "type": "string"
        }
      ],
      "name": "midTermRegister",
      "outputs": [],
      "stateMutability": "nonpayable",
      "type": "function"
    },
    {
      "inputs": [
        {
          "components": [
            {
              "internalType": "string",
              "name": "id",
              "type": "string"
            },
            {
              "internalType": "uint256",
              "name": "reduce",
              "type": "uint256"
            }
          ],
          "internalType": "struct ProductManager.Item[]",
          "name": "items",
          "type": "tuple[]"
        }
      ],
      "name": "reduceQuantity",
      "outputs": [],
      "stateMutability": "nonpayable",
      "type": "function"
    },
    {
      "inputs": [
        {
          "internalType": "string",
          "name": "id",
          "type": "string"
        },
        {
          "internalType": "string",
          "name": "time",
          "type": "string"
        }
      ],
      "name": "rejectCertificate",
      "outputs": [],
      "stateMutability": "nonpayable",
      "type": "function"
    },
    {
      "inputs": [
        {
          "internalType": "string",
          "name": "id",
          "type": "string"
        },
        {
          "internalType": "string",
          "name": "time",
          "type": "string"
        }
      ],
      "name": "rejectCrop",
      "outputs": [],
      "stateMutability": "nonpayable",
      "type": "function"
    },
    {
      "inputs": [
        {
          "internalType": "string",
          "name": "id",
          "type": "string"
        },
        {
          "internalType": "string",
          "name": "time",
          "type": "string"
        }
      ],
      "name": "rejectMidTerm",
      "outputs": [],
      "stateMutability": "nonpayable",
      "type": "function"
    },
    {
      "inputs": [
        {
          "internalType": "string",
          "name": "id",
          "type": "string"
        },
        {
          "internalType": "string",
          "name": "quality",
          "type": "string"
        },
        {
          "internalType": "uint256",
          "name": "quantity",
          "type": "uint256"
        },
        {
          "internalType": "string",
          "name": "category",
          "type": "string"
        },
        {
          "internalType": "uint256",
          "name": "price",
          "type": "uint256"
        },
        {
          "internalType": "string",
          "name": "description",
          "type": "string"
        },
        {
          "internalType": "string",
          "name": "timeofApplied",
          "type": "string"
        }
      ],
      "name": "reqCertificate",
      "outputs": [],
      "stateMutability": "nonpayable",
      "type": "function"
    }
  ],
  "bytecode": "0x608060405234801561001057600080fd5b50613e50806100206000396000f3fe608060405234801561001057600080fd5b50600436106101005760003560e01c80639b932eb011610097578063ddba905b11610066578063ddba905b146101fc578063e1a6669a1461020f578063ea7305b714610222578063f53a75031461023557600080fd5b80639b932eb0146101ac578063ae15eb8e146101bf578063c851c62f146101d4578063dbf9dcf1146101e757600080fd5b80637c77c16d116100d35780637c77c16d1461015e5780637e348605146101735780638418ef221461018657806397bee28a1461019957600080fd5b80630c2b4a09146101055780631005e7f81461011a57806334a3cb3e1461012d5780635f073f3a14610140575b600080fd5b610118610113366004613130565b61024a565b005b610118610128366004613215565b61043a565b61011861013b366004613279565b6105af565b6101486106fc565b604051610155919061333e565b60405180910390f35b610166610ba4565b604051610155919061349a565b610118610181366004613215565b610fa7565b6101186101943660046135c0565b6110db565b6101186101a7366004613215565b61116e565b6101186101ba3660046135f0565b6112de565b6101c7611478565b604051610155919061369d565b6101186101e2366004613215565b611921565b6101ef611a54565b60405161015591906137f7565b61011861020a36600461398f565b61209c565b61011861021d366004613215565b61225b565b610118610230366004613215565b612c4e565b61023d612dc3565b6040516101559190613a73565b600061025588612efe565b60408051610180810182528a8152602081018390523391810191909152606081018990526080810188905260a0810187905260c0810186905260e081018590526101008101849052610120810184905260006101408201819052610160820181905260028054600181018255915281519293509091600b9091027f405787fa12a823e0f2b7631cc41b3ba8828b3321ca811111fa75cd3aa3bb5ace019081906102fe9082613b5b565b50602082015160018201906103139082613b5b565b5060408201516002820180546001600160a01b0319166001600160a01b039092169190911790556060820151600382019061034e9082613b5b565b506080820151600482015560a0820151600582019061036d9082613b5b565b5060c0820151600682015560e0820151600782019061038c9082613b5b565b5061010082015160088201906103a29082613b5b565b5061012082015160098201906103b89082613b5b565b50610140820151600a90910180546101609093015115156101000261ff00199215159290921661ffff19909316929092171790556040517fddb2c9d33a22403118552386f61b9c3db64d66f0b3a3e5832c0ace45a218974390610428908a908a908a908a908a908a908a90613c1b565b60405180910390a15050505050505050565b60005b6000548110156105aa57826040516020016104589190613c96565b604051602081830303815290604052805190602001206000828154811061048157610481613cb2565b90600052602060002090600a02016000016040516020016104a29190613cc8565b60405160208183030381529060405280519060200120036105a2576001600082815481106104d2576104d2613cb2565b90600052602060002090600a020160090160016101000a81548160ff021916908315150217905550600080828154811061050e5761050e613cb2565b90600052602060002090600a020160090160006101000a81548160ff021916908315150217905550816000828154811061054a5761054a613cb2565b90600052602060002090600a020160080190816105679190613b5b565b507f26480968b27454fbab2b659c6bf7bf338fddd435d0c49cffefec0489eb80689d8383604051610599929190613d3e565b60405180910390a15b60010161043d565b505050565b60005b6003548110156105aa5760005b828110156106f357600382815481106105da576105da613cb2565b90600052602060002090600e02016000016040516020016105fb9190613cc8565b6040516020818303038152906040528051906020012084848381811061062357610623613cb2565b90506020028101906106359190613d6c565b61063f9080613d82565b604051602001610650929190613dd0565b60405160208183030381529060405280519060200120036106eb5783838281811061067d5761067d613cb2565b905060200281019061068f9190613d6c565b60200135600383815481106106a6576106a6613cb2565b90600052602060002090600e0201600401546106c29190613de0565b600383815481106106d5576106d5613cb2565b90600052602060002090600e0201600401819055505b6001016105bf565b506001016105b2565b60606000805480602002602001604051908101604052809291908181526020016000905b82821015610b9b57838290600052602060002090600a02016040518061016001604052908160008201805461075490613ad7565b80601f016020809104026020016040519081016040528092919081815260200182805461078090613ad7565b80156107cd5780601f106107a2576101008083540402835291602001916107cd565b820191906000526020600020905b8154815290600101906020018083116107b057829003601f168201915b505050505081526020016001820180546107e690613ad7565b80601f016020809104026020016040519081016040528092919081815260200182805461081290613ad7565b801561085f5780601f106108345761010080835404028352916020019161085f565b820191906000526020600020905b81548152906001019060200180831161084257829003601f168201915b505050918352505060028201546001600160a01b0316602082015260038201805460409092019161088f90613ad7565b80601f01602080910402602001604051908101604052809291908181526020018280546108bb90613ad7565b80156109085780601f106108dd57610100808354040283529160200191610908565b820191906000526020600020905b8154815290600101906020018083116108eb57829003601f168201915b5050505050815260200160048201805461092190613ad7565b80601f016020809104026020016040519081016040528092919081815260200182805461094d90613ad7565b801561099a5780601f1061096f5761010080835404028352916020019161099a565b820191906000526020600020905b81548152906001019060200180831161097d57829003601f168201915b505050505081526020016005820180546109b390613ad7565b80601f01602080910402602001604051908101604052809291908181526020018280546109df90613ad7565b8015610a2c5780601f10610a0157610100808354040283529160200191610a2c565b820191906000526020600020905b815481529060010190602001808311610a0f57829003601f168201915b5050505050815260200160068201548152602001600782018054610a4f90613ad7565b80601f0160208091040260200160405190810160405280929190818152602001828054610a7b90613ad7565b8015610ac85780601f10610a9d57610100808354040283529160200191610ac8565b820191906000526020600020905b815481529060010190602001808311610aab57829003601f168201915b50505050508152602001600882018054610ae190613ad7565b80601f0160208091040260200160405190810160405280929190818152602001828054610b0d90613ad7565b8015610b5a5780601f10610b2f57610100808354040283529160200191610b5a565b820191906000526020600020905b815481529060010190602001808311610b3d57829003601f168201915b50505091835250506009919091015460ff80821615156020808501919091526101009092041615156040909201919091529082526001929092019101610720565b50505050905090565b60606001805480602002602001604051908101604052809291908181526020016000905b82821015610b9b578382906000526020600020906008020160405180610120016040529081600082018054610bfc90613ad7565b80601f0160208091040260200160405190810160405280929190818152602001828054610c2890613ad7565b8015610c755780601f10610c4a57610100808354040283529160200191610c75565b820191906000526020600020905b815481529060010190602001808311610c5857829003601f168201915b50505050508152602001600182018054610c8e90613ad7565b80601f0160208091040260200160405190810160405280929190818152602001828054610cba90613ad7565b8015610d075780601f10610cdc57610100808354040283529160200191610d07565b820191906000526020600020905b815481529060010190602001808311610cea57829003601f168201915b505050918352505060028201546001600160a01b03166020820152600382018054604090920191610d3790613ad7565b80601f0160208091040260200160405190810160405280929190818152602001828054610d6390613ad7565b8015610db05780601f10610d8557610100808354040283529160200191610db0565b820191906000526020600020905b815481529060010190602001808311610d9357829003601f168201915b50505050508152602001600482018054610dc990613ad7565b80601f0160208091040260200160405190810160405280929190818152602001828054610df590613ad7565b8015610e425780601f10610e1757610100808354040283529160200191610e42565b820191906000526020600020905b815481529060010190602001808311610e2557829003601f168201915b50505050508152602001600582018054610e5b90613ad7565b80601f0160208091040260200160405190810160405280929190818152602001828054610e8790613ad7565b8015610ed45780601f10610ea957610100808354040283529160200191610ed4565b820191906000526020600020905b815481529060010190602001808311610eb757829003601f168201915b50505050508152602001600682018054610eed90613ad7565b80601f0160208091040260200160405190810160405280929190818152602001828054610f1990613ad7565b8015610f665780601f10610f3b57610100808354040283529160200191610f66565b820191906000526020600020905b815481529060010190602001808311610f4957829003601f168201915b50505091835250506007919091015460ff80821615156020808501919091526101009092041615156040909201919091529082526001929092019101610bc8565b60005b6000548110156105aa5782604051602001610fc59190613c96565b6040516020818303038152906040528051906020012060008281548110610fee57610fee613cb2565b90600052602060002090600a020160000160405160200161100f9190613cc8565b60405160208183030381529060405280519060200120036110d35760016000828154811061103f5761103f613cb2565b90600052602060002090600a020160090160006101000a81548160ff021916908315150217905550816000828154811061107b5761107b613cb2565b90600052602060002090600a020160080190816110989190613b5b565b507f26480968b27454fbab2b659c6bf7bf338fddd435d0c49cffefec0489eb80689d83836040516110ca929190613d3e565b60405180910390a15b600101610faa565b60005b60035481101561116a57816001600160a01b03166003828154811061110557611105613cb2565b600091825260209091206005600e9092020101546001600160a01b0316036111625760006003828154811061113c5761113c613cb2565b60009182526020909120600e90910201600d01805460ff19169115159190911790555050565b6001016110de565b5050565b60005b6001548110156105aa578260405160200161118c9190613c96565b60405160208183030381529060405280519060200120600182815481106111b5576111b5613cb2565b90600052602060002090600802016000016040516020016111d69190613cc8565b60405160208183030381529060405280519060200120036112d657600180828154811061120557611205613cb2565b906000526020600020906008020160070160016101000a81548160ff02191690831515021790555060006001828154811061124257611242613cb2565b906000526020600020906008020160070160006101000a81548160ff021916908315150217905550816001828154811061127e5761127e613cb2565b9060005260206000209060080201600601908161129b9190613b5b565b507f49ef88e64c9bb5e17ec530233b88888c9d8ce293ffb2664fb11a737640dfeac483836040516112cd929190613d3e565b60405180910390a15b600101611171565b60006112e985612efe565b6040805161012081018252878152602081018390523391810191909152606081018690526080810185905260a0810184905260c08101849052600060e08201819052610100820181905260018054808201825591528151929350909160089091027fb10e2d527612073b26eecdfd717e6a320cf44b4afac2b0732d9fcbe2b7fa0cf6019081906113799082613b5b565b506020820151600182019061138e9082613b5b565b5060408201516002820180546001600160a01b0319166001600160a01b03909216919091179055606082015160038201906113c99082613b5b565b50608082015160048201906113de9082613b5b565b5060a082015160058201906113f39082613b5b565b5060c082015160068201906114089082613b5b565b5060e082015160079190910180546101009384015161ffff1990911692151561ff001916929092179115159092021790556040517f24dfd674d9b41013847ae645f40587f116cac5f83d63e385afa526bd5666dc0390611469908790613e07565b60405180910390a15050505050565b60606002805480602002602001604051908101604052809291908181526020016000905b82821015610b9b57838290600052602060002090600b0201604051806101800160405290816000820180546114d090613ad7565b80601f01602080910402602001604051908101604052809291908181526020018280546114fc90613ad7565b80156115495780601f1061151e57610100808354040283529160200191611549565b820191906000526020600020905b81548152906001019060200180831161152c57829003601f168201915b5050505050815260200160018201805461156290613ad7565b80601f016020809104026020016040519081016040528092919081815260200182805461158e90613ad7565b80156115db5780601f106115b0576101008083540402835291602001916115db565b820191906000526020600020905b8154815290600101906020018083116115be57829003601f168201915b505050918352505060028201546001600160a01b0316602082015260038201805460409092019161160b90613ad7565b80601f016020809104026020016040519081016040528092919081815260200182805461163790613ad7565b80156116845780601f1061165957610100808354040283529160200191611684565b820191906000526020600020905b81548152906001019060200180831161166757829003601f168201915b50505050508152602001600482015481526020016005820180546116a790613ad7565b80601f01602080910402602001604051908101604052809291908181526020018280546116d390613ad7565b80156117205780601f106116f557610100808354040283529160200191611720565b820191906000526020600020905b81548152906001019060200180831161170357829003601f168201915b505050505081526020016006820154815260200160078201805461174390613ad7565b80601f016020809104026020016040519081016040528092919081815260200182805461176f90613ad7565b80156117bc5780601f10611791576101008083540402835291602001916117bc565b820191906000526020600020905b81548152906001019060200180831161179f57829003601f168201915b505050505081526020016008820180546117d590613ad7565b80601f016020809104026020016040519081016040528092919081815260200182805461180190613ad7565b801561184e5780601f106118235761010080835404028352916020019161184e565b820191906000526020600020905b81548152906001019060200180831161183157829003601f168201915b5050505050815260200160098201805461186790613ad7565b80601f016020809104026020016040519081016040528092919081815260200182805461189390613ad7565b80156118e05780601f106118b5576101008083540402835291602001916118e0565b820191906000526020600020905b8154815290600101906020018083116118c357829003601f168201915b5050509183525050600a919091015460ff8082161515602080850191909152610100909204161515604090920191909152908252600192909201910161149c565b60005b6001548110156105aa578260405160200161193f9190613c96565b604051602081830303815290604052805190602001206001828154811061196857611968613cb2565b90600052602060002090600802016000016040516020016119899190613cc8565b6040516020818303038152906040528051906020012003611a4c5760018082815481106119b8576119b8613cb2565b906000526020600020906008020160070160006101000a81548160ff02191690831515021790555081600182815481106119f4576119f4613cb2565b90600052602060002090600802016006019081611a119190613b5b565b507f49ef88e64c9bb5e17ec530233b88888c9d8ce293ffb2664fb11a737640dfeac48383604051611a43929190613d3e565b60405180910390a15b600101611924565b60606003805480602002602001604051908101604052809291908181526020016000905b82821015610b9b57838290600052602060002090600e0201604051806101c0016040529081600082018054611aac90613ad7565b80601f0160208091040260200160405190810160405280929190818152602001828054611ad890613ad7565b8015611b255780601f10611afa57610100808354040283529160200191611b25565b820191906000526020600020905b815481529060010190602001808311611b0857829003601f168201915b50505050508152602001600182018054611b3e90613ad7565b80601f0160208091040260200160405190810160405280929190818152602001828054611b6a90613ad7565b8015611bb75780601f10611b8c57610100808354040283529160200191611bb7565b820191906000526020600020905b815481529060010190602001808311611b9a57829003601f168201915b50505050508152602001600282018054611bd090613ad7565b80601f0160208091040260200160405190810160405280929190818152602001828054611bfc90613ad7565b8015611c495780601f10611c1e57610100808354040283529160200191611c49565b820191906000526020600020905b815481529060010190602001808311611c2c57829003601f168201915b5050509183525050600382015460208201526004820154604082015260058201546001600160a01b03166060820152600682018054608090920191611c8d90613ad7565b80601f0160208091040260200160405190810160405280929190818152602001828054611cb990613ad7565b8015611d065780601f10611cdb57610100808354040283529160200191611d06565b820191906000526020600020905b815481529060010190602001808311611ce957829003601f168201915b50505050508152602001600782018054611d1f90613ad7565b80601f0160208091040260200160405190810160405280929190818152602001828054611d4b90613ad7565b8015611d985780601f10611d6d57610100808354040283529160200191611d98565b820191906000526020600020905b815481529060010190602001808311611d7b57829003601f168201915b50505050508152602001600882018054611db190613ad7565b80601f0160208091040260200160405190810160405280929190818152602001828054611ddd90613ad7565b8015611e2a5780601f10611dff57610100808354040283529160200191611e2a565b820191906000526020600020905b815481529060010190602001808311611e0d57829003601f168201915b50505050508152602001600982018054611e4390613ad7565b80601f0160208091040260200160405190810160405280929190818152602001828054611e6f90613ad7565b8015611ebc5780601f10611e9157610100808354040283529160200191611ebc565b820191906000526020600020905b815481529060010190602001808311611e9f57829003601f168201915b50505050508152602001600a82018054611ed590613ad7565b80601f0160208091040260200160405190810160405280929190818152602001828054611f0190613ad7565b8015611f4e5780601f10611f2357610100808354040283529160200191611f4e565b820191906000526020600020905b815481529060010190602001808311611f3157829003601f168201915b50505050508152602001600b82018054611f6790613ad7565b80601f0160208091040260200160405190810160405280929190818152602001828054611f9390613ad7565b8015611fe05780601f10611fb557610100808354040283529160200191611fe0565b820191906000526020600020905b815481529060010190602001808311611fc357829003601f168201915b50505050508152602001600c82018054611ff990613ad7565b80601f016020809104026020016040519081016040528092919081815260200182805461202590613ad7565b80156120725780601f1061204757610100808354040283529160200191612072565b820191906000526020600020905b81548152906001019060200180831161205557829003601f168201915b5050509183525050600d919091015460ff1615156020918201529082526001929092019101611a78565b6040805161016081018252888152602081018890523391810191909152606081018690526080810185905260a0810184905260c0810183905260e08101829052610100810182905260006101208201819052610140820181905280546001810182559080528151600a9091027f290decd9548b62a8d60345a988386fc84ba6bc95484008f6362f93160ef3e563019081906121379082613b5b565b506020820151600182019061214c9082613b5b565b5060408201516002820180546001600160a01b0319166001600160a01b03909216919091179055606082015160038201906121879082613b5b565b506080820151600482019061219c9082613b5b565b5060a082015160058201906121b19082613b5b565b5060c0820151600682015560e082015160078201906121d09082613b5b565b5061010082015160088201906121e69082613b5b565b50610120820151600990910180546101409093015115156101000261ff00199215159290921661ffff19909316929092171790556040517f3579c5d2edbbf430361d5649858a80fb2dc50cb0446bb5bd09ed524a73fba5ce9061224a908990613e07565b60405180910390a150505050505050565b60005b600254811015612c1057826040516020016122799190613c96565b60405160208183030381529060405280519060200120600282815481106122a2576122a2613cb2565b90600052602060002090600b02016000016040516020016122c39190613cc8565b6040516020818303038152906040528051906020012003612c08576001600282815481106122f3576122f3613cb2565b90600052602060002090600b0201600a0160006101000a81548160ff021916908315150217905550816002828154811061232f5761232f613cb2565b90600052602060002090600b0201600901908161234c9190613b5b565b5060608060608060005b60005481101561254157876040516020016123719190613c96565b604051602081830303815290604052805190602001206000828154811061239a5761239a613cb2565b90600052602060002090600a02016000016040516020016123bb9190613cc8565b604051602081830303815290604052805190602001200361253957600081815481106123e9576123e9613cb2565b90600052602060002090600a0201600701805461240590613ad7565b80601f016020809104026020016040519081016040528092919081815260200182805461243190613ad7565b801561247e5780601f106124535761010080835404028352916020019161247e565b820191906000526020600020905b81548152906001019060200180831161246157829003601f168201915b505050505094506000818154811061249857612498613cb2565b90600052602060002090600a020160080180546124b490613ad7565b80601f01602080910402602001604051908101604052809291908181526020018280546124e090613ad7565b801561252d5780601f106125025761010080835404028352916020019161252d565b820191906000526020600020905b81548152906001019060200180831161251057829003601f168201915b50505050509350612541565b600101612356565b5060005b60015481101561273057876040516020016125609190613c96565b604051602081830303815290604052805190602001206001828154811061258957612589613cb2565b90600052602060002090600802016000016040516020016125aa9190613cc8565b604051602081830303815290604052805190602001200361272857600181815481106125d8576125d8613cb2565b906000526020600020906008020160050180546125f490613ad7565b80601f016020809104026020016040519081016040528092919081815260200182805461262090613ad7565b801561266d5780601f106126425761010080835404028352916020019161266d565b820191906000526020600020905b81548152906001019060200180831161265057829003601f168201915b505050505092506001818154811061268757612687613cb2565b906000526020600020906008020160060180546126a390613ad7565b80601f01602080910402602001604051908101604052809291908181526020018280546126cf90613ad7565b801561271c5780601f106126f15761010080835404028352916020019161271c565b820191906000526020600020905b8154815290600101906020018083116126ff57829003601f168201915b50505050509150612730565b600101612545565b506003604051806101c001604052808981526020016002888154811061275857612758613cb2565b90600052602060002090600b0201600101805461277490613ad7565b80601f01602080910402602001604051908101604052809291908181526020018280546127a090613ad7565b80156127ed5780601f106127c2576101008083540402835291602001916127ed565b820191906000526020600020905b8154815290600101906020018083116127d057829003601f168201915b505050505081526020016002888154811061280a5761280a613cb2565b90600052602060002090600b0201600501805461282690613ad7565b80601f016020809104026020016040519081016040528092919081815260200182805461285290613ad7565b801561289f5780601f106128745761010080835404028352916020019161289f565b820191906000526020600020905b81548152906001019060200180831161288257829003601f168201915b50505050508152602001600288815481106128bc576128bc613cb2565b90600052602060002090600b0201600601548152602001600288815481106128e6576128e6613cb2565b90600052602060002090600b02016004015481526020016002888154811061291057612910613cb2565b60009182526020918290206002600b909202018101546001600160a01b03168352805492909101918990811061294857612948613cb2565b90600052602060002090600b0201600701805461296490613ad7565b80601f016020809104026020016040519081016040528092919081815260200182805461299090613ad7565b80156129dd5780601f106129b2576101008083540402835291602001916129dd565b820191906000526020600020905b8154815290600101906020018083116129c057829003601f168201915b5050505050815260200186815260200185815260200184815260200183815260200160028881548110612a1257612a12613cb2565b90600052602060002090600b02016008018054612a2e90613ad7565b80601f0160208091040260200160405190810160405280929190818152602001828054612a5a90613ad7565b8015612aa75780601f10612a7c57610100808354040283529160200191612aa7565b820191906000526020600020905b815481529060010190602001808311612a8a57829003601f168201915b505050918352505060208082018a90526001604090920182905283549182018455600093845290922081519192600e0201908190612ae59082613b5b565b5060208201516001820190612afa9082613b5b565b5060408201516002820190612b0f9082613b5b565b50606082015160038201556080820151600482015560a08201516005820180546001600160a01b0319166001600160a01b0390921691909117905560c08201516006820190612b5e9082613b5b565b5060e08201516007820190612b739082613b5b565b506101008201516008820190612b899082613b5b565b506101208201516009820190612b9f9082613b5b565b50610140820151600a820190612bb59082613b5b565b50610160820151600b820190612bcb9082613b5b565b50610180820151600c820190612be19082613b5b565b506101a09190910151600d909101805460ff191691151591909117905550612c1092505050565b60010161225e565b507fe9559372e94b2b22e5e21e376c38890b4a09b55e3f9ec539d8f7cadcc9cbc8208282604051612c42929190613d3e565b60405180910390a15050565b60005b6002548110156105aa5782604051602001612c6c9190613c96565b6040516020818303038152906040528051906020012060028281548110612c9557612c95613cb2565b90600052602060002090600b0201600001604051602001612cb69190613cc8565b6040516020818303038152906040528051906020012003612dbb57600160028281548110612ce657612ce6613cb2565b90600052602060002090600b0201600a0160016101000a81548160ff021916908315150217905550600060028281548110612d2357612d23613cb2565b90600052602060002090600b0201600a0160006101000a81548160ff0219169083151502179055508160028281548110612d5f57612d5f613cb2565b90600052602060002090600b02016009019081612d7c9190613b5b565b507fe9559372e94b2b22e5e21e376c38890b4a09b55e3f9ec539d8f7cadcc9cbc8208383604051612dae929190613d3e565b60405180910390a1505050565b600101612c51565b600080546060919067ffffffffffffffff811115612de357612de361308d565b604051908082528060200260200182016040528015612e1657816020015b6060815260200190600190039081612e015790505b50905060005b600054811015612ef85760008181548110612e3957612e39613cb2565b90600052602060002090600a02016000018054612e5590613ad7565b80601f0160208091040260200160405190810160405280929190818152602001828054612e8190613ad7565b8015612ece5780601f10612ea357610100808354040283529160200191612ece565b820191906000526020600020905b815481529060010190602001808311612eb157829003601f168201915b5050505050828281518110612ee557612ee5613cb2565b6020908102919091010152600101612e1c565b50919050565b606060005b6000548110156130405782604051602001612f1e9190613c96565b6040516020818303038152906040528051906020012060008281548110612f4757612f47613cb2565b90600052602060002090600a0201600001604051602001612f689190613cc8565b60405160208183030381529060405280519060200120036130385760008181548110612f9657612f96613cb2565b90600052602060002090600a02016001018054612fb290613ad7565b80601f0160208091040260200160405190810160405280929190818152602001828054612fde90613ad7565b801561302b5780601f106130005761010080835404028352916020019161302b565b820191906000526020600020905b81548152906001019060200180831161300e57829003601f168201915b5050505050915050919050565b600101612f03565b5060405162461bcd60e51b815260206004820152601c60248201527f43726f70207769746820676976656e206964206e6f7420666f756e6400000000604482015260640160405180910390fd5b634e487b7160e01b600052604160045260246000fd5b600082601f8301126130b457600080fd5b813567ffffffffffffffff808211156130cf576130cf61308d565b604051601f8301601f19908116603f011681019082821181831017156130f7576130f761308d565b8160405283815286602085880101111561311057600080fd5b836020870160208301376000602085830101528094505050505092915050565b600080600080600080600060e0888a03121561314b57600080fd5b873567ffffffffffffffff8082111561316357600080fd5b61316f8b838c016130a3565b985060208a013591508082111561318557600080fd5b6131918b838c016130a3565b975060408a0135965060608a01359150808211156131ae57600080fd5b6131ba8b838c016130a3565b955060808a0135945060a08a01359150808211156131d757600080fd5b6131e38b838c016130a3565b935060c08a01359150808211156131f957600080fd5b506132068a828b016130a3565b91505092959891949750929550565b6000806040838503121561322857600080fd5b823567ffffffffffffffff8082111561324057600080fd5b61324c868387016130a3565b9350602085013591508082111561326257600080fd5b5061326f858286016130a3565b9150509250929050565b6000806020838503121561328c57600080fd5b823567ffffffffffffffff808211156132a457600080fd5b818501915085601f8301126132b857600080fd5b8135818111156132c757600080fd5b8660208260051b85010111156132dc57600080fd5b60209290920196919550909350505050565b60005b838110156133095781810151838201526020016132f1565b50506000910152565b6000815180845261332a8160208601602086016132ee565b601f01601f19169290920160200192915050565b600060208083018184528085518083526040925060408601915060408160051b87010184880160005b8381101561348c57603f198984030185528151610160815181865261338e82870182613312565b915050888201518582038a8701526133a68282613312565b915050878201516133c1898701826001600160a01b03169052565b50606080830151868303828801526133d98382613312565b92505050608080830151868303828801526133f48382613312565b9250505060a0808301518683038288015261340f8382613312565b9250505060c080830151818701525060e080830151868303828801526134358382613312565b9250505061010080830151868303828801526134518382613312565b92505050610120808301516134698288018215159052565b505061014091820151151594909101939093529386019390860190600101613367565b509098975050505050505050565b600060208083018184528085518083526040925060408601915060408160051b87010184880160005b8381101561348c57603f19898403018552815161012081518186526134ea82870182613312565b915050888201518582038a8701526135028282613312565b9150508782015161351d898701826001600160a01b03169052565b50606080830151868303828801526135358382613312565b92505050608080830151868303828801526135508382613312565b9250505060a0808301518683038288015261356b8382613312565b9250505060c080830151868303828801526135868382613312565b9250505060e08083015161359d8288018215159052565b5050610100918201511515949091019390935293860193908601906001016134c3565b6000602082840312156135d257600080fd5b81356001600160a01b03811681146135e957600080fd5b9392505050565b6000806000806080858703121561360657600080fd5b843567ffffffffffffffff8082111561361e57600080fd5b61362a888389016130a3565b9550602087013591508082111561364057600080fd5b61364c888389016130a3565b9450604087013591508082111561366257600080fd5b61366e888389016130a3565b9350606087013591508082111561368457600080fd5b50613691878288016130a3565b91505092959194509250565b600060208083018184528085518083526040925060408601915060408160051b87010184880160005b8381101561348c57603f19898403018552815161018081518186526136ed82870182613312565b915050888201518582038a8701526137058282613312565b91505087820151613720898701826001600160a01b03169052565b50606080830151868303828801526137388382613312565b92505050608080830151818701525060a0808301518683038288015261375e8382613312565b9250505060c080830151818701525060e080830151868303828801526137848382613312565b9250505061010080830151868303828801526137a08382613312565b9250505061012080830151868303828801526137bc8382613312565b92505050610140808301516137d48288018215159052565b5050610160918201511515949091019390935293860193908601906001016136c6565b600060208083018184528085518083526040925060408601915060408160051b87010184880160005b8381101561348c57603f1989840301855281516101c0815181865261384782870182613312565b915050888201518582038a87015261385f8282613312565b91505087820151858203898701526138778282613312565b606084810151908801526080808501519088015260a0808501516001600160a01b03169088015260c080850151888303828a015291935091506138ba8382613312565b9250505060e080830151868303828801526138d58382613312565b9250505061010080830151868303828801526138f18382613312565b92505050610120808301518683038288015261390d8382613312565b9250505061014080830151868303828801526139298382613312565b9250505061016080830151868303828801526139458382613312565b9250505061018080830151868303828801526139618382613312565b925050506101a080830151925061397b8187018415159052565b509588019593505090860190600101613820565b600080600080600080600060e0888a0312156139aa57600080fd5b873567ffffffffffffffff808211156139c257600080fd5b6139ce8b838c016130a3565b985060208a01359150808211156139e457600080fd5b6139f08b838c016130a3565b975060408a0135915080821115613a0657600080fd5b613a128b838c016130a3565b965060608a0135915080821115613a2857600080fd5b613a348b838c016130a3565b955060808a0135915080821115613a4a57600080fd5b613a568b838c016130a3565b945060a08a0135935060c08a01359150808211156131f957600080fd5b600060208083016020845280855180835260408601915060408160051b87010192506020870160005b82811015613aca57603f19888603018452613ab8858351613312565b94509285019290850190600101613a9c565b5092979650505050505050565b600181811c90821680613aeb57607f821691505b602082108103612ef857634e487b7160e01b600052602260045260246000fd5b601f8211156105aa576000816000526020600020601f850160051c81016020861015613b345750805b601f850160051c820191505b81811015613b5357828155600101613b40565b505050505050565b815167ffffffffffffffff811115613b7557613b7561308d565b613b8981613b838454613ad7565b84613b0b565b602080601f831160018114613bbe5760008415613ba65750858301515b600019600386901b1c1916600185901b178555613b53565b600085815260208120601f198616915b82811015613bed57888601518255948401946001909101908401613bce565b5085821015613c0b5787850151600019600388901b60f8161c191681555b5050505050600190811b01905550565b60e081526000613c2e60e083018a613312565b8281036020840152613c40818a613312565b90508760408401528281036060840152613c5a8188613312565b905085608084015282810360a0840152613c748186613312565b905082810360c0840152613c888185613312565b9a9950505050505050505050565b60008251613ca88184602087016132ee565b9190910192915050565b634e487b7160e01b600052603260045260246000fd5b6000808354613cd681613ad7565b60018281168015613cee5760018114613d0357613d32565b60ff1984168752821515830287019450613d32565b8760005260208060002060005b85811015613d295781548a820152908401908201613d10565b50505082870194505b50929695505050505050565b604081526000613d516040830185613312565b8281036020840152613d638185613312565b95945050505050565b60008235603e19833603018112613ca857600080fd5b6000808335601e19843603018112613d9957600080fd5b83018035915067ffffffffffffffff821115613db457600080fd5b602001915036819003821315613dc957600080fd5b9250929050565b8183823760009101908152919050565b81810381811115613e0157634e487b7160e01b600052601160045260246000fd5b92915050565b6020815260006135e9602083018461331256fea2646970667358221220da9cf9a8b895632d359208f8be0c5def5c98fe1d61e73d0668ba65038836022b64736f6c63430008180033",
  "linkReferences": {},
  "deployedLinkReferences": {}
}