{
  "_format": "hh-sol-artifact-1",
  "contractName": "ProductManager",
  "sourceName": "contracts/ProductManager.sol",
  "abi": [
    {
      "anonymous": false,
      "inputs": [
        {
          "indexed": false,
          "internalType": "string",
          "name": "id",
          "type": "string"
        },
        {
          "indexed": false,
          "internalType": "string",
          "name": "time",
          "type": "string"
        }
      ],
      "name": "CertificateEvent",
      "type": "event"
    },
    {
      "anonymous": false,
      "inputs": [
        {
          "indexed": false,
          "internalType": "string",
          "name": "id",
          "type": "string"
        },
        {
          "indexed": false,
          "internalType": "string",
          "name": "time",
          "type": "string"
        }
      ],
      "name": "CropEvent",
      "type": "event"
    },
    {
      "anonymous": false,
      "inputs": [
        {
          "indexed": false,
          "internalType": "string",
          "name": "id",
          "type": "string"
        },
        {
          "indexed": false,
          "internalType": "string",
          "name": "time",
          "type": "string"
        }
      ],
      "name": "MidTermEvent",
      "type": "event"
    },
    {
      "anonymous": false,
      "inputs": [
        {
          "indexed": false,
          "internalType": "string",
          "name": "id",
          "type": "string"
        }
      ],
      "name": "cropRegisterEvent",
      "type": "event"
    },
    {
      "anonymous": false,
      "inputs": [
        {
          "indexed": false,
          "internalType": "string",
          "name": "id",
          "type": "string"
        }
      ],
      "name": "midTermRegisterEvent",
      "type": "event"
    },
    {
      "anonymous": false,
      "inputs": [
        {
          "indexed": false,
          "internalType": "string",
          "name": "id",
          "type": "string"
        },
        {
          "indexed": false,
          "internalType": "string",
          "name": "quality",
          "type": "string"
        },
        {
          "indexed": false,
          "internalType": "uint256",
          "name": "quantity",
          "type": "uint256"
        },
        {
          "indexed": false,
          "internalType": "string",
          "name": "category",
          "type": "string"
        },
        {
          "indexed": false,
          "internalType": "uint256",
          "name": "price",
          "type": "uint256"
        },
        {
          "indexed": false,
          "internalType": "string",
          "name": "description",
          "type": "string"
        },
        {
          "indexed": false,
          "internalType": "string",
          "name": "timeofApplied",
          "type": "string"
        }
      ],
      "name": "reqCertificateEvent",
      "type": "event"
    },
    {
      "inputs": [
        {
          "internalType": "string",
          "name": "id",
          "type": "string"
        },
        {
          "internalType": "string",
          "name": "time",
          "type": "string"
        }
      ],
      "name": "approveCertificate",
      "outputs": [],
      "stateMutability": "nonpayable",
      "type": "function"
    },
    {
      "inputs": [
        {
          "internalType": "string",
          "name": "id",
          "type": "string"
        },
        {
          "internalType": "string",
          "name": "time",
          "type": "string"
        }
      ],
      "name": "approveCrop",
      "outputs": [],
      "stateMutability": "nonpayable",
      "type": "function"
    },
    {
      "inputs": [
        {
          "internalType": "string",
          "name": "id",
          "type": "string"
        },
        {
          "internalType": "string",
          "name": "time",
          "type": "string"
        }
      ],
      "name": "approveMidTerm",
      "outputs": [],
      "stateMutability": "nonpayable",
      "type": "function"
    },
    {
      "inputs": [
        {
          "internalType": "string",
          "name": "id",
          "type": "string"
        },
        {
          "internalType": "string",
          "name": "cropName",
          "type": "string"
        },
        {
          "internalType": "string",
          "name": "location",
          "type": "string"
        },
        {
          "internalType": "string",
          "name": "acre",
          "type": "string"
        },
        {
          "internalType": "string",
          "name": "months",
          "type": "string"
        },
        {
          "internalType": "uint256",
          "name": "yieldperacre",
          "type": "uint256"
        },
        {
          "internalType": "string",
          "name": "timeofApplied",
          "type": "string"
        }
      ],
      "name": "cropRegister",
      "outputs": [],
      "stateMutability": "nonpayable",
      "type": "function"
    },
    {
      "inputs": [],
      "name": "fetchProduct",
      "outputs": [
        {
          "components": [
            {
              "internalType": "string",
              "name": "id",
              "type": "string"
            },
            {
              "internalType": "string",
              "name": "productName",
              "type": "string"
            },
            {
              "internalType": "string",
              "name": "category",
              "type": "string"
            },
            {
              "internalType": "uint256",
              "name": "price",
              "type": "uint256"
            },
            {
              "internalType": "uint256",
              "name": "quantity",
              "type": "uint256"
            },
            {
              "internalType": "address",
              "name": "ETHAddress",
              "type": "address"
            },
            {
              "internalType": "string",
              "name": "description",
              "type": "string"
            },
            {
              "internalType": "string",
              "name": "cropRegistered",
              "type": "string"
            },
            {
              "internalType": "string",
              "name": "cropApproved",
              "type": "string"
            },
            {
              "internalType": "string",
              "name": "midTermRegistered",
              "type": "string"
            },
            {
              "internalType": "string",
              "name": "midTermApproved",
              "type": "string"
            },
            {
              "internalType": "string",
              "name": "certRegistered",
              "type": "string"
            },
            {
              "internalType": "string",
              "name": "certApproved",
              "type": "string"
            },
            {
              "internalType": "bool",
              "name": "show",
              "type": "bool"
            }
          ],
          "internalType": "struct ProductManager.Product[]",
          "name": "",
          "type": "tuple[]"
        }
      ],
      "stateMutability": "view",
      "type": "function"
    },
    {
      "inputs": [],
      "name": "getAllCropIds",
      "outputs": [
        {
          "internalType": "string[]",
          "name": "",
          "type": "string[]"
        }
      ],
      "stateMutability": "view",
      "type": "function"
    },
    {
      "inputs": [],
      "name": "getCertificate",
      "outputs": [
        {
          "components": [
            {
              "internalType": "string",
              "name": "id",
              "type": "string"
            },
            {
              "internalType": "string",
              "name": "cropName",
              "type": "string"
            },
            {
              "internalType": "address",
              "name": "ETHAddress",
              "type": "address"
            },
            {
              "internalType": "string",
              "name": "quality",
              "type": "string"
            },
            {
              "internalType": "uint256",
              "name": "quantity",
              "type": "uint256"
            },
            {
              "internalType": "string",
              "name": "category",
              "type": "string"
            },
            {
              "internalType": "uint256",
              "name": "price",
              "type": "uint256"
            },
            {
              "internalType": "string",
              "name": "description",
              "type": "string"
            },
            {
              "internalType": "string",
              "name": "timeofApplied",
              "type": "string"
            },
            {
              "internalType": "string",
              "name": "timeofVerified",
              "type": "string"
            },
            {
              "internalType": "bool",
              "name": "isApproved",
              "type": "bool"
            },
            {
              "internalType": "bool",
              "name": "isDisapproved",
              "type": "bool"
            }
          ],
          "internalType": "struct ProductManager.Certificate[]",
          "name": "",
          "type": "tuple[]"
        }
      ],
      "stateMutability": "view",
      "type": "function"
    },
    {
      "inputs": [],
      "name": "getCrops",
      "outputs": [
        {
          "components": [
            {
              "internalType": "string",
              "name": "id",
              "type": "string"
            },
            {
              "internalType": "string",
              "name": "cropName",
              "type": "string"
            },
            {
              "internalType": "address",
              "name": "ETHAddress",
              "type": "address"
            },
            {
              "internalType": "string",
              "name": "location",
              "type": "string"
            },
            {
              "internalType": "string",
              "name": "acre",
              "type": "string"
            },
            {
              "internalType": "string",
              "name": "months",
              "type": "string"
            },
            {
              "internalType": "uint256",
              "name": "yieldperacre",
              "type": "uint256"
            },
            {
              "internalType": "string",
              "name": "timeofApplied",
              "type": "string"
            },
            {
              "internalType": "string",
              "name": "timeofVerified",
              "type": "string"
            },
            {
              "internalType": "bool",
              "name": "isApproved",
              "type": "bool"
            },
            {
              "internalType": "bool",
              "name": "isDisapproved",
              "type": "bool"
            }
          ],
          "internalType": "struct CropManager.Crop[]",
          "name": "",
          "type": "tuple[]"
        }
      ],
      "stateMutability": "view",
      "type": "function"
    },
    {
      "inputs": [],
      "name": "getMidTerm",
      "outputs": [
        {
          "components": [
            {
              "internalType": "string",
              "name": "id",
              "type": "string"
            },
            {
              "internalType": "string",
              "name": "cropName",
              "type": "string"
            },
            {
              "internalType": "string",
              "name": "progress",
              "type": "string"
            },
            {
              "internalType": "string",
              "name": "months",
              "type": "string"
            },
            {
              "internalType": "string",
              "name": "timeofApplied",
              "type": "string"
            },
            {
              "internalType": "string",
              "name": "timeofVerified",
              "type": "string"
            },
            {
              "internalType": "bool",
              "name": "isApproved",
              "type": "bool"
            },
            {
              "internalType": "bool",
              "name": "isDisapproved",
              "type": "bool"
            }
          ],
          "internalType": "struct CropManager.MidTerm[]",
          "name": "",
          "type": "tuple[]"
        }
      ],
      "stateMutability": "view",
      "type": "function"
    },
    {
      "inputs": [
        {
          "internalType": "address",
          "name": "ETHAddress",
          "type": "address"
        }
      ],
      "name": "hideProduct",
      "outputs": [],
      "stateMutability": "nonpayable",
      "type": "function"
    },
    {
      "inputs": [
        {
          "internalType": "string",
          "name": "id",
          "type": "string"
        },
        {
          "internalType": "string",
          "name": "progress",
          "type": "string"
        },
        {
          "internalType": "string",
          "name": "months",
          "type": "string"
        },
        {
          "internalType": "string",
          "name": "timeofApplied",
          "type": "string"
        }
      ],
      "name": "midTermRegister",
      "outputs": [],
      "stateMutability": "nonpayable",
      "type": "function"
    },
    {
      "inputs": [
        {
          "components": [
            {
              "internalType": "string",
              "name": "id",
              "type": "string"
            },
            {
              "internalType": "uint256",
              "name": "reduce",
              "type": "uint256"
            }
          ],
          "internalType": "struct ProductManager.Item[]",
          "name": "items",
          "type": "tuple[]"
        }
      ],
      "name": "reduceQuantity",
      "outputs": [],
      "stateMutability": "nonpayable",
      "type": "function"
    },
    {
      "inputs": [
        {
          "internalType": "string",
          "name": "id",
          "type": "string"
        },
        {
          "internalType": "string",
          "name": "time",
          "type": "string"
        }
      ],
      "name": "rejectCertificate",
      "outputs": [],
      "stateMutability": "nonpayable",
      "type": "function"
    },
    {
      "inputs": [
        {
          "internalType": "string",
          "name": "id",
          "type": "string"
        },
        {
          "internalType": "string",
          "name": "time",
          "type": "string"
        }
      ],
      "name": "rejectCrop",
      "outputs": [],
      "stateMutability": "nonpayable",
      "type": "function"
    },
    {
      "inputs": [
        {
          "internalType": "string",
          "name": "id",
          "type": "string"
        },
        {
          "internalType": "string",
          "name": "time",
          "type": "string"
        }
      ],
      "name": "rejectMidTerm",
      "outputs": [],
      "stateMutability": "nonpayable",
      "type": "function"
    },
    {
      "inputs": [
        {
          "internalType": "string",
          "name": "id",
          "type": "string"
        },
        {
          "internalType": "string",
          "name": "quality",
          "type": "string"
        },
        {
          "internalType": "uint256",
          "name": "quantity",
          "type": "uint256"
        },
        {
          "internalType": "string",
          "name": "category",
          "type": "string"
        },
        {
          "internalType": "uint256",
          "name": "price",
          "type": "uint256"
        },
        {
          "internalType": "string",
          "name": "description",
          "type": "string"
        },
        {
          "internalType": "string",
          "name": "timeofApplied",
          "type": "string"
        }
      ],
      "name": "reqCertificate",
      "outputs": [],
      "stateMutability": "nonpayable",
      "type": "function"
    }
  ],
  "bytecode": "0x608060405234801561001057600080fd5b50613d37806100206000396000f3fe608060405234801561001057600080fd5b50600436106101005760003560e01c80639b932eb011610097578063ddba905b11610066578063ddba905b146101fc578063e1a6669a1461020f578063ea7305b714610222578063f53a75031461023557600080fd5b80639b932eb0146101ac578063ae15eb8e146101bf578063c851c62f146101d4578063dbf9dcf1146101e757600080fd5b80637c77c16d116100d35780637c77c16d1461015e5780637e348605146101735780638418ef221461018657806397bee28a1461019957600080fd5b80630c2b4a09146101055780631005e7f81461011a57806334a3cb3e1461012d5780635f073f3a14610140575b600080fd5b610118610113366004613034565b61024a565b005b610118610128366004613119565b61043a565b61011861013b36600461317d565b610573565b6101486106c0565b6040516101559190613242565b60405180910390f35b610166610b68565b604051610155919061339e565b610118610181366004613119565b610f54565b6101186101943660046134a7565b611088565b6101186101a7366004613119565b61111b565b6101186101ba3660046134d7565b61124e565b6101c76113b9565b6040516101559190613584565b6101186101e2366004613119565b611862565b6101ef611995565b60405161015591906136de565b61011861020a366004613876565b611fdd565b61011861021d366004613119565b61219c565b610118610230366004613119565b612b8f565b61023d612cc7565b604051610155919061395a565b600061025588612e02565b60408051610180810182528a8152602081018390523391810191909152606081018990526080810188905260a0810187905260c0810186905260e081018590526101008101849052610120810184905260006101408201819052610160820181905260028054600181018255915281519293509091600b9091027f405787fa12a823e0f2b7631cc41b3ba8828b3321ca811111fa75cd3aa3bb5ace019081906102fe9082613a42565b50602082015160018201906103139082613a42565b5060408201516002820180546001600160a01b0319166001600160a01b039092169190911790556060820151600382019061034e9082613a42565b506080820151600482015560a0820151600582019061036d9082613a42565b5060c0820151600682015560e0820151600782019061038c9082613a42565b5061010082015160088201906103a29082613a42565b5061012082015160098201906103b89082613a42565b50610140820151600a90910180546101609093015115156101000261ff00199215159290921661ffff19909316929092171790556040517fddb2c9d33a22403118552386f61b9c3db64d66f0b3a3e5832c0ace45a218974390610428908a908a908a908a908a908a908a90613b02565b60405180910390a15050505050505050565b60005b60005481101561056e57826040516020016104589190613b7d565b604051602081830303815290604052805190602001206000828154811061048157610481613b99565b90600052602060002090600a02016000016040516020016104a29190613baf565b6040516020818303038152906040528051906020012003610566576001600082815481106104d2576104d2613b99565b90600052602060002090600a020160090160016101000a81548160ff021916908315150217905550816000828154811061050e5761050e613b99565b90600052602060002090600a0201600801908161052b9190613a42565b507f26480968b27454fbab2b659c6bf7bf338fddd435d0c49cffefec0489eb80689d838360405161055d929190613c25565b60405180910390a15b60010161043d565b505050565b60005b60035481101561056e5760005b828110156106b7576003828154811061059e5761059e613b99565b90600052602060002090600e02016000016040516020016105bf9190613baf565b604051602081830303815290604052805190602001208484838181106105e7576105e7613b99565b90506020028101906105f99190613c53565b6106039080613c69565b604051602001610614929190613cb7565b60405160208183030381529060405280519060200120036106af5783838281811061064157610641613b99565b90506020028101906106539190613c53565b602001356003838154811061066a5761066a613b99565b90600052602060002090600e0201600401546106869190613cc7565b6003838154811061069957610699613b99565b90600052602060002090600e0201600401819055505b600101610583565b50600101610576565b60606000805480602002602001604051908101604052809291908181526020016000905b82821015610b5f57838290600052602060002090600a020160405180610160016040529081600082018054610718906139be565b80601f0160208091040260200160405190810160405280929190818152602001828054610744906139be565b80156107915780601f1061076657610100808354040283529160200191610791565b820191906000526020600020905b81548152906001019060200180831161077457829003601f168201915b505050505081526020016001820180546107aa906139be565b80601f01602080910402602001604051908101604052809291908181526020018280546107d6906139be565b80156108235780601f106107f857610100808354040283529160200191610823565b820191906000526020600020905b81548152906001019060200180831161080657829003601f168201915b505050918352505060028201546001600160a01b03166020820152600382018054604090920191610853906139be565b80601f016020809104026020016040519081016040528092919081815260200182805461087f906139be565b80156108cc5780601f106108a1576101008083540402835291602001916108cc565b820191906000526020600020905b8154815290600101906020018083116108af57829003601f168201915b505050505081526020016004820180546108e5906139be565b80601f0160208091040260200160405190810160405280929190818152602001828054610911906139be565b801561095e5780601f106109335761010080835404028352916020019161095e565b820191906000526020600020905b81548152906001019060200180831161094157829003601f168201915b50505050508152602001600582018054610977906139be565b80601f01602080910402602001604051908101604052809291908181526020018280546109a3906139be565b80156109f05780601f106109c5576101008083540402835291602001916109f0565b820191906000526020600020905b8154815290600101906020018083116109d357829003601f168201915b5050505050815260200160068201548152602001600782018054610a13906139be565b80601f0160208091040260200160405190810160405280929190818152602001828054610a3f906139be565b8015610a8c5780601f10610a6157610100808354040283529160200191610a8c565b820191906000526020600020905b815481529060010190602001808311610a6f57829003601f168201915b50505050508152602001600882018054610aa5906139be565b80601f0160208091040260200160405190810160405280929190818152602001828054610ad1906139be565b8015610b1e5780601f10610af357610100808354040283529160200191610b1e565b820191906000526020600020905b815481529060010190602001808311610b0157829003601f168201915b50505091835250506009919091015460ff808216151560208085019190915261010090920416151560409092019190915290825260019290920191016106e4565b50505050905090565b60606001805480602002602001604051908101604052809291908181526020016000905b82821015610b5f578382906000526020600020906007020160405180610100016040529081600082018054610bc0906139be565b80601f0160208091040260200160405190810160405280929190818152602001828054610bec906139be565b8015610c395780601f10610c0e57610100808354040283529160200191610c39565b820191906000526020600020905b815481529060010190602001808311610c1c57829003601f168201915b50505050508152602001600182018054610c52906139be565b80601f0160208091040260200160405190810160405280929190818152602001828054610c7e906139be565b8015610ccb5780601f10610ca057610100808354040283529160200191610ccb565b820191906000526020600020905b815481529060010190602001808311610cae57829003601f168201915b50505050508152602001600282018054610ce4906139be565b80601f0160208091040260200160405190810160405280929190818152602001828054610d10906139be565b8015610d5d5780601f10610d3257610100808354040283529160200191610d5d565b820191906000526020600020905b815481529060010190602001808311610d4057829003601f168201915b50505050508152602001600382018054610d76906139be565b80601f0160208091040260200160405190810160405280929190818152602001828054610da2906139be565b8015610def5780601f10610dc457610100808354040283529160200191610def565b820191906000526020600020905b815481529060010190602001808311610dd257829003601f168201915b50505050508152602001600482018054610e08906139be565b80601f0160208091040260200160405190810160405280929190818152602001828054610e34906139be565b8015610e815780601f10610e5657610100808354040283529160200191610e81565b820191906000526020600020905b815481529060010190602001808311610e6457829003601f168201915b50505050508152602001600582018054610e9a906139be565b80601f0160208091040260200160405190810160405280929190818152602001828054610ec6906139be565b8015610f135780601f10610ee857610100808354040283529160200191610f13565b820191906000526020600020905b815481529060010190602001808311610ef657829003601f168201915b50505091835250506006919091015460ff80821615156020808501919091526101009092041615156040909201919091529082526001929092019101610b8c565b60005b60005481101561056e5782604051602001610f729190613b7d565b6040516020818303038152906040528051906020012060008281548110610f9b57610f9b613b99565b90600052602060002090600a0201600001604051602001610fbc9190613baf565b604051602081830303815290604052805190602001200361108057600160008281548110610fec57610fec613b99565b90600052602060002090600a020160090160006101000a81548160ff021916908315150217905550816000828154811061102857611028613b99565b90600052602060002090600a020160080190816110459190613a42565b507f26480968b27454fbab2b659c6bf7bf338fddd435d0c49cffefec0489eb80689d8383604051611077929190613c25565b60405180910390a15b600101610f57565b60005b60035481101561111757816001600160a01b0316600382815481106110b2576110b2613b99565b600091825260209091206005600e9092020101546001600160a01b03160361110f576000600382815481106110e9576110e9613b99565b60009182526020909120600e90910201600d01805460ff19169115159190911790555050565b60010161108b565b5050565b60005b60015481101561056e57826040516020016111399190613b7d565b604051602081830303815290604052805190602001206001828154811061116257611162613b99565b90600052602060002090600702016000016040516020016111839190613baf565b60405160208183030381529060405280519060200120036112465760018082815481106111b2576111b2613b99565b906000526020600020906007020160060160016101000a81548160ff02191690831515021790555081600182815481106111ee576111ee613b99565b9060005260206000209060070201600501908161120b9190613a42565b507f49ef88e64c9bb5e17ec530233b88888c9d8ce293ffb2664fb11a737640dfeac4838360405161123d929190613c25565b60405180910390a15b60010161111e565b600061125985612e02565b604080516101008101825287815260208101839052908101869052606081018590526080810184905260a08101849052600060c0820181905260e0820181905260018054808201825591528151929350909160079091027fb10e2d527612073b26eecdfd717e6a320cf44b4afac2b0732d9fcbe2b7fa0cf6019081906112df9082613a42565b50602082015160018201906112f49082613a42565b50604082015160028201906113099082613a42565b506060820151600382019061131e9082613a42565b50608082015160048201906113339082613a42565b5060a082015160058201906113489082613a42565b5060c08201516006909101805460e09093015115156101000261ff00199215159290921661ffff19909316929092171790556040517f24dfd674d9b41013847ae645f40587f116cac5f83d63e385afa526bd5666dc03906113aa908790613cee565b60405180910390a15050505050565b60606002805480602002602001604051908101604052809291908181526020016000905b82821015610b5f57838290600052602060002090600b020160405180610180016040529081600082018054611411906139be565b80601f016020809104026020016040519081016040528092919081815260200182805461143d906139be565b801561148a5780601f1061145f5761010080835404028352916020019161148a565b820191906000526020600020905b81548152906001019060200180831161146d57829003601f168201915b505050505081526020016001820180546114a3906139be565b80601f01602080910402602001604051908101604052809291908181526020018280546114cf906139be565b801561151c5780601f106114f15761010080835404028352916020019161151c565b820191906000526020600020905b8154815290600101906020018083116114ff57829003601f168201915b505050918352505060028201546001600160a01b0316602082015260038201805460409092019161154c906139be565b80601f0160208091040260200160405190810160405280929190818152602001828054611578906139be565b80156115c55780601f1061159a576101008083540402835291602001916115c5565b820191906000526020600020905b8154815290600101906020018083116115a857829003601f168201915b50505050508152602001600482015481526020016005820180546115e8906139be565b80601f0160208091040260200160405190810160405280929190818152602001828054611614906139be565b80156116615780601f1061163657610100808354040283529160200191611661565b820191906000526020600020905b81548152906001019060200180831161164457829003601f168201915b5050505050815260200160068201548152602001600782018054611684906139be565b80601f01602080910402602001604051908101604052809291908181526020018280546116b0906139be565b80156116fd5780601f106116d2576101008083540402835291602001916116fd565b820191906000526020600020905b8154815290600101906020018083116116e057829003601f168201915b50505050508152602001600882018054611716906139be565b80601f0160208091040260200160405190810160405280929190818152602001828054611742906139be565b801561178f5780601f106117645761010080835404028352916020019161178f565b820191906000526020600020905b81548152906001019060200180831161177257829003601f168201915b505050505081526020016009820180546117a8906139be565b80601f01602080910402602001604051908101604052809291908181526020018280546117d4906139be565b80156118215780601f106117f657610100808354040283529160200191611821565b820191906000526020600020905b81548152906001019060200180831161180457829003601f168201915b5050509183525050600a919091015460ff808216151560208085019190915261010090920416151560409092019190915290825260019290920191016113dd565b60005b60015481101561056e57826040516020016118809190613b7d565b60405160208183030381529060405280519060200120600182815481106118a9576118a9613b99565b90600052602060002090600702016000016040516020016118ca9190613baf565b604051602081830303815290604052805190602001200361198d5760018082815481106118f9576118f9613b99565b906000526020600020906007020160060160006101000a81548160ff021916908315150217905550816001828154811061193557611935613b99565b906000526020600020906007020160050190816119529190613a42565b507f49ef88e64c9bb5e17ec530233b88888c9d8ce293ffb2664fb11a737640dfeac48383604051611984929190613c25565b60405180910390a15b600101611865565b60606003805480602002602001604051908101604052809291908181526020016000905b82821015610b5f57838290600052602060002090600e0201604051806101c00160405290816000820180546119ed906139be565b80601f0160208091040260200160405190810160405280929190818152602001828054611a19906139be565b8015611a665780601f10611a3b57610100808354040283529160200191611a66565b820191906000526020600020905b815481529060010190602001808311611a4957829003601f168201915b50505050508152602001600182018054611a7f906139be565b80601f0160208091040260200160405190810160405280929190818152602001828054611aab906139be565b8015611af85780601f10611acd57610100808354040283529160200191611af8565b820191906000526020600020905b815481529060010190602001808311611adb57829003601f168201915b50505050508152602001600282018054611b11906139be565b80601f0160208091040260200160405190810160405280929190818152602001828054611b3d906139be565b8015611b8a5780601f10611b5f57610100808354040283529160200191611b8a565b820191906000526020600020905b815481529060010190602001808311611b6d57829003601f168201915b5050509183525050600382015460208201526004820154604082015260058201546001600160a01b03166060820152600682018054608090920191611bce906139be565b80601f0160208091040260200160405190810160405280929190818152602001828054611bfa906139be565b8015611c475780601f10611c1c57610100808354040283529160200191611c47565b820191906000526020600020905b815481529060010190602001808311611c2a57829003601f168201915b50505050508152602001600782018054611c60906139be565b80601f0160208091040260200160405190810160405280929190818152602001828054611c8c906139be565b8015611cd95780601f10611cae57610100808354040283529160200191611cd9565b820191906000526020600020905b815481529060010190602001808311611cbc57829003601f168201915b50505050508152602001600882018054611cf2906139be565b80601f0160208091040260200160405190810160405280929190818152602001828054611d1e906139be565b8015611d6b5780601f10611d4057610100808354040283529160200191611d6b565b820191906000526020600020905b815481529060010190602001808311611d4e57829003601f168201915b50505050508152602001600982018054611d84906139be565b80601f0160208091040260200160405190810160405280929190818152602001828054611db0906139be565b8015611dfd5780601f10611dd257610100808354040283529160200191611dfd565b820191906000526020600020905b815481529060010190602001808311611de057829003601f168201915b50505050508152602001600a82018054611e16906139be565b80601f0160208091040260200160405190810160405280929190818152602001828054611e42906139be565b8015611e8f5780601f10611e6457610100808354040283529160200191611e8f565b820191906000526020600020905b815481529060010190602001808311611e7257829003601f168201915b50505050508152602001600b82018054611ea8906139be565b80601f0160208091040260200160405190810160405280929190818152602001828054611ed4906139be565b8015611f215780601f10611ef657610100808354040283529160200191611f21565b820191906000526020600020905b815481529060010190602001808311611f0457829003601f168201915b50505050508152602001600c82018054611f3a906139be565b80601f0160208091040260200160405190810160405280929190818152602001828054611f66906139be565b8015611fb35780601f10611f8857610100808354040283529160200191611fb3565b820191906000526020600020905b815481529060010190602001808311611f9657829003601f168201915b5050509183525050600d919091015460ff16151560209182015290825260019290920191016119b9565b6040805161016081018252888152602081018890523391810191909152606081018690526080810185905260a0810184905260c0810183905260e08101829052610100810182905260006101208201819052610140820181905280546001810182559080528151600a9091027f290decd9548b62a8d60345a988386fc84ba6bc95484008f6362f93160ef3e563019081906120789082613a42565b506020820151600182019061208d9082613a42565b5060408201516002820180546001600160a01b0319166001600160a01b03909216919091179055606082015160038201906120c89082613a42565b50608082015160048201906120dd9082613a42565b5060a082015160058201906120f29082613a42565b5060c0820151600682015560e082015160078201906121119082613a42565b5061010082015160088201906121279082613a42565b50610120820151600990910180546101409093015115156101000261ff00199215159290921661ffff19909316929092171790556040517f3579c5d2edbbf430361d5649858a80fb2dc50cb0446bb5bd09ed524a73fba5ce9061218b908990613cee565b60405180910390a150505050505050565b60005b600254811015612b5157826040516020016121ba9190613b7d565b60405160208183030381529060405280519060200120600282815481106121e3576121e3613b99565b90600052602060002090600b02016000016040516020016122049190613baf565b6040516020818303038152906040528051906020012003612b495760016002828154811061223457612234613b99565b90600052602060002090600b0201600a0160006101000a81548160ff021916908315150217905550816002828154811061227057612270613b99565b90600052602060002090600b0201600901908161228d9190613a42565b5060608060608060005b60005481101561248257876040516020016122b29190613b7d565b60405160208183030381529060405280519060200120600082815481106122db576122db613b99565b90600052602060002090600a02016000016040516020016122fc9190613baf565b604051602081830303815290604052805190602001200361247a576000818154811061232a5761232a613b99565b90600052602060002090600a02016007018054612346906139be565b80601f0160208091040260200160405190810160405280929190818152602001828054612372906139be565b80156123bf5780601f10612394576101008083540402835291602001916123bf565b820191906000526020600020905b8154815290600101906020018083116123a257829003601f168201915b50505050509450600081815481106123d9576123d9613b99565b90600052602060002090600a020160080180546123f5906139be565b80601f0160208091040260200160405190810160405280929190818152602001828054612421906139be565b801561246e5780601f106124435761010080835404028352916020019161246e565b820191906000526020600020905b81548152906001019060200180831161245157829003601f168201915b50505050509350612482565b600101612297565b5060005b60015481101561267157876040516020016124a19190613b7d565b60405160208183030381529060405280519060200120600182815481106124ca576124ca613b99565b90600052602060002090600702016000016040516020016124eb9190613baf565b6040516020818303038152906040528051906020012003612669576001818154811061251957612519613b99565b90600052602060002090600702016004018054612535906139be565b80601f0160208091040260200160405190810160405280929190818152602001828054612561906139be565b80156125ae5780601f10612583576101008083540402835291602001916125ae565b820191906000526020600020905b81548152906001019060200180831161259157829003601f168201915b50505050509250600181815481106125c8576125c8613b99565b906000526020600020906007020160050180546125e4906139be565b80601f0160208091040260200160405190810160405280929190818152602001828054612610906139be565b801561265d5780601f106126325761010080835404028352916020019161265d565b820191906000526020600020905b81548152906001019060200180831161264057829003601f168201915b50505050509150612671565b600101612486565b506003604051806101c001604052808981526020016002888154811061269957612699613b99565b90600052602060002090600b020160010180546126b5906139be565b80601f01602080910402602001604051908101604052809291908181526020018280546126e1906139be565b801561272e5780601f106127035761010080835404028352916020019161272e565b820191906000526020600020905b81548152906001019060200180831161271157829003601f168201915b505050505081526020016002888154811061274b5761274b613b99565b90600052602060002090600b02016005018054612767906139be565b80601f0160208091040260200160405190810160405280929190818152602001828054612793906139be565b80156127e05780601f106127b5576101008083540402835291602001916127e0565b820191906000526020600020905b8154815290600101906020018083116127c357829003601f168201915b50505050508152602001600288815481106127fd576127fd613b99565b90600052602060002090600b02016006015481526020016002888154811061282757612827613b99565b90600052602060002090600b02016004015481526020016002888154811061285157612851613b99565b60009182526020918290206002600b909202018101546001600160a01b03168352805492909101918990811061288957612889613b99565b90600052602060002090600b020160070180546128a5906139be565b80601f01602080910402602001604051908101604052809291908181526020018280546128d1906139be565b801561291e5780601f106128f35761010080835404028352916020019161291e565b820191906000526020600020905b81548152906001019060200180831161290157829003601f168201915b505050505081526020018681526020018581526020018481526020018381526020016002888154811061295357612953613b99565b90600052602060002090600b0201600801805461296f906139be565b80601f016020809104026020016040519081016040528092919081815260200182805461299b906139be565b80156129e85780601f106129bd576101008083540402835291602001916129e8565b820191906000526020600020905b8154815290600101906020018083116129cb57829003601f168201915b505050918352505060208082018a90526001604090920182905283549182018455600093845290922081519192600e0201908190612a269082613a42565b5060208201516001820190612a3b9082613a42565b5060408201516002820190612a509082613a42565b50606082015160038201556080820151600482015560a08201516005820180546001600160a01b0319166001600160a01b0390921691909117905560c08201516006820190612a9f9082613a42565b5060e08201516007820190612ab49082613a42565b506101008201516008820190612aca9082613a42565b506101208201516009820190612ae09082613a42565b50610140820151600a820190612af69082613a42565b50610160820151600b820190612b0c9082613a42565b50610180820151600c820190612b229082613a42565b506101a09190910151600d909101805460ff191691151591909117905550612b5192505050565b60010161219f565b507fe9559372e94b2b22e5e21e376c38890b4a09b55e3f9ec539d8f7cadcc9cbc8208282604051612b83929190613c25565b60405180910390a15050565b60005b60025481101561056e5782604051602001612bad9190613b7d565b6040516020818303038152906040528051906020012060028281548110612bd657612bd6613b99565b90600052602060002090600b0201600001604051602001612bf79190613baf565b6040516020818303038152906040528051906020012003612cbf57600160028281548110612c2757612c27613b99565b90600052602060002090600b0201600a0160016101000a81548160ff0219169083151502179055508160028281548110612c6357612c63613b99565b90600052602060002090600b02016009019081612c809190613a42565b507fe9559372e94b2b22e5e21e376c38890b4a09b55e3f9ec539d8f7cadcc9cbc8208383604051612cb2929190613c25565b60405180910390a1505050565b600101612b92565b600080546060919067ffffffffffffffff811115612ce757612ce7612f91565b604051908082528060200260200182016040528015612d1a57816020015b6060815260200190600190039081612d055790505b50905060005b600054811015612dfc5760008181548110612d3d57612d3d613b99565b90600052602060002090600a02016000018054612d59906139be565b80601f0160208091040260200160405190810160405280929190818152602001828054612d85906139be565b8015612dd25780601f10612da757610100808354040283529160200191612dd2565b820191906000526020600020905b815481529060010190602001808311612db557829003601f168201915b5050505050828281518110612de957612de9613b99565b6020908102919091010152600101612d20565b50919050565b606060005b600054811015612f445782604051602001612e229190613b7d565b6040516020818303038152906040528051906020012060008281548110612e4b57612e4b613b99565b90600052602060002090600a0201600001604051602001612e6c9190613baf565b6040516020818303038152906040528051906020012003612f3c5760008181548110612e9a57612e9a613b99565b90600052602060002090600a02016001018054612eb6906139be565b80601f0160208091040260200160405190810160405280929190818152602001828054612ee2906139be565b8015612f2f5780601f10612f0457610100808354040283529160200191612f2f565b820191906000526020600020905b815481529060010190602001808311612f1257829003601f168201915b5050505050915050919050565b600101612e07565b5060405162461bcd60e51b815260206004820152601c60248201527f43726f70207769746820676976656e206964206e6f7420666f756e6400000000604482015260640160405180910390fd5b634e487b7160e01b600052604160045260246000fd5b600082601f830112612fb857600080fd5b813567ffffffffffffffff80821115612fd357612fd3612f91565b604051601f8301601f19908116603f01168101908282118183101715612ffb57612ffb612f91565b8160405283815286602085880101111561301457600080fd5b836020870160208301376000602085830101528094505050505092915050565b600080600080600080600060e0888a03121561304f57600080fd5b873567ffffffffffffffff8082111561306757600080fd5b6130738b838c01612fa7565b985060208a013591508082111561308957600080fd5b6130958b838c01612fa7565b975060408a0135965060608a01359150808211156130b257600080fd5b6130be8b838c01612fa7565b955060808a0135945060a08a01359150808211156130db57600080fd5b6130e78b838c01612fa7565b935060c08a01359150808211156130fd57600080fd5b5061310a8a828b01612fa7565b91505092959891949750929550565b6000806040838503121561312c57600080fd5b823567ffffffffffffffff8082111561314457600080fd5b61315086838701612fa7565b9350602085013591508082111561316657600080fd5b5061317385828601612fa7565b9150509250929050565b6000806020838503121561319057600080fd5b823567ffffffffffffffff808211156131a857600080fd5b818501915085601f8301126131bc57600080fd5b8135818111156131cb57600080fd5b8660208260051b85010111156131e057600080fd5b60209290920196919550909350505050565b60005b8381101561320d5781810151838201526020016131f5565b50506000910152565b6000815180845261322e8160208601602086016131f2565b601f01601f19169290920160200192915050565b600060208083018184528085518083526040925060408601915060408160051b87010184880160005b8381101561339057603f198984030185528151610160815181865261329282870182613216565b915050888201518582038a8701526132aa8282613216565b915050878201516132c5898701826001600160a01b03169052565b50606080830151868303828801526132dd8382613216565b92505050608080830151868303828801526132f88382613216565b9250505060a080830151868303828801526133138382613216565b9250505060c080830151818701525060e080830151868303828801526133398382613216565b9250505061010080830151868303828801526133558382613216565b925050506101208083015161336d8288018215159052565b50506101409182015115159490910193909352938601939086019060010161326b565b509098975050505050505050565b600060208083018184528085518083526040925060408601915060408160051b87010184880160005b8381101561339057603f19898403018552815161010081518186526133ee82870182613216565b915050888201518582038a8701526134068282613216565b915050878201518582038987015261341e8282613216565b915050606080830151868303828801526134388382613216565b92505050608080830151868303828801526134538382613216565b9250505060a0808301518683038288015261346e8382613216565b9250505060c0808301516134858288018215159052565b505060e0918201511515949091019390935293860193908601906001016133c7565b6000602082840312156134b957600080fd5b81356001600160a01b03811681146134d057600080fd5b9392505050565b600080600080608085870312156134ed57600080fd5b843567ffffffffffffffff8082111561350557600080fd5b61351188838901612fa7565b9550602087013591508082111561352757600080fd5b61353388838901612fa7565b9450604087013591508082111561354957600080fd5b61355588838901612fa7565b9350606087013591508082111561356b57600080fd5b5061357887828801612fa7565b91505092959194509250565b600060208083018184528085518083526040925060408601915060408160051b87010184880160005b8381101561339057603f19898403018552815161018081518186526135d482870182613216565b915050888201518582038a8701526135ec8282613216565b91505087820151613607898701826001600160a01b03169052565b506060808301518683038288015261361f8382613216565b92505050608080830151818701525060a080830151868303828801526136458382613216565b9250505060c080830151818701525060e0808301518683038288015261366b8382613216565b9250505061010080830151868303828801526136878382613216565b9250505061012080830151868303828801526136a38382613216565b92505050610140808301516136bb8288018215159052565b5050610160918201511515949091019390935293860193908601906001016135ad565b600060208083018184528085518083526040925060408601915060408160051b87010184880160005b8381101561339057603f1989840301855281516101c0815181865261372e82870182613216565b915050888201518582038a8701526137468282613216565b915050878201518582038987015261375e8282613216565b606084810151908801526080808501519088015260a0808501516001600160a01b03169088015260c080850151888303828a015291935091506137a18382613216565b9250505060e080830151868303828801526137bc8382613216565b9250505061010080830151868303828801526137d88382613216565b9250505061012080830151868303828801526137f48382613216565b9250505061014080830151868303828801526138108382613216565b92505050610160808301518683038288015261382c8382613216565b9250505061018080830151868303828801526138488382613216565b925050506101a08083015192506138628187018415159052565b509588019593505090860190600101613707565b600080600080600080600060e0888a03121561389157600080fd5b873567ffffffffffffffff808211156138a957600080fd5b6138b58b838c01612fa7565b985060208a01359150808211156138cb57600080fd5b6138d78b838c01612fa7565b975060408a01359150808211156138ed57600080fd5b6138f98b838c01612fa7565b965060608a013591508082111561390f57600080fd5b61391b8b838c01612fa7565b955060808a013591508082111561393157600080fd5b61393d8b838c01612fa7565b945060a08a0135935060c08a01359150808211156130fd57600080fd5b600060208083016020845280855180835260408601915060408160051b87010192506020870160005b828110156139b157603f1988860301845261399f858351613216565b94509285019290850190600101613983565b5092979650505050505050565b600181811c908216806139d257607f821691505b602082108103612dfc57634e487b7160e01b600052602260045260246000fd5b601f82111561056e576000816000526020600020601f850160051c81016020861015613a1b5750805b601f850160051c820191505b81811015613a3a57828155600101613a27565b505050505050565b815167ffffffffffffffff811115613a5c57613a5c612f91565b613a7081613a6a84546139be565b846139f2565b602080601f831160018114613aa55760008415613a8d5750858301515b600019600386901b1c1916600185901b178555613a3a565b600085815260208120601f198616915b82811015613ad457888601518255948401946001909101908401613ab5565b5085821015613af25787850151600019600388901b60f8161c191681555b5050505050600190811b01905550565b60e081526000613b1560e083018a613216565b8281036020840152613b27818a613216565b90508760408401528281036060840152613b418188613216565b905085608084015282810360a0840152613b5b8186613216565b905082810360c0840152613b6f8185613216565b9a9950505050505050505050565b60008251613b8f8184602087016131f2565b9190910192915050565b634e487b7160e01b600052603260045260246000fd5b6000808354613bbd816139be565b60018281168015613bd55760018114613bea57613c19565b60ff1984168752821515830287019450613c19565b8760005260208060002060005b85811015613c105781548a820152908401908201613bf7565b50505082870194505b50929695505050505050565b604081526000613c386040830185613216565b8281036020840152613c4a8185613216565b95945050505050565b60008235603e19833603018112613b8f57600080fd5b6000808335601e19843603018112613c8057600080fd5b83018035915067ffffffffffffffff821115613c9b57600080fd5b602001915036819003821315613cb057600080fd5b9250929050565b8183823760009101908152919050565b81810381811115613ce857634e487b7160e01b600052601160045260246000fd5b92915050565b6020815260006134d0602083018461321656fea26469706673582212201ac63935353a03accb399edbd2b5cdfc87ac470fd8becd27b8a8019656fea58e64736f6c63430008180033",
  "linkReferences": {},
  "deployedLinkReferences": {}
}