{
  "_format": "hh-sol-artifact-1",
  "contractName": "UserManager",
  "sourceName": "contracts/UserManager.sol",
  "abi": [
    {
      "anonymous": false,
      "inputs": [
        {
          "indexed": false,
          "internalType": "string",
          "name": "name",
          "type": "string"
        },
        {
          "indexed": false,
          "internalType": "string",
          "name": "email",
          "type": "string"
        },
        {
          "indexed": false,
          "internalType": "string",
          "name": "password",
          "type": "string"
        },
        {
          "indexed": false,
          "internalType": "string",
          "name": "role",
          "type": "string"
        }
      ],
      "name": "createAuthorityEvent",
      "type": "event"
    },
    {
      "anonymous": false,
      "inputs": [
        {
          "indexed": false,
          "internalType": "string",
          "name": "name",
          "type": "string"
        },
        {
          "indexed": false,
          "internalType": "string",
          "name": "email",
          "type": "string"
        },
        {
          "indexed": false,
          "internalType": "string",
          "name": "password",
          "type": "string"
        },
        {
          "indexed": false,
          "internalType": "string",
          "name": "role",
          "type": "string"
        }
      ],
      "name": "createCustomerEvent",
      "type": "event"
    },
    {
      "anonymous": false,
      "inputs": [
        {
          "indexed": false,
          "internalType": "string",
          "name": "name",
          "type": "string"
        },
        {
          "indexed": false,
          "internalType": "string",
          "name": "email",
          "type": "string"
        },
        {
          "indexed": false,
          "internalType": "string",
          "name": "password",
          "type": "string"
        },
        {
          "indexed": false,
          "internalType": "string",
          "name": "role",
          "type": "string"
        }
      ],
      "name": "createFarmerEvent",
      "type": "event"
    },
    {
      "inputs": [
        {
          "internalType": "string",
          "name": "name",
          "type": "string"
        },
        {
          "internalType": "string",
          "name": "email",
          "type": "string"
        },
        {
          "internalType": "string",
          "name": "password",
          "type": "string"
        },
        {
          "internalType": "string",
          "name": "role",
          "type": "string"
        }
      ],
      "name": "createAuthority",
      "outputs": [],
      "stateMutability": "nonpayable",
      "type": "function"
    },
    {
      "inputs": [
        {
          "internalType": "string",
          "name": "name",
          "type": "string"
        },
        {
          "internalType": "string",
          "name": "email",
          "type": "string"
        },
        {
          "internalType": "string",
          "name": "password",
          "type": "string"
        },
        {
          "internalType": "string",
          "name": "role",
          "type": "string"
        }
      ],
      "name": "createCustomer",
      "outputs": [],
      "stateMutability": "nonpayable",
      "type": "function"
    },
    {
      "inputs": [
        {
          "internalType": "string",
          "name": "name",
          "type": "string"
        },
        {
          "internalType": "string",
          "name": "email",
          "type": "string"
        },
        {
          "internalType": "string",
          "name": "password",
          "type": "string"
        },
        {
          "internalType": "string",
          "name": "role",
          "type": "string"
        }
      ],
      "name": "createFarmer",
      "outputs": [],
      "stateMutability": "nonpayable",
      "type": "function"
    },
    {
      "inputs": [
        {
          "internalType": "string",
          "name": "password",
          "type": "string"
        }
      ],
      "name": "getAuthority",
      "outputs": [
        {
          "components": [
            {
              "internalType": "string",
              "name": "name",
              "type": "string"
            },
            {
              "internalType": "string",
              "name": "email",
              "type": "string"
            },
            {
              "internalType": "string",
              "name": "password",
              "type": "string"
            },
            {
              "internalType": "string",
              "name": "role",
              "type": "string"
            },
            {
              "internalType": "address",
              "name": "ETHAddress",
              "type": "address"
            }
          ],
          "internalType": "struct UserManager.Authority",
          "name": "",
          "type": "tuple"
        }
      ],
      "stateMutability": "view",
      "type": "function"
    },
    {
      "inputs": [
        {
          "internalType": "string",
          "name": "password",
          "type": "string"
        }
      ],
      "name": "getCustomer",
      "outputs": [
        {
          "components": [
            {
              "internalType": "string",
              "name": "name",
              "type": "string"
            },
            {
              "internalType": "string",
              "name": "email",
              "type": "string"
            },
            {
              "internalType": "string",
              "name": "password",
              "type": "string"
            },
            {
              "internalType": "string",
              "name": "role",
              "type": "string"
            },
            {
              "internalType": "address",
              "name": "ETHAddress",
              "type": "address"
            }
          ],
          "internalType": "struct UserManager.Customer",
          "name": "",
          "type": "tuple"
        }
      ],
      "stateMutability": "view",
      "type": "function"
    },
    {
      "inputs": [
        {
          "internalType": "string",
          "name": "password",
          "type": "string"
        }
      ],
      "name": "getFarmer",
      "outputs": [
        {
          "components": [
            {
              "internalType": "string",
              "name": "name",
              "type": "string"
            },
            {
              "internalType": "string",
              "name": "email",
              "type": "string"
            },
            {
              "internalType": "string",
              "name": "password",
              "type": "string"
            },
            {
              "internalType": "string",
              "name": "role",
              "type": "string"
            },
            {
              "internalType": "address",
              "name": "ETHAddress",
              "type": "address"
            }
          ],
          "internalType": "struct UserManager.Farmer",
          "name": "",
          "type": "tuple"
        }
      ],
      "stateMutability": "view",
      "type": "function"
    }
  ],
  "bytecode": "0x608060405234801561001057600080fd5b506111e3806100206000396000f3fe608060405234801561001057600080fd5b50600436106100625760003560e01c8063200d6de7146100675780635087e6681461007c578063518bddd9146100a55780635baef56d146100b8578063b1514942146100cb578063b51ca0af146100de575b600080fd5b61007a610075366004610d51565b6100f1565b005b61008f61008a366004610dfe565b610295565b60405161009c9190610f0c565b60405180910390f35b61008f6100b3366004610dfe565b610672565b61007a6100c6366004610d51565b6107f8565b61008f6100d9366004610dfe565b610991565b61007a6100ec366004610d51565b610b17565b336040516020016101029190610f26565b60408051601f1981840301815282825280516020918201203360009081526001835292909220600401549192610142926001600160a01b03169101610f26565b60405160208183030381529060405280519060200120036101a25760405162461bcd60e51b81526020600482015260156024820152744661726d657220616c72656164792065786973742160581b60448201526064015b60405180910390fd5b6040805160a08101825285815260208082018690528183018590526060820184905233608083018190526000908152600190915291909120815181906101e89082610fce565b50602082015160018201906101fd9082610fce565b50604082015160028201906102129082610fce565b50606082015160038201906102279082610fce565b5060809190910151600490910180546001600160a01b0319166001600160a01b039092169190911790556040517f5c47ff0a569e587692da604d2bf92787dd7f006684698dbd8c59539be7e35a749061028790869086908690869061108e565b60405180910390a150505050565b6102d06040518060a001604052806060815260200160608152602001606081526020016060815260200160006001600160a01b031681525090565b336040516020016102e19190610f26565b60408051601f1981840301815282825280516020918201203360009081526002835292909220600401549192610321926001600160a01b03169101610f26565b604051602081830303815290604052805190602001201461037b5760405162461bcd60e51b8152602060048201526014602482015273417574686f72697479204e6f742065786973742160601b6044820152606401610199565b8160405160200161038c91906110e6565b60408051601f198184030181528282528051602091820120336000908152600280845293902090936103c393919091019101611102565b60405160208183030381529060405280519060200120146103f65760405162461bcd60e51b815260040161019990611178565b3360009081526002602052604090819020815160a0810190925280548290829061041f90610f43565b80601f016020809104026020016040519081016040528092919081815260200182805461044b90610f43565b80156104985780601f1061046d57610100808354040283529160200191610498565b820191906000526020600020905b81548152906001019060200180831161047b57829003601f168201915b505050505081526020016001820180546104b190610f43565b80601f01602080910402602001604051908101604052809291908181526020018280546104dd90610f43565b801561052a5780601f106104ff5761010080835404028352916020019161052a565b820191906000526020600020905b81548152906001019060200180831161050d57829003601f168201915b5050505050815260200160028201805461054390610f43565b80601f016020809104026020016040519081016040528092919081815260200182805461056f90610f43565b80156105bc5780601f10610591576101008083540402835291602001916105bc565b820191906000526020600020905b81548152906001019060200180831161059f57829003601f168201915b505050505081526020016003820180546105d590610f43565b80601f016020809104026020016040519081016040528092919081815260200182805461060190610f43565b801561064e5780601f106106235761010080835404028352916020019161064e565b820191906000526020600020905b81548152906001019060200180831161063157829003601f168201915b5050509183525050600491909101546001600160a01b031660209091015292915050565b6106ad6040518060a001604052806060815260200160608152602001606081526020016060815260200160006001600160a01b031681525090565b336040516020016106be9190610f26565b60408051601f198184030181528282528051602091820120336000908152808352929092206004015491926106fd926001600160a01b03169101610f26565b60405160208183030381529060405280519060200120146107565760405162461bcd60e51b8152602060048201526013602482015272437573746f6d6572204e6f742065786973742160681b6044820152606401610199565b8160405160200161076791906110e6565b60408051601f19818403018152828252805160209182012033600090815280835292909220919261079c926002019101611102565b60405160208183030381529060405280519060200120146107cf5760405162461bcd60e51b815260040161019990611178565b3360009081526020819052604090819020815160a0810190925280548290829061041f90610f43565b336040516020016108099190610f26565b60408051601f1981840301815282825280516020918201203360009081526002835292909220600401549192610849926001600160a01b03169101610f26565b60405160208183030381529060405280519060200120036108ac5760405162461bcd60e51b815260206004820152601860248201527f417574686f7269747920616c72656164792065786973742100000000000000006044820152606401610199565b6040805160a08101825285815260208082018690528183018590526060820184905233608083018190526000908152600290915291909120815181906108f29082610fce565b50602082015160018201906109079082610fce565b506040820151600282019061091c9082610fce565b50606082015160038201906109319082610fce565b5060809190910151600490910180546001600160a01b0319166001600160a01b039092169190911790556040517fc5818d9d7df1d0bdb4144d2e0d9ca09a1d5b05dbaea4477c8e49131d5b6623ad9061028790869086908690869061108e565b6109cc6040518060a001604052806060815260200160608152602001606081526020016060815260200160006001600160a01b031681525090565b336040516020016109dd9190610f26565b60408051601f1981840301815282825280516020918201203360009081526001835292909220600401549192610a1d926001600160a01b03169101610f26565b6040516020818303038152906040528051906020012014610a745760405162461bcd60e51b81526020600482015260116024820152704661726d6572204e6f742065786973742160781b6044820152606401610199565b81604051602001610a8591906110e6565b60408051601f19818403018152828252805160209182012033600090815260018352929092209192610abb926002019101611102565b6040516020818303038152906040528051906020012014610aee5760405162461bcd60e51b815260040161019990611178565b3360009081526001602052604090819020815160a0810190925280548290829061041f90610f43565b33604051602001610b289190610f26565b60408051601f19818403018152828252805160209182012033600090815280835292909220600401549192610b67926001600160a01b03169101610f26565b6040516020818303038152906040528051906020012003610bca5760405162461bcd60e51b815260206004820152601760248201527f437573746f6d657220616c7265616479206578697374210000000000000000006044820152606401610199565b6040805160a08101825285815260208082018690528183018590526060820184905233608083018190526000908152908190529190912081518190610c0f9082610fce565b5060208201516001820190610c249082610fce565b5060408201516002820190610c399082610fce565b5060608201516003820190610c4e9082610fce565b5060809190910151600490910180546001600160a01b0319166001600160a01b039092169190911790556040517f1b4cea3558a9e0c9f742c904e361522d01633b394adf89f8b91d8a50df89117a9061028790869086908690869061108e565b634e487b7160e01b600052604160045260246000fd5b600082601f830112610cd557600080fd5b813567ffffffffffffffff80821115610cf057610cf0610cae565b604051601f8301601f19908116603f01168101908282118183101715610d1857610d18610cae565b81604052838152866020858801011115610d3157600080fd5b836020870160208301376000602085830101528094505050505092915050565b60008060008060808587031215610d6757600080fd5b843567ffffffffffffffff80821115610d7f57600080fd5b610d8b88838901610cc4565b95506020870135915080821115610da157600080fd5b610dad88838901610cc4565b94506040870135915080821115610dc357600080fd5b610dcf88838901610cc4565b93506060870135915080821115610de557600080fd5b50610df287828801610cc4565b91505092959194509250565b600060208284031215610e1057600080fd5b813567ffffffffffffffff811115610e2757600080fd5b610e3384828501610cc4565b949350505050565b60005b83811015610e56578181015183820152602001610e3e565b50506000910152565b60008151808452610e77816020860160208601610e3b565b601f01601f19169290920160200192915050565b6000815160a08452610ea060a0850182610e5f565b905060208301518482036020860152610eb98282610e5f565b91505060408301518482036040860152610ed38282610e5f565b91505060608301518482036060860152610eed8282610e5f565b6080948501516001600160a01b03169590940194909452509092915050565b602081526000610f1f6020830184610e8b565b9392505050565b60609190911b6bffffffffffffffffffffffff1916815260140190565b600181811c90821680610f5757607f821691505b602082108103610f7757634e487b7160e01b600052602260045260246000fd5b50919050565b601f821115610fc9576000816000526020600020601f850160051c81016020861015610fa65750805b601f850160051c820191505b81811015610fc557828155600101610fb2565b5050505b505050565b815167ffffffffffffffff811115610fe857610fe8610cae565b610ffc81610ff68454610f43565b84610f7d565b602080601f83116001811461103157600084156110195750858301515b600019600386901b1c1916600185901b178555610fc5565b600085815260208120601f198616915b8281101561106057888601518255948401946001909101908401611041565b508582101561107e5787850151600019600388901b60f8161c191681555b5050505050600190811b01905550565b6080815260006110a16080830187610e5f565b82810360208401526110b38187610e5f565b905082810360408401526110c78186610e5f565b905082810360608401526110db8185610e5f565b979650505050505050565b600082516110f8818460208701610e3b565b9190910192915050565b600080835461111081610f43565b60018281168015611128576001811461113d5761116c565b60ff198416875282151583028701945061116c565b8760005260208060002060005b858110156111635781548a82015290840190820161114a565b50505082870194505b50929695505050505050565b6020808252818101527f57726f6e672070617373776f72642c506c656173652054727920416761696e2160408201526060019056fea2646970667358221220299c594252b5062d0a04c84e773154adc4320866ccfedecbdb9c6e2bcdc7bf9364736f6c63430008180033",
  "linkReferences": {},
  "deployedLinkReferences": {}
}