{
  "_format": "hh-sol-artifact-1",
  "contractName": "UserManager",
  "sourceName": "contracts/UserManager.sol",
  "abi": [
    {
      "anonymous": false,
      "inputs": [],
      "name": "addCartEvent",
      "type": "event"
    },
    {
      "anonymous": false,
      "inputs": [
        {
          "indexed": false,
          "internalType": "string",
          "name": "name",
          "type": "string"
        },
        {
          "indexed": false,
          "internalType": "string",
          "name": "email",
          "type": "string"
        },
        {
          "indexed": false,
          "internalType": "string",
          "name": "password",
          "type": "string"
        },
        {
          "indexed": false,
          "internalType": "string",
          "name": "role",
          "type": "string"
        }
      ],
      "name": "createAuthorityEvent",
      "type": "event"
    },
    {
      "anonymous": false,
      "inputs": [
        {
          "indexed": false,
          "internalType": "string",
          "name": "name",
          "type": "string"
        },
        {
          "indexed": false,
          "internalType": "string",
          "name": "email",
          "type": "string"
        },
        {
          "indexed": false,
          "internalType": "string",
          "name": "password",
          "type": "string"
        },
        {
          "indexed": false,
          "internalType": "string",
          "name": "role",
          "type": "string"
        }
      ],
      "name": "createCourierEvent",
      "type": "event"
    },
    {
      "anonymous": false,
      "inputs": [
        {
          "indexed": false,
          "internalType": "string",
          "name": "name",
          "type": "string"
        },
        {
          "indexed": false,
          "internalType": "string",
          "name": "email",
          "type": "string"
        },
        {
          "indexed": false,
          "internalType": "string",
          "name": "password",
          "type": "string"
        },
        {
          "indexed": false,
          "internalType": "string",
          "name": "role",
          "type": "string"
        }
      ],
      "name": "createCustomerEvent",
      "type": "event"
    },
    {
      "anonymous": false,
      "inputs": [
        {
          "indexed": false,
          "internalType": "string",
          "name": "name",
          "type": "string"
        },
        {
          "indexed": false,
          "internalType": "string",
          "name": "email",
          "type": "string"
        },
        {
          "indexed": false,
          "internalType": "string",
          "name": "password",
          "type": "string"
        },
        {
          "indexed": false,
          "internalType": "string",
          "name": "role",
          "type": "string"
        }
      ],
      "name": "createFarmerEvent",
      "type": "event"
    },
    {
      "anonymous": false,
      "inputs": [],
      "name": "orderProductEvent",
      "type": "event"
    },
    {
      "anonymous": false,
      "inputs": [],
      "name": "productDeliveredEvent",
      "type": "event"
    },
    {
      "anonymous": false,
      "inputs": [],
      "name": "removeProductEvent",
      "type": "event"
    },
    {
      "anonymous": false,
      "inputs": [],
      "name": "updateCartEvent",
      "type": "event"
    },
    {
      "inputs": [
        {
          "internalType": "string",
          "name": "id",
          "type": "string"
        },
        {
          "internalType": "uint256",
          "name": "quantity",
          "type": "uint256"
        }
      ],
      "name": "addCart",
      "outputs": [],
      "stateMutability": "nonpayable",
      "type": "function"
    },
    {
      "inputs": [
        {
          "internalType": "string",
          "name": "name",
          "type": "string"
        },
        {
          "internalType": "string",
          "name": "email",
          "type": "string"
        },
        {
          "internalType": "string",
          "name": "password",
          "type": "string"
        },
        {
          "internalType": "string",
          "name": "role",
          "type": "string"
        }
      ],
      "name": "createAuthority",
      "outputs": [],
      "stateMutability": "nonpayable",
      "type": "function"
    },
    {
      "inputs": [
        {
          "internalType": "string",
          "name": "name",
          "type": "string"
        },
        {
          "internalType": "string",
          "name": "email",
          "type": "string"
        },
        {
          "internalType": "string",
          "name": "password",
          "type": "string"
        },
        {
          "internalType": "string",
          "name": "role",
          "type": "string"
        }
      ],
      "name": "createCourier",
      "outputs": [],
      "stateMutability": "nonpayable",
      "type": "function"
    },
    {
      "inputs": [
        {
          "internalType": "string",
          "name": "name",
          "type": "string"
        },
        {
          "internalType": "string",
          "name": "email",
          "type": "string"
        },
        {
          "internalType": "string",
          "name": "password",
          "type": "string"
        },
        {
          "internalType": "string",
          "name": "role",
          "type": "string"
        }
      ],
      "name": "createCustomer",
      "outputs": [],
      "stateMutability": "nonpayable",
      "type": "function"
    },
    {
      "inputs": [
        {
          "internalType": "string",
          "name": "name",
          "type": "string"
        },
        {
          "internalType": "string",
          "name": "email",
          "type": "string"
        },
        {
          "internalType": "string",
          "name": "password",
          "type": "string"
        },
        {
          "internalType": "string",
          "name": "role",
          "type": "string"
        }
      ],
      "name": "createFarmer",
      "outputs": [],
      "stateMutability": "nonpayable",
      "type": "function"
    },
    {
      "inputs": [],
      "name": "getAllOrderIds",
      "outputs": [
        {
          "internalType": "string[]",
          "name": "",
          "type": "string[]"
        }
      ],
      "stateMutability": "view",
      "type": "function"
    },
    {
      "inputs": [
        {
          "internalType": "string",
          "name": "password",
          "type": "string"
        }
      ],
      "name": "getAuthority",
      "outputs": [
        {
          "components": [
            {
              "internalType": "string",
              "name": "name",
              "type": "string"
            },
            {
              "internalType": "string",
              "name": "email",
              "type": "string"
            },
            {
              "internalType": "string",
              "name": "password",
              "type": "string"
            },
            {
              "internalType": "string",
              "name": "role",
              "type": "string"
            },
            {
              "internalType": "address",
              "name": "ETHAddress",
              "type": "address"
            }
          ],
          "internalType": "struct UserManager.Authority",
          "name": "",
          "type": "tuple"
        }
      ],
      "stateMutability": "view",
      "type": "function"
    },
    {
      "inputs": [],
      "name": "getCart",
      "outputs": [
        {
          "components": [
            {
              "internalType": "string",
              "name": "id",
              "type": "string"
            },
            {
              "internalType": "uint256",
              "name": "quantity",
              "type": "uint256"
            }
          ],
          "internalType": "struct UserManager.Item[]",
          "name": "",
          "type": "tuple[]"
        }
      ],
      "stateMutability": "view",
      "type": "function"
    },
    {
      "inputs": [
        {
          "internalType": "string",
          "name": "password",
          "type": "string"
        }
      ],
      "name": "getCourier",
      "outputs": [
        {
          "components": [
            {
              "internalType": "string",
              "name": "name",
              "type": "string"
            },
            {
              "internalType": "string",
              "name": "email",
              "type": "string"
            },
            {
              "internalType": "string",
              "name": "password",
              "type": "string"
            },
            {
              "internalType": "string",
              "name": "role",
              "type": "string"
            },
            {
              "internalType": "address",
              "name": "ETHAddress",
              "type": "address"
            }
          ],
          "internalType": "struct UserManager.Courier",
          "name": "",
          "type": "tuple"
        }
      ],
      "stateMutability": "view",
      "type": "function"
    },
    {
      "inputs": [
        {
          "internalType": "string",
          "name": "password",
          "type": "string"
        }
      ],
      "name": "getCustomer",
      "outputs": [
        {
          "components": [
            {
              "internalType": "string",
              "name": "name",
              "type": "string"
            },
            {
              "internalType": "string",
              "name": "email",
              "type": "string"
            },
            {
              "internalType": "string",
              "name": "password",
              "type": "string"
            },
            {
              "internalType": "string",
              "name": "role",
              "type": "string"
            },
            {
              "internalType": "address",
              "name": "ETHAddress",
              "type": "address"
            }
          ],
          "internalType": "struct UserManager.Customer",
          "name": "",
          "type": "tuple"
        }
      ],
      "stateMutability": "view",
      "type": "function"
    },
    {
      "inputs": [
        {
          "internalType": "string",
          "name": "password",
          "type": "string"
        }
      ],
      "name": "getFarmer",
      "outputs": [
        {
          "components": [
            {
              "internalType": "string",
              "name": "name",
              "type": "string"
            },
            {
              "internalType": "string",
              "name": "email",
              "type": "string"
            },
            {
              "internalType": "string",
              "name": "password",
              "type": "string"
            },
            {
              "internalType": "string",
              "name": "role",
              "type": "string"
            },
            {
              "internalType": "address",
              "name": "ETHAddress",
              "type": "address"
            }
          ],
          "internalType": "struct UserManager.Farmer",
          "name": "",
          "type": "tuple"
        }
      ],
      "stateMutability": "view",
      "type": "function"
    },
    {
      "inputs": [
        {
          "internalType": "string",
          "name": "pid",
          "type": "string"
        },
        {
          "internalType": "uint256",
          "name": "price",
          "type": "uint256"
        },
        {
          "internalType": "address",
          "name": "seller",
          "type": "address"
        },
        {
          "internalType": "string",
          "name": "time",
          "type": "string"
        },
        {
          "internalType": "uint256",
          "name": "quantity",
          "type": "uint256"
        },
        {
          "internalType": "string",
          "name": "oid",
          "type": "string"
        }
      ],
      "name": "orderProduct",
      "outputs": [],
      "stateMutability": "payable",
      "type": "function"
    },
    {
      "inputs": [
        {
          "internalType": "address",
          "name": "customer",
          "type": "address"
        },
        {
          "internalType": "string",
          "name": "pid",
          "type": "string"
        },
        {
          "internalType": "string",
          "name": "oid",
          "type": "string"
        },
        {
          "internalType": "string",
          "name": "time",
          "type": "string"
        }
      ],
      "name": "productDelivered",
      "outputs": [],
      "stateMutability": "nonpayable",
      "type": "function"
    },
    {
      "inputs": [
        {
          "internalType": "string",
          "name": "id",
          "type": "string"
        }
      ],
      "name": "removeProduct",
      "outputs": [],
      "stateMutability": "nonpayable",
      "type": "function"
    },
    {
      "inputs": [
        {
          "components": [
            {
              "internalType": "string",
              "name": "id",
              "type": "string"
            },
            {
              "internalType": "uint256",
              "name": "quantity",
              "type": "uint256"
            }
          ],
          "internalType": "struct UserManager.Item[]",
          "name": "items",
          "type": "tuple[]"
        }
      ],
      "name": "updateCart",
      "outputs": [],
      "stateMutability": "nonpayable",
      "type": "function"
    }
  ],
  "bytecode": "0x608060405234801561001057600080fd5b50612667806100206000396000f3fe6080604052600436106100e85760003560e01c80635baef56d1161008a5780639726dd19116100595780639726dd1914610269578063b151494214610289578063b51ca0af146102a9578063d1fcc601146102c957600080fd5b80635baef56d146101e95780635e94d720146102095780636257bb641461022957806384bdfcd71461024957600080fd5b806333bf3ee2116100c657806333bf3ee21461015a5780634b2b612a1461017a5780635087e6681461019c578063518bddd9146101c957600080fd5b8063200d6de7146100ed57806321627dad1461010f5780632df6a4ed1461013a575b600080fd5b3480156100f957600080fd5b5061010d610108366004611d70565b6102dc565b005b34801561011b57600080fd5b50610124610480565b6040516101319190611e6d565b60405180910390f35b34801561014657600080fd5b5061010d610155366004611f01565b610586565b34801561016657600080fd5b5061010d610175366004611f3d565b61074c565b34801561018657600080fd5b5061018f6108ed565b6040516101319190611f82565b3480156101a857600080fd5b506101bc6101b7366004611fe6565b610a58565b60405161013191906120a4565b3480156101d557600080fd5b506101bc6101e4366004611fe6565b610e34565b3480156101f557600080fd5b5061010d610204366004611d70565b610fbc565b34801561021557600080fd5b5061010d610224366004611d70565b611150565b34801561023557600080fd5b5061010d6102443660046120be565b6112e4565b34801561025557600080fd5b506101bc610264366004611fe6565b611439565b34801561027557600080fd5b5061010d610284366004611fe6565b6115c0565b34801561029557600080fd5b506101bc6102a4366004611fe6565b611791565b3480156102b557600080fd5b5061010d6102c4366004611d70565b611918565b61010d6102d7366004612133565b611ab1565b336040516020016102ed91906121de565b60408051601f198184030181528282528051602091820120336000908152600283529290922060040154919261032d926001600160a01b031691016121de565b604051602081830303815290604052805190602001200361038d5760405162461bcd60e51b81526020600482015260156024820152744661726d657220616c72656164792065786973742160581b60448201526064015b60405180910390fd5b6040805160a08101825285815260208082018690528183018590526060820184905233608083018190526000908152600290915291909120815181906103d3908261227f565b50602082015160018201906103e8908261227f565b50604082015160028201906103fd908261227f565b5060608201516003820190610412908261227f565b5060809190910151600490910180546001600160a01b0319166001600160a01b039092169190911790556040517f5c47ff0a569e587692da604d2bf92787dd7f006684698dbd8c59539be7e35a749061047290869086908690869061233f565b60405180910390a150505050565b336000908152600560209081526040808320805482518185028101850190935280835260609492939192909184015b8282101561057d57838290600052602060002090600202016040518060400160405290816000820180546104e2906121fb565b80601f016020809104026020016040519081016040528092919081815260200182805461050e906121fb565b801561055b5780601f106105305761010080835404028352916020019161055b565b820191906000526020600020905b81548152906001019060200180831161053e57829003601f168201915b50505050508152602001600182015481525050815260200190600101906104af565b50505050905090565b6001600160a01b0384166000908152602081905260408120600101905b815481101561071b57846040516020016105bd9190612397565b604051602081830303815290604052805190602001208282815481106105e5576105e56123b3565b906000526020600020906008020160010160405160200161060691906123c9565b604051602081830303815290604052805190602001201480156106965750836040516020016106359190612397565b6040516020818303038152906040528051906020012082828154811061065d5761065d6123b3565b906000526020600020906008020160020160405160200161067e91906123c9565b60405160208183030381529060405280519060200120145b156107135760018282815481106106af576106af6123b3565b60009182526020909120600890910201805460ff1916600183818111156106d8576106d861243f565b0217905550828282815481106106f0576106f06123b3565b9060005260206000209060080201600601908161070d919061227f565b5061071b565b6001016105a3565b506040517f74cd5e7dfebb0156a786c55b52978ae798c1c2003fdd43701e11ea011d8c56cf90600090a15050505050565b6000805b336000908152600560205260409020548110156107fc57836040516020016107789190612397565b60408051601f198184030181529181528151602092830120336000908152600590935291208054839081106107af576107af6123b3565b90600052602060002090600202016000016040516020016107d091906123c9565b60405160208183030381529060405280519060200120036107f457600191506107fc565b600101610750565b50801561084b5760405162461bcd60e51b815260206004820152601760248201527f70726f6475637420616c726561647920696e20636172740000000000000000006044820152606401610384565b33600090815260056020908152604080832081518083019092528682528183018690528054600181018255908452919092208251600290920201908190610892908261227f565b506020918201516001918201553360008181526005909352604080842090920180546001600160a01b0319169091179055517fa46323904629c5a10eff2de9a42dd39fc6ad2d1b5fc30eb094c7b7f4934923a99190a1505050565b336000908152602081905260408120600101546060919067ffffffffffffffff81111561091c5761091c611ccd565b60405190808252806020026020018201604052801561094f57816020015b606081526020019060019003908161093a5790505b50905060005b33600090815260208190526040902060010154811015610a5257336000908152602081905260409020600101805482908110610993576109936123b3565b906000526020600020906008020160020180546109af906121fb565b80601f01602080910402602001604051908101604052809291908181526020018280546109db906121fb565b8015610a285780601f106109fd57610100808354040283529160200191610a28565b820191906000526020600020905b815481529060010190602001808311610a0b57829003601f168201915b5050505050828281518110610a3f57610a3f6123b3565b6020908102919091010152600101610955565b50919050565b610a936040518060a001604052806060815260200160608152602001606081526020016060815260200160006001600160a01b031681525090565b33604051602001610aa491906121de565b60408051601f1981840301815282825280516020918201203360009081526003835292909220600401549192610ae4926001600160a01b031691016121de565b6040516020818303038152906040528051906020012014610b3e5760405162461bcd60e51b8152602060048201526014602482015273417574686f72697479204e6f742065786973742160601b6044820152606401610384565b81604051602001610b4f9190612397565b60408051601f19818403018152828252805160209182012033600090815260038352929092209192610b859260020191016123c9565b6040516020818303038152906040528051906020012014610bb85760405162461bcd60e51b815260040161038490612455565b3360009081526003602052604090819020815160a08101909252805482908290610be1906121fb565b80601f0160208091040260200160405190810160405280929190818152602001828054610c0d906121fb565b8015610c5a5780601f10610c2f57610100808354040283529160200191610c5a565b820191906000526020600020905b815481529060010190602001808311610c3d57829003601f168201915b50505050508152602001600182018054610c73906121fb565b80601f0160208091040260200160405190810160405280929190818152602001828054610c9f906121fb565b8015610cec5780601f10610cc157610100808354040283529160200191610cec565b820191906000526020600020905b815481529060010190602001808311610ccf57829003601f168201915b50505050508152602001600282018054610d05906121fb565b80601f0160208091040260200160405190810160405280929190818152602001828054610d31906121fb565b8015610d7e5780601f10610d5357610100808354040283529160200191610d7e565b820191906000526020600020905b815481529060010190602001808311610d6157829003601f168201915b50505050508152602001600382018054610d97906121fb565b80601f0160208091040260200160405190810160405280929190818152602001828054610dc3906121fb565b8015610e105780601f10610de557610100808354040283529160200191610e10565b820191906000526020600020905b815481529060010190602001808311610df357829003601f168201915b5050509183525050600491909101546001600160a01b031660209091015292915050565b610e6f6040518060a001604052806060815260200160608152602001606081526020016060815260200160006001600160a01b031681525090565b33604051602001610e8091906121de565b60408051601f1981840301815282825280516020918201203360009081526001835292909220600401549192610ec0926001600160a01b031691016121de565b6040516020818303038152906040528051906020012014610f195760405162461bcd60e51b8152602060048201526013602482015272437573746f6d6572204e6f742065786973742160681b6044820152606401610384565b81604051602001610f2a9190612397565b60408051601f19818403018152828252805160209182012033600090815260018352929092209192610f609260020191016123c9565b6040516020818303038152906040528051906020012014610f935760405162461bcd60e51b815260040161038490612455565b3360009081526001602052604090819020815160a08101909252805482908290610be1906121fb565b33604051602001610fcd91906121de565b60408051601f198184030181528282528051602091820120336000908152600383529290922060040154919261100d926001600160a01b031691016121de565b604051602081830303815290604052805190602001200361106b5760405162461bcd60e51b8152602060048201526018602482015277417574686f7269747920616c72656164792065786973742160401b6044820152606401610384565b6040805160a08101825285815260208082018690528183018590526060820184905233608083018190526000908152600390915291909120815181906110b1908261227f565b50602082015160018201906110c6908261227f565b50604082015160028201906110db908261227f565b50606082015160038201906110f0908261227f565b5060809190910151600490910180546001600160a01b0319166001600160a01b039092169190911790556040517fc5818d9d7df1d0bdb4144d2e0d9ca09a1d5b05dbaea4477c8e49131d5b6623ad9061047290869086908690869061233f565b3360405160200161116191906121de565b60408051601f19818403018152828252805160209182012033600090815260048084529390209092015491926111a1926001600160a01b031691016121de565b60405160208183030381529060405280519060200120036111ff5760405162461bcd60e51b8152602060048201526018602482015277417574686f7269747920616c72656164792065786973742160401b6044820152606401610384565b6040805160a0810182528581526020808201869052818301859052606082018490523360808301819052600090815260049091529190912081518190611245908261227f565b506020820151600182019061125a908261227f565b506040820151600282019061126f908261227f565b5060608201516003820190611284908261227f565b5060809190910151600490910180546001600160a01b0319166001600160a01b039092169190911790556040517f14910ef2263f83cc85289fa1244f2f612575d7ee261d2f3b223a0943f05a0b149061047290869086908690869061233f565b60005b818110156114345760005b3360009081526005602052604090205481101561142b5783838381811061131b5761131b6123b3565b905060200281019061132d919061248a565b61133790806124a0565b6040516020016113489291906124ee565b60408051601f1981840301815291815281516020928301203360009081526005909352912080548390811061137f5761137f6123b3565b90600052602060002090600202016000016040516020016113a091906123c9565b6040516020818303038152906040528051906020012003611423578383838181106113cd576113cd6123b3565b90506020028101906113df919061248a565b336000908152600560209081526040909120805492909101359183908110611409576114096123b3565b90600052602060002090600202016001018190555061142b565b6001016112f2565b506001016112e7565b505050565b6114746040518060a001604052806060815260200160608152602001606081526020016060815260200160006001600160a01b031681525090565b3360405160200161148591906121de565b60408051601f19818403018152828252805160209182012033600090815260048084529390209092015491926114c5926001600160a01b031691016121de565b604051602081830303815290604052805190602001201461151d5760405162461bcd60e51b8152602060048201526012602482015271436f7572696572204e6f742065786973742160701b6044820152606401610384565b8160405160200161152e9190612397565b60408051601f198184030181528282528051602091820120336000908152600483529290922091926115649260020191016123c9565b60405160208183030381529060405280519060200120146115975760405162461bcd60e51b815260040161038490612455565b3360009081526004602052604090819020815160a08101909252805482908290610be1906121fb565b60005b3360009081526005602052604090205481101561176457816040516020016115eb9190612397565b60408051601f19818403018152918152815160209283012033600090815260059093529120805483908110611622576116226123b3565b906000526020600020906002020160000160405160200161164391906123c9565b604051602081830303815290604052805190602001200361175c57805b3360009081526005602052604090205461167c90600190612514565b81101561170c5733600090815260056020526040902061169d82600161252d565b815481106116ad576116ad6123b3565b6000918252602080832033845260059091526040909220805460029092029092019190839081106116e0576116e06123b3565b60009182526020909120600290910201806116fb8382612540565b506001918201549082015501611660565b5033600090815260056020526040902080548061172b5761172b61261b565b6000828152602081206000199092019160028302019061174b8282611c77565b600182016000905550509055611764565b6001016115c3565b506040517fc5b87bed07a482ededce1576f924b1d6cdf6e498d73e35c8b02bcc736ac205a390600090a150565b6117cc6040518060a001604052806060815260200160608152602001606081526020016060815260200160006001600160a01b031681525090565b336040516020016117dd91906121de565b60408051601f198184030181528282528051602091820120336000908152600283529290922060040154919261181d926001600160a01b031691016121de565b60405160208183030381529060405280519060200120146118745760405162461bcd60e51b81526020600482015260116024820152704661726d6572204e6f742065786973742160781b6044820152606401610384565b816040516020016118859190612397565b60408051601f198184030181528282528051602091820120336000908152600280845293902090936118bc939190910191016123c9565b60405160208183030381529060405280519060200120146118ef5760405162461bcd60e51b815260040161038490612455565b3360009081526002602052604090819020815160a08101909252805482908290610be1906121fb565b3360405160200161192991906121de565b60408051601f1981840301815282825280516020918201203360009081526001835292909220600401549192611969926001600160a01b031691016121de565b60405160208183030381529060405280519060200120036119cc5760405162461bcd60e51b815260206004820152601760248201527f437573746f6d657220616c7265616479206578697374210000000000000000006044820152606401610384565b6040805160a0810182528581526020808201869052818301859052606082018490523360808301819052600090815260019091529190912081518190611a12908261227f565b5060208201516001820190611a27908261227f565b5060408201516002820190611a3c908261227f565b5060608201516003820190611a51908261227f565b5060809190910151600490910180546001600160a01b0319166001600160a01b039092169190911790556040517f1b4cea3558a9e0c9f742c904e361522d01633b394adf89f8b91d8a50df89117a9061047290869086908690869061233f565b843414611af15760405162461bcd60e51b815260206004820152600e60248201526d141056535153950811905253115160921b6044820152606401610384565b6040805161010081018252600080825260208083018a9052828401859052606083018990526080830186905260a0830187905260c083018790526001600160a01b03881660e084015233825281815292812060019081018054808301825590835293909120825160089094020180549293849391929091839160ff19909116908381811115611b8257611b8261243f565b021790555060208201516001820190611b9b908261227f565b5060408201516002820190611bb0908261227f565b50606082015160038201556080820151600482015560a08201516005820190611bd9908261227f565b5060c08201516006820190611bee908261227f565b5060e09190910151600790910180546001600160a01b0319166001600160a01b03928316179055604051908616906108fc8815029088906000818181858888f19350505050158015611c44573d6000803e3d6000fd5b506040517f7bab8ad11f8ad37ca148565c8640766d077c4ce878bcbfab5cfc8f5c01721d1e90600090a150505050505050565b508054611c83906121fb565b6000825580601f10611c93575050565b601f016020900490600052602060002090810190611cb19190611cb4565b50565b5b80821115611cc95760008155600101611cb5565b5090565b634e487b7160e01b600052604160045260246000fd5b600082601f830112611cf457600080fd5b813567ffffffffffffffff80821115611d0f57611d0f611ccd565b604051601f8301601f19908116603f01168101908282118183101715611d3757611d37611ccd565b81604052838152866020858801011115611d5057600080fd5b836020870160208301376000602085830101528094505050505092915050565b60008060008060808587031215611d8657600080fd5b843567ffffffffffffffff80821115611d9e57600080fd5b611daa88838901611ce3565b95506020870135915080821115611dc057600080fd5b611dcc88838901611ce3565b94506040870135915080821115611de257600080fd5b611dee88838901611ce3565b93506060870135915080821115611e0457600080fd5b50611e1187828801611ce3565b91505092959194509250565b60005b83811015611e38578181015183820152602001611e20565b50506000910152565b60008151808452611e59816020860160208601611e1d565b601f01601f19169290920160200192915050565b600060208083018184528085518083526040925060408601915060408160051b87010184880160005b83811015611ed757888303603f1901855281518051878552611eba88860182611e41565b918901519489019490945294870194925090860190600101611e96565b509098975050505050505050565b80356001600160a01b0381168114611efc57600080fd5b919050565b60008060008060808587031215611f1757600080fd5b611f2085611ee5565b9350602085013567ffffffffffffffff80821115611dc057600080fd5b60008060408385031215611f5057600080fd5b823567ffffffffffffffff811115611f6757600080fd5b611f7385828601611ce3565b95602094909401359450505050565b600060208083016020845280855180835260408601915060408160051b87010192506020870160005b82811015611fd957603f19888603018452611fc7858351611e41565b94509285019290850190600101611fab565b5092979650505050505050565b600060208284031215611ff857600080fd5b813567ffffffffffffffff81111561200f57600080fd5b61201b84828501611ce3565b949350505050565b6000815160a0845261203860a0850182611e41565b9050602083015184820360208601526120518282611e41565b9150506040830151848203604086015261206b8282611e41565b915050606083015184820360608601526120858282611e41565b6080948501516001600160a01b03169590940194909452509092915050565b6020815260006120b76020830184612023565b9392505050565b600080602083850312156120d157600080fd5b823567ffffffffffffffff808211156120e957600080fd5b818501915085601f8301126120fd57600080fd5b81358181111561210c57600080fd5b8660208260051b850101111561212157600080fd5b60209290920196919550909350505050565b60008060008060008060c0878903121561214c57600080fd5b863567ffffffffffffffff8082111561216457600080fd5b6121708a838b01611ce3565b97506020890135965061218560408a01611ee5565b9550606089013591508082111561219b57600080fd5b6121a78a838b01611ce3565b94506080890135935060a08901359150808211156121c457600080fd5b506121d189828a01611ce3565b9150509295509295509295565b60609190911b6bffffffffffffffffffffffff1916815260140190565b600181811c9082168061220f57607f821691505b602082108103610a5257634e487b7160e01b600052602260045260246000fd5b601f821115611434576000816000526020600020601f850160051c810160208610156122585750805b601f850160051c820191505b8181101561227757828155600101612264565b505050505050565b815167ffffffffffffffff81111561229957612299611ccd565b6122ad816122a784546121fb565b8461222f565b602080601f8311600181146122e257600084156122ca5750858301515b600019600386901b1c1916600185901b178555612277565b600085815260208120601f198616915b82811015612311578886015182559484019460019091019084016122f2565b508582101561232f5787850151600019600388901b60f8161c191681555b5050505050600190811b01905550565b6080815260006123526080830187611e41565b82810360208401526123648187611e41565b905082810360408401526123788186611e41565b9050828103606084015261238c8185611e41565b979650505050505050565b600082516123a9818460208701611e1d565b9190910192915050565b634e487b7160e01b600052603260045260246000fd5b60008083546123d7816121fb565b600182811680156123ef576001811461240457612433565b60ff1984168752821515830287019450612433565b8760005260208060002060005b8581101561242a5781548a820152908401908201612411565b50505082870194505b50929695505050505050565b634e487b7160e01b600052602160045260246000fd5b6020808252818101527f57726f6e672070617373776f72642c506c656173652054727920416761696e21604082015260600190565b60008235603e198336030181126123a957600080fd5b6000808335601e198436030181126124b757600080fd5b83018035915067ffffffffffffffff8211156124d257600080fd5b6020019150368190038213156124e757600080fd5b9250929050565b8183823760009101908152919050565b634e487b7160e01b600052601160045260246000fd5b81810381811115612527576125276124fe565b92915050565b80820180821115612527576125276124fe565b81810361254b575050565b61255582546121fb565b67ffffffffffffffff81111561256d5761256d611ccd565b61257b816122a784546121fb565b6000601f8211600181146125af57600083156125975750848201545b600019600385901b1c1916600184901b178455612614565b600085815260209020601f19841690600086815260209020845b838110156125e957828601548255600195860195909101906020016125c9565b50858310156126075781850154600019600388901b60f8161c191681555b50505060018360011b0184555b5050505050565b634e487b7160e01b600052603160045260246000fdfea26469706673582212208414905ca6d70f219be351d6327bc753fe06ece87ed02a52504a947541d2821e64736f6c63430008180033",
  "linkReferences": {},
  "deployedLinkReferences": {}
}