{
  "_format": "hh-sol-artifact-1",
  "contractName": "UserManager",
  "sourceName": "contracts/UserManager.sol",
  "abi": [
    {
      "anonymous": false,
      "inputs": [
        {
          "indexed": false,
          "internalType": "string",
          "name": "name",
          "type": "string"
        },
        {
          "indexed": false,
          "internalType": "string",
          "name": "email",
          "type": "string"
        },
        {
          "indexed": false,
          "internalType": "string",
          "name": "password",
          "type": "string"
        },
        {
          "indexed": false,
          "internalType": "string",
          "name": "role",
          "type": "string"
        }
      ],
      "name": "createAuthorityEvent",
      "type": "event"
    },
    {
      "anonymous": false,
      "inputs": [
        {
          "indexed": false,
          "internalType": "string",
          "name": "name",
          "type": "string"
        },
        {
          "indexed": false,
          "internalType": "string",
          "name": "email",
          "type": "string"
        },
        {
          "indexed": false,
          "internalType": "string",
          "name": "password",
          "type": "string"
        },
        {
          "indexed": false,
          "internalType": "string",
          "name": "role",
          "type": "string"
        }
      ],
      "name": "createCourierEvent",
      "type": "event"
    },
    {
      "anonymous": false,
      "inputs": [
        {
          "indexed": false,
          "internalType": "string",
          "name": "name",
          "type": "string"
        },
        {
          "indexed": false,
          "internalType": "string",
          "name": "email",
          "type": "string"
        },
        {
          "indexed": false,
          "internalType": "string",
          "name": "password",
          "type": "string"
        },
        {
          "indexed": false,
          "internalType": "string",
          "name": "role",
          "type": "string"
        }
      ],
      "name": "createCustomerEvent",
      "type": "event"
    },
    {
      "anonymous": false,
      "inputs": [
        {
          "indexed": false,
          "internalType": "string",
          "name": "name",
          "type": "string"
        },
        {
          "indexed": false,
          "internalType": "string",
          "name": "email",
          "type": "string"
        },
        {
          "indexed": false,
          "internalType": "string",
          "name": "password",
          "type": "string"
        },
        {
          "indexed": false,
          "internalType": "string",
          "name": "role",
          "type": "string"
        }
      ],
      "name": "createFarmerEvent",
      "type": "event"
    },
    {
      "anonymous": false,
      "inputs": [],
      "name": "deleteCustomerEvent",
      "type": "event"
    },
    {
      "anonymous": false,
      "inputs": [],
      "name": "deleteFarmerEvent",
      "type": "event"
    },
    {
      "anonymous": false,
      "inputs": [],
      "name": "fillDetailsEvent",
      "type": "event"
    },
    {
      "anonymous": false,
      "inputs": [],
      "name": "orderPickedEvent",
      "type": "event"
    },
    {
      "anonymous": false,
      "inputs": [],
      "name": "orderProductEvent",
      "type": "event"
    },
    {
      "anonymous": false,
      "inputs": [],
      "name": "productDeliveredEvent",
      "type": "event"
    },
    {
      "inputs": [
        {
          "internalType": "string",
          "name": "name",
          "type": "string"
        },
        {
          "internalType": "string",
          "name": "email",
          "type": "string"
        },
        {
          "internalType": "string",
          "name": "password",
          "type": "string"
        },
        {
          "internalType": "string",
          "name": "role",
          "type": "string"
        }
      ],
      "name": "createAuthority",
      "outputs": [],
      "stateMutability": "nonpayable",
      "type": "function"
    },
    {
      "inputs": [
        {
          "internalType": "string",
          "name": "name",
          "type": "string"
        },
        {
          "internalType": "string",
          "name": "email",
          "type": "string"
        },
        {
          "internalType": "string",
          "name": "password",
          "type": "string"
        },
        {
          "internalType": "string",
          "name": "role",
          "type": "string"
        }
      ],
      "name": "createCourier",
      "outputs": [],
      "stateMutability": "nonpayable",
      "type": "function"
    },
    {
      "inputs": [
        {
          "internalType": "string",
          "name": "name",
          "type": "string"
        },
        {
          "internalType": "string",
          "name": "email",
          "type": "string"
        },
        {
          "internalType": "string",
          "name": "password",
          "type": "string"
        },
        {
          "internalType": "string",
          "name": "role",
          "type": "string"
        }
      ],
      "name": "createCustomer",
      "outputs": [],
      "stateMutability": "nonpayable",
      "type": "function"
    },
    {
      "inputs": [
        {
          "internalType": "string",
          "name": "name",
          "type": "string"
        },
        {
          "internalType": "string",
          "name": "email",
          "type": "string"
        },
        {
          "internalType": "string",
          "name": "password",
          "type": "string"
        },
        {
          "internalType": "string",
          "name": "role",
          "type": "string"
        }
      ],
      "name": "createFarmer",
      "outputs": [],
      "stateMutability": "nonpayable",
      "type": "function"
    },
    {
      "inputs": [],
      "name": "customerList",
      "outputs": [
        {
          "components": [
            {
              "internalType": "string",
              "name": "name",
              "type": "string"
            },
            {
              "internalType": "string",
              "name": "email",
              "type": "string"
            },
            {
              "internalType": "string",
              "name": "password",
              "type": "string"
            },
            {
              "internalType": "string",
              "name": "role",
              "type": "string"
            },
            {
              "internalType": "address",
              "name": "ETHAddress",
              "type": "address"
            }
          ],
          "internalType": "struct UserManager.Customer[]",
          "name": "",
          "type": "tuple[]"
        }
      ],
      "stateMutability": "view",
      "type": "function"
    },
    {
      "inputs": [
        {
          "internalType": "address",
          "name": "ETHAddress",
          "type": "address"
        }
      ],
      "name": "deleteCustomer",
      "outputs": [],
      "stateMutability": "nonpayable",
      "type": "function"
    },
    {
      "inputs": [
        {
          "internalType": "address",
          "name": "ETHAddress",
          "type": "address"
        }
      ],
      "name": "deleteFarmer",
      "outputs": [],
      "stateMutability": "nonpayable",
      "type": "function"
    },
    {
      "inputs": [],
      "name": "farmerList",
      "outputs": [
        {
          "components": [
            {
              "internalType": "string",
              "name": "name",
              "type": "string"
            },
            {
              "internalType": "string",
              "name": "email",
              "type": "string"
            },
            {
              "internalType": "string",
              "name": "password",
              "type": "string"
            },
            {
              "internalType": "string",
              "name": "role",
              "type": "string"
            },
            {
              "internalType": "address",
              "name": "ETHAddress",
              "type": "address"
            }
          ],
          "internalType": "struct UserManager.Farmer[]",
          "name": "",
          "type": "tuple[]"
        }
      ],
      "stateMutability": "view",
      "type": "function"
    },
    {
      "inputs": [
        {
          "internalType": "string",
          "name": "name",
          "type": "string"
        },
        {
          "internalType": "uint256",
          "name": "contact",
          "type": "uint256"
        },
        {
          "internalType": "string",
          "name": "house",
          "type": "string"
        },
        {
          "internalType": "string",
          "name": "street",
          "type": "string"
        },
        {
          "internalType": "uint256",
          "name": "pincode",
          "type": "uint256"
        },
        {
          "internalType": "string",
          "name": "city",
          "type": "string"
        },
        {
          "internalType": "string",
          "name": "state",
          "type": "string"
        }
      ],
      "name": "fillDetails",
      "outputs": [],
      "stateMutability": "nonpayable",
      "type": "function"
    },
    {
      "inputs": [],
      "name": "getAllOrderIds",
      "outputs": [
        {
          "internalType": "string[]",
          "name": "",
          "type": "string[]"
        }
      ],
      "stateMutability": "view",
      "type": "function"
    },
    {
      "inputs": [
        {
          "internalType": "string",
          "name": "password",
          "type": "string"
        }
      ],
      "name": "getAuthority",
      "outputs": [
        {
          "components": [
            {
              "internalType": "string",
              "name": "name",
              "type": "string"
            },
            {
              "internalType": "string",
              "name": "email",
              "type": "string"
            },
            {
              "internalType": "string",
              "name": "password",
              "type": "string"
            },
            {
              "internalType": "string",
              "name": "role",
              "type": "string"
            },
            {
              "internalType": "address",
              "name": "ETHAddress",
              "type": "address"
            }
          ],
          "internalType": "struct UserManager.Authority",
          "name": "",
          "type": "tuple"
        }
      ],
      "stateMutability": "view",
      "type": "function"
    },
    {
      "inputs": [
        {
          "internalType": "string",
          "name": "password",
          "type": "string"
        }
      ],
      "name": "getCourier",
      "outputs": [
        {
          "components": [
            {
              "internalType": "string",
              "name": "name",
              "type": "string"
            },
            {
              "internalType": "string",
              "name": "email",
              "type": "string"
            },
            {
              "internalType": "string",
              "name": "password",
              "type": "string"
            },
            {
              "internalType": "string",
              "name": "role",
              "type": "string"
            },
            {
              "internalType": "address",
              "name": "ETHAddress",
              "type": "address"
            }
          ],
          "internalType": "struct UserManager.Courier",
          "name": "",
          "type": "tuple"
        }
      ],
      "stateMutability": "view",
      "type": "function"
    },
    {
      "inputs": [
        {
          "internalType": "string",
          "name": "password",
          "type": "string"
        }
      ],
      "name": "getCustomer",
      "outputs": [
        {
          "components": [
            {
              "internalType": "string",
              "name": "name",
              "type": "string"
            },
            {
              "internalType": "string",
              "name": "email",
              "type": "string"
            },
            {
              "internalType": "string",
              "name": "password",
              "type": "string"
            },
            {
              "internalType": "string",
              "name": "role",
              "type": "string"
            },
            {
              "internalType": "address",
              "name": "ETHAddress",
              "type": "address"
            }
          ],
          "internalType": "struct UserManager.Customer",
          "name": "",
          "type": "tuple"
        }
      ],
      "stateMutability": "view",
      "type": "function"
    },
    {
      "inputs": [],
      "name": "getDetails",
      "outputs": [
        {
          "components": [
            {
              "internalType": "address",
              "name": "ETHAddress",
              "type": "address"
            },
            {
              "internalType": "string",
              "name": "FullName",
              "type": "string"
            },
            {
              "internalType": "uint256",
              "name": "contact",
              "type": "uint256"
            },
            {
              "internalType": "string",
              "name": "house",
              "type": "string"
            },
            {
              "internalType": "string",
              "name": "street",
              "type": "string"
            },
            {
              "internalType": "uint256",
              "name": "pincode",
              "type": "uint256"
            },
            {
              "internalType": "string",
              "name": "city",
              "type": "string"
            },
            {
              "internalType": "string",
              "name": "state",
              "type": "string"
            }
          ],
          "internalType": "struct UserManager.Details",
          "name": "",
          "type": "tuple"
        }
      ],
      "stateMutability": "view",
      "type": "function"
    },
    {
      "inputs": [
        {
          "internalType": "string",
          "name": "password",
          "type": "string"
        }
      ],
      "name": "getFarmer",
      "outputs": [
        {
          "components": [
            {
              "internalType": "string",
              "name": "name",
              "type": "string"
            },
            {
              "internalType": "string",
              "name": "email",
              "type": "string"
            },
            {
              "internalType": "string",
              "name": "password",
              "type": "string"
            },
            {
              "internalType": "string",
              "name": "role",
              "type": "string"
            },
            {
              "internalType": "address",
              "name": "ETHAddress",
              "type": "address"
            }
          ],
          "internalType": "struct UserManager.Farmer",
          "name": "",
          "type": "tuple"
        }
      ],
      "stateMutability": "view",
      "type": "function"
    },
    {
      "inputs": [],
      "name": "getOrders",
      "outputs": [
        {
          "components": [
            {
              "components": [
                {
                  "internalType": "enum PaymentContract.OrderStatus",
                  "name": "status",
                  "type": "uint8"
                },
                {
                  "internalType": "string",
                  "name": "productId",
                  "type": "string"
                },
                {
                  "internalType": "string",
                  "name": "productName",
                  "type": "string"
                },
                {
                  "internalType": "address",
                  "name": "farmer",
                  "type": "address"
                },
                {
                  "internalType": "uint256",
                  "name": "totalPrice",
                  "type": "uint256"
                },
                {
                  "internalType": "uint256",
                  "name": "totalQuantity",
                  "type": "uint256"
                },
                {
                  "internalType": "string",
                  "name": "timeofPicked",
                  "type": "string"
                },
                {
                  "internalType": "string",
                  "name": "timeofDelivered",
                  "type": "string"
                }
              ],
              "internalType": "struct PaymentContract.Item[]",
              "name": "items",
              "type": "tuple[]"
            },
            {
              "internalType": "string",
              "name": "orderId",
              "type": "string"
            },
            {
              "internalType": "string",
              "name": "timeofOrdered",
              "type": "string"
            },
            {
              "internalType": "address",
              "name": "customer",
              "type": "address"
            },
            {
              "internalType": "uint256",
              "name": "totalAmount",
              "type": "uint256"
            }
          ],
          "internalType": "struct PaymentContract.Order[]",
          "name": "",
          "type": "tuple[]"
        }
      ],
      "stateMutability": "view",
      "type": "function"
    },
    {
      "inputs": [
        {
          "internalType": "string",
          "name": "pid",
          "type": "string"
        },
        {
          "internalType": "string",
          "name": "oid",
          "type": "string"
        },
        {
          "internalType": "string",
          "name": "time",
          "type": "string"
        }
      ],
      "name": "orderPicked",
      "outputs": [],
      "stateMutability": "nonpayable",
      "type": "function"
    },
    {
      "inputs": [
        {
          "components": [
            {
              "internalType": "enum PaymentContract.OrderStatus",
              "name": "status",
              "type": "uint8"
            },
            {
              "internalType": "string",
              "name": "productId",
              "type": "string"
            },
            {
              "internalType": "string",
              "name": "productName",
              "type": "string"
            },
            {
              "internalType": "address",
              "name": "farmer",
              "type": "address"
            },
            {
              "internalType": "uint256",
              "name": "totalPrice",
              "type": "uint256"
            },
            {
              "internalType": "uint256",
              "name": "totalQuantity",
              "type": "uint256"
            },
            {
              "internalType": "string",
              "name": "timeofPicked",
              "type": "string"
            },
            {
              "internalType": "string",
              "name": "timeofDelivered",
              "type": "string"
            }
          ],
          "internalType": "struct PaymentContract.Item[]",
          "name": "items",
          "type": "tuple[]"
        },
        {
          "internalType": "string",
          "name": "time",
          "type": "string"
        },
        {
          "internalType": "uint256",
          "name": "totalAmount",
          "type": "uint256"
        },
        {
          "internalType": "string",
          "name": "orderId",
          "type": "string"
        }
      ],
      "name": "orderProduct",
      "outputs": [],
      "stateMutability": "payable",
      "type": "function"
    },
    {
      "inputs": [
        {
          "internalType": "string",
          "name": "pid",
          "type": "string"
        },
        {
          "internalType": "string",
          "name": "oid",
          "type": "string"
        },
        {
          "internalType": "string",
          "name": "time",
          "type": "string"
        }
      ],
      "name": "productDelivered",
      "outputs": [],
      "stateMutability": "nonpayable",
      "type": "function"
    }
  ],
  "bytecode": "0x608060405234801561001057600080fd5b506145ec806100206000396000f3fe6080604052600436106101145760003560e01c80635e94d720116100a05780638bdb5ce6116100645780638bdb5ce6146102f9578063a94f1fb714610319578063b15149421461032c578063b51ca0af1461034c578063fbbf93a01461036c57600080fd5b80635e94d720146102575780635f6f80cc1461027757806384bdfcd71461029757806388905b80146102b75780638ba407f9146102d957600080fd5b80634b2b612a116100e75780634b2b612a146101a65780635087e668146101c8578063509159f4146101f5578063518bddd9146102175780635baef56d1461023757600080fd5b806305ceb8211461011957806311c9ccf61461013b578063200d6de71461015b5780632e2dc43e1461017b575b600080fd5b34801561012557600080fd5b506101396101343660046138ea565b61038e565b005b34801561014757600080fd5b506101396101563660046139eb565b610472565b34801561016757600080fd5b50610139610176366004613a06565b61063f565b34801561018757600080fd5b50610190610848565b60405161019d9190613b3b565b60405180910390f35b3480156101b257600080fd5b506101bb610cee565b60405161019d9190613cdc565b3480156101d457600080fd5b506101e86101e3366004613d40565b610e2a565b60405161019d9190613dfe565b34801561020157600080fd5b5061020a61125c565b60405161019d9190613e11565b34801561022357600080fd5b506101e8610232366004613d40565b611510565b34801561024357600080fd5b50610139610252366004613a06565b61189c565b34801561026357600080fd5b50610139610272366004613a06565b611a90565b34801561028357600080fd5b50610139610292366004613e68565b611c32565b3480156102a357600080fd5b506101e86102b2366004613d40565b611e7b565b3480156102c357600080fd5b506102cc612285565b60405161019d9190613ef0565b3480156102e557600080fd5b506101396102f4366004613e68565b612539565b34801561030557600080fd5b506101396103143660046139eb565b612777565b610139610327366004613f56565b612940565b34801561033857600080fd5b506101e8610347366004613d40565b612cf0565b34801561035857600080fd5b50610139610367366004613a06565b613074565b34801561037857600080fd5b50610381613271565b60405161019d9190614156565b33600081815260026020526040902080546001600160a01b03191690911781556001016103bb88826142a6565b503360009081526002602081905260409091209081018790556003016103e186826142a6565b503360009081526002602052604090206004016103fe85826142a6565b503360009081526002602052604090206005810184905560060161042283826142a6565b5033600090815260026020526040902060070161043f82826142a6565b506040517fc8133d0532c52370de350c4858130d2be6c8cd430b301496a3539e03b9082a6090600090a150505050505050565b60005b60035481101561063b57816001600160a01b03166003828154811061049c5761049c614366565b60009182526020909120600460059092020101546001600160a01b03160361063357805b6003546104cf90600190614392565b8110156105965760036104e38260016143ab565b815481106104f3576104f3614366565b90600052602060002090600502016003828154811061051457610514614366565b600091825260209091206005909102018061052f83826143be565b50600181810190610542908401826143be565b50600281810190610555908401826143be565b50600381810190610568908401826143be565b50600491820154910180546001600160a01b0319166001600160a01b039092169190911790556001016104c0565b5060038054806105a8576105a8614499565b600082815260208120600019909201916005830201906105c882826135e3565b6105d66001830160006135e3565b6105e46002830160006135e3565b6105f26003830160006135e3565b5060040180546001600160a01b031916905590556040517f8f3cfd9f0e967c51c8a20e9651d762c6a84e8e97fe37add700680190c70dcb7090600090a15050565b600101610475565b5050565b600160005b6004548110156106e2576004818154811061066157610661614366565b60009182526020918290206004600590920201015460405161068f926001600160a01b0390921691016144af565b60405160208183030381529060405280519060200120336040516020016106b691906144af565b60405160208183030381529060405280519060200120036106da57600091506106e2565b600101610644565b508061072d5760405162461bcd60e51b81526020600482015260156024820152744661726d657220616c72656164792065786973742160581b60448201526064015b60405180910390fd5b6040805160a081018252868152602081018690529081018490526060810183905233608082015260048054600181018255600091909152815160059091027f8a35acfbc15ff81a39ae7d344fd709f28e8600b4aa8c65c6b64bfe7fe36bd19b0190819061079a90826142a6565b50602082015160018201906107af90826142a6565b50604082015160028201906107c490826142a6565b50606082015160038201906107d990826142a6565b5060809190910151600490910180546001600160a01b0319166001600160a01b039092169190911790556040517f5c47ff0a569e587692da604d2bf92787dd7f006684698dbd8c59539be7e35a74906108399087908790879087906144cc565b60405180910390a15050505050565b60606001805480602002602001604051908101604052809291908181526020016000905b82821015610ce557838290600052602060002090600502016040518060a001604052908160008201805480602002602001604051908101604052809291908181526020016000905b82821015610b8757600084815260209020604080516101008101909152600884029091018054829060ff1660028111156108f0576108f0613ab3565b600281111561090157610901613ab3565b815260200160018201805461091590614221565b80601f016020809104026020016040519081016040528092919081815260200182805461094190614221565b801561098e5780601f106109635761010080835404028352916020019161098e565b820191906000526020600020905b81548152906001019060200180831161097157829003601f168201915b505050505081526020016002820180546109a790614221565b80601f01602080910402602001604051908101604052809291908181526020018280546109d390614221565b8015610a205780601f106109f557610100808354040283529160200191610a20565b820191906000526020600020905b815481529060010190602001808311610a0357829003601f168201915b505050918352505060038201546001600160a01b031660208201526004820154604082015260058201546060820152600682018054608090920191610a6490614221565b80601f0160208091040260200160405190810160405280929190818152602001828054610a9090614221565b8015610add5780601f10610ab257610100808354040283529160200191610add565b820191906000526020600020905b815481529060010190602001808311610ac057829003601f168201915b50505050508152602001600782018054610af690614221565b80601f0160208091040260200160405190810160405280929190818152602001828054610b2290614221565b8015610b6f5780601f10610b4457610100808354040283529160200191610b6f565b820191906000526020600020905b815481529060010190602001808311610b5257829003601f168201915b505050505081525050815260200190600101906108b4565b505050508152602001600182018054610b9f90614221565b80601f0160208091040260200160405190810160405280929190818152602001828054610bcb90614221565b8015610c185780601f10610bed57610100808354040283529160200191610c18565b820191906000526020600020905b815481529060010190602001808311610bfb57829003601f168201915b50505050508152602001600282018054610c3190614221565b80601f0160208091040260200160405190810160405280929190818152602001828054610c5d90614221565b8015610caa5780601f10610c7f57610100808354040283529160200191610caa565b820191906000526020600020905b815481529060010190602001808311610c8d57829003601f168201915b505050918352505060038201546001600160a01b0316602080830191909152600490920154604090910152908252600192909201910161086c565b50505050905090565b60015460609060009067ffffffffffffffff811115610d0f57610d0f613809565b604051908082528060200260200182016040528015610d4257816020015b6060815260200190600190039081610d2d5790505b50905060005b600154811015610e245760018181548110610d6557610d65614366565b90600052602060002090600502016001018054610d8190614221565b80601f0160208091040260200160405190810160405280929190818152602001828054610dad90614221565b8015610dfa5780601f10610dcf57610100808354040283529160200191610dfa565b820191906000526020600020905b815481529060010190602001808311610ddd57829003601f168201915b5050505050828281518110610e1157610e11614366565b6020908102919091010152600101610d48565b50919050565b610e32613620565b6000610e3c613620565b60005b6005548110156111685760058181548110610e5c57610e5c614366565b600091825260209182902060046005909202010154604051610e8a926001600160a01b0390921691016144af565b6040516020818303038152906040528051906020012033604051602001610eb191906144af565b6040516020818303038152906040528051906020012003611160576001925060058181548110610ee357610ee3614366565b90600052602060002090600502016040518060a0016040529081600082018054610f0c90614221565b80601f0160208091040260200160405190810160405280929190818152602001828054610f3890614221565b8015610f855780601f10610f5a57610100808354040283529160200191610f85565b820191906000526020600020905b815481529060010190602001808311610f6857829003601f168201915b50505050508152602001600182018054610f9e90614221565b80601f0160208091040260200160405190810160405280929190818152602001828054610fca90614221565b80156110175780601f10610fec57610100808354040283529160200191611017565b820191906000526020600020905b815481529060010190602001808311610ffa57829003601f168201915b5050505050815260200160028201805461103090614221565b80601f016020809104026020016040519081016040528092919081815260200182805461105c90614221565b80156110a95780601f1061107e576101008083540402835291602001916110a9565b820191906000526020600020905b81548152906001019060200180831161108c57829003601f168201915b505050505081526020016003820180546110c290614221565b80601f01602080910402602001604051908101604052809291908181526020018280546110ee90614221565b801561113b5780601f106111105761010080835404028352916020019161113b565b820191906000526020600020905b81548152906001019060200180831161111e57829003601f168201915b5050509183525050600491909101546001600160a01b03166020909101529150611168565b600101610e3f565b50816111b65760405162461bcd60e51b815260206004820152601860248201527f417574686f7269747920646f65736e27742065786973742100000000000000006044820152606401610724565b836040516020016111c79190614524565b6040516020818303038152906040528051906020012081604001516040516020016111f29190614524565b60405160208183030381529060405280519060200120146112555760405162461bcd60e51b815260206004820181905260248201527f57726f6e672070617373776f72642c506c656173652054727920416761696e216044820152606401610724565b9392505050565b60606003805480602002602001604051908101604052809291908181526020016000905b82821015610ce557838290600052602060002090600502016040518060a00160405290816000820180546112b390614221565b80601f01602080910402602001604051908101604052809291908181526020018280546112df90614221565b801561132c5780601f106113015761010080835404028352916020019161132c565b820191906000526020600020905b81548152906001019060200180831161130f57829003601f168201915b5050505050815260200160018201805461134590614221565b80601f016020809104026020016040519081016040528092919081815260200182805461137190614221565b80156113be5780601f10611393576101008083540402835291602001916113be565b820191906000526020600020905b8154815290600101906020018083116113a157829003601f168201915b505050505081526020016002820180546113d790614221565b80601f016020809104026020016040519081016040528092919081815260200182805461140390614221565b80156114505780601f1061142557610100808354040283529160200191611450565b820191906000526020600020905b81548152906001019060200180831161143357829003601f168201915b5050505050815260200160038201805461146990614221565b80601f016020809104026020016040519081016040528092919081815260200182805461149590614221565b80156114e25780601f106114b7576101008083540402835291602001916114e2565b820191906000526020600020905b8154815290600101906020018083116114c557829003601f168201915b5050509183525050600491909101546001600160a01b03166020918201529082526001929092019101611280565b611518613620565b6000611522613620565b60005b60035481101561184e576003818154811061154257611542614366565b600091825260209182902060046005909202010154604051611570926001600160a01b0390921691016144af565b604051602081830303815290604052805190602001203360405160200161159791906144af565b60405160208183030381529060405280519060200120036118465760019250600381815481106115c9576115c9614366565b90600052602060002090600502016040518060a00160405290816000820180546115f290614221565b80601f016020809104026020016040519081016040528092919081815260200182805461161e90614221565b801561166b5780601f106116405761010080835404028352916020019161166b565b820191906000526020600020905b81548152906001019060200180831161164e57829003601f168201915b5050505050815260200160018201805461168490614221565b80601f01602080910402602001604051908101604052809291908181526020018280546116b090614221565b80156116fd5780601f106116d2576101008083540402835291602001916116fd565b820191906000526020600020905b8154815290600101906020018083116116e057829003601f168201915b5050505050815260200160028201805461171690614221565b80601f016020809104026020016040519081016040528092919081815260200182805461174290614221565b801561178f5780601f106117645761010080835404028352916020019161178f565b820191906000526020600020905b81548152906001019060200180831161177257829003601f168201915b505050505081526020016003820180546117a890614221565b80601f01602080910402602001604051908101604052809291908181526020018280546117d490614221565b80156118215780601f106117f657610100808354040283529160200191611821565b820191906000526020600020905b81548152906001019060200180831161180457829003601f168201915b5050509183525050600491909101546001600160a01b0316602090910152915061184e565b600101611525565b50816111b65760405162461bcd60e51b815260206004820152601760248201527f437573746f6d657220646f65736e2774206578697374210000000000000000006044820152606401610724565b600160005b60055481101561193f57600581815481106118be576118be614366565b6000918252602091829020600460059092020101546040516118ec926001600160a01b0390921691016144af565b604051602081830303815290604052805190602001203360405160200161191391906144af565b6040516020818303038152906040528051906020012003611937576000915061193f565b6001016118a1565b50806119885760405162461bcd60e51b8152602060048201526018602482015277417574686f7269747920616c72656164792065786973742160401b6044820152606401610724565b6040805160a0810182528681526020810186905290810184905260608101839052336080820152600580546001810182556000829052825191027f036b6384b5eca791c62761152d0c79bb0604c104a5fb6f4eb0703f3154bb3db0019081906119f190826142a6565b5060208201516001820190611a0690826142a6565b5060408201516002820190611a1b90826142a6565b5060608201516003820190611a3090826142a6565b5060809190910151600490910180546001600160a01b0319166001600160a01b039092169190911790556040517fc5818d9d7df1d0bdb4144d2e0d9ca09a1d5b05dbaea4477c8e49131d5b6623ad906108399087908790879087906144cc565b33604051602001611aa191906144af565b60408051601f1981840301815282825280516020918201203360009081526006835292909220600401549192611ae1926001600160a01b031691016144af565b6040516020818303038152906040528051906020012003611b3f5760405162461bcd60e51b8152602060048201526018602482015277417574686f7269747920616c72656164792065786973742160401b6044820152606401610724565b6040805160a0810182528581526020808201869052818301859052606082018490523360808301819052600090815260069091529190912081518190611b8590826142a6565b5060208201516001820190611b9a90826142a6565b5060408201516002820190611baf90826142a6565b5060608201516003820190611bc490826142a6565b5060809190910151600490910180546001600160a01b0319166001600160a01b039092169190911790556040517f14910ef2263f83cc85289fa1244f2f612575d7ee261d2f3b223a0943f05a0b1490611c249086908690869086906144cc565b60405180910390a150505050565b60005b600154811015611e755782604051602001611c509190614524565b6040516020818303038152906040528051906020012060018281548110611c7957611c79614366565b9060005260206000209060050201600101604051602001611c9a9190614540565b6040516020818303038152906040528051906020012003611e6d5760005b60018281548110611ccb57611ccb614366565b6000918252602090912060059091020154811015611e6b5784604051602001611cf49190614524565b6040516020818303038152906040528051906020012060018381548110611d1d57611d1d614366565b90600052602060002090600502016000018281548110611d3f57611d3f614366565b9060005260206000209060080201600101604051602001611d609190614540565b6040516020818303038152906040528051906020012003611e6357600260018381548110611d9057611d90614366565b90600052602060002090600502016000018281548110611db257611db2614366565b60009182526020909120600890910201805460ff19166001836002811115611ddc57611ddc613ab3565b02179055508260018381548110611df557611df5614366565b90600052602060002090600502016000018281548110611e1757611e17614366565b90600052602060002090600802016007019081611e3491906142a6565b506040517f74cd5e7dfebb0156a786c55b52978ae798c1c2003fdd43701e11ea011d8c56cf90600090a1611e6b565b600101611cb8565b505b600101611c35565b50505050565b611eb66040518060a001604052806060815260200160608152602001606081526020016060815260200160006001600160a01b031681525090565b33604051602001611ec791906144af565b60408051601f1981840301815282825280516020918201203360009081526006835292909220600401549192611f07926001600160a01b031691016144af565b6040516020818303038152906040528051906020012014611f5f5760405162461bcd60e51b8152602060048201526012602482015271436f7572696572204e6f742065786973742160701b6044820152606401610724565b81604051602001611f709190614524565b60408051601f19818403018152828252805160209182012033600090815260068352929092209192611fa6926002019101614540565b60405160208183030381529060405280519060200120146120095760405162461bcd60e51b815260206004820181905260248201527f57726f6e672070617373776f72642c506c656173652054727920416761696e216044820152606401610724565b3360009081526006602052604090819020815160a0810190925280548290829061203290614221565b80601f016020809104026020016040519081016040528092919081815260200182805461205e90614221565b80156120ab5780601f10612080576101008083540402835291602001916120ab565b820191906000526020600020905b81548152906001019060200180831161208e57829003601f168201915b505050505081526020016001820180546120c490614221565b80601f01602080910402602001604051908101604052809291908181526020018280546120f090614221565b801561213d5780601f106121125761010080835404028352916020019161213d565b820191906000526020600020905b81548152906001019060200180831161212057829003601f168201915b5050505050815260200160028201805461215690614221565b80601f016020809104026020016040519081016040528092919081815260200182805461218290614221565b80156121cf5780601f106121a4576101008083540402835291602001916121cf565b820191906000526020600020905b8154815290600101906020018083116121b257829003601f168201915b505050505081526020016003820180546121e890614221565b80601f016020809104026020016040519081016040528092919081815260200182805461221490614221565b80156122615780601f1061223657610100808354040283529160200191612261565b820191906000526020600020905b81548152906001019060200180831161224457829003601f168201915b5050509183525050600491909101546001600160a01b031660209091015292915050565b60606004805480602002602001604051908101604052809291908181526020016000905b82821015610ce557838290600052602060002090600502016040518060a00160405290816000820180546122dc90614221565b80601f016020809104026020016040519081016040528092919081815260200182805461230890614221565b80156123555780601f1061232a57610100808354040283529160200191612355565b820191906000526020600020905b81548152906001019060200180831161233857829003601f168201915b5050505050815260200160018201805461236e90614221565b80601f016020809104026020016040519081016040528092919081815260200182805461239a90614221565b80156123e75780601f106123bc576101008083540402835291602001916123e7565b820191906000526020600020905b8154815290600101906020018083116123ca57829003601f168201915b5050505050815260200160028201805461240090614221565b80601f016020809104026020016040519081016040528092919081815260200182805461242c90614221565b80156124795780601f1061244e57610100808354040283529160200191612479565b820191906000526020600020905b81548152906001019060200180831161245c57829003601f168201915b5050505050815260200160038201805461249290614221565b80601f01602080910402602001604051908101604052809291908181526020018280546124be90614221565b801561250b5780601f106124e05761010080835404028352916020019161250b565b820191906000526020600020905b8154815290600101906020018083116124ee57829003601f168201915b5050509183525050600491909101546001600160a01b031660209182015290825260019290920191016122a9565b60005b600154811015611e7557826040516020016125579190614524565b604051602081830303815290604052805190602001206001828154811061258057612580614366565b90600052602060002090600502016001016040516020016125a19190614540565b604051602081830303815290604052805190602001200361276f5760005b600182815481106125d2576125d2614366565b600091825260209091206005909102015481101561276d57846040516020016125fb9190614524565b604051602081830303815290604052805190602001206001838154811061262457612624614366565b9060005260206000209060050201600001828154811061264657612646614366565b90600052602060002090600802016001016040516020016126679190614540565b604051602081830303815290604052805190602001200361276557600180838154811061269657612696614366565b906000526020600020906005020160000182815481106126b8576126b8614366565b60009182526020909120600890910201805460ff191660018360028111156126e2576126e2613ab3565b021790555082600183815481106126fb576126fb614366565b9060005260206000209060050201600001828154811061271d5761271d614366565b9060005260206000209060080201600601908161273a91906142a6565b506040517f1e42b37ca27154dd8a086c1eebd42531ad87a2a5d1c3cd991b385bb7a02c8abe90600090a15b6001016125bf565b505b60010161253c565b60005b60045481101561063b57816001600160a01b0316600482815481106127a1576127a1614366565b60009182526020909120600460059092020101546001600160a01b03160361293857805b6004546127d490600190614392565b81101561289b5760046127e88260016143ab565b815481106127f8576127f8614366565b90600052602060002090600502016004828154811061281957612819614366565b600091825260209091206005909102018061283483826143be565b50600181810190612847908401826143be565b5060028181019061285a908401826143be565b5060038181019061286d908401826143be565b50600491820154910180546001600160a01b0319166001600160a01b039092169190911790556001016127c5565b5060048054806128ad576128ad614499565b600082815260208120600019909201916005830201906128cd82826135e3565b6128db6001830160006135e3565b6128e96002830160006135e3565b6128f76003830160006135e3565b5060040180546001600160a01b031916905590556040517fa0a3abb941db31e9b7a4bf5830ba0940f2556e20c9edfc788d21119091c45b5790600090a15050565b60010161277a565b8134146129805760405162461bcd60e51b815260206004820152600e60248201526d14185e5b595b9d0819985a5b195960921b6044820152606401610724565b33600090815260208190526040902060020161299c84826142a6565b503360008181526020819052604090206003810180546001600160a01b031916909217909155600481018390556001016129d682826142a6565b5060005b8451811015612b3f573360009081526020819052604090208551869083908110612a0657612a06614366565b60209081029190910181015182546001818101855560009485529290932081516008909402018054919390929091839160ff1990911690836002811115612a4f57612a4f613ab3565b021790555060208201516001820190612a6890826142a6565b5060408201516002820190612a7d90826142a6565b5060608201516003820180546001600160a01b0319166001600160a01b039092169190911790556080820151600482015560a0820151600582015560c08201516006820190612acc90826142a6565b5060e08201516007820190612ae190826142a6565b505033600090815260208190526040812080549192509083908110612b0857612b08614366565b60009182526020909120600890910201805460ff19166001836002811115612b3257612b32613ab3565b02179055506001016129da565b503360009081526020819052604081206001805480820182559252805490916005027fb10e2d527612073b26eecdfd717e6a320cf44b4afac2b0732d9fcbe2b7fa0cf60190612b919082908490613658565b50600181810190612ba4908401826143be565b50600281810190612bb7908401826143be565b5060038281015490820180546001600160a01b0319166001600160a01b0390921691909117905560049182015491015533600090815260208190526040812090612c01828261375f565b612c0f6001830160006135e3565b612c1d6002830160006135e3565b506003810180546001600160a01b0319169055600060049091018190555b8451811015612cc057848181518110612c5657612c56614366565b6020026020010151606001516001600160a01b03166108fc868381518110612c8057612c80614366565b6020026020010151608001519081150290604051600060405180830381858888f19350505050158015612cb7573d6000803e3d6000fd5b50600101612c3b565b506040517f7bab8ad11f8ad37ca148565c8640766d077c4ce878bcbfab5cfc8f5c01721d1e90600090a150505050565b612cf8613620565b6000612d02613620565b60005b60045481101561302e5760048181548110612d2257612d22614366565b600091825260209182902060046005909202010154604051612d50926001600160a01b0390921691016144af565b6040516020818303038152906040528051906020012033604051602001612d7791906144af565b6040516020818303038152906040528051906020012003613026576001925060048181548110612da957612da9614366565b90600052602060002090600502016040518060a0016040529081600082018054612dd290614221565b80601f0160208091040260200160405190810160405280929190818152602001828054612dfe90614221565b8015612e4b5780601f10612e2057610100808354040283529160200191612e4b565b820191906000526020600020905b815481529060010190602001808311612e2e57829003601f168201915b50505050508152602001600182018054612e6490614221565b80601f0160208091040260200160405190810160405280929190818152602001828054612e9090614221565b8015612edd5780601f10612eb257610100808354040283529160200191612edd565b820191906000526020600020905b815481529060010190602001808311612ec057829003601f168201915b50505050508152602001600282018054612ef690614221565b80601f0160208091040260200160405190810160405280929190818152602001828054612f2290614221565b8015612f6f5780601f10612f4457610100808354040283529160200191612f6f565b820191906000526020600020905b815481529060010190602001808311612f5257829003601f168201915b50505050508152602001600382018054612f8890614221565b80601f0160208091040260200160405190810160405280929190818152602001828054612fb490614221565b80156130015780601f10612fd657610100808354040283529160200191613001565b820191906000526020600020905b815481529060010190602001808311612fe457829003601f168201915b5050509183525050600491909101546001600160a01b0316602090910152915061302e565b600101612d05565b50816111b65760405162461bcd60e51b81526020600482015260156024820152744661726d657220646f65736e27742065786973742160581b6044820152606401610724565b600160005b600354811015613117576003818154811061309657613096614366565b6000918252602091829020600460059092020101546040516130c4926001600160a01b0390921691016144af565b60405160208183030381529060405280519060200120336040516020016130eb91906144af565b604051602081830303815290604052805190602001200361310f5760009150613117565b600101613079565b50806131655760405162461bcd60e51b815260206004820152601760248201527f637573746f6d657220616c7265616479206578697374210000000000000000006044820152606401610724565b6040805160a081018252868152602081018690529081018490526060810183905233608082015260038054600181018255600091909152815160059091027fc2575a0e9e593c00f959f8c92f12db2869c3395a3b0502d05e2516446f71f85b019081906131d290826142a6565b50602082015160018201906131e790826142a6565b50604082015160028201906131fc90826142a6565b506060820151600382019061321190826142a6565b5060809190910151600490910180546001600160a01b0319166001600160a01b039092169190911790556040517f1b4cea3558a9e0c9f742c904e361522d01633b394adf89f8b91d8a50df89117a906108399087908790879087906144cc565b6132c260405180610100016040528060006001600160a01b03168152602001606081526020016000815260200160608152602001606081526020016000815260200160608152602001606081525090565b336000908152600260209081526040918290208251610100810190935280546001600160a01b03168352600181018054919284019161330090614221565b80601f016020809104026020016040519081016040528092919081815260200182805461332c90614221565b80156133795780601f1061334e57610100808354040283529160200191613379565b820191906000526020600020905b81548152906001019060200180831161335c57829003601f168201915b505050505081526020016002820154815260200160038201805461339c90614221565b80601f01602080910402602001604051908101604052809291908181526020018280546133c890614221565b80156134155780601f106133ea57610100808354040283529160200191613415565b820191906000526020600020905b8154815290600101906020018083116133f857829003601f168201915b5050505050815260200160048201805461342e90614221565b80601f016020809104026020016040519081016040528092919081815260200182805461345a90614221565b80156134a75780601f1061347c576101008083540402835291602001916134a7565b820191906000526020600020905b81548152906001019060200180831161348a57829003601f168201915b50505050508152602001600582015481526020016006820180546134ca90614221565b80601f01602080910402602001604051908101604052809291908181526020018280546134f690614221565b80156135435780601f1061351857610100808354040283529160200191613543565b820191906000526020600020905b81548152906001019060200180831161352657829003601f168201915b5050505050815260200160078201805461355c90614221565b80601f016020809104026020016040519081016040528092919081815260200182805461358890614221565b80156135d55780601f106135aa576101008083540402835291602001916135d5565b820191906000526020600020905b8154815290600101906020018083116135b857829003601f168201915b505050505081525050905090565b5080546135ef90614221565b6000825580601f106135ff575050565b601f01602090049060005260206000209081019061361d9190613780565b50565b6040518060a001604052806060815260200160608152602001606081526020016060815260200160006001600160a01b031681525090565b82805482825590600052602060002090600802810192821561374f5760005260206000209160080282015b8281111561374f57825482548491849160ff90911690829060ff191660018360028111156136b3576136b3613ab3565b02179055506001818101906136ca908401826143be565b506002818101906136dd908401826143be565b5060038281015490820180546001600160a01b0319166001600160a01b03909216919091179055600480830154908201556005808301549082015560068082019061372a908401826143be565b5060078181019061373d908401826143be565b50505091600801919060080190613683565b5061375b929150613795565b5090565b508054600082556008029060005260206000209081019061361d9190613795565b5b8082111561375b5760008155600101613781565b8082111561375b57805460ff1916815560006137b460018301826135e3565b6137c26002830160006135e3565b6003820180546001600160a01b0319169055600060048301819055600583018190556137f29060068401906135e3565b6138006007830160006135e3565b50600801613795565b634e487b7160e01b600052604160045260246000fd5b604051610100810167ffffffffffffffff8111828210171561384357613843613809565b60405290565b604051601f8201601f1916810167ffffffffffffffff8111828210171561387257613872613809565b604052919050565b600082601f83011261388b57600080fd5b813567ffffffffffffffff8111156138a5576138a5613809565b6138b8601f8201601f1916602001613849565b8181528460208386010111156138cd57600080fd5b816020850160208301376000918101602001919091529392505050565b600080600080600080600060e0888a03121561390557600080fd5b873567ffffffffffffffff8082111561391d57600080fd5b6139298b838c0161387a565b985060208a0135975060408a013591508082111561394657600080fd5b6139528b838c0161387a565b965060608a013591508082111561396857600080fd5b6139748b838c0161387a565b955060808a0135945060a08a013591508082111561399157600080fd5b61399d8b838c0161387a565b935060c08a01359150808211156139b357600080fd5b506139c08a828b0161387a565b91505092959891949750929550565b80356001600160a01b03811681146139e657600080fd5b919050565b6000602082840312156139fd57600080fd5b611255826139cf565b60008060008060808587031215613a1c57600080fd5b843567ffffffffffffffff80821115613a3457600080fd5b613a408883890161387a565b95506020870135915080821115613a5657600080fd5b613a628883890161387a565b94506040870135915080821115613a7857600080fd5b613a848883890161387a565b93506060870135915080821115613a9a57600080fd5b50613aa78782880161387a565b91505092959194509250565b634e487b7160e01b600052602160045260246000fd5b60038110613ae757634e487b7160e01b600052602160045260246000fd5b9052565b60005b83811015613b06578181015183820152602001613aee565b50506000910152565b60008151808452613b27816020860160208601613aeb565b601f01601f19169290920160200192915050565b60006020808301818452808551808352604092508286019150828160051b87010184880160005b83811015613cce57603f198984030185528151805160a0808652815190860181905260c0600582901b87018101928b01919087019060005b81811015613c615760bf198986030183528351613bb8868251613ac9565b8d8101516101008f880152613bd1610100880182613b0f565b90508d8201518782038f890152613be88282613b0f565b9150506060820151613c0560608901826001600160a01b03169052565b506080820151608088015260a082015160a088015260c082015187820360c0890152613c318282613b0f565b91505060e0820151915086810360e0880152613c4d8183613b0f565b96505050928c0192918c0191600101613b9a565b50505050888201518582038a870152613c7a8282613b0f565b9150508782015185820389870152613c928282613b0f565b9150506060820151613caf60608701826001600160a01b03169052565b5060809182015194909101939093529386019390860190600101613b62565b509098975050505050505050565b600060208083016020845280855180835260408601915060408160051b87010192506020870160005b82811015613d3357603f19888603018452613d21858351613b0f565b94509285019290850190600101613d05565b5092979650505050505050565b600060208284031215613d5257600080fd5b813567ffffffffffffffff811115613d6957600080fd5b613d758482850161387a565b949350505050565b6000815160a08452613d9260a0850182613b0f565b905060208301518482036020860152613dab8282613b0f565b91505060408301518482036040860152613dc58282613b0f565b91505060608301518482036060860152613ddf8282613b0f565b6080948501516001600160a01b03169590940194909452509092915050565b6020815260006112556020830184613d7d565b600060208083016020845280855180835260408601915060408160051b87010192506020870160005b82811015613d3357603f19888603018452613e56858351613d7d565b94509285019290850190600101613e3a565b600080600060608486031215613e7d57600080fd5b833567ffffffffffffffff80821115613e9557600080fd5b613ea18783880161387a565b94506020860135915080821115613eb757600080fd5b613ec38783880161387a565b93506040860135915080821115613ed957600080fd5b50613ee68682870161387a565b9150509250925092565b600060208083016020845280855180835260408601915060408160051b87010192506020870160005b82811015613d3357603f19888603018452613f35858351613d7d565b94509285019290850190600101613f19565b8035600381106139e657600080fd5b60008060008060808587031215613f6c57600080fd5b67ffffffffffffffff8086351115613f8357600080fd5b8535860187601f820112613f9657600080fd5b8181351115613fa757613fa7613809565b613fb76020823560051b01613849565b81358082526020808301929160051b8401018a811115613fd657600080fd5b602084015b818110156140f7578581351115613ff157600080fd5b80358501610100818e03601f1901121561400a57600080fd5b61401261381f565b61401e60208301613f47565b8152876040830135111561403157600080fd5b6140448e6020604085013585010161387a565b6020820152876060830135111561405a57600080fd5b61406d8e6020606085013585010161387a565b604082015261407e608083016139cf565b606082015260a0820135608082015260c082013560a08201528760e083013511156140a857600080fd5b6140bb8e602060e085013585010161387a565b60c0820152610100820135888111156140d357600080fd5b6140e28f60208386010161387a565b60e08301525085525060209384019301613fdb565b5050809750505050806020870135111561411057600080fd5b614120876020880135880161387a565b935060408601359250806060870135111561413a57600080fd5b5061414b866060870135870161387a565b905092959194509250565b602081526141706020820183516001600160a01b03169052565b6000602083015161010080604085015261418e610120850183613b0f565b9150604085015160608501526060850151601f19808685030160808701526141b68483613b0f565b935060808701519150808685030160a08701526141d38483613b0f565b935060a087015160c087015260c08701519150808685030160e08701526141fa8483613b0f565b935060e08701519150808685030183870152506142178382613b0f565b9695505050505050565b600181811c9082168061423557607f821691505b602082108103610e2457634e487b7160e01b600052602260045260246000fd5b601f8211156142a1576000816000526020600020601f850160051c8101602086101561427e5750805b601f850160051c820191505b8181101561429d5782815560010161428a565b5050505b505050565b815167ffffffffffffffff8111156142c0576142c0613809565b6142d4816142ce8454614221565b84614255565b602080601f83116001811461430957600084156142f15750858301515b600019600386901b1c1916600185901b17855561429d565b600085815260208120601f198616915b8281101561433857888601518255948401946001909101908401614319565b50858210156143565787850151600019600388901b60f8161c191681555b5050505050600190811b01905550565b634e487b7160e01b600052603260045260246000fd5b634e487b7160e01b600052601160045260246000fd5b818103818111156143a5576143a561437c565b92915050565b808201808211156143a5576143a561437c565b8181036143c9575050565b6143d38254614221565b67ffffffffffffffff8111156143eb576143eb613809565b6143f9816142ce8454614221565b6000601f82116001811461442d57600083156144155750848201545b600019600385901b1c1916600184901b178455614492565b600085815260209020601f19841690600086815260209020845b838110156144675782860154825560019586019590910190602001614447565b50858310156144855781850154600019600388901b60f8161c191681555b50505060018360011b0184555b5050505050565b634e487b7160e01b600052603160045260246000fd5b60609190911b6bffffffffffffffffffffffff1916815260140190565b6080815260006144df6080830187613b0f565b82810360208401526144f18187613b0f565b905082810360408401526145058186613b0f565b905082810360608401526145198185613b0f565b979650505050505050565b60008251614536818460208701613aeb565b9190910192915050565b600080835461454e81614221565b60018281168015614566576001811461457b576145aa565b60ff19841687528215158302870194506145aa565b8760005260208060002060005b858110156145a15781548a820152908401908201614588565b50505082870194505b5092969550505050505056fea264697066735822122089b7118407b158ae0abc8d28a0078e8bc35bbdfbcb7cbaca1c53b381d6e67a4e64736f6c63430008180033",
  "linkReferences": {},
  "deployedLinkReferences": {}
}