{
  "_format": "hh-sol-artifact-1",
  "contractName": "UserManager",
  "sourceName": "contracts/UserManager.sol",
  "abi": [
    {
      "anonymous": false,
      "inputs": [
        {
          "indexed": false,
          "internalType": "string",
          "name": "name",
          "type": "string"
        },
        {
          "indexed": false,
          "internalType": "string",
          "name": "email",
          "type": "string"
        },
        {
          "indexed": false,
          "internalType": "string",
          "name": "password",
          "type": "string"
        },
        {
          "indexed": false,
          "internalType": "string",
          "name": "role",
          "type": "string"
        }
      ],
      "name": "createAuthorityEvent",
      "type": "event"
    },
    {
      "anonymous": false,
      "inputs": [
        {
          "indexed": false,
          "internalType": "string",
          "name": "name",
          "type": "string"
        },
        {
          "indexed": false,
          "internalType": "string",
          "name": "email",
          "type": "string"
        },
        {
          "indexed": false,
          "internalType": "string",
          "name": "password",
          "type": "string"
        },
        {
          "indexed": false,
          "internalType": "string",
          "name": "role",
          "type": "string"
        }
      ],
      "name": "createCourierEvent",
      "type": "event"
    },
    {
      "anonymous": false,
      "inputs": [
        {
          "indexed": false,
          "internalType": "string",
          "name": "name",
          "type": "string"
        },
        {
          "indexed": false,
          "internalType": "string",
          "name": "email",
          "type": "string"
        },
        {
          "indexed": false,
          "internalType": "string",
          "name": "password",
          "type": "string"
        },
        {
          "indexed": false,
          "internalType": "string",
          "name": "role",
          "type": "string"
        }
      ],
      "name": "createCustomerEvent",
      "type": "event"
    },
    {
      "anonymous": false,
      "inputs": [
        {
          "indexed": false,
          "internalType": "string",
          "name": "name",
          "type": "string"
        },
        {
          "indexed": false,
          "internalType": "string",
          "name": "email",
          "type": "string"
        },
        {
          "indexed": false,
          "internalType": "string",
          "name": "password",
          "type": "string"
        },
        {
          "indexed": false,
          "internalType": "string",
          "name": "role",
          "type": "string"
        }
      ],
      "name": "createFarmerEvent",
      "type": "event"
    },
    {
      "anonymous": false,
      "inputs": [],
      "name": "deleteCustomerEvent",
      "type": "event"
    },
    {
      "anonymous": false,
      "inputs": [],
      "name": "deleteFarmerEvent",
      "type": "event"
    },
    {
      "anonymous": false,
      "inputs": [],
      "name": "fillDetailsEvent",
      "type": "event"
    },
    {
      "anonymous": false,
      "inputs": [],
      "name": "orderPickedEvent",
      "type": "event"
    },
    {
      "anonymous": false,
      "inputs": [],
      "name": "orderProductEvent",
      "type": "event"
    },
    {
      "anonymous": false,
      "inputs": [],
      "name": "productDeliveredEvent",
      "type": "event"
    },
    {
      "inputs": [],
      "name": "authorityList",
      "outputs": [
        {
          "components": [
            {
              "internalType": "string",
              "name": "name",
              "type": "string"
            },
            {
              "internalType": "string",
              "name": "email",
              "type": "string"
            },
            {
              "internalType": "string",
              "name": "password",
              "type": "string"
            },
            {
              "internalType": "string",
              "name": "role",
              "type": "string"
            },
            {
              "internalType": "address",
              "name": "ETHAddress",
              "type": "address"
            }
          ],
          "internalType": "struct UserManager.Authority[]",
          "name": "",
          "type": "tuple[]"
        }
      ],
      "stateMutability": "view",
      "type": "function"
    },
    {
      "inputs": [
        {
          "internalType": "string",
          "name": "name",
          "type": "string"
        },
        {
          "internalType": "string",
          "name": "email",
          "type": "string"
        },
        {
          "internalType": "string",
          "name": "password",
          "type": "string"
        },
        {
          "internalType": "string",
          "name": "role",
          "type": "string"
        }
      ],
      "name": "createAuthority",
      "outputs": [],
      "stateMutability": "nonpayable",
      "type": "function"
    },
    {
      "inputs": [
        {
          "internalType": "string",
          "name": "name",
          "type": "string"
        },
        {
          "internalType": "string",
          "name": "email",
          "type": "string"
        },
        {
          "internalType": "string",
          "name": "password",
          "type": "string"
        },
        {
          "internalType": "string",
          "name": "role",
          "type": "string"
        }
      ],
      "name": "createCourier",
      "outputs": [],
      "stateMutability": "nonpayable",
      "type": "function"
    },
    {
      "inputs": [
        {
          "internalType": "string",
          "name": "name",
          "type": "string"
        },
        {
          "internalType": "string",
          "name": "email",
          "type": "string"
        },
        {
          "internalType": "string",
          "name": "password",
          "type": "string"
        },
        {
          "internalType": "string",
          "name": "role",
          "type": "string"
        }
      ],
      "name": "createCustomer",
      "outputs": [],
      "stateMutability": "nonpayable",
      "type": "function"
    },
    {
      "inputs": [
        {
          "internalType": "string",
          "name": "name",
          "type": "string"
        },
        {
          "internalType": "string",
          "name": "email",
          "type": "string"
        },
        {
          "internalType": "string",
          "name": "password",
          "type": "string"
        },
        {
          "internalType": "string",
          "name": "role",
          "type": "string"
        }
      ],
      "name": "createFarmer",
      "outputs": [],
      "stateMutability": "nonpayable",
      "type": "function"
    },
    {
      "inputs": [],
      "name": "customerList",
      "outputs": [
        {
          "components": [
            {
              "internalType": "string",
              "name": "name",
              "type": "string"
            },
            {
              "internalType": "string",
              "name": "email",
              "type": "string"
            },
            {
              "internalType": "string",
              "name": "password",
              "type": "string"
            },
            {
              "internalType": "string",
              "name": "role",
              "type": "string"
            },
            {
              "internalType": "address",
              "name": "ETHAddress",
              "type": "address"
            }
          ],
          "internalType": "struct UserManager.Customer[]",
          "name": "",
          "type": "tuple[]"
        }
      ],
      "stateMutability": "view",
      "type": "function"
    },
    {
      "inputs": [
        {
          "internalType": "address",
          "name": "ETHAddress",
          "type": "address"
        }
      ],
      "name": "deleteCustomer",
      "outputs": [],
      "stateMutability": "nonpayable",
      "type": "function"
    },
    {
      "inputs": [
        {
          "internalType": "address",
          "name": "ETHAddress",
          "type": "address"
        }
      ],
      "name": "deleteFarmer",
      "outputs": [],
      "stateMutability": "nonpayable",
      "type": "function"
    },
    {
      "inputs": [],
      "name": "farmerList",
      "outputs": [
        {
          "components": [
            {
              "internalType": "string",
              "name": "name",
              "type": "string"
            },
            {
              "internalType": "string",
              "name": "email",
              "type": "string"
            },
            {
              "internalType": "string",
              "name": "password",
              "type": "string"
            },
            {
              "internalType": "string",
              "name": "role",
              "type": "string"
            },
            {
              "internalType": "address",
              "name": "ETHAddress",
              "type": "address"
            }
          ],
          "internalType": "struct UserManager.Farmer[]",
          "name": "",
          "type": "tuple[]"
        }
      ],
      "stateMutability": "view",
      "type": "function"
    },
    {
      "inputs": [
        {
          "internalType": "string",
          "name": "name",
          "type": "string"
        },
        {
          "internalType": "uint256",
          "name": "contact",
          "type": "uint256"
        },
        {
          "internalType": "string",
          "name": "house",
          "type": "string"
        },
        {
          "internalType": "string",
          "name": "street",
          "type": "string"
        },
        {
          "internalType": "uint256",
          "name": "pincode",
          "type": "uint256"
        },
        {
          "internalType": "string",
          "name": "city",
          "type": "string"
        },
        {
          "internalType": "string",
          "name": "state",
          "type": "string"
        }
      ],
      "name": "fillDetails",
      "outputs": [],
      "stateMutability": "nonpayable",
      "type": "function"
    },
    {
      "inputs": [],
      "name": "getAllOrderIds",
      "outputs": [
        {
          "internalType": "string[]",
          "name": "",
          "type": "string[]"
        }
      ],
      "stateMutability": "view",
      "type": "function"
    },
    {
      "inputs": [
        {
          "internalType": "string",
          "name": "password",
          "type": "string"
        }
      ],
      "name": "getAuthority",
      "outputs": [
        {
          "components": [
            {
              "internalType": "string",
              "name": "name",
              "type": "string"
            },
            {
              "internalType": "string",
              "name": "email",
              "type": "string"
            },
            {
              "internalType": "string",
              "name": "password",
              "type": "string"
            },
            {
              "internalType": "string",
              "name": "role",
              "type": "string"
            },
            {
              "internalType": "address",
              "name": "ETHAddress",
              "type": "address"
            }
          ],
          "internalType": "struct UserManager.Authority",
          "name": "",
          "type": "tuple"
        }
      ],
      "stateMutability": "view",
      "type": "function"
    },
    {
      "inputs": [
        {
          "internalType": "string",
          "name": "password",
          "type": "string"
        }
      ],
      "name": "getCourier",
      "outputs": [
        {
          "components": [
            {
              "internalType": "string",
              "name": "name",
              "type": "string"
            },
            {
              "internalType": "string",
              "name": "email",
              "type": "string"
            },
            {
              "internalType": "string",
              "name": "password",
              "type": "string"
            },
            {
              "internalType": "string",
              "name": "role",
              "type": "string"
            },
            {
              "internalType": "address",
              "name": "ETHAddress",
              "type": "address"
            }
          ],
          "internalType": "struct UserManager.Courier",
          "name": "",
          "type": "tuple"
        }
      ],
      "stateMutability": "view",
      "type": "function"
    },
    {
      "inputs": [
        {
          "internalType": "string",
          "name": "password",
          "type": "string"
        }
      ],
      "name": "getCustomer",
      "outputs": [
        {
          "components": [
            {
              "internalType": "string",
              "name": "name",
              "type": "string"
            },
            {
              "internalType": "string",
              "name": "email",
              "type": "string"
            },
            {
              "internalType": "string",
              "name": "password",
              "type": "string"
            },
            {
              "internalType": "string",
              "name": "role",
              "type": "string"
            },
            {
              "internalType": "address",
              "name": "ETHAddress",
              "type": "address"
            }
          ],
          "internalType": "struct UserManager.Customer",
          "name": "",
          "type": "tuple"
        }
      ],
      "stateMutability": "view",
      "type": "function"
    },
    {
      "inputs": [],
      "name": "getDetails",
      "outputs": [
        {
          "components": [
            {
              "internalType": "address",
              "name": "ETHAddress",
              "type": "address"
            },
            {
              "internalType": "string",
              "name": "FullName",
              "type": "string"
            },
            {
              "internalType": "uint256",
              "name": "contact",
              "type": "uint256"
            },
            {
              "internalType": "string",
              "name": "house",
              "type": "string"
            },
            {
              "internalType": "string",
              "name": "street",
              "type": "string"
            },
            {
              "internalType": "uint256",
              "name": "pincode",
              "type": "uint256"
            },
            {
              "internalType": "string",
              "name": "city",
              "type": "string"
            },
            {
              "internalType": "string",
              "name": "state",
              "type": "string"
            }
          ],
          "internalType": "struct UserManager.Details",
          "name": "",
          "type": "tuple"
        }
      ],
      "stateMutability": "view",
      "type": "function"
    },
    {
      "inputs": [
        {
          "internalType": "string",
          "name": "password",
          "type": "string"
        }
      ],
      "name": "getFarmer",
      "outputs": [
        {
          "components": [
            {
              "internalType": "string",
              "name": "name",
              "type": "string"
            },
            {
              "internalType": "string",
              "name": "email",
              "type": "string"
            },
            {
              "internalType": "string",
              "name": "password",
              "type": "string"
            },
            {
              "internalType": "string",
              "name": "role",
              "type": "string"
            },
            {
              "internalType": "address",
              "name": "ETHAddress",
              "type": "address"
            }
          ],
          "internalType": "struct UserManager.Farmer",
          "name": "",
          "type": "tuple"
        }
      ],
      "stateMutability": "view",
      "type": "function"
    },
    {
      "inputs": [],
      "name": "getOrders",
      "outputs": [
        {
          "components": [
            {
              "components": [
                {
                  "internalType": "enum PaymentContract.OrderStatus",
                  "name": "status",
                  "type": "uint8"
                },
                {
                  "internalType": "string",
                  "name": "productId",
                  "type": "string"
                },
                {
                  "internalType": "string",
                  "name": "productName",
                  "type": "string"
                },
                {
                  "internalType": "address",
                  "name": "farmer",
                  "type": "address"
                },
                {
                  "internalType": "uint256",
                  "name": "totalPrice",
                  "type": "uint256"
                },
                {
                  "internalType": "uint256",
                  "name": "totalQuantity",
                  "type": "uint256"
                },
                {
                  "internalType": "string",
                  "name": "timeofPicked",
                  "type": "string"
                },
                {
                  "internalType": "string",
                  "name": "timeofDelivered",
                  "type": "string"
                }
              ],
              "internalType": "struct PaymentContract.Item[]",
              "name": "items",
              "type": "tuple[]"
            },
            {
              "internalType": "string",
              "name": "orderId",
              "type": "string"
            },
            {
              "internalType": "string",
              "name": "timeofOrdered",
              "type": "string"
            },
            {
              "internalType": "address",
              "name": "customer",
              "type": "address"
            },
            {
              "internalType": "uint256",
              "name": "totalAmount",
              "type": "uint256"
            }
          ],
          "internalType": "struct PaymentContract.Order[]",
          "name": "",
          "type": "tuple[]"
        }
      ],
      "stateMutability": "view",
      "type": "function"
    },
    {
      "inputs": [
        {
          "internalType": "string",
          "name": "pid",
          "type": "string"
        },
        {
          "internalType": "string",
          "name": "oid",
          "type": "string"
        },
        {
          "internalType": "string",
          "name": "time",
          "type": "string"
        }
      ],
      "name": "orderPicked",
      "outputs": [],
      "stateMutability": "nonpayable",
      "type": "function"
    },
    {
      "inputs": [
        {
          "components": [
            {
              "internalType": "enum PaymentContract.OrderStatus",
              "name": "status",
              "type": "uint8"
            },
            {
              "internalType": "string",
              "name": "productId",
              "type": "string"
            },
            {
              "internalType": "string",
              "name": "productName",
              "type": "string"
            },
            {
              "internalType": "address",
              "name": "farmer",
              "type": "address"
            },
            {
              "internalType": "uint256",
              "name": "totalPrice",
              "type": "uint256"
            },
            {
              "internalType": "uint256",
              "name": "totalQuantity",
              "type": "uint256"
            },
            {
              "internalType": "string",
              "name": "timeofPicked",
              "type": "string"
            },
            {
              "internalType": "string",
              "name": "timeofDelivered",
              "type": "string"
            }
          ],
          "internalType": "struct PaymentContract.Item[]",
          "name": "items",
          "type": "tuple[]"
        },
        {
          "internalType": "string",
          "name": "time",
          "type": "string"
        },
        {
          "internalType": "uint256",
          "name": "totalAmount",
          "type": "uint256"
        },
        {
          "internalType": "string",
          "name": "orderId",
          "type": "string"
        }
      ],
      "name": "orderProduct",
      "outputs": [],
      "stateMutability": "payable",
      "type": "function"
    },
    {
      "inputs": [
        {
          "internalType": "string",
          "name": "pid",
          "type": "string"
        },
        {
          "internalType": "string",
          "name": "oid",
          "type": "string"
        },
        {
          "internalType": "string",
          "name": "time",
          "type": "string"
        }
      ],
      "name": "productDelivered",
      "outputs": [],
      "stateMutability": "nonpayable",
      "type": "function"
    }
  ],
  "bytecode": "0x608060405234801561001057600080fd5b5061432e806100206000396000f3fe60806040526004361061011f5760003560e01c80635f6f80cc116100a0578063a94f1fb711610064578063a94f1fb714610324578063b151494214610337578063b51ca0af14610357578063cef2540314610377578063fbbf93a01461039957600080fd5b80635f6f80cc1461028257806384bdfcd7146102a257806388905b80146102c25780638ba407f9146102e45780638bdb5ce61461030457600080fd5b80635087e668116100e75780635087e668146101d3578063509159f414610200578063518bddd9146102225780635baef56d146102425780635e94d7201461026257600080fd5b806305ceb8211461012457806311c9ccf614610146578063200d6de7146101665780632e2dc43e146101865780634b2b612a146101b1575b600080fd5b34801561013057600080fd5b5061014461013f3660046135d5565b6103bb565b005b34801561015257600080fd5b506101446101613660046136d6565b61049f565b34801561017257600080fd5b506101446101813660046136f1565b61066c565b34801561019257600080fd5b5061019b610875565b6040516101a89190613826565b60405180910390f35b3480156101bd57600080fd5b506101c6610d1b565b6040516101a891906139c7565b3480156101df57600080fd5b506101f36101ee366004613a2b565b610e57565b6040516101a89190613ae9565b34801561020c57600080fd5b50610215611289565b6040516101a89190613afc565b34801561022e57600080fd5b506101f361023d366004613a2b565b61153d565b34801561024e57600080fd5b5061014461025d3660046136f1565b6115fe565b34801561026e57600080fd5b5061014461027d3660046136f1565b6117f2565b34801561028e57600080fd5b5061014461029d366004613b53565b611994565b3480156102ae57600080fd5b506101f36102bd366004613a2b565b611bdd565b3480156102ce57600080fd5b506102d7611fe7565b6040516101a89190613bdb565b3480156102f057600080fd5b506101446102ff366004613b53565b61229b565b34801561031057600080fd5b5061014461031f3660046136d6565b6124e3565b610144610332366004613c41565b6126ac565b34801561034357600080fd5b506101f3610352366004613a2b565b612a0b565b34801561036357600080fd5b506101446103723660046136f1565b612acc565b34801561038357600080fd5b5061038c612cc9565b6040516101a89190613e41565b3480156103a557600080fd5b506103ae612f7d565b6040516101a89190613e98565b33600081815260026020526040902080546001600160a01b03191690911781556001016103e88882613fe8565b5033600090815260026020819052604090912090810187905560030161040e8682613fe8565b5033600090815260026020526040902060040161042b8582613fe8565b503360009081526002602052604090206005810184905560060161044f8382613fe8565b5033600090815260026020526040902060070161046c8282613fe8565b506040517fc8133d0532c52370de350c4858130d2be6c8cd430b301496a3539e03b9082a6090600090a150505050505050565b60005b60035481101561066857816001600160a01b0316600382815481106104c9576104c96140a8565b60009182526020909120600460059092020101546001600160a01b03160361066057805b6003546104fc906001906140d4565b8110156105c35760036105108260016140ed565b81548110610520576105206140a8565b906000526020600020906005020160038281548110610541576105416140a8565b600091825260209091206005909102018061055c8382614100565b5060018181019061056f90840182614100565b5060028181019061058290840182614100565b5060038181019061059590840182614100565b50600491820154910180546001600160a01b0319166001600160a01b039092169190911790556001016104ed565b5060038054806105d5576105d56141db565b600082815260208120600019909201916005830201906105f582826132ef565b6106036001830160006132ef565b6106116002830160006132ef565b61061f6003830160006132ef565b5060040180546001600160a01b031916905590556040517f8f3cfd9f0e967c51c8a20e9651d762c6a84e8e97fe37add700680190c70dcb7090600090a15050565b6001016104a2565b5050565b600160005b60045481101561070f576004818154811061068e5761068e6140a8565b6000918252602091829020600460059092020101546040516106bc926001600160a01b0390921691016141f1565b60405160208183030381529060405280519060200120336040516020016106e391906141f1565b6040516020818303038152906040528051906020012003610707576000915061070f565b600101610671565b508061075a5760405162461bcd60e51b81526020600482015260156024820152744661726d657220616c72656164792065786973742160581b60448201526064015b60405180910390fd5b6040805160a081018252868152602081018690529081018490526060810183905233608082015260048054600181018255600091909152815160059091027f8a35acfbc15ff81a39ae7d344fd709f28e8600b4aa8c65c6b64bfe7fe36bd19b019081906107c79082613fe8565b50602082015160018201906107dc9082613fe8565b50604082015160028201906107f19082613fe8565b50606082015160038201906108069082613fe8565b5060809190910151600490910180546001600160a01b0319166001600160a01b039092169190911790556040517f5c47ff0a569e587692da604d2bf92787dd7f006684698dbd8c59539be7e35a749061086690879087908790879061420e565b60405180910390a15050505050565b60606001805480602002602001604051908101604052809291908181526020016000905b82821015610d1257838290600052602060002090600502016040518060a001604052908160008201805480602002602001604051908101604052809291908181526020016000905b82821015610bb457600084815260209020604080516101008101909152600884029091018054829060ff16600281111561091d5761091d61379e565b600281111561092e5761092e61379e565b815260200160018201805461094290613f63565b80601f016020809104026020016040519081016040528092919081815260200182805461096e90613f63565b80156109bb5780601f10610990576101008083540402835291602001916109bb565b820191906000526020600020905b81548152906001019060200180831161099e57829003601f168201915b505050505081526020016002820180546109d490613f63565b80601f0160208091040260200160405190810160405280929190818152602001828054610a0090613f63565b8015610a4d5780601f10610a2257610100808354040283529160200191610a4d565b820191906000526020600020905b815481529060010190602001808311610a3057829003601f168201915b505050918352505060038201546001600160a01b031660208201526004820154604082015260058201546060820152600682018054608090920191610a9190613f63565b80601f0160208091040260200160405190810160405280929190818152602001828054610abd90613f63565b8015610b0a5780601f10610adf57610100808354040283529160200191610b0a565b820191906000526020600020905b815481529060010190602001808311610aed57829003601f168201915b50505050508152602001600782018054610b2390613f63565b80601f0160208091040260200160405190810160405280929190818152602001828054610b4f90613f63565b8015610b9c5780601f10610b7157610100808354040283529160200191610b9c565b820191906000526020600020905b815481529060010190602001808311610b7f57829003601f168201915b505050505081525050815260200190600101906108e1565b505050508152602001600182018054610bcc90613f63565b80601f0160208091040260200160405190810160405280929190818152602001828054610bf890613f63565b8015610c455780601f10610c1a57610100808354040283529160200191610c45565b820191906000526020600020905b815481529060010190602001808311610c2857829003601f168201915b50505050508152602001600282018054610c5e90613f63565b80601f0160208091040260200160405190810160405280929190818152602001828054610c8a90613f63565b8015610cd75780601f10610cac57610100808354040283529160200191610cd7565b820191906000526020600020905b815481529060010190602001808311610cba57829003601f168201915b505050918352505060038201546001600160a01b03166020808301919091526004909201546040909101529082526001929092019101610899565b50505050905090565b60015460609060009067ffffffffffffffff811115610d3c57610d3c6134f4565b604051908082528060200260200182016040528015610d6f57816020015b6060815260200190600190039081610d5a5790505b50905060005b600154811015610e515760018181548110610d9257610d926140a8565b90600052602060002090600502016001018054610dae90613f63565b80601f0160208091040260200160405190810160405280929190818152602001828054610dda90613f63565b8015610e275780601f10610dfc57610100808354040283529160200191610e27565b820191906000526020600020905b815481529060010190602001808311610e0a57829003601f168201915b5050505050828281518110610e3e57610e3e6140a8565b6020908102919091010152600101610d75565b50919050565b610e5f61332c565b6000610e6961332c565b60005b6005548110156111955760058181548110610e8957610e896140a8565b600091825260209182902060046005909202010154604051610eb7926001600160a01b0390921691016141f1565b6040516020818303038152906040528051906020012033604051602001610ede91906141f1565b604051602081830303815290604052805190602001200361118d576001925060058181548110610f1057610f106140a8565b90600052602060002090600502016040518060a0016040529081600082018054610f3990613f63565b80601f0160208091040260200160405190810160405280929190818152602001828054610f6590613f63565b8015610fb25780601f10610f8757610100808354040283529160200191610fb2565b820191906000526020600020905b815481529060010190602001808311610f9557829003601f168201915b50505050508152602001600182018054610fcb90613f63565b80601f0160208091040260200160405190810160405280929190818152602001828054610ff790613f63565b80156110445780601f1061101957610100808354040283529160200191611044565b820191906000526020600020905b81548152906001019060200180831161102757829003601f168201915b5050505050815260200160028201805461105d90613f63565b80601f016020809104026020016040519081016040528092919081815260200182805461108990613f63565b80156110d65780601f106110ab576101008083540402835291602001916110d6565b820191906000526020600020905b8154815290600101906020018083116110b957829003601f168201915b505050505081526020016003820180546110ef90613f63565b80601f016020809104026020016040519081016040528092919081815260200182805461111b90613f63565b80156111685780601f1061113d57610100808354040283529160200191611168565b820191906000526020600020905b81548152906001019060200180831161114b57829003601f168201915b5050509183525050600491909101546001600160a01b03166020909101529150611195565b600101610e6c565b50816111e35760405162461bcd60e51b815260206004820152601760248201527f437573746f6d657220646f65736e2774206578697374210000000000000000006044820152606401610751565b836040516020016111f49190614266565b60405160208183030381529060405280519060200120816040015160405160200161121f9190614266565b60405160208183030381529060405280519060200120146112825760405162461bcd60e51b815260206004820181905260248201527f57726f6e672070617373776f72642c506c656173652054727920416761696e216044820152606401610751565b9392505050565b60606003805480602002602001604051908101604052809291908181526020016000905b82821015610d1257838290600052602060002090600502016040518060a00160405290816000820180546112e090613f63565b80601f016020809104026020016040519081016040528092919081815260200182805461130c90613f63565b80156113595780601f1061132e57610100808354040283529160200191611359565b820191906000526020600020905b81548152906001019060200180831161133c57829003601f168201915b5050505050815260200160018201805461137290613f63565b80601f016020809104026020016040519081016040528092919081815260200182805461139e90613f63565b80156113eb5780601f106113c0576101008083540402835291602001916113eb565b820191906000526020600020905b8154815290600101906020018083116113ce57829003601f168201915b5050505050815260200160028201805461140490613f63565b80601f016020809104026020016040519081016040528092919081815260200182805461143090613f63565b801561147d5780601f106114525761010080835404028352916020019161147d565b820191906000526020600020905b81548152906001019060200180831161146057829003601f168201915b5050505050815260200160038201805461149690613f63565b80601f01602080910402602001604051908101604052809291908181526020018280546114c290613f63565b801561150f5780601f106114e45761010080835404028352916020019161150f565b820191906000526020600020905b8154815290600101906020018083116114f257829003601f168201915b5050509183525050600491909101546001600160a01b031660209182015290825260019290920191016112ad565b61154561332c565b600061154f61332c565b60005b600354811015611195576003818154811061156f5761156f6140a8565b60009182526020918290206004600590920201015460405161159d926001600160a01b0390921691016141f1565b60405160208183030381529060405280519060200120336040516020016115c491906141f1565b60405160208183030381529060405280519060200120036115f6576001925060038181548110610f1057610f106140a8565b600101611552565b600160005b6005548110156116a15760058181548110611620576116206140a8565b60009182526020918290206004600590920201015460405161164e926001600160a01b0390921691016141f1565b604051602081830303815290604052805190602001203360405160200161167591906141f1565b604051602081830303815290604052805190602001200361169957600091506116a1565b600101611603565b50806116ea5760405162461bcd60e51b8152602060048201526018602482015277417574686f7269747920616c72656164792065786973742160401b6044820152606401610751565b6040805160a0810182528681526020810186905290810184905260608101839052336080820152600580546001810182556000829052825191027f036b6384b5eca791c62761152d0c79bb0604c104a5fb6f4eb0703f3154bb3db0019081906117539082613fe8565b50602082015160018201906117689082613fe8565b506040820151600282019061177d9082613fe8565b50606082015160038201906117929082613fe8565b5060809190910151600490910180546001600160a01b0319166001600160a01b039092169190911790556040517fc5818d9d7df1d0bdb4144d2e0d9ca09a1d5b05dbaea4477c8e49131d5b6623ad9061086690879087908790879061420e565b3360405160200161180391906141f1565b60408051601f1981840301815282825280516020918201203360009081526006835292909220600401549192611843926001600160a01b031691016141f1565b60405160208183030381529060405280519060200120036118a15760405162461bcd60e51b8152602060048201526018602482015277417574686f7269747920616c72656164792065786973742160401b6044820152606401610751565b6040805160a08101825285815260208082018690528183018590526060820184905233608083018190526000908152600690915291909120815181906118e79082613fe8565b50602082015160018201906118fc9082613fe8565b50604082015160028201906119119082613fe8565b50606082015160038201906119269082613fe8565b5060809190910151600490910180546001600160a01b0319166001600160a01b039092169190911790556040517f14910ef2263f83cc85289fa1244f2f612575d7ee261d2f3b223a0943f05a0b149061198690869086908690869061420e565b60405180910390a150505050565b60005b600154811015611bae57826040516020016119b29190614266565b60405160208183030381529060405280519060200120600182815481106119db576119db6140a8565b90600052602060002090600502016001016040516020016119fc9190614282565b6040516020818303038152906040528051906020012003611ba65760005b60018281548110611a2d57611a2d6140a8565b6000918252602090912060059091020154811015611ba45784604051602001611a569190614266565b6040516020818303038152906040528051906020012060018381548110611a7f57611a7f6140a8565b90600052602060002090600502016000018281548110611aa157611aa16140a8565b9060005260206000209060080201600101604051602001611ac29190614282565b6040516020818303038152906040528051906020012003611b9c57600260018381548110611af257611af26140a8565b90600052602060002090600502016000018281548110611b1457611b146140a8565b60009182526020909120600890910201805460ff19166001836002811115611b3e57611b3e61379e565b02179055508260018381548110611b5757611b576140a8565b90600052602060002090600502016000018281548110611b7957611b796140a8565b90600052602060002090600802016007019081611b969190613fe8565b50611ba4565b600101611a1a565b505b600101611997565b506040517f74cd5e7dfebb0156a786c55b52978ae798c1c2003fdd43701e11ea011d8c56cf90600090a1505050565b611c186040518060a001604052806060815260200160608152602001606081526020016060815260200160006001600160a01b031681525090565b33604051602001611c2991906141f1565b60408051601f1981840301815282825280516020918201203360009081526006835292909220600401549192611c69926001600160a01b031691016141f1565b6040516020818303038152906040528051906020012014611cc15760405162461bcd60e51b8152602060048201526012602482015271436f7572696572204e6f742065786973742160701b6044820152606401610751565b81604051602001611cd29190614266565b60408051601f19818403018152828252805160209182012033600090815260068352929092209192611d08926002019101614282565b6040516020818303038152906040528051906020012014611d6b5760405162461bcd60e51b815260206004820181905260248201527f57726f6e672070617373776f72642c506c656173652054727920416761696e216044820152606401610751565b3360009081526006602052604090819020815160a08101909252805482908290611d9490613f63565b80601f0160208091040260200160405190810160405280929190818152602001828054611dc090613f63565b8015611e0d5780601f10611de257610100808354040283529160200191611e0d565b820191906000526020600020905b815481529060010190602001808311611df057829003601f168201915b50505050508152602001600182018054611e2690613f63565b80601f0160208091040260200160405190810160405280929190818152602001828054611e5290613f63565b8015611e9f5780601f10611e7457610100808354040283529160200191611e9f565b820191906000526020600020905b815481529060010190602001808311611e8257829003601f168201915b50505050508152602001600282018054611eb890613f63565b80601f0160208091040260200160405190810160405280929190818152602001828054611ee490613f63565b8015611f315780601f10611f0657610100808354040283529160200191611f31565b820191906000526020600020905b815481529060010190602001808311611f1457829003601f168201915b50505050508152602001600382018054611f4a90613f63565b80601f0160208091040260200160405190810160405280929190818152602001828054611f7690613f63565b8015611fc35780601f10611f9857610100808354040283529160200191611fc3565b820191906000526020600020905b815481529060010190602001808311611fa657829003601f168201915b5050509183525050600491909101546001600160a01b031660209091015292915050565b60606004805480602002602001604051908101604052809291908181526020016000905b82821015610d1257838290600052602060002090600502016040518060a001604052908160008201805461203e90613f63565b80601f016020809104026020016040519081016040528092919081815260200182805461206a90613f63565b80156120b75780601f1061208c576101008083540402835291602001916120b7565b820191906000526020600020905b81548152906001019060200180831161209a57829003601f168201915b505050505081526020016001820180546120d090613f63565b80601f01602080910402602001604051908101604052809291908181526020018280546120fc90613f63565b80156121495780601f1061211e57610100808354040283529160200191612149565b820191906000526020600020905b81548152906001019060200180831161212c57829003601f168201915b5050505050815260200160028201805461216290613f63565b80601f016020809104026020016040519081016040528092919081815260200182805461218e90613f63565b80156121db5780601f106121b0576101008083540402835291602001916121db565b820191906000526020600020905b8154815290600101906020018083116121be57829003601f168201915b505050505081526020016003820180546121f490613f63565b80601f016020809104026020016040519081016040528092919081815260200182805461222090613f63565b801561226d5780601f106122425761010080835404028352916020019161226d565b820191906000526020600020905b81548152906001019060200180831161225057829003601f168201915b5050509183525050600491909101546001600160a01b0316602091820152908252600192909201910161200b565b60005b6001548110156124b457826040516020016122b99190614266565b60405160208183030381529060405280519060200120600182815481106122e2576122e26140a8565b90600052602060002090600502016001016040516020016123039190614282565b60405160208183030381529060405280519060200120036124ac5760005b60018281548110612334576123346140a8565b60009182526020909120600590910201548110156124aa578460405160200161235d9190614266565b6040516020818303038152906040528051906020012060018381548110612386576123866140a8565b906000526020600020906005020160000182815481106123a8576123a86140a8565b90600052602060002090600802016001016040516020016123c99190614282565b60405160208183030381529060405280519060200120036124a25760018083815481106123f8576123f86140a8565b9060005260206000209060050201600001828154811061241a5761241a6140a8565b60009182526020909120600890910201805460ff191660018360028111156124445761244461379e565b0217905550826001838154811061245d5761245d6140a8565b9060005260206000209060050201600001828154811061247f5761247f6140a8565b9060005260206000209060080201600601908161249c9190613fe8565b506124aa565b600101612321565b505b60010161229e565b506040517f1e42b37ca27154dd8a086c1eebd42531ad87a2a5d1c3cd991b385bb7a02c8abe90600090a1505050565b60005b60045481101561066857816001600160a01b03166004828154811061250d5761250d6140a8565b60009182526020909120600460059092020101546001600160a01b0316036126a457805b600454612540906001906140d4565b8110156126075760046125548260016140ed565b81548110612564576125646140a8565b906000526020600020906005020160048281548110612585576125856140a8565b60009182526020909120600590910201806125a08382614100565b506001818101906125b390840182614100565b506002818101906125c690840182614100565b506003818101906125d990840182614100565b50600491820154910180546001600160a01b0319166001600160a01b03909216919091179055600101612531565b506004805480612619576126196141db565b6000828152602081206000199092019160058302019061263982826132ef565b6126476001830160006132ef565b6126556002830160006132ef565b6126636003830160006132ef565b5060040180546001600160a01b031916905590556040517fa0a3abb941db31e9b7a4bf5830ba0940f2556e20c9edfc788d21119091c45b5790600090a15050565b6001016124e6565b8134146126ec5760405162461bcd60e51b815260206004820152600e60248201526d14185e5b595b9d0819985a5b195960921b6044820152606401610751565b3360009081526020819052604090206002016127088482613fe8565b503360008181526020819052604090206003810180546001600160a01b031916909217909155600481018390556001016127428282613fe8565b5060005b84518110156128ab573360009081526020819052604090208551869083908110612772576127726140a8565b60209081029190910181015182546001818101855560009485529290932081516008909402018054919390929091839160ff19909116908360028111156127bb576127bb61379e565b0217905550602082015160018201906127d49082613fe8565b50604082015160028201906127e99082613fe8565b5060608201516003820180546001600160a01b0319166001600160a01b039092169190911790556080820151600482015560a0820151600582015560c082015160068201906128389082613fe8565b5060e0820151600782019061284d9082613fe8565b505033600090815260208190526040812080549192509083908110612874576128746140a8565b60009182526020909120600890910201805460ff1916600183600281111561289e5761289e61379e565b0217905550600101612746565b503360009081526020819052604081206001805480820182559252805490916005027fb10e2d527612073b26eecdfd717e6a320cf44b4afac2b0732d9fcbe2b7fa0cf601906128fd9082908490613364565b5060018181019061291090840182614100565b5060028181019061292390840182614100565b5060038281015490820180546001600160a01b0319166001600160a01b0390921691909117905560049182015491015560005b84518110156129db57848181518110612971576129716140a8565b6020026020010151606001516001600160a01b03166108fc86838151811061299b5761299b6140a8565b6020026020010151608001519081150290604051600060405180830381858888f193505050501580156129d2573d6000803e3d6000fd5b50600101612956565b506040517f7bab8ad11f8ad37ca148565c8640766d077c4ce878bcbfab5cfc8f5c01721d1e90600090a150505050565b612a1361332c565b6000612a1d61332c565b60005b6004548110156111955760048181548110612a3d57612a3d6140a8565b600091825260209182902060046005909202010154604051612a6b926001600160a01b0390921691016141f1565b6040516020818303038152906040528051906020012033604051602001612a9291906141f1565b6040516020818303038152906040528051906020012003612ac4576001925060048181548110610f1057610f106140a8565b600101612a20565b600160005b600354811015612b6f5760038181548110612aee57612aee6140a8565b600091825260209182902060046005909202010154604051612b1c926001600160a01b0390921691016141f1565b6040516020818303038152906040528051906020012033604051602001612b4391906141f1565b6040516020818303038152906040528051906020012003612b675760009150612b6f565b600101612ad1565b5080612bbd5760405162461bcd60e51b815260206004820152601760248201527f637573746f6d657220616c7265616479206578697374210000000000000000006044820152606401610751565b6040805160a081018252868152602081018690529081018490526060810183905233608082015260038054600181018255600091909152815160059091027fc2575a0e9e593c00f959f8c92f12db2869c3395a3b0502d05e2516446f71f85b01908190612c2a9082613fe8565b5060208201516001820190612c3f9082613fe8565b5060408201516002820190612c549082613fe8565b5060608201516003820190612c699082613fe8565b5060809190910151600490910180546001600160a01b0319166001600160a01b039092169190911790556040517f1b4cea3558a9e0c9f742c904e361522d01633b394adf89f8b91d8a50df89117a9061086690879087908790879061420e565b60606005805480602002602001604051908101604052809291908181526020016000905b82821015610d1257838290600052602060002090600502016040518060a0016040529081600082018054612d2090613f63565b80601f0160208091040260200160405190810160405280929190818152602001828054612d4c90613f63565b8015612d995780601f10612d6e57610100808354040283529160200191612d99565b820191906000526020600020905b815481529060010190602001808311612d7c57829003601f168201915b50505050508152602001600182018054612db290613f63565b80601f0160208091040260200160405190810160405280929190818152602001828054612dde90613f63565b8015612e2b5780601f10612e0057610100808354040283529160200191612e2b565b820191906000526020600020905b815481529060010190602001808311612e0e57829003601f168201915b50505050508152602001600282018054612e4490613f63565b80601f0160208091040260200160405190810160405280929190818152602001828054612e7090613f63565b8015612ebd5780601f10612e9257610100808354040283529160200191612ebd565b820191906000526020600020905b815481529060010190602001808311612ea057829003601f168201915b50505050508152602001600382018054612ed690613f63565b80601f0160208091040260200160405190810160405280929190818152602001828054612f0290613f63565b8015612f4f5780601f10612f2457610100808354040283529160200191612f4f565b820191906000526020600020905b815481529060010190602001808311612f3257829003601f168201915b5050509183525050600491909101546001600160a01b03166020918201529082526001929092019101612ced565b612fce60405180610100016040528060006001600160a01b03168152602001606081526020016000815260200160608152602001606081526020016000815260200160608152602001606081525090565b336000908152600260209081526040918290208251610100810190935280546001600160a01b03168352600181018054919284019161300c90613f63565b80601f016020809104026020016040519081016040528092919081815260200182805461303890613f63565b80156130855780601f1061305a57610100808354040283529160200191613085565b820191906000526020600020905b81548152906001019060200180831161306857829003601f168201915b50505050508152602001600282015481526020016003820180546130a890613f63565b80601f01602080910402602001604051908101604052809291908181526020018280546130d490613f63565b80156131215780601f106130f657610100808354040283529160200191613121565b820191906000526020600020905b81548152906001019060200180831161310457829003601f168201915b5050505050815260200160048201805461313a90613f63565b80601f016020809104026020016040519081016040528092919081815260200182805461316690613f63565b80156131b35780601f10613188576101008083540402835291602001916131b3565b820191906000526020600020905b81548152906001019060200180831161319657829003601f168201915b50505050508152602001600582015481526020016006820180546131d690613f63565b80601f016020809104026020016040519081016040528092919081815260200182805461320290613f63565b801561324f5780601f106132245761010080835404028352916020019161324f565b820191906000526020600020905b81548152906001019060200180831161323257829003601f168201915b5050505050815260200160078201805461326890613f63565b80601f016020809104026020016040519081016040528092919081815260200182805461329490613f63565b80156132e15780601f106132b6576101008083540402835291602001916132e1565b820191906000526020600020905b8154815290600101906020018083116132c457829003601f168201915b505050505081525050905090565b5080546132fb90613f63565b6000825580601f1061330b575050565b601f016020900490600052602060002090810190613329919061346b565b50565b6040518060a001604052806060815260200160608152602001606081526020016060815260200160006001600160a01b031681525090565b82805482825590600052602060002090600802810192821561345b5760005260206000209160080282015b8281111561345b57825482548491849160ff90911690829060ff191660018360028111156133bf576133bf61379e565b02179055506001818101906133d690840182614100565b506002818101906133e990840182614100565b5060038281015490820180546001600160a01b0319166001600160a01b03909216919091179055600480830154908201556005808301549082015560068082019061343690840182614100565b5060078181019061344990840182614100565b5050509160080191906008019061338f565b50613467929150613480565b5090565b5b80821115613467576000815560010161346c565b8082111561346757805460ff19168155600061349f60018301826132ef565b6134ad6002830160006132ef565b6003820180546001600160a01b0319169055600060048301819055600583018190556134dd9060068401906132ef565b6134eb6007830160006132ef565b50600801613480565b634e487b7160e01b600052604160045260246000fd5b604051610100810167ffffffffffffffff8111828210171561352e5761352e6134f4565b60405290565b604051601f8201601f1916810167ffffffffffffffff8111828210171561355d5761355d6134f4565b604052919050565b600082601f83011261357657600080fd5b813567ffffffffffffffff811115613590576135906134f4565b6135a3601f8201601f1916602001613534565b8181528460208386010111156135b857600080fd5b816020850160208301376000918101602001919091529392505050565b600080600080600080600060e0888a0312156135f057600080fd5b873567ffffffffffffffff8082111561360857600080fd5b6136148b838c01613565565b985060208a0135975060408a013591508082111561363157600080fd5b61363d8b838c01613565565b965060608a013591508082111561365357600080fd5b61365f8b838c01613565565b955060808a0135945060a08a013591508082111561367c57600080fd5b6136888b838c01613565565b935060c08a013591508082111561369e57600080fd5b506136ab8a828b01613565565b91505092959891949750929550565b80356001600160a01b03811681146136d157600080fd5b919050565b6000602082840312156136e857600080fd5b611282826136ba565b6000806000806080858703121561370757600080fd5b843567ffffffffffffffff8082111561371f57600080fd5b61372b88838901613565565b9550602087013591508082111561374157600080fd5b61374d88838901613565565b9450604087013591508082111561376357600080fd5b61376f88838901613565565b9350606087013591508082111561378557600080fd5b5061379287828801613565565b91505092959194509250565b634e487b7160e01b600052602160045260246000fd5b600381106137d257634e487b7160e01b600052602160045260246000fd5b9052565b60005b838110156137f15781810151838201526020016137d9565b50506000910152565b600081518084526138128160208601602086016137d6565b601f01601f19169290920160200192915050565b60006020808301818452808551808352604092508286019150828160051b87010184880160005b838110156139b957603f198984030185528151805160a0808652815190860181905260c0600582901b87018101928b01919087019060005b8181101561394c5760bf1989860301835283516138a38682516137b4565b8d8101516101008f8801526138bc6101008801826137fa565b90508d8201518782038f8901526138d382826137fa565b91505060608201516138f060608901826001600160a01b03169052565b506080820151608088015260a082015160a088015260c082015187820360c089015261391c82826137fa565b91505060e0820151915086810360e088015261393881836137fa565b96505050928c0192918c0191600101613885565b50505050888201518582038a87015261396582826137fa565b915050878201518582038987015261397d82826137fa565b915050606082015161399a60608701826001600160a01b03169052565b506080918201519490910193909352938601939086019060010161384d565b509098975050505050505050565b600060208083016020845280855180835260408601915060408160051b87010192506020870160005b82811015613a1e57603f19888603018452613a0c8583516137fa565b945092850192908501906001016139f0565b5092979650505050505050565b600060208284031215613a3d57600080fd5b813567ffffffffffffffff811115613a5457600080fd5b613a6084828501613565565b949350505050565b6000815160a08452613a7d60a08501826137fa565b905060208301518482036020860152613a9682826137fa565b91505060408301518482036040860152613ab082826137fa565b91505060608301518482036060860152613aca82826137fa565b6080948501516001600160a01b03169590940194909452509092915050565b6020815260006112826020830184613a68565b600060208083016020845280855180835260408601915060408160051b87010192506020870160005b82811015613a1e57603f19888603018452613b41858351613a68565b94509285019290850190600101613b25565b600080600060608486031215613b6857600080fd5b833567ffffffffffffffff80821115613b8057600080fd5b613b8c87838801613565565b94506020860135915080821115613ba257600080fd5b613bae87838801613565565b93506040860135915080821115613bc457600080fd5b50613bd186828701613565565b9150509250925092565b600060208083016020845280855180835260408601915060408160051b87010192506020870160005b82811015613a1e57603f19888603018452613c20858351613a68565b94509285019290850190600101613c04565b8035600381106136d157600080fd5b60008060008060808587031215613c5757600080fd5b67ffffffffffffffff8086351115613c6e57600080fd5b8535860187601f820112613c8157600080fd5b8181351115613c9257613c926134f4565b613ca26020823560051b01613534565b81358082526020808301929160051b8401018a811115613cc157600080fd5b602084015b81811015613de2578581351115613cdc57600080fd5b80358501610100818e03601f19011215613cf557600080fd5b613cfd61350a565b613d0960208301613c32565b81528760408301351115613d1c57600080fd5b613d2f8e60206040850135850101613565565b60208201528760608301351115613d4557600080fd5b613d588e60206060850135850101613565565b6040820152613d69608083016136ba565b606082015260a0820135608082015260c082013560a08201528760e08301351115613d9357600080fd5b613da68e602060e0850135850101613565565b60c082015261010082013588811115613dbe57600080fd5b613dcd8f602083860101613565565b60e08301525085525060209384019301613cc6565b50508097505050508060208701351115613dfb57600080fd5b613e0b8760208801358801613565565b9350604086013592508060608701351115613e2557600080fd5b50613e368660608701358701613565565b905092959194509250565b600060208083016020845280855180835260408601915060408160051b87010192506020870160005b82811015613a1e57603f19888603018452613e86858351613a68565b94509285019290850190600101613e6a565b60208152613eb26020820183516001600160a01b03169052565b60006020830151610100806040850152613ed06101208501836137fa565b9150604085015160608501526060850151601f1980868503016080870152613ef884836137fa565b935060808701519150808685030160a0870152613f1584836137fa565b935060a087015160c087015260c08701519150808685030160e0870152613f3c84836137fa565b935060e0870151915080868503018387015250613f5983826137fa565b9695505050505050565b600181811c90821680613f7757607f821691505b602082108103610e5157634e487b7160e01b600052602260045260246000fd5b601f821115613fe3576000816000526020600020601f850160051c81016020861015613fc05750805b601f850160051c820191505b81811015613fdf57828155600101613fcc565b5050505b505050565b815167ffffffffffffffff811115614002576140026134f4565b614016816140108454613f63565b84613f97565b602080601f83116001811461404b57600084156140335750858301515b600019600386901b1c1916600185901b178555613fdf565b600085815260208120601f198616915b8281101561407a5788860151825594840194600190910190840161405b565b50858210156140985787850151600019600388901b60f8161c191681555b5050505050600190811b01905550565b634e487b7160e01b600052603260045260246000fd5b634e487b7160e01b600052601160045260246000fd5b818103818111156140e7576140e76140be565b92915050565b808201808211156140e7576140e76140be565b81810361410b575050565b6141158254613f63565b67ffffffffffffffff81111561412d5761412d6134f4565b61413b816140108454613f63565b6000601f82116001811461416f57600083156141575750848201545b600019600385901b1c1916600184901b1784556141d4565b600085815260209020601f19841690600086815260209020845b838110156141a95782860154825560019586019590910190602001614189565b50858310156141c75781850154600019600388901b60f8161c191681555b50505060018360011b0184555b5050505050565b634e487b7160e01b600052603160045260246000fd5b60609190911b6bffffffffffffffffffffffff1916815260140190565b60808152600061422160808301876137fa565b828103602084015261423381876137fa565b9050828103604084015261424781866137fa565b9050828103606084015261425b81856137fa565b979650505050505050565b600082516142788184602087016137d6565b9190910192915050565b600080835461429081613f63565b600182811680156142a857600181146142bd576142ec565b60ff19841687528215158302870194506142ec565b8760005260208060002060005b858110156142e35781548a8201529084019082016142ca565b50505082870194505b5092969550505050505056fea2646970667358221220a66deb8ac3d359a15b62a92fbee41bbda9aab4f7dcf30b0fff29b4910b0d512364736f6c63430008180033",
  "linkReferences": {},
  "deployedLinkReferences": {}
}