{
  "_format": "hh-sol-artifact-1",
  "contractName": "UserManager",
  "sourceName": "contracts/UserManager.sol",
  "abi": [
    {
      "anonymous": false,
      "inputs": [
        {
          "indexed": false,
          "internalType": "string",
          "name": "name",
          "type": "string"
        },
        {
          "indexed": false,
          "internalType": "string",
          "name": "email",
          "type": "string"
        },
        {
          "indexed": false,
          "internalType": "string",
          "name": "password",
          "type": "string"
        },
        {
          "indexed": false,
          "internalType": "string",
          "name": "role",
          "type": "string"
        }
      ],
      "name": "createAuthorityEvent",
      "type": "event"
    },
    {
      "anonymous": false,
      "inputs": [
        {
          "indexed": false,
          "internalType": "string",
          "name": "name",
          "type": "string"
        },
        {
          "indexed": false,
          "internalType": "string",
          "name": "email",
          "type": "string"
        },
        {
          "indexed": false,
          "internalType": "string",
          "name": "password",
          "type": "string"
        },
        {
          "indexed": false,
          "internalType": "string",
          "name": "role",
          "type": "string"
        }
      ],
      "name": "createCourierEvent",
      "type": "event"
    },
    {
      "anonymous": false,
      "inputs": [
        {
          "indexed": false,
          "internalType": "string",
          "name": "name",
          "type": "string"
        },
        {
          "indexed": false,
          "internalType": "string",
          "name": "email",
          "type": "string"
        },
        {
          "indexed": false,
          "internalType": "string",
          "name": "password",
          "type": "string"
        },
        {
          "indexed": false,
          "internalType": "string",
          "name": "role",
          "type": "string"
        }
      ],
      "name": "createCustomerEvent",
      "type": "event"
    },
    {
      "anonymous": false,
      "inputs": [
        {
          "indexed": false,
          "internalType": "string",
          "name": "name",
          "type": "string"
        },
        {
          "indexed": false,
          "internalType": "string",
          "name": "email",
          "type": "string"
        },
        {
          "indexed": false,
          "internalType": "string",
          "name": "password",
          "type": "string"
        },
        {
          "indexed": false,
          "internalType": "string",
          "name": "role",
          "type": "string"
        }
      ],
      "name": "createFarmerEvent",
      "type": "event"
    },
    {
      "anonymous": false,
      "inputs": [],
      "name": "deleteCustomerEvent",
      "type": "event"
    },
    {
      "anonymous": false,
      "inputs": [],
      "name": "deleteFarmerEvent",
      "type": "event"
    },
    {
      "anonymous": false,
      "inputs": [],
      "name": "fillDetailsEvent",
      "type": "event"
    },
    {
      "anonymous": false,
      "inputs": [],
      "name": "orderPickedEvent",
      "type": "event"
    },
    {
      "anonymous": false,
      "inputs": [],
      "name": "orderProductEvent",
      "type": "event"
    },
    {
      "anonymous": false,
      "inputs": [],
      "name": "productDeliveredEvent",
      "type": "event"
    },
    {
      "inputs": [
        {
          "internalType": "string",
          "name": "name",
          "type": "string"
        },
        {
          "internalType": "string",
          "name": "email",
          "type": "string"
        },
        {
          "internalType": "string",
          "name": "password",
          "type": "string"
        },
        {
          "internalType": "string",
          "name": "role",
          "type": "string"
        }
      ],
      "name": "createAuthority",
      "outputs": [],
      "stateMutability": "nonpayable",
      "type": "function"
    },
    {
      "inputs": [
        {
          "internalType": "string",
          "name": "name",
          "type": "string"
        },
        {
          "internalType": "string",
          "name": "email",
          "type": "string"
        },
        {
          "internalType": "string",
          "name": "password",
          "type": "string"
        },
        {
          "internalType": "string",
          "name": "role",
          "type": "string"
        }
      ],
      "name": "createCourier",
      "outputs": [],
      "stateMutability": "nonpayable",
      "type": "function"
    },
    {
      "inputs": [
        {
          "internalType": "string",
          "name": "name",
          "type": "string"
        },
        {
          "internalType": "string",
          "name": "email",
          "type": "string"
        },
        {
          "internalType": "string",
          "name": "password",
          "type": "string"
        },
        {
          "internalType": "string",
          "name": "role",
          "type": "string"
        }
      ],
      "name": "createCustomer",
      "outputs": [],
      "stateMutability": "nonpayable",
      "type": "function"
    },
    {
      "inputs": [
        {
          "internalType": "string",
          "name": "name",
          "type": "string"
        },
        {
          "internalType": "string",
          "name": "email",
          "type": "string"
        },
        {
          "internalType": "string",
          "name": "password",
          "type": "string"
        },
        {
          "internalType": "string",
          "name": "role",
          "type": "string"
        }
      ],
      "name": "createFarmer",
      "outputs": [],
      "stateMutability": "nonpayable",
      "type": "function"
    },
    {
      "inputs": [],
      "name": "customerList",
      "outputs": [
        {
          "components": [
            {
              "internalType": "string",
              "name": "name",
              "type": "string"
            },
            {
              "internalType": "string",
              "name": "email",
              "type": "string"
            },
            {
              "internalType": "string",
              "name": "password",
              "type": "string"
            },
            {
              "internalType": "string",
              "name": "role",
              "type": "string"
            },
            {
              "internalType": "address",
              "name": "ETHAddress",
              "type": "address"
            }
          ],
          "internalType": "struct UserManager.Customer[]",
          "name": "",
          "type": "tuple[]"
        }
      ],
      "stateMutability": "view",
      "type": "function"
    },
    {
      "inputs": [
        {
          "internalType": "address",
          "name": "ETHAddress",
          "type": "address"
        }
      ],
      "name": "deleteCustomer",
      "outputs": [],
      "stateMutability": "nonpayable",
      "type": "function"
    },
    {
      "inputs": [
        {
          "internalType": "address",
          "name": "ETHAddress",
          "type": "address"
        }
      ],
      "name": "deleteFarmer",
      "outputs": [],
      "stateMutability": "nonpayable",
      "type": "function"
    },
    {
      "inputs": [],
      "name": "farmerList",
      "outputs": [
        {
          "components": [
            {
              "internalType": "string",
              "name": "name",
              "type": "string"
            },
            {
              "internalType": "string",
              "name": "email",
              "type": "string"
            },
            {
              "internalType": "string",
              "name": "password",
              "type": "string"
            },
            {
              "internalType": "string",
              "name": "role",
              "type": "string"
            },
            {
              "internalType": "address",
              "name": "ETHAddress",
              "type": "address"
            }
          ],
          "internalType": "struct UserManager.Farmer[]",
          "name": "",
          "type": "tuple[]"
        }
      ],
      "stateMutability": "view",
      "type": "function"
    },
    {
      "inputs": [
        {
          "internalType": "string",
          "name": "name",
          "type": "string"
        },
        {
          "internalType": "uint256",
          "name": "contact",
          "type": "uint256"
        },
        {
          "internalType": "string",
          "name": "house",
          "type": "string"
        },
        {
          "internalType": "string",
          "name": "street",
          "type": "string"
        },
        {
          "internalType": "uint256",
          "name": "pincode",
          "type": "uint256"
        },
        {
          "internalType": "string",
          "name": "city",
          "type": "string"
        },
        {
          "internalType": "string",
          "name": "state",
          "type": "string"
        }
      ],
      "name": "fillDetails",
      "outputs": [],
      "stateMutability": "nonpayable",
      "type": "function"
    },
    {
      "inputs": [],
      "name": "getAllOrderIds",
      "outputs": [
        {
          "internalType": "string[]",
          "name": "",
          "type": "string[]"
        }
      ],
      "stateMutability": "view",
      "type": "function"
    },
    {
      "inputs": [
        {
          "internalType": "string",
          "name": "password",
          "type": "string"
        }
      ],
      "name": "getAuthority",
      "outputs": [
        {
          "components": [
            {
              "internalType": "string",
              "name": "name",
              "type": "string"
            },
            {
              "internalType": "string",
              "name": "email",
              "type": "string"
            },
            {
              "internalType": "string",
              "name": "password",
              "type": "string"
            },
            {
              "internalType": "string",
              "name": "role",
              "type": "string"
            },
            {
              "internalType": "address",
              "name": "ETHAddress",
              "type": "address"
            }
          ],
          "internalType": "struct UserManager.Authority",
          "name": "",
          "type": "tuple"
        }
      ],
      "stateMutability": "view",
      "type": "function"
    },
    {
      "inputs": [
        {
          "internalType": "string",
          "name": "password",
          "type": "string"
        }
      ],
      "name": "getCourier",
      "outputs": [
        {
          "components": [
            {
              "internalType": "string",
              "name": "name",
              "type": "string"
            },
            {
              "internalType": "string",
              "name": "email",
              "type": "string"
            },
            {
              "internalType": "string",
              "name": "password",
              "type": "string"
            },
            {
              "internalType": "string",
              "name": "role",
              "type": "string"
            },
            {
              "internalType": "address",
              "name": "ETHAddress",
              "type": "address"
            }
          ],
          "internalType": "struct UserManager.Courier",
          "name": "",
          "type": "tuple"
        }
      ],
      "stateMutability": "view",
      "type": "function"
    },
    {
      "inputs": [
        {
          "internalType": "string",
          "name": "password",
          "type": "string"
        }
      ],
      "name": "getCustomer",
      "outputs": [
        {
          "components": [
            {
              "internalType": "string",
              "name": "name",
              "type": "string"
            },
            {
              "internalType": "string",
              "name": "email",
              "type": "string"
            },
            {
              "internalType": "string",
              "name": "password",
              "type": "string"
            },
            {
              "internalType": "string",
              "name": "role",
              "type": "string"
            },
            {
              "internalType": "address",
              "name": "ETHAddress",
              "type": "address"
            }
          ],
          "internalType": "struct UserManager.Customer",
          "name": "",
          "type": "tuple"
        }
      ],
      "stateMutability": "view",
      "type": "function"
    },
    {
      "inputs": [],
      "name": "getDetails",
      "outputs": [
        {
          "components": [
            {
              "internalType": "address",
              "name": "ETHAddress",
              "type": "address"
            },
            {
              "internalType": "string",
              "name": "FullName",
              "type": "string"
            },
            {
              "internalType": "uint256",
              "name": "contact",
              "type": "uint256"
            },
            {
              "internalType": "string",
              "name": "house",
              "type": "string"
            },
            {
              "internalType": "string",
              "name": "street",
              "type": "string"
            },
            {
              "internalType": "uint256",
              "name": "pincode",
              "type": "uint256"
            },
            {
              "internalType": "string",
              "name": "city",
              "type": "string"
            },
            {
              "internalType": "string",
              "name": "state",
              "type": "string"
            }
          ],
          "internalType": "struct UserManager.Details",
          "name": "",
          "type": "tuple"
        }
      ],
      "stateMutability": "view",
      "type": "function"
    },
    {
      "inputs": [
        {
          "internalType": "string",
          "name": "password",
          "type": "string"
        }
      ],
      "name": "getFarmer",
      "outputs": [
        {
          "components": [
            {
              "internalType": "string",
              "name": "name",
              "type": "string"
            },
            {
              "internalType": "string",
              "name": "email",
              "type": "string"
            },
            {
              "internalType": "string",
              "name": "password",
              "type": "string"
            },
            {
              "internalType": "string",
              "name": "role",
              "type": "string"
            },
            {
              "internalType": "address",
              "name": "ETHAddress",
              "type": "address"
            }
          ],
          "internalType": "struct UserManager.Farmer",
          "name": "",
          "type": "tuple"
        }
      ],
      "stateMutability": "view",
      "type": "function"
    },
    {
      "inputs": [],
      "name": "getOrders",
      "outputs": [
        {
          "components": [
            {
              "components": [
                {
                  "internalType": "enum PaymentContract.OrderStatus",
                  "name": "status",
                  "type": "uint8"
                },
                {
                  "internalType": "string",
                  "name": "productId",
                  "type": "string"
                },
                {
                  "internalType": "string",
                  "name": "productName",
                  "type": "string"
                },
                {
                  "internalType": "address",
                  "name": "farmer",
                  "type": "address"
                },
                {
                  "internalType": "uint256",
                  "name": "totalPrice",
                  "type": "uint256"
                },
                {
                  "internalType": "uint256",
                  "name": "totalQuantity",
                  "type": "uint256"
                },
                {
                  "internalType": "string",
                  "name": "timeofPicked",
                  "type": "string"
                },
                {
                  "internalType": "string",
                  "name": "timeofDelivered",
                  "type": "string"
                }
              ],
              "internalType": "struct PaymentContract.Item[]",
              "name": "items",
              "type": "tuple[]"
            },
            {
              "internalType": "string",
              "name": "location",
              "type": "string"
            },
            {
              "internalType": "string",
              "name": "orderId",
              "type": "string"
            },
            {
              "internalType": "string",
              "name": "timeofOrdered",
              "type": "string"
            },
            {
              "internalType": "address",
              "name": "customer",
              "type": "address"
            },
            {
              "internalType": "uint256",
              "name": "totalAmount",
              "type": "uint256"
            }
          ],
          "internalType": "struct PaymentContract.Order[]",
          "name": "",
          "type": "tuple[]"
        }
      ],
      "stateMutability": "view",
      "type": "function"
    },
    {
      "inputs": [
        {
          "internalType": "string",
          "name": "pid",
          "type": "string"
        },
        {
          "internalType": "string",
          "name": "oid",
          "type": "string"
        },
        {
          "internalType": "string",
          "name": "time",
          "type": "string"
        }
      ],
      "name": "orderPicked",
      "outputs": [],
      "stateMutability": "nonpayable",
      "type": "function"
    },
    {
      "inputs": [
        {
          "components": [
            {
              "internalType": "enum PaymentContract.OrderStatus",
              "name": "status",
              "type": "uint8"
            },
            {
              "internalType": "string",
              "name": "productId",
              "type": "string"
            },
            {
              "internalType": "string",
              "name": "productName",
              "type": "string"
            },
            {
              "internalType": "address",
              "name": "farmer",
              "type": "address"
            },
            {
              "internalType": "uint256",
              "name": "totalPrice",
              "type": "uint256"
            },
            {
              "internalType": "uint256",
              "name": "totalQuantity",
              "type": "uint256"
            },
            {
              "internalType": "string",
              "name": "timeofPicked",
              "type": "string"
            },
            {
              "internalType": "string",
              "name": "timeofDelivered",
              "type": "string"
            }
          ],
          "internalType": "struct PaymentContract.Item[]",
          "name": "items",
          "type": "tuple[]"
        },
        {
          "internalType": "string",
          "name": "time",
          "type": "string"
        },
        {
          "internalType": "uint256",
          "name": "totalAmount",
          "type": "uint256"
        },
        {
          "internalType": "string",
          "name": "orderId",
          "type": "string"
        },
        {
          "internalType": "string",
          "name": "location",
          "type": "string"
        }
      ],
      "name": "orderProduct",
      "outputs": [],
      "stateMutability": "payable",
      "type": "function"
    },
    {
      "inputs": [
        {
          "internalType": "string",
          "name": "pid",
          "type": "string"
        },
        {
          "internalType": "string",
          "name": "oid",
          "type": "string"
        },
        {
          "internalType": "string",
          "name": "time",
          "type": "string"
        }
      ],
      "name": "productDelivered",
      "outputs": [],
      "stateMutability": "nonpayable",
      "type": "function"
    }
  ],
  "bytecode": "0x608060405234801561001057600080fd5b50614713806100206000396000f3fe6080604052600436106101145760003560e01c80635e94d720116100a05780638bdb5ce6116100645780638bdb5ce6146102f9578063b151494214610319578063b17ba01614610339578063b51ca0af1461034c578063fbbf93a01461036c57600080fd5b80635e94d720146102575780635f6f80cc1461027757806384bdfcd71461029757806388905b80146102b75780638ba407f9146102d957600080fd5b80634b2b612a116100e75780634b2b612a146101a65780635087e668146101c8578063509159f4146101f5578063518bddd9146102175780635baef56d1461023757600080fd5b806305ceb8211461011957806311c9ccf61461013b578063200d6de71461015b5780632e2dc43e1461017b575b600080fd5b34801561012557600080fd5b506101396101343660046139c9565b61038e565b005b34801561014757600080fd5b50610139610156366004613aca565b610472565b34801561016757600080fd5b50610139610176366004613ae5565b61063f565b34801561018757600080fd5b50610190610848565b60405161019d9190613c1a565b60405180910390f35b3480156101b257600080fd5b506101bb610d80565b60405161019d9190613dd5565b3480156101d457600080fd5b506101e86101e3366004613e39565b610ebc565b60405161019d9190613ef7565b34801561020157600080fd5b5061020a6112ee565b60405161019d9190613f0a565b34801561022357600080fd5b506101e8610232366004613e39565b6115a2565b34801561024357600080fd5b50610139610252366004613ae5565b61192e565b34801561026357600080fd5b50610139610272366004613ae5565b611b22565b34801561028357600080fd5b50610139610292366004613f61565b611cc4565b3480156102a357600080fd5b506101e86102b2366004613e39565b611f0d565b3480156102c357600080fd5b506102cc612317565b60405161019d9190613fe9565b3480156102e557600080fd5b506101396102f4366004613f61565b6125cb565b34801561030557600080fd5b50610139610314366004613aca565b612809565b34801561032557600080fd5b506101e8610334366004613e39565b6129d2565b61013961034736600461404f565b612d56565b34801561035857600080fd5b50610139610367366004613ae5565b613153565b34801561037857600080fd5b50610381613350565b60405161019d919061427d565b33600081815260026020526040902080546001600160a01b03191690911781556001016103bb88826143cd565b503360009081526002602081905260409091209081018790556003016103e186826143cd565b503360009081526002602052604090206004016103fe85826143cd565b503360009081526002602052604090206005810184905560060161042283826143cd565b5033600090815260026020526040902060070161043f82826143cd565b506040517fc8133d0532c52370de350c4858130d2be6c8cd430b301496a3539e03b9082a6090600090a150505050505050565b60005b60035481101561063b57816001600160a01b03166003828154811061049c5761049c61448d565b60009182526020909120600460059092020101546001600160a01b03160361063357805b6003546104cf906001906144b9565b8110156105965760036104e38260016144d2565b815481106104f3576104f361448d565b9060005260206000209060050201600382815481106105145761051461448d565b600091825260209091206005909102018061052f83826144e5565b50600181810190610542908401826144e5565b50600281810190610555908401826144e5565b50600381810190610568908401826144e5565b50600491820154910180546001600160a01b0319166001600160a01b039092169190911790556001016104c0565b5060038054806105a8576105a86145c0565b600082815260208120600019909201916005830201906105c882826136c2565b6105d66001830160006136c2565b6105e46002830160006136c2565b6105f26003830160006136c2565b5060040180546001600160a01b031916905590556040517f8f3cfd9f0e967c51c8a20e9651d762c6a84e8e97fe37add700680190c70dcb7090600090a15050565b600101610475565b5050565b600160005b6004548110156106e257600481815481106106615761066161448d565b60009182526020918290206004600590920201015460405161068f926001600160a01b0390921691016145d6565b60405160208183030381529060405280519060200120336040516020016106b691906145d6565b60405160208183030381529060405280519060200120036106da57600091506106e2565b600101610644565b508061072d5760405162461bcd60e51b81526020600482015260156024820152744661726d657220616c72656164792065786973742160581b60448201526064015b60405180910390fd5b6040805160a081018252868152602081018690529081018490526060810183905233608082015260048054600181018255600091909152815160059091027f8a35acfbc15ff81a39ae7d344fd709f28e8600b4aa8c65c6b64bfe7fe36bd19b0190819061079a90826143cd565b50602082015160018201906107af90826143cd565b50604082015160028201906107c490826143cd565b50606082015160038201906107d990826143cd565b5060809190910151600490910180546001600160a01b0319166001600160a01b039092169190911790556040517f5c47ff0a569e587692da604d2bf92787dd7f006684698dbd8c59539be7e35a74906108399087908790879087906145f3565b60405180910390a15050505050565b60606001805480602002602001604051908101604052809291908181526020016000905b82821015610d7757838290600052602060002090600602016040518060c001604052908160008201805480602002602001604051908101604052809291908181526020016000905b82821015610b8757600084815260209020604080516101008101909152600884029091018054829060ff1660028111156108f0576108f0613b92565b600281111561090157610901613b92565b815260200160018201805461091590614348565b80601f016020809104026020016040519081016040528092919081815260200182805461094190614348565b801561098e5780601f106109635761010080835404028352916020019161098e565b820191906000526020600020905b81548152906001019060200180831161097157829003601f168201915b505050505081526020016002820180546109a790614348565b80601f01602080910402602001604051908101604052809291908181526020018280546109d390614348565b8015610a205780601f106109f557610100808354040283529160200191610a20565b820191906000526020600020905b815481529060010190602001808311610a0357829003601f168201915b505050918352505060038201546001600160a01b031660208201526004820154604082015260058201546060820152600682018054608090920191610a6490614348565b80601f0160208091040260200160405190810160405280929190818152602001828054610a9090614348565b8015610add5780601f10610ab257610100808354040283529160200191610add565b820191906000526020600020905b815481529060010190602001808311610ac057829003601f168201915b50505050508152602001600782018054610af690614348565b80601f0160208091040260200160405190810160405280929190818152602001828054610b2290614348565b8015610b6f5780601f10610b4457610100808354040283529160200191610b6f565b820191906000526020600020905b815481529060010190602001808311610b5257829003601f168201915b505050505081525050815260200190600101906108b4565b505050508152602001600182018054610b9f90614348565b80601f0160208091040260200160405190810160405280929190818152602001828054610bcb90614348565b8015610c185780601f10610bed57610100808354040283529160200191610c18565b820191906000526020600020905b815481529060010190602001808311610bfb57829003601f168201915b50505050508152602001600282018054610c3190614348565b80601f0160208091040260200160405190810160405280929190818152602001828054610c5d90614348565b8015610caa5780601f10610c7f57610100808354040283529160200191610caa565b820191906000526020600020905b815481529060010190602001808311610c8d57829003601f168201915b50505050508152602001600382018054610cc390614348565b80601f0160208091040260200160405190810160405280929190818152602001828054610cef90614348565b8015610d3c5780601f10610d1157610100808354040283529160200191610d3c565b820191906000526020600020905b815481529060010190602001808311610d1f57829003601f168201915b505050918352505060048201546001600160a01b0316602080830191909152600590920154604090910152908252600192909201910161086c565b50505050905090565b60015460609060009067ffffffffffffffff811115610da157610da16138e8565b604051908082528060200260200182016040528015610dd457816020015b6060815260200190600190039081610dbf5790505b50905060005b600154811015610eb65760018181548110610df757610df761448d565b90600052602060002090600602016002018054610e1390614348565b80601f0160208091040260200160405190810160405280929190818152602001828054610e3f90614348565b8015610e8c5780601f10610e6157610100808354040283529160200191610e8c565b820191906000526020600020905b815481529060010190602001808311610e6f57829003601f168201915b5050505050828281518110610ea357610ea361448d565b6020908102919091010152600101610dda565b50919050565b610ec46136ff565b6000610ece6136ff565b60005b6005548110156111fa5760058181548110610eee57610eee61448d565b600091825260209182902060046005909202010154604051610f1c926001600160a01b0390921691016145d6565b6040516020818303038152906040528051906020012033604051602001610f4391906145d6565b60405160208183030381529060405280519060200120036111f2576001925060058181548110610f7557610f7561448d565b90600052602060002090600502016040518060a0016040529081600082018054610f9e90614348565b80601f0160208091040260200160405190810160405280929190818152602001828054610fca90614348565b80156110175780601f10610fec57610100808354040283529160200191611017565b820191906000526020600020905b815481529060010190602001808311610ffa57829003601f168201915b5050505050815260200160018201805461103090614348565b80601f016020809104026020016040519081016040528092919081815260200182805461105c90614348565b80156110a95780601f1061107e576101008083540402835291602001916110a9565b820191906000526020600020905b81548152906001019060200180831161108c57829003601f168201915b505050505081526020016002820180546110c290614348565b80601f01602080910402602001604051908101604052809291908181526020018280546110ee90614348565b801561113b5780601f106111105761010080835404028352916020019161113b565b820191906000526020600020905b81548152906001019060200180831161111e57829003601f168201915b5050505050815260200160038201805461115490614348565b80601f016020809104026020016040519081016040528092919081815260200182805461118090614348565b80156111cd5780601f106111a2576101008083540402835291602001916111cd565b820191906000526020600020905b8154815290600101906020018083116111b057829003601f168201915b5050509183525050600491909101546001600160a01b031660209091015291506111fa565b600101610ed1565b50816112485760405162461bcd60e51b815260206004820152601860248201527f417574686f7269747920646f65736e27742065786973742100000000000000006044820152606401610724565b83604051602001611259919061464b565b604051602081830303815290604052805190602001208160400151604051602001611284919061464b565b60405160208183030381529060405280519060200120146112e75760405162461bcd60e51b815260206004820181905260248201527f57726f6e672070617373776f72642c506c656173652054727920416761696e216044820152606401610724565b9392505050565b60606003805480602002602001604051908101604052809291908181526020016000905b82821015610d7757838290600052602060002090600502016040518060a001604052908160008201805461134590614348565b80601f016020809104026020016040519081016040528092919081815260200182805461137190614348565b80156113be5780601f10611393576101008083540402835291602001916113be565b820191906000526020600020905b8154815290600101906020018083116113a157829003601f168201915b505050505081526020016001820180546113d790614348565b80601f016020809104026020016040519081016040528092919081815260200182805461140390614348565b80156114505780601f1061142557610100808354040283529160200191611450565b820191906000526020600020905b81548152906001019060200180831161143357829003601f168201915b5050505050815260200160028201805461146990614348565b80601f016020809104026020016040519081016040528092919081815260200182805461149590614348565b80156114e25780601f106114b7576101008083540402835291602001916114e2565b820191906000526020600020905b8154815290600101906020018083116114c557829003601f168201915b505050505081526020016003820180546114fb90614348565b80601f016020809104026020016040519081016040528092919081815260200182805461152790614348565b80156115745780601f1061154957610100808354040283529160200191611574565b820191906000526020600020905b81548152906001019060200180831161155757829003601f168201915b5050509183525050600491909101546001600160a01b03166020918201529082526001929092019101611312565b6115aa6136ff565b60006115b46136ff565b60005b6003548110156118e057600381815481106115d4576115d461448d565b600091825260209182902060046005909202010154604051611602926001600160a01b0390921691016145d6565b604051602081830303815290604052805190602001203360405160200161162991906145d6565b60405160208183030381529060405280519060200120036118d857600192506003818154811061165b5761165b61448d565b90600052602060002090600502016040518060a001604052908160008201805461168490614348565b80601f01602080910402602001604051908101604052809291908181526020018280546116b090614348565b80156116fd5780601f106116d2576101008083540402835291602001916116fd565b820191906000526020600020905b8154815290600101906020018083116116e057829003601f168201915b5050505050815260200160018201805461171690614348565b80601f016020809104026020016040519081016040528092919081815260200182805461174290614348565b801561178f5780601f106117645761010080835404028352916020019161178f565b820191906000526020600020905b81548152906001019060200180831161177257829003601f168201915b505050505081526020016002820180546117a890614348565b80601f01602080910402602001604051908101604052809291908181526020018280546117d490614348565b80156118215780601f106117f657610100808354040283529160200191611821565b820191906000526020600020905b81548152906001019060200180831161180457829003601f168201915b5050505050815260200160038201805461183a90614348565b80601f016020809104026020016040519081016040528092919081815260200182805461186690614348565b80156118b35780601f10611888576101008083540402835291602001916118b3565b820191906000526020600020905b81548152906001019060200180831161189657829003601f168201915b5050509183525050600491909101546001600160a01b031660209091015291506118e0565b6001016115b7565b50816112485760405162461bcd60e51b815260206004820152601760248201527f437573746f6d657220646f65736e2774206578697374210000000000000000006044820152606401610724565b600160005b6005548110156119d157600581815481106119505761195061448d565b60009182526020918290206004600590920201015460405161197e926001600160a01b0390921691016145d6565b60405160208183030381529060405280519060200120336040516020016119a591906145d6565b60405160208183030381529060405280519060200120036119c957600091506119d1565b600101611933565b5080611a1a5760405162461bcd60e51b8152602060048201526018602482015277417574686f7269747920616c72656164792065786973742160401b6044820152606401610724565b6040805160a0810182528681526020810186905290810184905260608101839052336080820152600580546001810182556000829052825191027f036b6384b5eca791c62761152d0c79bb0604c104a5fb6f4eb0703f3154bb3db001908190611a8390826143cd565b5060208201516001820190611a9890826143cd565b5060408201516002820190611aad90826143cd565b5060608201516003820190611ac290826143cd565b5060809190910151600490910180546001600160a01b0319166001600160a01b039092169190911790556040517fc5818d9d7df1d0bdb4144d2e0d9ca09a1d5b05dbaea4477c8e49131d5b6623ad906108399087908790879087906145f3565b33604051602001611b3391906145d6565b60408051601f1981840301815282825280516020918201203360009081526006835292909220600401549192611b73926001600160a01b031691016145d6565b6040516020818303038152906040528051906020012003611bd15760405162461bcd60e51b8152602060048201526018602482015277417574686f7269747920616c72656164792065786973742160401b6044820152606401610724565b6040805160a0810182528581526020808201869052818301859052606082018490523360808301819052600090815260069091529190912081518190611c1790826143cd565b5060208201516001820190611c2c90826143cd565b5060408201516002820190611c4190826143cd565b5060608201516003820190611c5690826143cd565b5060809190910151600490910180546001600160a01b0319166001600160a01b039092169190911790556040517f14910ef2263f83cc85289fa1244f2f612575d7ee261d2f3b223a0943f05a0b1490611cb69086908690869086906145f3565b60405180910390a150505050565b60005b600154811015611f075782604051602001611ce2919061464b565b6040516020818303038152906040528051906020012060018281548110611d0b57611d0b61448d565b9060005260206000209060060201600201604051602001611d2c9190614667565b6040516020818303038152906040528051906020012003611eff5760005b60018281548110611d5d57611d5d61448d565b6000918252602090912060069091020154811015611efd5784604051602001611d86919061464b565b6040516020818303038152906040528051906020012060018381548110611daf57611daf61448d565b90600052602060002090600602016000018281548110611dd157611dd161448d565b9060005260206000209060080201600101604051602001611df29190614667565b6040516020818303038152906040528051906020012003611ef557600260018381548110611e2257611e2261448d565b90600052602060002090600602016000018281548110611e4457611e4461448d565b60009182526020909120600890910201805460ff19166001836002811115611e6e57611e6e613b92565b02179055508260018381548110611e8757611e8761448d565b90600052602060002090600602016000018281548110611ea957611ea961448d565b90600052602060002090600802016007019081611ec691906143cd565b506040517f74cd5e7dfebb0156a786c55b52978ae798c1c2003fdd43701e11ea011d8c56cf90600090a1611efd565b600101611d4a565b505b600101611cc7565b50505050565b611f486040518060a001604052806060815260200160608152602001606081526020016060815260200160006001600160a01b031681525090565b33604051602001611f5991906145d6565b60408051601f1981840301815282825280516020918201203360009081526006835292909220600401549192611f99926001600160a01b031691016145d6565b6040516020818303038152906040528051906020012014611ff15760405162461bcd60e51b8152602060048201526012602482015271436f7572696572204e6f742065786973742160701b6044820152606401610724565b81604051602001612002919061464b565b60408051601f19818403018152828252805160209182012033600090815260068352929092209192612038926002019101614667565b604051602081830303815290604052805190602001201461209b5760405162461bcd60e51b815260206004820181905260248201527f57726f6e672070617373776f72642c506c656173652054727920416761696e216044820152606401610724565b3360009081526006602052604090819020815160a081019092528054829082906120c490614348565b80601f01602080910402602001604051908101604052809291908181526020018280546120f090614348565b801561213d5780601f106121125761010080835404028352916020019161213d565b820191906000526020600020905b81548152906001019060200180831161212057829003601f168201915b5050505050815260200160018201805461215690614348565b80601f016020809104026020016040519081016040528092919081815260200182805461218290614348565b80156121cf5780601f106121a4576101008083540402835291602001916121cf565b820191906000526020600020905b8154815290600101906020018083116121b257829003601f168201915b505050505081526020016002820180546121e890614348565b80601f016020809104026020016040519081016040528092919081815260200182805461221490614348565b80156122615780601f1061223657610100808354040283529160200191612261565b820191906000526020600020905b81548152906001019060200180831161224457829003601f168201915b5050505050815260200160038201805461227a90614348565b80601f01602080910402602001604051908101604052809291908181526020018280546122a690614348565b80156122f35780601f106122c8576101008083540402835291602001916122f3565b820191906000526020600020905b8154815290600101906020018083116122d657829003601f168201915b5050509183525050600491909101546001600160a01b031660209091015292915050565b60606004805480602002602001604051908101604052809291908181526020016000905b82821015610d7757838290600052602060002090600502016040518060a001604052908160008201805461236e90614348565b80601f016020809104026020016040519081016040528092919081815260200182805461239a90614348565b80156123e75780601f106123bc576101008083540402835291602001916123e7565b820191906000526020600020905b8154815290600101906020018083116123ca57829003601f168201915b5050505050815260200160018201805461240090614348565b80601f016020809104026020016040519081016040528092919081815260200182805461242c90614348565b80156124795780601f1061244e57610100808354040283529160200191612479565b820191906000526020600020905b81548152906001019060200180831161245c57829003601f168201915b5050505050815260200160028201805461249290614348565b80601f01602080910402602001604051908101604052809291908181526020018280546124be90614348565b801561250b5780601f106124e05761010080835404028352916020019161250b565b820191906000526020600020905b8154815290600101906020018083116124ee57829003601f168201915b5050505050815260200160038201805461252490614348565b80601f016020809104026020016040519081016040528092919081815260200182805461255090614348565b801561259d5780601f106125725761010080835404028352916020019161259d565b820191906000526020600020905b81548152906001019060200180831161258057829003601f168201915b5050509183525050600491909101546001600160a01b0316602091820152908252600192909201910161233b565b60005b600154811015611f0757826040516020016125e9919061464b565b60405160208183030381529060405280519060200120600182815481106126125761261261448d565b90600052602060002090600602016002016040516020016126339190614667565b60405160208183030381529060405280519060200120036128015760005b600182815481106126645761266461448d565b60009182526020909120600690910201548110156127ff578460405160200161268d919061464b565b60405160208183030381529060405280519060200120600183815481106126b6576126b661448d565b906000526020600020906006020160000182815481106126d8576126d861448d565b90600052602060002090600802016001016040516020016126f99190614667565b60405160208183030381529060405280519060200120036127f75760018083815481106127285761272861448d565b9060005260206000209060060201600001828154811061274a5761274a61448d565b60009182526020909120600890910201805460ff1916600183600281111561277457612774613b92565b0217905550826001838154811061278d5761278d61448d565b906000526020600020906006020160000182815481106127af576127af61448d565b906000526020600020906008020160060190816127cc91906143cd565b506040517f1e42b37ca27154dd8a086c1eebd42531ad87a2a5d1c3cd991b385bb7a02c8abe90600090a15b600101612651565b505b6001016125ce565b60005b60045481101561063b57816001600160a01b0316600482815481106128335761283361448d565b60009182526020909120600460059092020101546001600160a01b0316036129ca57805b600454612866906001906144b9565b81101561292d57600461287a8260016144d2565b8154811061288a5761288a61448d565b9060005260206000209060050201600482815481106128ab576128ab61448d565b60009182526020909120600590910201806128c683826144e5565b506001818101906128d9908401826144e5565b506002818101906128ec908401826144e5565b506003818101906128ff908401826144e5565b50600491820154910180546001600160a01b0319166001600160a01b03909216919091179055600101612857565b50600480548061293f5761293f6145c0565b6000828152602081206000199092019160058302019061295f82826136c2565b61296d6001830160006136c2565b61297b6002830160006136c2565b6129896003830160006136c2565b5060040180546001600160a01b031916905590556040517fa0a3abb941db31e9b7a4bf5830ba0940f2556e20c9edfc788d21119091c45b5790600090a15050565b60010161280c565b6129da6136ff565b60006129e46136ff565b60005b600454811015612d105760048181548110612a0457612a0461448d565b600091825260209182902060046005909202010154604051612a32926001600160a01b0390921691016145d6565b6040516020818303038152906040528051906020012033604051602001612a5991906145d6565b6040516020818303038152906040528051906020012003612d08576001925060048181548110612a8b57612a8b61448d565b90600052602060002090600502016040518060a0016040529081600082018054612ab490614348565b80601f0160208091040260200160405190810160405280929190818152602001828054612ae090614348565b8015612b2d5780601f10612b0257610100808354040283529160200191612b2d565b820191906000526020600020905b815481529060010190602001808311612b1057829003601f168201915b50505050508152602001600182018054612b4690614348565b80601f0160208091040260200160405190810160405280929190818152602001828054612b7290614348565b8015612bbf5780601f10612b9457610100808354040283529160200191612bbf565b820191906000526020600020905b815481529060010190602001808311612ba257829003601f168201915b50505050508152602001600282018054612bd890614348565b80601f0160208091040260200160405190810160405280929190818152602001828054612c0490614348565b8015612c515780601f10612c2657610100808354040283529160200191612c51565b820191906000526020600020905b815481529060010190602001808311612c3457829003601f168201915b50505050508152602001600382018054612c6a90614348565b80601f0160208091040260200160405190810160405280929190818152602001828054612c9690614348565b8015612ce35780601f10612cb857610100808354040283529160200191612ce3565b820191906000526020600020905b815481529060010190602001808311612cc657829003601f168201915b5050509183525050600491909101546001600160a01b03166020909101529150612d10565b6001016129e7565b50816112485760405162461bcd60e51b81526020600482015260156024820152744661726d657220646f65736e27742065786973742160581b6044820152606401610724565b823414612d965760405162461bcd60e51b815260206004820152600e60248201526d14185e5b595b9d0819985a5b195960921b6044820152606401610724565b336000908152602081905260409020600101612db282826143cd565b50336000908152602081905260409020600201612dcf83826143cd565b50336000908152602081905260409020600301612dec85826143cd565b503360008181526020819052604081206004810180546001600160a01b03191690931790925560059091018490555b8551811015612f80573360009081526020819052604090208651879083908110612e4757612e4761448d565b60209081029190910181015182546001818101855560009485529290932081516008909402018054919390929091839160ff1990911690836002811115612e9057612e90613b92565b021790555060208201516001820190612ea990826143cd565b5060408201516002820190612ebe90826143cd565b5060608201516003820180546001600160a01b0319166001600160a01b039092169190911790556080820151600482015560a0820151600582015560c08201516006820190612f0d90826143cd565b5060e08201516007820190612f2290826143cd565b505033600090815260208190526040812080549192509083908110612f4957612f4961448d565b60009182526020909120600890910201805460ff19166001836002811115612f7357612f73613b92565b0217905550600101612e1b565b503360009081526020819052604081206001805480820182559252805490916006027fb10e2d527612073b26eecdfd717e6a320cf44b4afac2b0732d9fcbe2b7fa0cf60190612fd29082908490613737565b50600181810190612fe5908401826144e5565b50600281810190612ff8908401826144e5565b5060038181019061300b908401826144e5565b5060048281015490820180546001600160a01b0319166001600160a01b0390921691909117905560059182015491015533600090815260208190526040812090613055828261383e565b6130636001830160006136c2565b6130716002830160006136c2565b61307f6003830160006136c2565b506004810180546001600160a01b0319169055600060059091018190555b8551811015613122578581815181106130b8576130b861448d565b6020026020010151606001516001600160a01b03166108fc8783815181106130e2576130e261448d565b6020026020010151608001519081150290604051600060405180830381858888f19350505050158015613119573d6000803e3d6000fd5b5060010161309d565b506040517f7bab8ad11f8ad37ca148565c8640766d077c4ce878bcbfab5cfc8f5c01721d1e90600090a15050505050565b600160005b6003548110156131f657600381815481106131755761317561448d565b6000918252602091829020600460059092020101546040516131a3926001600160a01b0390921691016145d6565b60405160208183030381529060405280519060200120336040516020016131ca91906145d6565b60405160208183030381529060405280519060200120036131ee57600091506131f6565b600101613158565b50806132445760405162461bcd60e51b815260206004820152601760248201527f637573746f6d657220616c7265616479206578697374210000000000000000006044820152606401610724565b6040805160a081018252868152602081018690529081018490526060810183905233608082015260038054600181018255600091909152815160059091027fc2575a0e9e593c00f959f8c92f12db2869c3395a3b0502d05e2516446f71f85b019081906132b190826143cd565b50602082015160018201906132c690826143cd565b50604082015160028201906132db90826143cd565b50606082015160038201906132f090826143cd565b5060809190910151600490910180546001600160a01b0319166001600160a01b039092169190911790556040517f1b4cea3558a9e0c9f742c904e361522d01633b394adf89f8b91d8a50df89117a906108399087908790879087906145f3565b6133a160405180610100016040528060006001600160a01b03168152602001606081526020016000815260200160608152602001606081526020016000815260200160608152602001606081525090565b336000908152600260209081526040918290208251610100810190935280546001600160a01b0316835260018101805491928401916133df90614348565b80601f016020809104026020016040519081016040528092919081815260200182805461340b90614348565b80156134585780601f1061342d57610100808354040283529160200191613458565b820191906000526020600020905b81548152906001019060200180831161343b57829003601f168201915b505050505081526020016002820154815260200160038201805461347b90614348565b80601f01602080910402602001604051908101604052809291908181526020018280546134a790614348565b80156134f45780601f106134c9576101008083540402835291602001916134f4565b820191906000526020600020905b8154815290600101906020018083116134d757829003601f168201915b5050505050815260200160048201805461350d90614348565b80601f016020809104026020016040519081016040528092919081815260200182805461353990614348565b80156135865780601f1061355b57610100808354040283529160200191613586565b820191906000526020600020905b81548152906001019060200180831161356957829003601f168201915b50505050508152602001600582015481526020016006820180546135a990614348565b80601f01602080910402602001604051908101604052809291908181526020018280546135d590614348565b80156136225780601f106135f757610100808354040283529160200191613622565b820191906000526020600020905b81548152906001019060200180831161360557829003601f168201915b5050505050815260200160078201805461363b90614348565b80601f016020809104026020016040519081016040528092919081815260200182805461366790614348565b80156136b45780601f10613689576101008083540402835291602001916136b4565b820191906000526020600020905b81548152906001019060200180831161369757829003601f168201915b505050505081525050905090565b5080546136ce90614348565b6000825580601f106136de575050565b601f0160209004906000526020600020908101906136fc919061385f565b50565b6040518060a001604052806060815260200160608152602001606081526020016060815260200160006001600160a01b031681525090565b82805482825590600052602060002090600802810192821561382e5760005260206000209160080282015b8281111561382e57825482548491849160ff90911690829060ff1916600183600281111561379257613792613b92565b02179055506001818101906137a9908401826144e5565b506002818101906137bc908401826144e5565b5060038281015490820180546001600160a01b0319166001600160a01b039092169190911790556004808301549082015560058083015490820155600680820190613809908401826144e5565b5060078181019061381c908401826144e5565b50505091600801919060080190613762565b5061383a929150613874565b5090565b50805460008255600802906000526020600020908101906136fc9190613874565b5b8082111561383a5760008155600101613860565b8082111561383a57805460ff19168155600061389360018301826136c2565b6138a16002830160006136c2565b6003820180546001600160a01b0319169055600060048301819055600583018190556138d19060068401906136c2565b6138df6007830160006136c2565b50600801613874565b634e487b7160e01b600052604160045260246000fd5b604051610100810167ffffffffffffffff81118282101715613922576139226138e8565b60405290565b604051601f8201601f1916810167ffffffffffffffff81118282101715613951576139516138e8565b604052919050565b600082601f83011261396a57600080fd5b813567ffffffffffffffff811115613984576139846138e8565b613997601f8201601f1916602001613928565b8181528460208386010111156139ac57600080fd5b816020850160208301376000918101602001919091529392505050565b600080600080600080600060e0888a0312156139e457600080fd5b873567ffffffffffffffff808211156139fc57600080fd5b613a088b838c01613959565b985060208a0135975060408a0135915080821115613a2557600080fd5b613a318b838c01613959565b965060608a0135915080821115613a4757600080fd5b613a538b838c01613959565b955060808a0135945060a08a0135915080821115613a7057600080fd5b613a7c8b838c01613959565b935060c08a0135915080821115613a9257600080fd5b50613a9f8a828b01613959565b91505092959891949750929550565b80356001600160a01b0381168114613ac557600080fd5b919050565b600060208284031215613adc57600080fd5b6112e782613aae565b60008060008060808587031215613afb57600080fd5b843567ffffffffffffffff80821115613b1357600080fd5b613b1f88838901613959565b95506020870135915080821115613b3557600080fd5b613b4188838901613959565b94506040870135915080821115613b5757600080fd5b613b6388838901613959565b93506060870135915080821115613b7957600080fd5b50613b8687828801613959565b91505092959194509250565b634e487b7160e01b600052602160045260246000fd5b60038110613bc657634e487b7160e01b600052602160045260246000fd5b9052565b60005b83811015613be5578181015183820152602001613bcd565b50506000910152565b60008151808452613c06816020860160208601613bca565b601f01601f19169290920160200192915050565b60006020808301818452808551808352604092508286019150828160051b87010184880160005b83811015613dc757603f198984030185528151805160c0808652815190860181905260e0600582901b87018101928b01919087019060005b81811015613d405760df198986030183528351613c97868251613ba8565b8d8101516101008f880152613cb0610100880182613bee565b90508d8201518782038f890152613cc78282613bee565b9150506060820151613ce460608901826001600160a01b03169052565b506080820151608088015260a082015160a088015260c082015187820360c0890152613d108282613bee565b91505060e0820151915086810360e0880152613d2c8183613bee565b96505050928c0192918c0191600101613c79565b50505050888201518582038a870152613d598282613bee565b9150508782015185820389870152613d718282613bee565b91505060608201518582036060870152613d8b8282613bee565b9150506080820151613da860808701826001600160a01b03169052565b5060a09182015194909101939093529386019390860190600101613c41565b509098975050505050505050565b600060208083016020845280855180835260408601915060408160051b87010192506020870160005b82811015613e2c57603f19888603018452613e1a858351613bee565b94509285019290850190600101613dfe565b5092979650505050505050565b600060208284031215613e4b57600080fd5b813567ffffffffffffffff811115613e6257600080fd5b613e6e84828501613959565b949350505050565b6000815160a08452613e8b60a0850182613bee565b905060208301518482036020860152613ea48282613bee565b91505060408301518482036040860152613ebe8282613bee565b91505060608301518482036060860152613ed88282613bee565b6080948501516001600160a01b03169590940194909452509092915050565b6020815260006112e76020830184613e76565b600060208083016020845280855180835260408601915060408160051b87010192506020870160005b82811015613e2c57603f19888603018452613f4f858351613e76565b94509285019290850190600101613f33565b600080600060608486031215613f7657600080fd5b833567ffffffffffffffff80821115613f8e57600080fd5b613f9a87838801613959565b94506020860135915080821115613fb057600080fd5b613fbc87838801613959565b93506040860135915080821115613fd257600080fd5b50613fdf86828701613959565b9150509250925092565b600060208083016020845280855180835260408601915060408160051b87010192506020870160005b82811015613e2c57603f1988860301845261402e858351613e76565b94509285019290850190600101614012565b803560038110613ac557600080fd5b600080600080600060a0868803121561406757600080fd5b67ffffffffffffffff808735111561407e57600080fd5b8635870188601f82011261409157600080fd5b81813511156140a2576140a26138e8565b6140b26020823560051b01613928565b81358082526020808301929160051b8401018b10156140d057600080fd5b602083015b6020843560051b8501018110156141fd5784813511156140f457600080fd5b80358401610100818e03601f1901121561410d57600080fd5b6141156138fe565b61412160208301614040565b8152866040830135111561413457600080fd5b6141478e60206040850135850101613959565b6020820152866060830135111561415d57600080fd5b6141708e60206060850135850101613959565b604082015261418160808301613aae565b606082015260a0820135608082015260c082013560a08201528660e083013511156141ab57600080fd5b6141be8e602060e0850135850101613959565b60c08201528661010083013511156141d557600080fd5b6141e98e6020610100850135850101613959565b60e0820152845250602092830192016140d5565b5097505050602087013581101561421357600080fd5b6142238860208901358901613959565b945060408701359350806060880135111561423d57600080fd5b61424d8860608901358901613959565b9250806080880135111561426057600080fd5b506142718760808801358801613959565b90509295509295909350565b602081526142976020820183516001600160a01b03169052565b600060208301516101008060408501526142b5610120850183613bee565b9150604085015160608501526060850151601f19808685030160808701526142dd8483613bee565b935060808701519150808685030160a08701526142fa8483613bee565b935060a087015160c087015260c08701519150808685030160e08701526143218483613bee565b935060e087015191508086850301838701525061433e8382613bee565b9695505050505050565b600181811c9082168061435c57607f821691505b602082108103610eb657634e487b7160e01b600052602260045260246000fd5b601f8211156143c8576000816000526020600020601f850160051c810160208610156143a55750805b601f850160051c820191505b818110156143c4578281556001016143b1565b5050505b505050565b815167ffffffffffffffff8111156143e7576143e76138e8565b6143fb816143f58454614348565b8461437c565b602080601f83116001811461443057600084156144185750858301515b600019600386901b1c1916600185901b1785556143c4565b600085815260208120601f198616915b8281101561445f57888601518255948401946001909101908401614440565b508582101561447d5787850151600019600388901b60f8161c191681555b5050505050600190811b01905550565b634e487b7160e01b600052603260045260246000fd5b634e487b7160e01b600052601160045260246000fd5b818103818111156144cc576144cc6144a3565b92915050565b808201808211156144cc576144cc6144a3565b8181036144f0575050565b6144fa8254614348565b67ffffffffffffffff811115614512576145126138e8565b614520816143f58454614348565b6000601f821160018114614554576000831561453c5750848201545b600019600385901b1c1916600184901b1784556145b9565b600085815260209020601f19841690600086815260209020845b8381101561458e578286015482556001958601959091019060200161456e565b50858310156145ac5781850154600019600388901b60f8161c191681555b50505060018360011b0184555b5050505050565b634e487b7160e01b600052603160045260246000fd5b60609190911b6bffffffffffffffffffffffff1916815260140190565b6080815260006146066080830187613bee565b82810360208401526146188187613bee565b9050828103604084015261462c8186613bee565b905082810360608401526146408185613bee565b979650505050505050565b6000825161465d818460208701613bca565b9190910192915050565b600080835461467581614348565b6001828116801561468d57600181146146a2576146d1565b60ff19841687528215158302870194506146d1565b8760005260208060002060005b858110156146c85781548a8201529084019082016146af565b50505082870194505b5092969550505050505056fea264697066735822122000a797205f38ccc202657ac23cf90890ee191987a62ffab5639cd89ad5fb0af764736f6c63430008180033",
  "linkReferences": {},
  "deployedLinkReferences": {}
}