{
  "_format": "hh-sol-artifact-1",
  "contractName": "UserManager",
  "sourceName": "contracts/UserManager.sol",
  "abi": [
    {
      "anonymous": false,
      "inputs": [],
      "name": "addCartEvent",
      "type": "event"
    },
    {
      "anonymous": false,
      "inputs": [
        {
          "indexed": false,
          "internalType": "string",
          "name": "name",
          "type": "string"
        },
        {
          "indexed": false,
          "internalType": "string",
          "name": "email",
          "type": "string"
        },
        {
          "indexed": false,
          "internalType": "string",
          "name": "password",
          "type": "string"
        },
        {
          "indexed": false,
          "internalType": "string",
          "name": "role",
          "type": "string"
        }
      ],
      "name": "createAuthorityEvent",
      "type": "event"
    },
    {
      "anonymous": false,
      "inputs": [
        {
          "indexed": false,
          "internalType": "string",
          "name": "name",
          "type": "string"
        },
        {
          "indexed": false,
          "internalType": "string",
          "name": "email",
          "type": "string"
        },
        {
          "indexed": false,
          "internalType": "string",
          "name": "password",
          "type": "string"
        },
        {
          "indexed": false,
          "internalType": "string",
          "name": "role",
          "type": "string"
        }
      ],
      "name": "createCustomerEvent",
      "type": "event"
    },
    {
      "anonymous": false,
      "inputs": [
        {
          "indexed": false,
          "internalType": "string",
          "name": "name",
          "type": "string"
        },
        {
          "indexed": false,
          "internalType": "string",
          "name": "email",
          "type": "string"
        },
        {
          "indexed": false,
          "internalType": "string",
          "name": "password",
          "type": "string"
        },
        {
          "indexed": false,
          "internalType": "string",
          "name": "role",
          "type": "string"
        }
      ],
      "name": "createFarmerEvent",
      "type": "event"
    },
    {
      "anonymous": false,
      "inputs": [],
      "name": "removeProductEvent",
      "type": "event"
    },
    {
      "anonymous": false,
      "inputs": [],
      "name": "updateCartEvent",
      "type": "event"
    },
    {
      "inputs": [
        {
          "internalType": "string",
          "name": "id",
          "type": "string"
        },
        {
          "internalType": "uint256",
          "name": "quantity",
          "type": "uint256"
        }
      ],
      "name": "addCart",
      "outputs": [],
      "stateMutability": "nonpayable",
      "type": "function"
    },
    {
      "inputs": [
        {
          "internalType": "string",
          "name": "name",
          "type": "string"
        },
        {
          "internalType": "string",
          "name": "email",
          "type": "string"
        },
        {
          "internalType": "string",
          "name": "password",
          "type": "string"
        },
        {
          "internalType": "string",
          "name": "role",
          "type": "string"
        }
      ],
      "name": "createAuthority",
      "outputs": [],
      "stateMutability": "nonpayable",
      "type": "function"
    },
    {
      "inputs": [
        {
          "internalType": "string",
          "name": "name",
          "type": "string"
        },
        {
          "internalType": "string",
          "name": "email",
          "type": "string"
        },
        {
          "internalType": "string",
          "name": "password",
          "type": "string"
        },
        {
          "internalType": "string",
          "name": "role",
          "type": "string"
        }
      ],
      "name": "createCustomer",
      "outputs": [],
      "stateMutability": "nonpayable",
      "type": "function"
    },
    {
      "inputs": [
        {
          "internalType": "string",
          "name": "name",
          "type": "string"
        },
        {
          "internalType": "string",
          "name": "email",
          "type": "string"
        },
        {
          "internalType": "string",
          "name": "password",
          "type": "string"
        },
        {
          "internalType": "string",
          "name": "role",
          "type": "string"
        }
      ],
      "name": "createFarmer",
      "outputs": [],
      "stateMutability": "nonpayable",
      "type": "function"
    },
    {
      "inputs": [
        {
          "internalType": "string",
          "name": "password",
          "type": "string"
        }
      ],
      "name": "getAuthority",
      "outputs": [
        {
          "components": [
            {
              "internalType": "string",
              "name": "name",
              "type": "string"
            },
            {
              "internalType": "string",
              "name": "email",
              "type": "string"
            },
            {
              "internalType": "string",
              "name": "password",
              "type": "string"
            },
            {
              "internalType": "string",
              "name": "role",
              "type": "string"
            },
            {
              "internalType": "address",
              "name": "ETHAddress",
              "type": "address"
            }
          ],
          "internalType": "struct UserManager.Authority",
          "name": "",
          "type": "tuple"
        }
      ],
      "stateMutability": "view",
      "type": "function"
    },
    {
      "inputs": [],
      "name": "getCart",
      "outputs": [
        {
          "components": [
            {
              "components": [
                {
                  "internalType": "string",
                  "name": "id",
                  "type": "string"
                },
                {
                  "internalType": "uint256",
                  "name": "quantity",
                  "type": "uint256"
                }
              ],
              "internalType": "struct UserManager.Item[]",
              "name": "items",
              "type": "tuple[]"
            },
            {
              "internalType": "address",
              "name": "ETHAddress",
              "type": "address"
            }
          ],
          "internalType": "struct UserManager.Cart",
          "name": "",
          "type": "tuple"
        }
      ],
      "stateMutability": "view",
      "type": "function"
    },
    {
      "inputs": [
        {
          "internalType": "string",
          "name": "password",
          "type": "string"
        }
      ],
      "name": "getCustomer",
      "outputs": [
        {
          "components": [
            {
              "internalType": "string",
              "name": "name",
              "type": "string"
            },
            {
              "internalType": "string",
              "name": "email",
              "type": "string"
            },
            {
              "internalType": "string",
              "name": "password",
              "type": "string"
            },
            {
              "internalType": "string",
              "name": "role",
              "type": "string"
            },
            {
              "internalType": "address",
              "name": "ETHAddress",
              "type": "address"
            }
          ],
          "internalType": "struct UserManager.Customer",
          "name": "",
          "type": "tuple"
        }
      ],
      "stateMutability": "view",
      "type": "function"
    },
    {
      "inputs": [
        {
          "internalType": "string",
          "name": "password",
          "type": "string"
        }
      ],
      "name": "getFarmer",
      "outputs": [
        {
          "components": [
            {
              "internalType": "string",
              "name": "name",
              "type": "string"
            },
            {
              "internalType": "string",
              "name": "email",
              "type": "string"
            },
            {
              "internalType": "string",
              "name": "password",
              "type": "string"
            },
            {
              "internalType": "string",
              "name": "role",
              "type": "string"
            },
            {
              "internalType": "address",
              "name": "ETHAddress",
              "type": "address"
            }
          ],
          "internalType": "struct UserManager.Farmer",
          "name": "",
          "type": "tuple"
        }
      ],
      "stateMutability": "view",
      "type": "function"
    },
    {
      "inputs": [
        {
          "internalType": "string",
          "name": "id",
          "type": "string"
        }
      ],
      "name": "removeProduct",
      "outputs": [],
      "stateMutability": "nonpayable",
      "type": "function"
    },
    {
      "inputs": [
        {
          "internalType": "string",
          "name": "id",
          "type": "string"
        },
        {
          "internalType": "uint256",
          "name": "quantity",
          "type": "uint256"
        }
      ],
      "name": "updateCart",
      "outputs": [],
      "stateMutability": "nonpayable",
      "type": "function"
    }
  ],
  "bytecode": "0x608060405234801561001057600080fd5b50611a98806100206000396000f3fe608060405234801561001057600080fd5b506004361061009e5760003560e01c8063518bddd911610066578063518bddd91461011c5780635baef56d1461012f5780639726dd1914610142578063b151494214610155578063b51ca0af1461016857600080fd5b8063200d6de7146100a357806321627dad146100b857806333bf3ee2146100d65780633c46bab9146100e95780635087e668146100fc575b600080fd5b6100b66100b13660046113ea565b61017b565b005b6100c061031f565b6040516100cd91906114e7565b60405180910390f35b6100b66100e436600461157d565b610454565b6100b66100f736600461157d565b6105f5565b61010f61010a3660046115c2565b610707565b6040516100cd9190611678565b61010f61012a3660046115c2565b610ae4565b6100b661013d3660046113ea565b610c6a565b6100b66101503660046115c2565b610e03565b61010f6101633660046115c2565b610fd4565b6100b66101763660046113ea565b61115a565b3360405160200161018c9190611692565b60408051601f19818403018152828252805160209182012033600090815260018352929092206004015491926101cc926001600160a01b03169101611692565b604051602081830303815290604052805190602001200361022c5760405162461bcd60e51b81526020600482015260156024820152744661726d657220616c72656164792065786973742160581b60448201526064015b60405180910390fd5b6040805160a0810182528581526020808201869052818301859052606082018490523360808301819052600090815260019091529190912081518190610272908261173a565b5060208201516001820190610287908261173a565b506040820151600282019061029c908261173a565b50606082015160038201906102b1908261173a565b5060809190910151600490910180546001600160a01b0319166001600160a01b039092169190911790556040517f5c47ff0a569e587692da604d2bf92787dd7f006684698dbd8c59539be7e35a74906103119086908690869086906117fa565b60405180910390a150505050565b60408051808201825260608082526000602080840182905233825260038152848220855181549283028101850187529586018281529495949093859391928592909185015b828210156104325783829060005260206000209060020201604051806040016040529081600082018054610397906116af565b80601f01602080910402602001604051908101604052809291908181526020018280546103c3906116af565b80156104105780601f106103e557610100808354040283529160200191610410565b820191906000526020600020905b8154815290600101906020018083116103f357829003601f168201915b5050505050815260200160018201548152505081526020019060010190610364565b50505090825250600191909101546001600160a01b0316602090910152919050565b6000805b3360009081526003602052604090205481101561050457836040516020016104809190611852565b60408051601f198184030181529181528151602092830120336000908152600390935291208054839081106104b7576104b761186e565b90600052602060002090600202016000016040516020016104d89190611884565b60405160208183030381529060405280519060200120036104fc5760019150610504565b600101610458565b5080156105535760405162461bcd60e51b815260206004820152601760248201527f70726f6475637420616c726561647920696e20636172740000000000000000006044820152606401610223565b3360009081526003602090815260408083208151808301909252868252818301869052805460018101825590845291909220825160029092020190819061059a908261173a565b506020918201516001918201553360008181526003909352604080842090920180546001600160a01b0319169091179055517fa46323904629c5a10eff2de9a42dd39fc6ad2d1b5fc30eb094c7b7f4934923a99190a1505050565b60005b336000908152600360205260409020548110156106d957826040516020016106209190611852565b60408051601f198184030181529181528151602092830120336000908152600390935291208054839081106106575761065761186e565b90600052602060002090600202016000016040516020016106789190611884565b60405160208183030381529060405280519060200120036106d1573360009081526003602052604090208054839190839081106106b7576106b761186e565b9060005260206000209060020201600101819055506106d9565b6001016105f8565b506040517f98cde0c65797b7cb027484d981d873f00ac593c6f312e5071eb3871cc104596090600090a15050565b6107426040518060a001604052806060815260200160608152602001606081526020016060815260200160006001600160a01b031681525090565b336040516020016107539190611692565b60408051601f1981840301815282825280516020918201203360009081526002835292909220600401549192610793926001600160a01b03169101611692565b60405160208183030381529060405280519060200120146107ed5760405162461bcd60e51b8152602060048201526014602482015273417574686f72697479204e6f742065786973742160601b6044820152606401610223565b816040516020016107fe9190611852565b60408051601f1981840301815282825280516020918201203360009081526002808452939020909361083593919091019101611884565b60405160208183030381529060405280519060200120146108685760405162461bcd60e51b8152600401610223906118fa565b3360009081526002602052604090819020815160a08101909252805482908290610891906116af565b80601f01602080910402602001604051908101604052809291908181526020018280546108bd906116af565b801561090a5780601f106108df5761010080835404028352916020019161090a565b820191906000526020600020905b8154815290600101906020018083116108ed57829003601f168201915b50505050508152602001600182018054610923906116af565b80601f016020809104026020016040519081016040528092919081815260200182805461094f906116af565b801561099c5780601f106109715761010080835404028352916020019161099c565b820191906000526020600020905b81548152906001019060200180831161097f57829003601f168201915b505050505081526020016002820180546109b5906116af565b80601f01602080910402602001604051908101604052809291908181526020018280546109e1906116af565b8015610a2e5780601f10610a0357610100808354040283529160200191610a2e565b820191906000526020600020905b815481529060010190602001808311610a1157829003601f168201915b50505050508152602001600382018054610a47906116af565b80601f0160208091040260200160405190810160405280929190818152602001828054610a73906116af565b8015610ac05780601f10610a9557610100808354040283529160200191610ac0565b820191906000526020600020905b815481529060010190602001808311610aa357829003601f168201915b5050509183525050600491909101546001600160a01b031660209091015292915050565b610b1f6040518060a001604052806060815260200160608152602001606081526020016060815260200160006001600160a01b031681525090565b33604051602001610b309190611692565b60408051601f19818403018152828252805160209182012033600090815280835292909220600401549192610b6f926001600160a01b03169101611692565b6040516020818303038152906040528051906020012014610bc85760405162461bcd60e51b8152602060048201526013602482015272437573746f6d6572204e6f742065786973742160681b6044820152606401610223565b81604051602001610bd99190611852565b60408051601f198184030181528282528051602091820120336000908152808352929092209192610c0e926002019101611884565b6040516020818303038152906040528051906020012014610c415760405162461bcd60e51b8152600401610223906118fa565b3360009081526020819052604090819020815160a08101909252805482908290610891906116af565b33604051602001610c7b9190611692565b60408051601f1981840301815282825280516020918201203360009081526002835292909220600401549192610cbb926001600160a01b03169101611692565b6040516020818303038152906040528051906020012003610d1e5760405162461bcd60e51b815260206004820152601860248201527f417574686f7269747920616c72656164792065786973742100000000000000006044820152606401610223565b6040805160a0810182528581526020808201869052818301859052606082018490523360808301819052600090815260029091529190912081518190610d64908261173a565b5060208201516001820190610d79908261173a565b5060408201516002820190610d8e908261173a565b5060608201516003820190610da3908261173a565b5060809190910151600490910180546001600160a01b0319166001600160a01b039092169190911790556040517fc5818d9d7df1d0bdb4144d2e0d9ca09a1d5b05dbaea4477c8e49131d5b6623ad906103119086908690869086906117fa565b60005b33600090815260036020526040902054811015610fa75781604051602001610e2e9190611852565b60408051601f19818403018152918152815160209283012033600090815260039093529120805483908110610e6557610e6561186e565b9060005260206000209060020201600001604051602001610e869190611884565b6040516020818303038152906040528051906020012003610f9f57805b33600090815260036020526040902054610ebf90600190611945565b811015610f4f57336000908152600360205260409020610ee082600161195e565b81548110610ef057610ef061186e565b600091825260208083203384526003909152604090922080546002909202909201919083908110610f2357610f2361186e565b6000918252602090912060029091020180610f3e8382611971565b506001918201549082015501610ea3565b50336000908152600360205260409020805480610f6e57610f6e611a4c565b60008281526020812060001990920191600283020190610f8e82826112f1565b600182016000905550509055610fa7565b600101610e06565b506040517fc5b87bed07a482ededce1576f924b1d6cdf6e498d73e35c8b02bcc736ac205a390600090a150565b61100f6040518060a001604052806060815260200160608152602001606081526020016060815260200160006001600160a01b031681525090565b336040516020016110209190611692565b60408051601f1981840301815282825280516020918201203360009081526001835292909220600401549192611060926001600160a01b03169101611692565b60405160208183030381529060405280519060200120146110b75760405162461bcd60e51b81526020600482015260116024820152704661726d6572204e6f742065786973742160781b6044820152606401610223565b816040516020016110c89190611852565b60408051601f198184030181528282528051602091820120336000908152600183529290922091926110fe926002019101611884565b60405160208183030381529060405280519060200120146111315760405162461bcd60e51b8152600401610223906118fa565b3360009081526001602052604090819020815160a08101909252805482908290610891906116af565b3360405160200161116b9190611692565b60408051601f198184030181528282528051602091820120336000908152808352929092206004015491926111aa926001600160a01b03169101611692565b604051602081830303815290604052805190602001200361120d5760405162461bcd60e51b815260206004820152601760248201527f437573746f6d657220616c7265616479206578697374210000000000000000006044820152606401610223565b6040805160a08101825285815260208082018690528183018590526060820184905233608083018190526000908152908190529190912081518190611252908261173a565b5060208201516001820190611267908261173a565b506040820151600282019061127c908261173a565b5060608201516003820190611291908261173a565b5060809190910151600490910180546001600160a01b0319166001600160a01b039092169190911790556040517f1b4cea3558a9e0c9f742c904e361522d01633b394adf89f8b91d8a50df89117a906103119086908690869086906117fa565b5080546112fd906116af565b6000825580601f1061130d575050565b601f01602090049060005260206000209081019061132b919061132e565b50565b5b80821115611343576000815560010161132f565b5090565b634e487b7160e01b600052604160045260246000fd5b600082601f83011261136e57600080fd5b813567ffffffffffffffff8082111561138957611389611347565b604051601f8301601f19908116603f011681019082821181831017156113b1576113b1611347565b816040528381528660208588010111156113ca57600080fd5b836020870160208301376000602085830101528094505050505092915050565b6000806000806080858703121561140057600080fd5b843567ffffffffffffffff8082111561141857600080fd5b6114248883890161135d565b9550602087013591508082111561143a57600080fd5b6114468883890161135d565b9450604087013591508082111561145c57600080fd5b6114688883890161135d565b9350606087013591508082111561147e57600080fd5b5061148b8782880161135d565b91505092959194509250565b60005b838110156114b257818101518382015260200161149a565b50506000910152565b600081518084526114d3816020860160208601611497565b601f01601f19169290920160200192915050565b600060208083526060830184516040808487015282825180855260808801915060808160051b8901019450858401935060005b8181101561155b57888603607f190183528451805185885261153e868901826114bb565b91890151978901979097529550938601939186019160010161151a565b50505050918501516001600160a01b038116604086015291505b949350505050565b6000806040838503121561159057600080fd5b823567ffffffffffffffff8111156115a757600080fd5b6115b38582860161135d565b95602094909401359450505050565b6000602082840312156115d457600080fd5b813567ffffffffffffffff8111156115eb57600080fd5b6115758482850161135d565b6000815160a0845261160c60a08501826114bb565b90506020830151848203602086015261162582826114bb565b9150506040830151848203604086015261163f82826114bb565b9150506060830151848203606086015261165982826114bb565b6080948501516001600160a01b03169590940194909452509092915050565b60208152600061168b60208301846115f7565b9392505050565b60609190911b6bffffffffffffffffffffffff1916815260140190565b600181811c908216806116c357607f821691505b6020821081036116e357634e487b7160e01b600052602260045260246000fd5b50919050565b601f821115611735576000816000526020600020601f850160051c810160208610156117125750805b601f850160051c820191505b818110156117315782815560010161171e565b5050505b505050565b815167ffffffffffffffff81111561175457611754611347565b6117688161176284546116af565b846116e9565b602080601f83116001811461179d57600084156117855750858301515b600019600386901b1c1916600185901b178555611731565b600085815260208120601f198616915b828110156117cc578886015182559484019460019091019084016117ad565b50858210156117ea5787850151600019600388901b60f8161c191681555b5050505050600190811b01905550565b60808152600061180d60808301876114bb565b828103602084015261181f81876114bb565b9050828103604084015261183381866114bb565b9050828103606084015261184781856114bb565b979650505050505050565b60008251611864818460208701611497565b9190910192915050565b634e487b7160e01b600052603260045260246000fd5b6000808354611892816116af565b600182811680156118aa57600181146118bf576118ee565b60ff19841687528215158302870194506118ee565b8760005260208060002060005b858110156118e55781548a8201529084019082016118cc565b50505082870194505b50929695505050505050565b6020808252818101527f57726f6e672070617373776f72642c506c656173652054727920416761696e21604082015260600190565b634e487b7160e01b600052601160045260246000fd5b818103818111156119585761195861192f565b92915050565b808201808211156119585761195861192f565b81810361197c575050565b61198682546116af565b67ffffffffffffffff81111561199e5761199e611347565b6119ac8161176284546116af565b6000601f8211600181146119e057600083156119c85750848201545b600019600385901b1c1916600184901b178455611a45565b600085815260209020601f19841690600086815260209020845b83811015611a1a57828601548255600195860195909101906020016119fa565b5085831015611a385781850154600019600388901b60f8161c191681555b50505060018360011b0184555b5050505050565b634e487b7160e01b600052603160045260246000fdfea264697066735822122033ece9b512492eb0654f6f2bb963ac6346d344a47bd8e40a5389aa69c9c6007064736f6c63430008180033",
  "linkReferences": {},
  "deployedLinkReferences": {}
}