{
  "_format": "hh-sol-artifact-1",
  "contractName": "UserManager",
  "sourceName": "contracts/UserManager.sol",
  "abi": [
    {
      "anonymous": false,
      "inputs": [],
      "name": "addCartEvent",
      "type": "event"
    },
    {
      "anonymous": false,
      "inputs": [
        {
          "indexed": false,
          "internalType": "string",
          "name": "name",
          "type": "string"
        },
        {
          "indexed": false,
          "internalType": "string",
          "name": "email",
          "type": "string"
        },
        {
          "indexed": false,
          "internalType": "string",
          "name": "password",
          "type": "string"
        },
        {
          "indexed": false,
          "internalType": "string",
          "name": "role",
          "type": "string"
        }
      ],
      "name": "createAuthorityEvent",
      "type": "event"
    },
    {
      "anonymous": false,
      "inputs": [
        {
          "indexed": false,
          "internalType": "string",
          "name": "name",
          "type": "string"
        },
        {
          "indexed": false,
          "internalType": "string",
          "name": "email",
          "type": "string"
        },
        {
          "indexed": false,
          "internalType": "string",
          "name": "password",
          "type": "string"
        },
        {
          "indexed": false,
          "internalType": "string",
          "name": "role",
          "type": "string"
        }
      ],
      "name": "createCourierEvent",
      "type": "event"
    },
    {
      "anonymous": false,
      "inputs": [
        {
          "indexed": false,
          "internalType": "string",
          "name": "name",
          "type": "string"
        },
        {
          "indexed": false,
          "internalType": "string",
          "name": "email",
          "type": "string"
        },
        {
          "indexed": false,
          "internalType": "string",
          "name": "password",
          "type": "string"
        },
        {
          "indexed": false,
          "internalType": "string",
          "name": "role",
          "type": "string"
        }
      ],
      "name": "createCustomerEvent",
      "type": "event"
    },
    {
      "anonymous": false,
      "inputs": [
        {
          "indexed": false,
          "internalType": "string",
          "name": "name",
          "type": "string"
        },
        {
          "indexed": false,
          "internalType": "string",
          "name": "email",
          "type": "string"
        },
        {
          "indexed": false,
          "internalType": "string",
          "name": "password",
          "type": "string"
        },
        {
          "indexed": false,
          "internalType": "string",
          "name": "role",
          "type": "string"
        }
      ],
      "name": "createFarmerEvent",
      "type": "event"
    },
    {
      "anonymous": false,
      "inputs": [],
      "name": "orderProductEvent",
      "type": "event"
    },
    {
      "anonymous": false,
      "inputs": [],
      "name": "productDeliveredEvent",
      "type": "event"
    },
    {
      "anonymous": false,
      "inputs": [],
      "name": "removeProductEvent",
      "type": "event"
    },
    {
      "anonymous": false,
      "inputs": [],
      "name": "updateCartEvent",
      "type": "event"
    },
    {
      "inputs": [
        {
          "internalType": "string",
          "name": "id",
          "type": "string"
        },
        {
          "internalType": "uint256",
          "name": "quantity",
          "type": "uint256"
        }
      ],
      "name": "addCart",
      "outputs": [],
      "stateMutability": "nonpayable",
      "type": "function"
    },
    {
      "inputs": [],
      "name": "courierslist",
      "outputs": [
        {
          "components": [
            {
              "internalType": "enum PaymentContract.OrderStatus",
              "name": "status",
              "type": "uint8"
            },
            {
              "internalType": "address",
              "name": "from",
              "type": "address"
            },
            {
              "internalType": "string",
              "name": "productId",
              "type": "string"
            },
            {
              "internalType": "string",
              "name": "orderId",
              "type": "string"
            },
            {
              "internalType": "uint256",
              "name": "price",
              "type": "uint256"
            },
            {
              "internalType": "uint256",
              "name": "quantity",
              "type": "uint256"
            },
            {
              "internalType": "string",
              "name": "timeofOrdered",
              "type": "string"
            },
            {
              "internalType": "string",
              "name": "timeofDelivered",
              "type": "string"
            },
            {
              "internalType": "address",
              "name": "seller",
              "type": "address"
            }
          ],
          "internalType": "struct PaymentContract.Order[]",
          "name": "",
          "type": "tuple[]"
        }
      ],
      "stateMutability": "view",
      "type": "function"
    },
    {
      "inputs": [
        {
          "internalType": "string",
          "name": "name",
          "type": "string"
        },
        {
          "internalType": "string",
          "name": "email",
          "type": "string"
        },
        {
          "internalType": "string",
          "name": "password",
          "type": "string"
        },
        {
          "internalType": "string",
          "name": "role",
          "type": "string"
        }
      ],
      "name": "createAuthority",
      "outputs": [],
      "stateMutability": "nonpayable",
      "type": "function"
    },
    {
      "inputs": [
        {
          "internalType": "string",
          "name": "name",
          "type": "string"
        },
        {
          "internalType": "string",
          "name": "email",
          "type": "string"
        },
        {
          "internalType": "string",
          "name": "password",
          "type": "string"
        },
        {
          "internalType": "string",
          "name": "role",
          "type": "string"
        }
      ],
      "name": "createCourier",
      "outputs": [],
      "stateMutability": "nonpayable",
      "type": "function"
    },
    {
      "inputs": [
        {
          "internalType": "string",
          "name": "name",
          "type": "string"
        },
        {
          "internalType": "string",
          "name": "email",
          "type": "string"
        },
        {
          "internalType": "string",
          "name": "password",
          "type": "string"
        },
        {
          "internalType": "string",
          "name": "role",
          "type": "string"
        }
      ],
      "name": "createCustomer",
      "outputs": [],
      "stateMutability": "nonpayable",
      "type": "function"
    },
    {
      "inputs": [
        {
          "internalType": "string",
          "name": "name",
          "type": "string"
        },
        {
          "internalType": "string",
          "name": "email",
          "type": "string"
        },
        {
          "internalType": "string",
          "name": "password",
          "type": "string"
        },
        {
          "internalType": "string",
          "name": "role",
          "type": "string"
        }
      ],
      "name": "createFarmer",
      "outputs": [],
      "stateMutability": "nonpayable",
      "type": "function"
    },
    {
      "inputs": [],
      "name": "getAllOrderIds",
      "outputs": [
        {
          "internalType": "string[]",
          "name": "",
          "type": "string[]"
        }
      ],
      "stateMutability": "view",
      "type": "function"
    },
    {
      "inputs": [
        {
          "internalType": "string",
          "name": "password",
          "type": "string"
        }
      ],
      "name": "getAuthority",
      "outputs": [
        {
          "components": [
            {
              "internalType": "string",
              "name": "name",
              "type": "string"
            },
            {
              "internalType": "string",
              "name": "email",
              "type": "string"
            },
            {
              "internalType": "string",
              "name": "password",
              "type": "string"
            },
            {
              "internalType": "string",
              "name": "role",
              "type": "string"
            },
            {
              "internalType": "address",
              "name": "ETHAddress",
              "type": "address"
            }
          ],
          "internalType": "struct UserManager.Authority",
          "name": "",
          "type": "tuple"
        }
      ],
      "stateMutability": "view",
      "type": "function"
    },
    {
      "inputs": [],
      "name": "getCart",
      "outputs": [
        {
          "components": [
            {
              "internalType": "string",
              "name": "id",
              "type": "string"
            },
            {
              "internalType": "uint256",
              "name": "quantity",
              "type": "uint256"
            }
          ],
          "internalType": "struct UserManager.Item[]",
          "name": "",
          "type": "tuple[]"
        }
      ],
      "stateMutability": "view",
      "type": "function"
    },
    {
      "inputs": [
        {
          "internalType": "string",
          "name": "password",
          "type": "string"
        }
      ],
      "name": "getCourier",
      "outputs": [
        {
          "components": [
            {
              "internalType": "string",
              "name": "name",
              "type": "string"
            },
            {
              "internalType": "string",
              "name": "email",
              "type": "string"
            },
            {
              "internalType": "string",
              "name": "password",
              "type": "string"
            },
            {
              "internalType": "string",
              "name": "role",
              "type": "string"
            },
            {
              "internalType": "address",
              "name": "ETHAddress",
              "type": "address"
            }
          ],
          "internalType": "struct UserManager.Courier",
          "name": "",
          "type": "tuple"
        }
      ],
      "stateMutability": "view",
      "type": "function"
    },
    {
      "inputs": [
        {
          "internalType": "string",
          "name": "password",
          "type": "string"
        }
      ],
      "name": "getCustomer",
      "outputs": [
        {
          "components": [
            {
              "internalType": "string",
              "name": "name",
              "type": "string"
            },
            {
              "internalType": "string",
              "name": "email",
              "type": "string"
            },
            {
              "internalType": "string",
              "name": "password",
              "type": "string"
            },
            {
              "internalType": "string",
              "name": "role",
              "type": "string"
            },
            {
              "internalType": "address",
              "name": "ETHAddress",
              "type": "address"
            }
          ],
          "internalType": "struct UserManager.Customer",
          "name": "",
          "type": "tuple"
        }
      ],
      "stateMutability": "view",
      "type": "function"
    },
    {
      "inputs": [
        {
          "internalType": "string",
          "name": "password",
          "type": "string"
        }
      ],
      "name": "getFarmer",
      "outputs": [
        {
          "components": [
            {
              "internalType": "string",
              "name": "name",
              "type": "string"
            },
            {
              "internalType": "string",
              "name": "email",
              "type": "string"
            },
            {
              "internalType": "string",
              "name": "password",
              "type": "string"
            },
            {
              "internalType": "string",
              "name": "role",
              "type": "string"
            },
            {
              "internalType": "address",
              "name": "ETHAddress",
              "type": "address"
            }
          ],
          "internalType": "struct UserManager.Farmer",
          "name": "",
          "type": "tuple"
        }
      ],
      "stateMutability": "view",
      "type": "function"
    },
    {
      "inputs": [],
      "name": "getOrders",
      "outputs": [
        {
          "components": [
            {
              "internalType": "address",
              "name": "buyer",
              "type": "address"
            },
            {
              "components": [
                {
                  "internalType": "enum PaymentContract.OrderStatus",
                  "name": "status",
                  "type": "uint8"
                },
                {
                  "internalType": "address",
                  "name": "from",
                  "type": "address"
                },
                {
                  "internalType": "string",
                  "name": "productId",
                  "type": "string"
                },
                {
                  "internalType": "string",
                  "name": "orderId",
                  "type": "string"
                },
                {
                  "internalType": "uint256",
                  "name": "price",
                  "type": "uint256"
                },
                {
                  "internalType": "uint256",
                  "name": "quantity",
                  "type": "uint256"
                },
                {
                  "internalType": "string",
                  "name": "timeofOrdered",
                  "type": "string"
                },
                {
                  "internalType": "string",
                  "name": "timeofDelivered",
                  "type": "string"
                },
                {
                  "internalType": "address",
                  "name": "seller",
                  "type": "address"
                }
              ],
              "internalType": "struct PaymentContract.Order[]",
              "name": "orders",
              "type": "tuple[]"
            }
          ],
          "internalType": "struct PaymentContract.Buyer",
          "name": "",
          "type": "tuple"
        }
      ],
      "stateMutability": "view",
      "type": "function"
    },
    {
      "inputs": [
        {
          "internalType": "string",
          "name": "pid",
          "type": "string"
        },
        {
          "internalType": "uint256",
          "name": "price",
          "type": "uint256"
        },
        {
          "internalType": "address",
          "name": "seller",
          "type": "address"
        },
        {
          "internalType": "string",
          "name": "time",
          "type": "string"
        },
        {
          "internalType": "uint256",
          "name": "quantity",
          "type": "uint256"
        },
        {
          "internalType": "string",
          "name": "oid",
          "type": "string"
        }
      ],
      "name": "orderProduct",
      "outputs": [],
      "stateMutability": "payable",
      "type": "function"
    },
    {
      "inputs": [
        {
          "internalType": "address",
          "name": "customer",
          "type": "address"
        },
        {
          "internalType": "string",
          "name": "pid",
          "type": "string"
        },
        {
          "internalType": "string",
          "name": "oid",
          "type": "string"
        },
        {
          "internalType": "string",
          "name": "time",
          "type": "string"
        }
      ],
      "name": "productDelivered",
      "outputs": [],
      "stateMutability": "nonpayable",
      "type": "function"
    },
    {
      "inputs": [
        {
          "internalType": "string",
          "name": "id",
          "type": "string"
        }
      ],
      "name": "removeProduct",
      "outputs": [],
      "stateMutability": "nonpayable",
      "type": "function"
    },
    {
      "inputs": [
        {
          "components": [
            {
              "internalType": "string",
              "name": "id",
              "type": "string"
            },
            {
              "internalType": "uint256",
              "name": "quantity",
              "type": "uint256"
            }
          ],
          "internalType": "struct UserManager.Item[]",
          "name": "items",
          "type": "tuple[]"
        }
      ],
      "name": "updateCart",
      "outputs": [],
      "stateMutability": "nonpayable",
      "type": "function"
    }
  ],
  "bytecode": "0x608060405234801561001057600080fd5b50612fda806100206000396000f3fe6080604052600436106100fe5760003560e01c80635baef56d1161009557806384bdfcd71161006457806384bdfcd7146102a35780639726dd19146102c3578063b1514942146102e3578063b51ca0af14610303578063d1fcc6011461032357600080fd5b80635baef56d146102215780635e94d720146102415780636257bb64146102615780636eb7a02d1461028157600080fd5b806333bf3ee2116100d157806333bf3ee2146101925780634b2b612a146101b25780635087e668146101d4578063518bddd91461020157600080fd5b8063200d6de71461010357806321627dad146101255780632df6a4ed146101505780632e2dc43e14610170575b600080fd5b34801561010f57600080fd5b5061012361011e366004612571565b610336565b005b34801561013157600080fd5b5061013a6104da565b604051610147919061266e565b60405180910390f35b34801561015c57600080fd5b5061012361016b366004612702565b6105e0565b34801561017c57600080fd5b506101856107a6565b6040516101479190612886565b34801561019e57600080fd5b506101236101ad3660046128bb565b610afb565b3480156101be57600080fd5b506101c7610c9c565b6040516101479190612900565b3480156101e057600080fd5b506101f46101ef366004612964565b610e09565b6040516101479190612a1a565b34801561020d57600080fd5b506101f461021c366004612964565b6111e5565b34801561022d57600080fd5b5061012361023c366004612571565b61136e565b34801561024d57600080fd5b5061012361025c366004612571565b611502565b34801561026d57600080fd5b5061012361027c366004612a34565b611696565b34801561028d57600080fd5b506102966117eb565b6040516101479190612aa9565b3480156102af57600080fd5b506101f46102be366004612964565b611af9565b3480156102cf57600080fd5b506101236102de366004612964565b611c80565b3480156102ef57600080fd5b506101f46102fe366004612964565b611e51565b34801561030f57600080fd5b5061012361031e366004612571565b611fd7565b610123610331366004612abc565b612170565b336040516020016103479190612b67565b60408051601f1981840301815282825280516020918201203360009081526003835292909220600401549192610387926001600160a01b03169101612b67565b60405160208183030381529060405280519060200120036103e75760405162461bcd60e51b81526020600482015260156024820152744661726d657220616c72656164792065786973742160581b60448201526064015b60405180910390fd5b6040805160a081018252858152602080820186905281830185905260608201849052336080830181905260009081526003909152919091208151819061042d9082612c08565b50602082015160018201906104429082612c08565b50604082015160028201906104579082612c08565b506060820151600382019061046c9082612c08565b5060809190910151600490910180546001600160a01b0319166001600160a01b039092169190911790556040517f5c47ff0a569e587692da604d2bf92787dd7f006684698dbd8c59539be7e35a74906104cc908690869086908690612cc8565b60405180910390a150505050565b336000908152600660209081526040808320805482518185028101850190935280835260609492939192909184015b828210156105d7578382906000526020600020906002020160405180604001604052908160008201805461053c90612b84565b80601f016020809104026020016040519081016040528092919081815260200182805461056890612b84565b80156105b55780601f1061058a576101008083540402835291602001916105b5565b820191906000526020600020905b81548152906001019060200180831161059857829003601f168201915b5050505050815260200160018201548152505081526020019060010190610509565b50505050905090565b6001600160a01b0384166000908152600160208190526040822001905b815481101561077557846040516020016106179190612d20565b6040516020818303038152906040528051906020012082828154811061063f5761063f612d3c565b90600052602060002090600802016001016040516020016106609190612d52565b604051602081830303815290604052805190602001201480156106f057508360405160200161068f9190612d20565b604051602081830303815290604052805190602001208282815481106106b7576106b7612d3c565b90600052602060002090600802016002016040516020016106d89190612d52565b60405160208183030381529060405280519060200120145b1561076d57600182828154811061070957610709612d3c565b60009182526020909120600890910201805460ff1916600183818111156107325761073261273e565b02179055508282828154811061074a5761074a612d3c565b906000526020600020906008020160060190816107679190612c08565b50610775565b6001016105fd565b506040517f74cd5e7dfebb0156a786c55b52978ae798c1c2003fdd43701e11ea011d8c56cf90600090a15050505050565b6040805180820190915260008152606060208201523360009081526001602081815260408084208151808301835281546001600160a01b03168152938101805483518186028101860190945280845294959194868501949192909184015b82821015610aee57600084815260209020604080516101208101909152600884029091018054829060ff1660018111156108405761084061273e565b60018111156108515761085161273e565b8152815461010090046001600160a01b0316602082015260018201805460409092019161087d90612b84565b80601f01602080910402602001604051908101604052809291908181526020018280546108a990612b84565b80156108f65780601f106108cb576101008083540402835291602001916108f6565b820191906000526020600020905b8154815290600101906020018083116108d957829003601f168201915b5050505050815260200160028201805461090f90612b84565b80601f016020809104026020016040519081016040528092919081815260200182805461093b90612b84565b80156109885780601f1061095d57610100808354040283529160200191610988565b820191906000526020600020905b81548152906001019060200180831161096b57829003601f168201915b5050505050815260200160038201548152602001600482015481526020016005820180546109b590612b84565b80601f01602080910402602001604051908101604052809291908181526020018280546109e190612b84565b8015610a2e5780601f10610a0357610100808354040283529160200191610a2e565b820191906000526020600020905b815481529060010190602001808311610a1157829003601f168201915b50505050508152602001600682018054610a4790612b84565b80601f0160208091040260200160405190810160405280929190818152602001828054610a7390612b84565b8015610ac05780601f10610a9557610100808354040283529160200191610ac0565b820191906000526020600020905b815481529060010190602001808311610aa357829003601f168201915b5050509183525050600791909101546001600160a01b03166020918201529082526001929092019101610804565b5050505081525050905090565b6000805b33600090815260066020526040902054811015610bab5783604051602001610b279190612d20565b60408051601f19818403018152918152815160209283012033600090815260069093529120805483908110610b5e57610b5e612d3c565b9060005260206000209060020201600001604051602001610b7f9190612d52565b6040516020818303038152906040528051906020012003610ba35760019150610bab565b600101610aff565b508015610bfa5760405162461bcd60e51b815260206004820152601760248201527f70726f6475637420616c726561647920696e206361727400000000000000000060448201526064016103de565b33600090815260066020908152604080832081518083019092528682528183018690528054600181018255908452919092208251600290920201908190610c419082612c08565b506020918201516001918201553360008181526006909352604080842090920180546001600160a01b0319169091179055517fa46323904629c5a10eff2de9a42dd39fc6ad2d1b5fc30eb094c7b7f4934923a99190a1505050565b336000908152600160208190526040822001546060919067ffffffffffffffff811115610ccb57610ccb6124ce565b604051908082528060200260200182016040528015610cfe57816020015b6060815260200190600190039081610ce95790505b50905060005b3360009081526001602081905260409091200154811015610e035733600090815260016020819052604090912001805482908110610d4457610d44612d3c565b90600052602060002090600802016002018054610d6090612b84565b80601f0160208091040260200160405190810160405280929190818152602001828054610d8c90612b84565b8015610dd95780601f10610dae57610100808354040283529160200191610dd9565b820191906000526020600020905b815481529060010190602001808311610dbc57829003601f168201915b5050505050828281518110610df057610df0612d3c565b6020908102919091010152600101610d04565b50919050565b610e446040518060a001604052806060815260200160608152602001606081526020016060815260200160006001600160a01b031681525090565b33604051602001610e559190612b67565b60408051601f1981840301815282825280516020918201203360009081526004808452939020909201549192610e95926001600160a01b03169101612b67565b6040516020818303038152906040528051906020012014610eef5760405162461bcd60e51b8152602060048201526014602482015273417574686f72697479204e6f742065786973742160601b60448201526064016103de565b81604051602001610f009190612d20565b60408051601f19818403018152828252805160209182012033600090815260048352929092209192610f36926002019101612d52565b6040516020818303038152906040528051906020012014610f695760405162461bcd60e51b81526004016103de90612dc8565b3360009081526004602052604090819020815160a08101909252805482908290610f9290612b84565b80601f0160208091040260200160405190810160405280929190818152602001828054610fbe90612b84565b801561100b5780601f10610fe05761010080835404028352916020019161100b565b820191906000526020600020905b815481529060010190602001808311610fee57829003601f168201915b5050505050815260200160018201805461102490612b84565b80601f016020809104026020016040519081016040528092919081815260200182805461105090612b84565b801561109d5780601f106110725761010080835404028352916020019161109d565b820191906000526020600020905b81548152906001019060200180831161108057829003601f168201915b505050505081526020016002820180546110b690612b84565b80601f01602080910402602001604051908101604052809291908181526020018280546110e290612b84565b801561112f5780601f106111045761010080835404028352916020019161112f565b820191906000526020600020905b81548152906001019060200180831161111257829003601f168201915b5050505050815260200160038201805461114890612b84565b80601f016020809104026020016040519081016040528092919081815260200182805461117490612b84565b80156111c15780601f10611196576101008083540402835291602001916111c1565b820191906000526020600020905b8154815290600101906020018083116111a457829003601f168201915b5050509183525050600491909101546001600160a01b031660209091015292915050565b6112206040518060a001604052806060815260200160608152602001606081526020016060815260200160006001600160a01b031681525090565b336040516020016112319190612b67565b60408051601f1981840301815282825280516020918201203360009081526002835292909220600401549192611271926001600160a01b03169101612b67565b60405160208183030381529060405280519060200120146112ca5760405162461bcd60e51b8152602060048201526013602482015272437573746f6d6572204e6f742065786973742160681b60448201526064016103de565b816040516020016112db9190612d20565b60408051601f1981840301815282825280516020918201203360009081526002808452939020909361131293919091019101612d52565b60405160208183030381529060405280519060200120146113455760405162461bcd60e51b81526004016103de90612dc8565b3360009081526002602052604090819020815160a08101909252805482908290610f9290612b84565b3360405160200161137f9190612b67565b60408051601f19818403018152828252805160209182012033600090815260048084529390209092015491926113bf926001600160a01b03169101612b67565b604051602081830303815290604052805190602001200361141d5760405162461bcd60e51b8152602060048201526018602482015277417574686f7269747920616c72656164792065786973742160401b60448201526064016103de565b6040805160a08101825285815260208082018690528183018590526060820184905233608083018190526000908152600490915291909120815181906114639082612c08565b50602082015160018201906114789082612c08565b506040820151600282019061148d9082612c08565b50606082015160038201906114a29082612c08565b5060809190910151600490910180546001600160a01b0319166001600160a01b039092169190911790556040517fc5818d9d7df1d0bdb4144d2e0d9ca09a1d5b05dbaea4477c8e49131d5b6623ad906104cc908690869086908690612cc8565b336040516020016115139190612b67565b60408051601f1981840301815282825280516020918201203360009081526005835292909220600401549192611553926001600160a01b03169101612b67565b60405160208183030381529060405280519060200120036115b15760405162461bcd60e51b8152602060048201526018602482015277417574686f7269747920616c72656164792065786973742160401b60448201526064016103de565b6040805160a08101825285815260208082018690528183018590526060820184905233608083018190526000908152600590915291909120815181906115f79082612c08565b506020820151600182019061160c9082612c08565b50604082015160028201906116219082612c08565b50606082015160038201906116369082612c08565b5060809190910151600490910180546001600160a01b0319166001600160a01b039092169190911790556040517f14910ef2263f83cc85289fa1244f2f612575d7ee261d2f3b223a0943f05a0b14906104cc908690869086908690612cc8565b60005b818110156117e65760005b336000908152600660205260409020548110156117dd578383838181106116cd576116cd612d3c565b90506020028101906116df9190612dfd565b6116e99080612e13565b6040516020016116fa929190612e61565b60408051601f1981840301815291815281516020928301203360009081526006909352912080548390811061173157611731612d3c565b90600052602060002090600202016000016040516020016117529190612d52565b60405160208183030381529060405280519060200120036117d55783838381811061177f5761177f612d3c565b90506020028101906117919190612dfd565b3360009081526006602090815260409091208054929091013591839081106117bb576117bb612d3c565b9060005260206000209060020201600101819055506117dd565b6001016116a4565b50600101611699565b505050565b60606000805480602002602001604051908101604052809291908181526020016000905b828210156105d757600084815260209020604080516101208101909152600884029091018054829060ff16600181111561184b5761184b61273e565b600181111561185c5761185c61273e565b8152815461010090046001600160a01b0316602082015260018201805460409092019161188890612b84565b80601f01602080910402602001604051908101604052809291908181526020018280546118b490612b84565b80156119015780601f106118d657610100808354040283529160200191611901565b820191906000526020600020905b8154815290600101906020018083116118e457829003601f168201915b5050505050815260200160028201805461191a90612b84565b80601f016020809104026020016040519081016040528092919081815260200182805461194690612b84565b80156119935780601f1061196857610100808354040283529160200191611993565b820191906000526020600020905b81548152906001019060200180831161197657829003601f168201915b5050505050815260200160038201548152602001600482015481526020016005820180546119c090612b84565b80601f01602080910402602001604051908101604052809291908181526020018280546119ec90612b84565b8015611a395780601f10611a0e57610100808354040283529160200191611a39565b820191906000526020600020905b815481529060010190602001808311611a1c57829003601f168201915b50505050508152602001600682018054611a5290612b84565b80601f0160208091040260200160405190810160405280929190818152602001828054611a7e90612b84565b8015611acb5780601f10611aa057610100808354040283529160200191611acb565b820191906000526020600020905b815481529060010190602001808311611aae57829003601f168201915b5050509183525050600791909101546001600160a01b0316602091820152908252600192909201910161180f565b611b346040518060a001604052806060815260200160608152602001606081526020016060815260200160006001600160a01b031681525090565b33604051602001611b459190612b67565b60408051601f1981840301815282825280516020918201203360009081526005835292909220600401549192611b85926001600160a01b03169101612b67565b6040516020818303038152906040528051906020012014611bdd5760405162461bcd60e51b8152602060048201526012602482015271436f7572696572204e6f742065786973742160701b60448201526064016103de565b81604051602001611bee9190612d20565b60408051601f19818403018152828252805160209182012033600090815260058352929092209192611c24926002019101612d52565b6040516020818303038152906040528051906020012014611c575760405162461bcd60e51b81526004016103de90612dc8565b3360009081526005602052604090819020815160a08101909252805482908290610f9290612b84565b60005b33600090815260066020526040902054811015611e245781604051602001611cab9190612d20565b60408051601f19818403018152918152815160209283012033600090815260069093529120805483908110611ce257611ce2612d3c565b9060005260206000209060020201600001604051602001611d039190612d52565b6040516020818303038152906040528051906020012003611e1c57805b33600090815260066020526040902054611d3c90600190612e87565b811015611dcc57336000908152600660205260409020611d5d826001612ea0565b81548110611d6d57611d6d612d3c565b600091825260208083203384526006909152604090922080546002909202909201919083908110611da057611da0612d3c565b6000918252602090912060029091020180611dbb8382612eb3565b506001918201549082015501611d20565b50336000908152600660205260409020805480611deb57611deb612f8e565b60008281526020812060001990920191600283020190611e0b8282612478565b600182016000905550509055611e24565b600101611c83565b506040517fc5b87bed07a482ededce1576f924b1d6cdf6e498d73e35c8b02bcc736ac205a390600090a150565b611e8c6040518060a001604052806060815260200160608152602001606081526020016060815260200160006001600160a01b031681525090565b33604051602001611e9d9190612b67565b60408051601f1981840301815282825280516020918201203360009081526003835292909220600401549192611edd926001600160a01b03169101612b67565b6040516020818303038152906040528051906020012014611f345760405162461bcd60e51b81526020600482015260116024820152704661726d6572204e6f742065786973742160781b60448201526064016103de565b81604051602001611f459190612d20565b60408051601f19818403018152828252805160209182012033600090815260038352929092209192611f7b926002019101612d52565b6040516020818303038152906040528051906020012014611fae5760405162461bcd60e51b81526004016103de90612dc8565b3360009081526003602052604090819020815160a08101909252805482908290610f9290612b84565b33604051602001611fe89190612b67565b60408051601f1981840301815282825280516020918201203360009081526002835292909220600401549192612028926001600160a01b03169101612b67565b604051602081830303815290604052805190602001200361208b5760405162461bcd60e51b815260206004820152601760248201527f437573746f6d657220616c72656164792065786973742100000000000000000060448201526064016103de565b6040805160a08101825285815260208082018690528183018590526060820184905233608083018190526000908152600290915291909120815181906120d19082612c08565b50602082015160018201906120e69082612c08565b50604082015160028201906120fb9082612c08565b50606082015160038201906121109082612c08565b5060809190910151600490910180546001600160a01b0319166001600160a01b039092169190911790556040517f1b4cea3558a9e0c9f742c904e361522d01633b394adf89f8b91d8a50df89117a906104cc908690869086908690612cc8565b8434146121b05760405162461bcd60e51b815260206004820152600e60248201526d141056535153950811905253115160921b60448201526064016103de565b604080516101208101825260008082523360208084018290528385018b905260608401869052608084018a905260a0840187905260c0840188905260e084018890526001600160a01b038916610100850152908252600180825293822084018054808601825590835291208251600890920201805492938493919291839160ff19919091169083818111156122475761224761273e565b0217905550602082015181546001600160a01b0390911661010002610100600160a81b0319909116178155604082015160018201906122869082612c08565b506060820151600282019061229b9082612c08565b506080820151600382015560a0820151600482015560c082015160058201906122c49082612c08565b5060e082015160068201906122d99082612c08565b506101009190910151600790910180546001600160a01b039092166001600160a01b03199092169190911790556000805460018181018355918052825160089091027f290decd9548b62a8d60345a988386fc84ba6bc95484008f6362f93160ef3e5630180548493919291839160ff191690838181111561235c5761235c61273e565b0217905550602082015181546001600160a01b0390911661010002610100600160a81b03199091161781556040820151600182019061239b9082612c08565b50606082015160028201906123b09082612c08565b506080820151600382015560a0820151600482015560c082015160058201906123d99082612c08565b5060e082015160068201906123ee9082612c08565b506101009190910151600790910180546001600160a01b0319166001600160a01b03928316179055604051908616906108fc8815029088906000818181858888f19350505050158015612445573d6000803e3d6000fd5b506040517f7bab8ad11f8ad37ca148565c8640766d077c4ce878bcbfab5cfc8f5c01721d1e90600090a150505050505050565b50805461248490612b84565b6000825580601f10612494575050565b601f0160209004906000526020600020908101906124b291906124b5565b50565b5b808211156124ca57600081556001016124b6565b5090565b634e487b7160e01b600052604160045260246000fd5b600082601f8301126124f557600080fd5b813567ffffffffffffffff80821115612510576125106124ce565b604051601f8301601f19908116603f01168101908282118183101715612538576125386124ce565b8160405283815286602085880101111561255157600080fd5b836020870160208301376000602085830101528094505050505092915050565b6000806000806080858703121561258757600080fd5b843567ffffffffffffffff8082111561259f57600080fd5b6125ab888389016124e4565b955060208701359150808211156125c157600080fd5b6125cd888389016124e4565b945060408701359150808211156125e357600080fd5b6125ef888389016124e4565b9350606087013591508082111561260557600080fd5b50612612878288016124e4565b91505092959194509250565b60005b83811015612639578181015183820152602001612621565b50506000910152565b6000815180845261265a81602086016020860161261e565b601f01601f19169290920160200192915050565b600060208083018184528085518083526040925060408601915060408160051b87010184880160005b838110156126d857888303603f19018552815180518785526126bb88860182612642565b918901519489019490945294870194925090860190600101612697565b509098975050505050505050565b80356001600160a01b03811681146126fd57600080fd5b919050565b6000806000806080858703121561271857600080fd5b612721856126e6565b9350602085013567ffffffffffffffff808211156125c157600080fd5b634e487b7160e01b600052602160045260246000fd5b6002811061277257634e487b7160e01b600052602160045260246000fd5b9052565b600082825180855260208086019550808260051b84010181860160005b8481101561287957601f1986840301895281516101206127b4858351612754565b858201516001600160a01b0316858701526040808301518187018390526127dd83880182612642565b92505050606080830151868303828801526127f88382612642565b92505050608080830151818701525060a080830151818701525060c080830151868303828801526128298382612642565b9250505060e080830151868303828801526128448382612642565b92505050610100808301519250612865818701846001600160a01b03169052565b509985019993505090830190600101612793565b5090979650505050505050565b602080825282516001600160a01b0316828201528201516040808301526000906128b36060840182612776565b949350505050565b600080604083850312156128ce57600080fd5b823567ffffffffffffffff8111156128e557600080fd5b6128f1858286016124e4565b95602094909401359450505050565b600060208083016020845280855180835260408601915060408160051b87010192506020870160005b8281101561295757603f19888603018452612945858351612642565b94509285019290850190600101612929565b5092979650505050505050565b60006020828403121561297657600080fd5b813567ffffffffffffffff81111561298d57600080fd5b6128b3848285016124e4565b6000815160a084526129ae60a0850182612642565b9050602083015184820360208601526129c78282612642565b915050604083015184820360408601526129e18282612642565b915050606083015184820360608601526129fb8282612642565b6080948501516001600160a01b03169590940194909452509092915050565b602081526000612a2d6020830184612999565b9392505050565b60008060208385031215612a4757600080fd5b823567ffffffffffffffff80821115612a5f57600080fd5b818501915085601f830112612a7357600080fd5b813581811115612a8257600080fd5b8660208260051b8501011115612a9757600080fd5b60209290920196919550909350505050565b602081526000612a2d6020830184612776565b60008060008060008060c08789031215612ad557600080fd5b863567ffffffffffffffff80821115612aed57600080fd5b612af98a838b016124e4565b975060208901359650612b0e60408a016126e6565b95506060890135915080821115612b2457600080fd5b612b308a838b016124e4565b94506080890135935060a0890135915080821115612b4d57600080fd5b50612b5a89828a016124e4565b9150509295509295509295565b60609190911b6bffffffffffffffffffffffff1916815260140190565b600181811c90821680612b9857607f821691505b602082108103610e0357634e487b7160e01b600052602260045260246000fd5b601f8211156117e6576000816000526020600020601f850160051c81016020861015612be15750805b601f850160051c820191505b81811015612c0057828155600101612bed565b505050505050565b815167ffffffffffffffff811115612c2257612c226124ce565b612c3681612c308454612b84565b84612bb8565b602080601f831160018114612c6b5760008415612c535750858301515b600019600386901b1c1916600185901b178555612c00565b600085815260208120601f198616915b82811015612c9a57888601518255948401946001909101908401612c7b565b5085821015612cb85787850151600019600388901b60f8161c191681555b5050505050600190811b01905550565b608081526000612cdb6080830187612642565b8281036020840152612ced8187612642565b90508281036040840152612d018186612642565b90508281036060840152612d158185612642565b979650505050505050565b60008251612d3281846020870161261e565b9190910192915050565b634e487b7160e01b600052603260045260246000fd5b6000808354612d6081612b84565b60018281168015612d785760018114612d8d57612dbc565b60ff1984168752821515830287019450612dbc565b8760005260208060002060005b85811015612db35781548a820152908401908201612d9a565b50505082870194505b50929695505050505050565b6020808252818101527f57726f6e672070617373776f72642c506c656173652054727920416761696e21604082015260600190565b60008235603e19833603018112612d3257600080fd5b6000808335601e19843603018112612e2a57600080fd5b83018035915067ffffffffffffffff821115612e4557600080fd5b602001915036819003821315612e5a57600080fd5b9250929050565b8183823760009101908152919050565b634e487b7160e01b600052601160045260246000fd5b81810381811115612e9a57612e9a612e71565b92915050565b80820180821115612e9a57612e9a612e71565b818103612ebe575050565b612ec88254612b84565b67ffffffffffffffff811115612ee057612ee06124ce565b612eee81612c308454612b84565b6000601f821160018114612f225760008315612f0a5750848201545b600019600385901b1c1916600184901b178455612f87565b600085815260209020601f19841690600086815260209020845b83811015612f5c5782860154825560019586019590910190602001612f3c565b5085831015612f7a5781850154600019600388901b60f8161c191681555b50505060018360011b0184555b5050505050565b634e487b7160e01b600052603160045260246000fdfea2646970667358221220059f9c84565f012dba3eb64a5d4924f450dd5d63868261b86f93701c4e9ca67364736f6c63430008180033",
  "linkReferences": {},
  "deployedLinkReferences": {}
}