{
  "_format": "hh-sol-artifact-1",
  "contractName": "UserManager",
  "sourceName": "contracts/UserManager.sol",
  "abi": [
    {
      "anonymous": false,
      "inputs": [
        {
          "indexed": false,
          "internalType": "string",
          "name": "name",
          "type": "string"
        },
        {
          "indexed": false,
          "internalType": "string",
          "name": "email",
          "type": "string"
        },
        {
          "indexed": false,
          "internalType": "string",
          "name": "password",
          "type": "string"
        },
        {
          "indexed": false,
          "internalType": "string",
          "name": "role",
          "type": "string"
        }
      ],
      "name": "createAuthorityEvent",
      "type": "event"
    },
    {
      "anonymous": false,
      "inputs": [
        {
          "indexed": false,
          "internalType": "string",
          "name": "name",
          "type": "string"
        },
        {
          "indexed": false,
          "internalType": "string",
          "name": "email",
          "type": "string"
        },
        {
          "indexed": false,
          "internalType": "string",
          "name": "password",
          "type": "string"
        },
        {
          "indexed": false,
          "internalType": "string",
          "name": "role",
          "type": "string"
        }
      ],
      "name": "createCourierEvent",
      "type": "event"
    },
    {
      "anonymous": false,
      "inputs": [
        {
          "indexed": false,
          "internalType": "string",
          "name": "name",
          "type": "string"
        },
        {
          "indexed": false,
          "internalType": "string",
          "name": "email",
          "type": "string"
        },
        {
          "indexed": false,
          "internalType": "string",
          "name": "password",
          "type": "string"
        },
        {
          "indexed": false,
          "internalType": "string",
          "name": "role",
          "type": "string"
        }
      ],
      "name": "createCustomerEvent",
      "type": "event"
    },
    {
      "anonymous": false,
      "inputs": [
        {
          "indexed": false,
          "internalType": "string",
          "name": "name",
          "type": "string"
        },
        {
          "indexed": false,
          "internalType": "string",
          "name": "email",
          "type": "string"
        },
        {
          "indexed": false,
          "internalType": "string",
          "name": "password",
          "type": "string"
        },
        {
          "indexed": false,
          "internalType": "string",
          "name": "role",
          "type": "string"
        }
      ],
      "name": "createFarmerEvent",
      "type": "event"
    },
    {
      "anonymous": false,
      "inputs": [],
      "name": "deleteCustomerEvent",
      "type": "event"
    },
    {
      "anonymous": false,
      "inputs": [],
      "name": "deleteFarmerEvent",
      "type": "event"
    },
    {
      "anonymous": false,
      "inputs": [],
      "name": "fillDetailsEvent",
      "type": "event"
    },
    {
      "anonymous": false,
      "inputs": [],
      "name": "orderPickedEvent",
      "type": "event"
    },
    {
      "anonymous": false,
      "inputs": [],
      "name": "orderProductEvent",
      "type": "event"
    },
    {
      "anonymous": false,
      "inputs": [],
      "name": "productDeliveredEvent",
      "type": "event"
    },
    {
      "inputs": [
        {
          "internalType": "string",
          "name": "name",
          "type": "string"
        },
        {
          "internalType": "string",
          "name": "email",
          "type": "string"
        },
        {
          "internalType": "string",
          "name": "password",
          "type": "string"
        },
        {
          "internalType": "string",
          "name": "role",
          "type": "string"
        }
      ],
      "name": "createAuthority",
      "outputs": [],
      "stateMutability": "nonpayable",
      "type": "function"
    },
    {
      "inputs": [
        {
          "internalType": "string",
          "name": "name",
          "type": "string"
        },
        {
          "internalType": "string",
          "name": "email",
          "type": "string"
        },
        {
          "internalType": "string",
          "name": "password",
          "type": "string"
        },
        {
          "internalType": "string",
          "name": "role",
          "type": "string"
        }
      ],
      "name": "createCourier",
      "outputs": [],
      "stateMutability": "nonpayable",
      "type": "function"
    },
    {
      "inputs": [
        {
          "internalType": "string",
          "name": "name",
          "type": "string"
        },
        {
          "internalType": "string",
          "name": "email",
          "type": "string"
        },
        {
          "internalType": "string",
          "name": "password",
          "type": "string"
        },
        {
          "internalType": "string",
          "name": "role",
          "type": "string"
        }
      ],
      "name": "createCustomer",
      "outputs": [],
      "stateMutability": "nonpayable",
      "type": "function"
    },
    {
      "inputs": [
        {
          "internalType": "string",
          "name": "name",
          "type": "string"
        },
        {
          "internalType": "string",
          "name": "email",
          "type": "string"
        },
        {
          "internalType": "string",
          "name": "password",
          "type": "string"
        },
        {
          "internalType": "string",
          "name": "role",
          "type": "string"
        }
      ],
      "name": "createFarmer",
      "outputs": [],
      "stateMutability": "nonpayable",
      "type": "function"
    },
    {
      "inputs": [],
      "name": "customerList",
      "outputs": [
        {
          "components": [
            {
              "internalType": "string",
              "name": "name",
              "type": "string"
            },
            {
              "internalType": "string",
              "name": "email",
              "type": "string"
            },
            {
              "internalType": "string",
              "name": "password",
              "type": "string"
            },
            {
              "internalType": "string",
              "name": "role",
              "type": "string"
            },
            {
              "internalType": "address",
              "name": "ETHAddress",
              "type": "address"
            }
          ],
          "internalType": "struct UserManager.Customer[]",
          "name": "",
          "type": "tuple[]"
        }
      ],
      "stateMutability": "view",
      "type": "function"
    },
    {
      "inputs": [
        {
          "internalType": "address",
          "name": "ETHAddress",
          "type": "address"
        }
      ],
      "name": "deleteCustomer",
      "outputs": [],
      "stateMutability": "nonpayable",
      "type": "function"
    },
    {
      "inputs": [
        {
          "internalType": "address",
          "name": "ETHAddress",
          "type": "address"
        }
      ],
      "name": "deleteFarmer",
      "outputs": [],
      "stateMutability": "nonpayable",
      "type": "function"
    },
    {
      "inputs": [],
      "name": "farmerList",
      "outputs": [
        {
          "components": [
            {
              "internalType": "string",
              "name": "name",
              "type": "string"
            },
            {
              "internalType": "string",
              "name": "email",
              "type": "string"
            },
            {
              "internalType": "string",
              "name": "password",
              "type": "string"
            },
            {
              "internalType": "string",
              "name": "role",
              "type": "string"
            },
            {
              "internalType": "address",
              "name": "ETHAddress",
              "type": "address"
            }
          ],
          "internalType": "struct UserManager.Farmer[]",
          "name": "",
          "type": "tuple[]"
        }
      ],
      "stateMutability": "view",
      "type": "function"
    },
    {
      "inputs": [
        {
          "internalType": "string",
          "name": "name",
          "type": "string"
        },
        {
          "internalType": "uint256",
          "name": "contact",
          "type": "uint256"
        },
        {
          "internalType": "string",
          "name": "house",
          "type": "string"
        },
        {
          "internalType": "string",
          "name": "street",
          "type": "string"
        },
        {
          "internalType": "uint256",
          "name": "pincode",
          "type": "uint256"
        },
        {
          "internalType": "string",
          "name": "city",
          "type": "string"
        },
        {
          "internalType": "string",
          "name": "state",
          "type": "string"
        }
      ],
      "name": "fillDetails",
      "outputs": [],
      "stateMutability": "nonpayable",
      "type": "function"
    },
    {
      "inputs": [],
      "name": "getAllOrderIds",
      "outputs": [
        {
          "internalType": "string[]",
          "name": "",
          "type": "string[]"
        }
      ],
      "stateMutability": "view",
      "type": "function"
    },
    {
      "inputs": [
        {
          "internalType": "string",
          "name": "password",
          "type": "string"
        }
      ],
      "name": "getAuthority",
      "outputs": [
        {
          "components": [
            {
              "internalType": "string",
              "name": "name",
              "type": "string"
            },
            {
              "internalType": "string",
              "name": "email",
              "type": "string"
            },
            {
              "internalType": "string",
              "name": "password",
              "type": "string"
            },
            {
              "internalType": "string",
              "name": "role",
              "type": "string"
            },
            {
              "internalType": "address",
              "name": "ETHAddress",
              "type": "address"
            }
          ],
          "internalType": "struct UserManager.Authority",
          "name": "",
          "type": "tuple"
        }
      ],
      "stateMutability": "view",
      "type": "function"
    },
    {
      "inputs": [
        {
          "internalType": "string",
          "name": "password",
          "type": "string"
        }
      ],
      "name": "getCourier",
      "outputs": [
        {
          "components": [
            {
              "internalType": "string",
              "name": "name",
              "type": "string"
            },
            {
              "internalType": "string",
              "name": "email",
              "type": "string"
            },
            {
              "internalType": "string",
              "name": "password",
              "type": "string"
            },
            {
              "internalType": "string",
              "name": "role",
              "type": "string"
            },
            {
              "internalType": "address",
              "name": "ETHAddress",
              "type": "address"
            }
          ],
          "internalType": "struct UserManager.Courier",
          "name": "",
          "type": "tuple"
        }
      ],
      "stateMutability": "view",
      "type": "function"
    },
    {
      "inputs": [
        {
          "internalType": "string",
          "name": "password",
          "type": "string"
        }
      ],
      "name": "getCustomer",
      "outputs": [
        {
          "components": [
            {
              "internalType": "string",
              "name": "name",
              "type": "string"
            },
            {
              "internalType": "string",
              "name": "email",
              "type": "string"
            },
            {
              "internalType": "string",
              "name": "password",
              "type": "string"
            },
            {
              "internalType": "string",
              "name": "role",
              "type": "string"
            },
            {
              "internalType": "address",
              "name": "ETHAddress",
              "type": "address"
            }
          ],
          "internalType": "struct UserManager.Customer",
          "name": "",
          "type": "tuple"
        }
      ],
      "stateMutability": "view",
      "type": "function"
    },
    {
      "inputs": [],
      "name": "getDetails",
      "outputs": [
        {
          "components": [
            {
              "internalType": "address",
              "name": "ETHAddress",
              "type": "address"
            },
            {
              "internalType": "string",
              "name": "FullName",
              "type": "string"
            },
            {
              "internalType": "uint256",
              "name": "contact",
              "type": "uint256"
            },
            {
              "internalType": "string",
              "name": "house",
              "type": "string"
            },
            {
              "internalType": "string",
              "name": "street",
              "type": "string"
            },
            {
              "internalType": "uint256",
              "name": "pincode",
              "type": "uint256"
            },
            {
              "internalType": "string",
              "name": "city",
              "type": "string"
            },
            {
              "internalType": "string",
              "name": "state",
              "type": "string"
            }
          ],
          "internalType": "struct UserManager.Details",
          "name": "",
          "type": "tuple"
        }
      ],
      "stateMutability": "view",
      "type": "function"
    },
    {
      "inputs": [
        {
          "internalType": "string",
          "name": "password",
          "type": "string"
        }
      ],
      "name": "getFarmer",
      "outputs": [
        {
          "components": [
            {
              "internalType": "string",
              "name": "name",
              "type": "string"
            },
            {
              "internalType": "string",
              "name": "email",
              "type": "string"
            },
            {
              "internalType": "string",
              "name": "password",
              "type": "string"
            },
            {
              "internalType": "string",
              "name": "role",
              "type": "string"
            },
            {
              "internalType": "address",
              "name": "ETHAddress",
              "type": "address"
            }
          ],
          "internalType": "struct UserManager.Farmer",
          "name": "",
          "type": "tuple"
        }
      ],
      "stateMutability": "view",
      "type": "function"
    },
    {
      "inputs": [],
      "name": "getOrders",
      "outputs": [
        {
          "components": [
            {
              "components": [
                {
                  "internalType": "enum PaymentContract.OrderStatus",
                  "name": "status",
                  "type": "uint8"
                },
                {
                  "internalType": "string",
                  "name": "productId",
                  "type": "string"
                },
                {
                  "internalType": "string",
                  "name": "productName",
                  "type": "string"
                },
                {
                  "internalType": "address",
                  "name": "farmer",
                  "type": "address"
                },
                {
                  "internalType": "uint256",
                  "name": "totalPrice",
                  "type": "uint256"
                },
                {
                  "internalType": "uint256",
                  "name": "totalQuantity",
                  "type": "uint256"
                },
                {
                  "internalType": "string",
                  "name": "timeofPicked",
                  "type": "string"
                },
                {
                  "internalType": "string",
                  "name": "timeofDelivered",
                  "type": "string"
                }
              ],
              "internalType": "struct PaymentContract.Item[]",
              "name": "items",
              "type": "tuple[]"
            },
            {
              "internalType": "string",
              "name": "orderId",
              "type": "string"
            },
            {
              "internalType": "string",
              "name": "timeofOrdered",
              "type": "string"
            },
            {
              "internalType": "address",
              "name": "customer",
              "type": "address"
            },
            {
              "internalType": "uint256",
              "name": "totalAmount",
              "type": "uint256"
            }
          ],
          "internalType": "struct PaymentContract.Order[]",
          "name": "",
          "type": "tuple[]"
        }
      ],
      "stateMutability": "view",
      "type": "function"
    },
    {
      "inputs": [
        {
          "internalType": "string",
          "name": "pid",
          "type": "string"
        },
        {
          "internalType": "string",
          "name": "oid",
          "type": "string"
        },
        {
          "internalType": "string",
          "name": "time",
          "type": "string"
        }
      ],
      "name": "orderPicked",
      "outputs": [],
      "stateMutability": "nonpayable",
      "type": "function"
    },
    {
      "inputs": [
        {
          "components": [
            {
              "internalType": "enum PaymentContract.OrderStatus",
              "name": "status",
              "type": "uint8"
            },
            {
              "internalType": "string",
              "name": "productId",
              "type": "string"
            },
            {
              "internalType": "string",
              "name": "productName",
              "type": "string"
            },
            {
              "internalType": "address",
              "name": "farmer",
              "type": "address"
            },
            {
              "internalType": "uint256",
              "name": "totalPrice",
              "type": "uint256"
            },
            {
              "internalType": "uint256",
              "name": "totalQuantity",
              "type": "uint256"
            },
            {
              "internalType": "string",
              "name": "timeofPicked",
              "type": "string"
            },
            {
              "internalType": "string",
              "name": "timeofDelivered",
              "type": "string"
            }
          ],
          "internalType": "struct PaymentContract.Item[]",
          "name": "items",
          "type": "tuple[]"
        },
        {
          "internalType": "string",
          "name": "time",
          "type": "string"
        },
        {
          "internalType": "uint256",
          "name": "totalAmount",
          "type": "uint256"
        },
        {
          "internalType": "string",
          "name": "orderId",
          "type": "string"
        }
      ],
      "name": "orderProduct",
      "outputs": [],
      "stateMutability": "payable",
      "type": "function"
    },
    {
      "inputs": [
        {
          "internalType": "string",
          "name": "pid",
          "type": "string"
        },
        {
          "internalType": "string",
          "name": "oid",
          "type": "string"
        },
        {
          "internalType": "string",
          "name": "time",
          "type": "string"
        }
      ],
      "name": "productDelivered",
      "outputs": [],
      "stateMutability": "nonpayable",
      "type": "function"
    }
  ],
  "bytecode": "0x608060405234801561001057600080fd5b506142c1806100206000396000f3fe6080604052600436106101145760003560e01c80635e94d720116100a05780638bdb5ce6116100645780638bdb5ce6146102f9578063a94f1fb714610319578063b15149421461032c578063b51ca0af1461034c578063fbbf93a01461036c57600080fd5b80635e94d720146102575780635f6f80cc1461027757806384bdfcd71461029757806388905b80146102b75780638ba407f9146102d957600080fd5b80634b2b612a116100e75780634b2b612a146101a65780635087e668146101c8578063509159f4146101f5578063518bddd9146102175780635baef56d1461023757600080fd5b806305ceb8211461011957806311c9ccf61461013b578063200d6de71461015b5780632e2dc43e1461017b575b600080fd5b34801561012557600080fd5b506101396101343660046135bf565b61038e565b005b34801561014757600080fd5b506101396101563660046136c0565b610472565b34801561016757600080fd5b506101396101763660046136db565b61063f565b34801561018757600080fd5b50610190610848565b60405161019d9190613810565b60405180910390f35b3480156101b257600080fd5b506101bb610cee565b60405161019d91906139b1565b3480156101d457600080fd5b506101e86101e3366004613a15565b610e2a565b60405161019d9190613ad3565b34801561020157600080fd5b5061020a61125c565b60405161019d9190613ae6565b34801561022357600080fd5b506101e8610232366004613a15565b611510565b34801561024357600080fd5b506101396102523660046136db565b61189c565b34801561026357600080fd5b506101396102723660046136db565b611a90565b34801561028357600080fd5b50610139610292366004613b3d565b611c32565b3480156102a357600080fd5b506101e86102b2366004613a15565b611e7b565b3480156102c357600080fd5b506102cc612285565b60405161019d9190613bc5565b3480156102e557600080fd5b506101396102f4366004613b3d565b612539565b34801561030557600080fd5b506101396103143660046136c0565b612781565b610139610327366004613c2b565b61294a565b34801561033857600080fd5b506101e8610347366004613a15565b612ca9565b34801561035857600080fd5b506101396103673660046136db565b612d6a565b34801561037857600080fd5b50610381612f67565b60405161019d9190613e2b565b33600081815260026020526040902080546001600160a01b03191690911781556001016103bb8882613f7b565b503360009081526002602081905260409091209081018790556003016103e18682613f7b565b503360009081526002602052604090206004016103fe8582613f7b565b50336000908152600260205260409020600581018490556006016104228382613f7b565b5033600090815260026020526040902060070161043f8282613f7b565b506040517fc8133d0532c52370de350c4858130d2be6c8cd430b301496a3539e03b9082a6090600090a150505050505050565b60005b60035481101561063b57816001600160a01b03166003828154811061049c5761049c61403b565b60009182526020909120600460059092020101546001600160a01b03160361063357805b6003546104cf90600190614067565b8110156105965760036104e3826001614080565b815481106104f3576104f361403b565b9060005260206000209060050201600382815481106105145761051461403b565b600091825260209091206005909102018061052f8382614093565b5060018181019061054290840182614093565b5060028181019061055590840182614093565b5060038181019061056890840182614093565b50600491820154910180546001600160a01b0319166001600160a01b039092169190911790556001016104c0565b5060038054806105a8576105a861416e565b600082815260208120600019909201916005830201906105c882826132d9565b6105d66001830160006132d9565b6105e46002830160006132d9565b6105f26003830160006132d9565b5060040180546001600160a01b031916905590556040517f8f3cfd9f0e967c51c8a20e9651d762c6a84e8e97fe37add700680190c70dcb7090600090a15050565b600101610475565b5050565b600160005b6004548110156106e257600481815481106106615761066161403b565b60009182526020918290206004600590920201015460405161068f926001600160a01b039092169101614184565b60405160208183030381529060405280519060200120336040516020016106b69190614184565b60405160208183030381529060405280519060200120036106da57600091506106e2565b600101610644565b508061072d5760405162461bcd60e51b81526020600482015260156024820152744661726d657220616c72656164792065786973742160581b60448201526064015b60405180910390fd5b6040805160a081018252868152602081018690529081018490526060810183905233608082015260048054600181018255600091909152815160059091027f8a35acfbc15ff81a39ae7d344fd709f28e8600b4aa8c65c6b64bfe7fe36bd19b0190819061079a9082613f7b565b50602082015160018201906107af9082613f7b565b50604082015160028201906107c49082613f7b565b50606082015160038201906107d99082613f7b565b5060809190910151600490910180546001600160a01b0319166001600160a01b039092169190911790556040517f5c47ff0a569e587692da604d2bf92787dd7f006684698dbd8c59539be7e35a74906108399087908790879087906141a1565b60405180910390a15050505050565b60606001805480602002602001604051908101604052809291908181526020016000905b82821015610ce557838290600052602060002090600502016040518060a001604052908160008201805480602002602001604051908101604052809291908181526020016000905b82821015610b8757600084815260209020604080516101008101909152600884029091018054829060ff1660028111156108f0576108f0613788565b600281111561090157610901613788565b815260200160018201805461091590613ef6565b80601f016020809104026020016040519081016040528092919081815260200182805461094190613ef6565b801561098e5780601f106109635761010080835404028352916020019161098e565b820191906000526020600020905b81548152906001019060200180831161097157829003601f168201915b505050505081526020016002820180546109a790613ef6565b80601f01602080910402602001604051908101604052809291908181526020018280546109d390613ef6565b8015610a205780601f106109f557610100808354040283529160200191610a20565b820191906000526020600020905b815481529060010190602001808311610a0357829003601f168201915b505050918352505060038201546001600160a01b031660208201526004820154604082015260058201546060820152600682018054608090920191610a6490613ef6565b80601f0160208091040260200160405190810160405280929190818152602001828054610a9090613ef6565b8015610add5780601f10610ab257610100808354040283529160200191610add565b820191906000526020600020905b815481529060010190602001808311610ac057829003601f168201915b50505050508152602001600782018054610af690613ef6565b80601f0160208091040260200160405190810160405280929190818152602001828054610b2290613ef6565b8015610b6f5780601f10610b4457610100808354040283529160200191610b6f565b820191906000526020600020905b815481529060010190602001808311610b5257829003601f168201915b505050505081525050815260200190600101906108b4565b505050508152602001600182018054610b9f90613ef6565b80601f0160208091040260200160405190810160405280929190818152602001828054610bcb90613ef6565b8015610c185780601f10610bed57610100808354040283529160200191610c18565b820191906000526020600020905b815481529060010190602001808311610bfb57829003601f168201915b50505050508152602001600282018054610c3190613ef6565b80601f0160208091040260200160405190810160405280929190818152602001828054610c5d90613ef6565b8015610caa5780601f10610c7f57610100808354040283529160200191610caa565b820191906000526020600020905b815481529060010190602001808311610c8d57829003601f168201915b505050918352505060038201546001600160a01b0316602080830191909152600490920154604090910152908252600192909201910161086c565b50505050905090565b60015460609060009067ffffffffffffffff811115610d0f57610d0f6134de565b604051908082528060200260200182016040528015610d4257816020015b6060815260200190600190039081610d2d5790505b50905060005b600154811015610e245760018181548110610d6557610d6561403b565b90600052602060002090600502016001018054610d8190613ef6565b80601f0160208091040260200160405190810160405280929190818152602001828054610dad90613ef6565b8015610dfa5780601f10610dcf57610100808354040283529160200191610dfa565b820191906000526020600020905b815481529060010190602001808311610ddd57829003601f168201915b5050505050828281518110610e1157610e1161403b565b6020908102919091010152600101610d48565b50919050565b610e32613316565b6000610e3c613316565b60005b6005548110156111685760058181548110610e5c57610e5c61403b565b600091825260209182902060046005909202010154604051610e8a926001600160a01b039092169101614184565b6040516020818303038152906040528051906020012033604051602001610eb19190614184565b6040516020818303038152906040528051906020012003611160576001925060058181548110610ee357610ee361403b565b90600052602060002090600502016040518060a0016040529081600082018054610f0c90613ef6565b80601f0160208091040260200160405190810160405280929190818152602001828054610f3890613ef6565b8015610f855780601f10610f5a57610100808354040283529160200191610f85565b820191906000526020600020905b815481529060010190602001808311610f6857829003601f168201915b50505050508152602001600182018054610f9e90613ef6565b80601f0160208091040260200160405190810160405280929190818152602001828054610fca90613ef6565b80156110175780601f10610fec57610100808354040283529160200191611017565b820191906000526020600020905b815481529060010190602001808311610ffa57829003601f168201915b5050505050815260200160028201805461103090613ef6565b80601f016020809104026020016040519081016040528092919081815260200182805461105c90613ef6565b80156110a95780601f1061107e576101008083540402835291602001916110a9565b820191906000526020600020905b81548152906001019060200180831161108c57829003601f168201915b505050505081526020016003820180546110c290613ef6565b80601f01602080910402602001604051908101604052809291908181526020018280546110ee90613ef6565b801561113b5780601f106111105761010080835404028352916020019161113b565b820191906000526020600020905b81548152906001019060200180831161111e57829003601f168201915b5050509183525050600491909101546001600160a01b03166020909101529150611168565b600101610e3f565b50816111b65760405162461bcd60e51b815260206004820152601860248201527f417574686f7269747920646f65736e27742065786973742100000000000000006044820152606401610724565b836040516020016111c791906141f9565b6040516020818303038152906040528051906020012081604001516040516020016111f291906141f9565b60405160208183030381529060405280519060200120146112555760405162461bcd60e51b815260206004820181905260248201527f57726f6e672070617373776f72642c506c656173652054727920416761696e216044820152606401610724565b9392505050565b60606003805480602002602001604051908101604052809291908181526020016000905b82821015610ce557838290600052602060002090600502016040518060a00160405290816000820180546112b390613ef6565b80601f01602080910402602001604051908101604052809291908181526020018280546112df90613ef6565b801561132c5780601f106113015761010080835404028352916020019161132c565b820191906000526020600020905b81548152906001019060200180831161130f57829003601f168201915b5050505050815260200160018201805461134590613ef6565b80601f016020809104026020016040519081016040528092919081815260200182805461137190613ef6565b80156113be5780601f10611393576101008083540402835291602001916113be565b820191906000526020600020905b8154815290600101906020018083116113a157829003601f168201915b505050505081526020016002820180546113d790613ef6565b80601f016020809104026020016040519081016040528092919081815260200182805461140390613ef6565b80156114505780601f1061142557610100808354040283529160200191611450565b820191906000526020600020905b81548152906001019060200180831161143357829003601f168201915b5050505050815260200160038201805461146990613ef6565b80601f016020809104026020016040519081016040528092919081815260200182805461149590613ef6565b80156114e25780601f106114b7576101008083540402835291602001916114e2565b820191906000526020600020905b8154815290600101906020018083116114c557829003601f168201915b5050509183525050600491909101546001600160a01b03166020918201529082526001929092019101611280565b611518613316565b6000611522613316565b60005b60035481101561184e57600381815481106115425761154261403b565b600091825260209182902060046005909202010154604051611570926001600160a01b039092169101614184565b60405160208183030381529060405280519060200120336040516020016115979190614184565b60405160208183030381529060405280519060200120036118465760019250600381815481106115c9576115c961403b565b90600052602060002090600502016040518060a00160405290816000820180546115f290613ef6565b80601f016020809104026020016040519081016040528092919081815260200182805461161e90613ef6565b801561166b5780601f106116405761010080835404028352916020019161166b565b820191906000526020600020905b81548152906001019060200180831161164e57829003601f168201915b5050505050815260200160018201805461168490613ef6565b80601f01602080910402602001604051908101604052809291908181526020018280546116b090613ef6565b80156116fd5780601f106116d2576101008083540402835291602001916116fd565b820191906000526020600020905b8154815290600101906020018083116116e057829003601f168201915b5050505050815260200160028201805461171690613ef6565b80601f016020809104026020016040519081016040528092919081815260200182805461174290613ef6565b801561178f5780601f106117645761010080835404028352916020019161178f565b820191906000526020600020905b81548152906001019060200180831161177257829003601f168201915b505050505081526020016003820180546117a890613ef6565b80601f01602080910402602001604051908101604052809291908181526020018280546117d490613ef6565b80156118215780601f106117f657610100808354040283529160200191611821565b820191906000526020600020905b81548152906001019060200180831161180457829003601f168201915b5050509183525050600491909101546001600160a01b0316602090910152915061184e565b600101611525565b50816111b65760405162461bcd60e51b815260206004820152601760248201527f437573746f6d657220646f65736e2774206578697374210000000000000000006044820152606401610724565b600160005b60055481101561193f57600581815481106118be576118be61403b565b6000918252602091829020600460059092020101546040516118ec926001600160a01b039092169101614184565b60405160208183030381529060405280519060200120336040516020016119139190614184565b6040516020818303038152906040528051906020012003611937576000915061193f565b6001016118a1565b50806119885760405162461bcd60e51b8152602060048201526018602482015277417574686f7269747920616c72656164792065786973742160401b6044820152606401610724565b6040805160a0810182528681526020810186905290810184905260608101839052336080820152600580546001810182556000829052825191027f036b6384b5eca791c62761152d0c79bb0604c104a5fb6f4eb0703f3154bb3db0019081906119f19082613f7b565b5060208201516001820190611a069082613f7b565b5060408201516002820190611a1b9082613f7b565b5060608201516003820190611a309082613f7b565b5060809190910151600490910180546001600160a01b0319166001600160a01b039092169190911790556040517fc5818d9d7df1d0bdb4144d2e0d9ca09a1d5b05dbaea4477c8e49131d5b6623ad906108399087908790879087906141a1565b33604051602001611aa19190614184565b60408051601f1981840301815282825280516020918201203360009081526006835292909220600401549192611ae1926001600160a01b03169101614184565b6040516020818303038152906040528051906020012003611b3f5760405162461bcd60e51b8152602060048201526018602482015277417574686f7269747920616c72656164792065786973742160401b6044820152606401610724565b6040805160a0810182528581526020808201869052818301859052606082018490523360808301819052600090815260069091529190912081518190611b859082613f7b565b5060208201516001820190611b9a9082613f7b565b5060408201516002820190611baf9082613f7b565b5060608201516003820190611bc49082613f7b565b5060809190910151600490910180546001600160a01b0319166001600160a01b039092169190911790556040517f14910ef2263f83cc85289fa1244f2f612575d7ee261d2f3b223a0943f05a0b1490611c249086908690869086906141a1565b60405180910390a150505050565b60005b600154811015611e4c5782604051602001611c5091906141f9565b6040516020818303038152906040528051906020012060018281548110611c7957611c7961403b565b9060005260206000209060050201600101604051602001611c9a9190614215565b6040516020818303038152906040528051906020012003611e445760005b60018281548110611ccb57611ccb61403b565b6000918252602090912060059091020154811015611e425784604051602001611cf491906141f9565b6040516020818303038152906040528051906020012060018381548110611d1d57611d1d61403b565b90600052602060002090600502016000018281548110611d3f57611d3f61403b565b9060005260206000209060080201600101604051602001611d609190614215565b6040516020818303038152906040528051906020012003611e3a57600260018381548110611d9057611d9061403b565b90600052602060002090600502016000018281548110611db257611db261403b565b60009182526020909120600890910201805460ff19166001836002811115611ddc57611ddc613788565b02179055508260018381548110611df557611df561403b565b90600052602060002090600502016000018281548110611e1757611e1761403b565b90600052602060002090600802016007019081611e349190613f7b565b50611e42565b600101611cb8565b505b600101611c35565b506040517f74cd5e7dfebb0156a786c55b52978ae798c1c2003fdd43701e11ea011d8c56cf90600090a1505050565b611eb66040518060a001604052806060815260200160608152602001606081526020016060815260200160006001600160a01b031681525090565b33604051602001611ec79190614184565b60408051601f1981840301815282825280516020918201203360009081526006835292909220600401549192611f07926001600160a01b03169101614184565b6040516020818303038152906040528051906020012014611f5f5760405162461bcd60e51b8152602060048201526012602482015271436f7572696572204e6f742065786973742160701b6044820152606401610724565b81604051602001611f7091906141f9565b60408051601f19818403018152828252805160209182012033600090815260068352929092209192611fa6926002019101614215565b60405160208183030381529060405280519060200120146120095760405162461bcd60e51b815260206004820181905260248201527f57726f6e672070617373776f72642c506c656173652054727920416761696e216044820152606401610724565b3360009081526006602052604090819020815160a0810190925280548290829061203290613ef6565b80601f016020809104026020016040519081016040528092919081815260200182805461205e90613ef6565b80156120ab5780601f10612080576101008083540402835291602001916120ab565b820191906000526020600020905b81548152906001019060200180831161208e57829003601f168201915b505050505081526020016001820180546120c490613ef6565b80601f01602080910402602001604051908101604052809291908181526020018280546120f090613ef6565b801561213d5780601f106121125761010080835404028352916020019161213d565b820191906000526020600020905b81548152906001019060200180831161212057829003601f168201915b5050505050815260200160028201805461215690613ef6565b80601f016020809104026020016040519081016040528092919081815260200182805461218290613ef6565b80156121cf5780601f106121a4576101008083540402835291602001916121cf565b820191906000526020600020905b8154815290600101906020018083116121b257829003601f168201915b505050505081526020016003820180546121e890613ef6565b80601f016020809104026020016040519081016040528092919081815260200182805461221490613ef6565b80156122615780601f1061223657610100808354040283529160200191612261565b820191906000526020600020905b81548152906001019060200180831161224457829003601f168201915b5050509183525050600491909101546001600160a01b031660209091015292915050565b60606004805480602002602001604051908101604052809291908181526020016000905b82821015610ce557838290600052602060002090600502016040518060a00160405290816000820180546122dc90613ef6565b80601f016020809104026020016040519081016040528092919081815260200182805461230890613ef6565b80156123555780601f1061232a57610100808354040283529160200191612355565b820191906000526020600020905b81548152906001019060200180831161233857829003601f168201915b5050505050815260200160018201805461236e90613ef6565b80601f016020809104026020016040519081016040528092919081815260200182805461239a90613ef6565b80156123e75780601f106123bc576101008083540402835291602001916123e7565b820191906000526020600020905b8154815290600101906020018083116123ca57829003601f168201915b5050505050815260200160028201805461240090613ef6565b80601f016020809104026020016040519081016040528092919081815260200182805461242c90613ef6565b80156124795780601f1061244e57610100808354040283529160200191612479565b820191906000526020600020905b81548152906001019060200180831161245c57829003601f168201915b5050505050815260200160038201805461249290613ef6565b80601f01602080910402602001604051908101604052809291908181526020018280546124be90613ef6565b801561250b5780601f106124e05761010080835404028352916020019161250b565b820191906000526020600020905b8154815290600101906020018083116124ee57829003601f168201915b5050509183525050600491909101546001600160a01b031660209182015290825260019290920191016122a9565b60005b600154811015612752578260405160200161255791906141f9565b60405160208183030381529060405280519060200120600182815481106125805761258061403b565b90600052602060002090600502016001016040516020016125a19190614215565b604051602081830303815290604052805190602001200361274a5760005b600182815481106125d2576125d261403b565b600091825260209091206005909102015481101561274857846040516020016125fb91906141f9565b60405160208183030381529060405280519060200120600183815481106126245761262461403b565b906000526020600020906005020160000182815481106126465761264661403b565b90600052602060002090600802016001016040516020016126679190614215565b60405160208183030381529060405280519060200120036127405760018083815481106126965761269661403b565b906000526020600020906005020160000182815481106126b8576126b861403b565b60009182526020909120600890910201805460ff191660018360028111156126e2576126e2613788565b021790555082600183815481106126fb576126fb61403b565b9060005260206000209060050201600001828154811061271d5761271d61403b565b9060005260206000209060080201600601908161273a9190613f7b565b50612748565b6001016125bf565b505b60010161253c565b506040517f1e42b37ca27154dd8a086c1eebd42531ad87a2a5d1c3cd991b385bb7a02c8abe90600090a1505050565b60005b60045481101561063b57816001600160a01b0316600482815481106127ab576127ab61403b565b60009182526020909120600460059092020101546001600160a01b03160361294257805b6004546127de90600190614067565b8110156128a55760046127f2826001614080565b815481106128025761280261403b565b9060005260206000209060050201600482815481106128235761282361403b565b600091825260209091206005909102018061283e8382614093565b5060018181019061285190840182614093565b5060028181019061286490840182614093565b5060038181019061287790840182614093565b50600491820154910180546001600160a01b0319166001600160a01b039092169190911790556001016127cf565b5060048054806128b7576128b761416e565b600082815260208120600019909201916005830201906128d782826132d9565b6128e56001830160006132d9565b6128f36002830160006132d9565b6129016003830160006132d9565b5060040180546001600160a01b031916905590556040517fa0a3abb941db31e9b7a4bf5830ba0940f2556e20c9edfc788d21119091c45b5790600090a15050565b600101612784565b81341461298a5760405162461bcd60e51b815260206004820152600e60248201526d14185e5b595b9d0819985a5b195960921b6044820152606401610724565b3360009081526020819052604090206002016129a68482613f7b565b503360008181526020819052604090206003810180546001600160a01b031916909217909155600481018390556001016129e08282613f7b565b5060005b8451811015612b49573360009081526020819052604090208551869083908110612a1057612a1061403b565b60209081029190910181015182546001818101855560009485529290932081516008909402018054919390929091839160ff1990911690836002811115612a5957612a59613788565b021790555060208201516001820190612a729082613f7b565b5060408201516002820190612a879082613f7b565b5060608201516003820180546001600160a01b0319166001600160a01b039092169190911790556080820151600482015560a0820151600582015560c08201516006820190612ad69082613f7b565b5060e08201516007820190612aeb9082613f7b565b505033600090815260208190526040812080549192509083908110612b1257612b1261403b565b60009182526020909120600890910201805460ff19166001836002811115612b3c57612b3c613788565b02179055506001016129e4565b503360009081526020819052604081206001805480820182559252805490916005027fb10e2d527612073b26eecdfd717e6a320cf44b4afac2b0732d9fcbe2b7fa0cf60190612b9b908290849061334e565b50600181810190612bae90840182614093565b50600281810190612bc190840182614093565b5060038281015490820180546001600160a01b0319166001600160a01b0390921691909117905560049182015491015560005b8451811015612c7957848181518110612c0f57612c0f61403b565b6020026020010151606001516001600160a01b03166108fc868381518110612c3957612c3961403b565b6020026020010151608001519081150290604051600060405180830381858888f19350505050158015612c70573d6000803e3d6000fd5b50600101612bf4565b506040517f7bab8ad11f8ad37ca148565c8640766d077c4ce878bcbfab5cfc8f5c01721d1e90600090a150505050565b612cb1613316565b6000612cbb613316565b60005b60045481101561184e5760048181548110612cdb57612cdb61403b565b600091825260209182902060046005909202010154604051612d09926001600160a01b039092169101614184565b6040516020818303038152906040528051906020012033604051602001612d309190614184565b6040516020818303038152906040528051906020012003612d625760019250600481815481106115c9576115c961403b565b600101612cbe565b600160005b600354811015612e0d5760038181548110612d8c57612d8c61403b565b600091825260209182902060046005909202010154604051612dba926001600160a01b039092169101614184565b6040516020818303038152906040528051906020012033604051602001612de19190614184565b6040516020818303038152906040528051906020012003612e055760009150612e0d565b600101612d6f565b5080612e5b5760405162461bcd60e51b815260206004820152601760248201527f637573746f6d657220616c7265616479206578697374210000000000000000006044820152606401610724565b6040805160a081018252868152602081018690529081018490526060810183905233608082015260038054600181018255600091909152815160059091027fc2575a0e9e593c00f959f8c92f12db2869c3395a3b0502d05e2516446f71f85b01908190612ec89082613f7b565b5060208201516001820190612edd9082613f7b565b5060408201516002820190612ef29082613f7b565b5060608201516003820190612f079082613f7b565b5060809190910151600490910180546001600160a01b0319166001600160a01b039092169190911790556040517f1b4cea3558a9e0c9f742c904e361522d01633b394adf89f8b91d8a50df89117a906108399087908790879087906141a1565b612fb860405180610100016040528060006001600160a01b03168152602001606081526020016000815260200160608152602001606081526020016000815260200160608152602001606081525090565b336000908152600260209081526040918290208251610100810190935280546001600160a01b031683526001810180549192840191612ff690613ef6565b80601f016020809104026020016040519081016040528092919081815260200182805461302290613ef6565b801561306f5780601f106130445761010080835404028352916020019161306f565b820191906000526020600020905b81548152906001019060200180831161305257829003601f168201915b505050505081526020016002820154815260200160038201805461309290613ef6565b80601f01602080910402602001604051908101604052809291908181526020018280546130be90613ef6565b801561310b5780601f106130e05761010080835404028352916020019161310b565b820191906000526020600020905b8154815290600101906020018083116130ee57829003601f168201915b5050505050815260200160048201805461312490613ef6565b80601f016020809104026020016040519081016040528092919081815260200182805461315090613ef6565b801561319d5780601f106131725761010080835404028352916020019161319d565b820191906000526020600020905b81548152906001019060200180831161318057829003601f168201915b50505050508152602001600582015481526020016006820180546131c090613ef6565b80601f01602080910402602001604051908101604052809291908181526020018280546131ec90613ef6565b80156132395780601f1061320e57610100808354040283529160200191613239565b820191906000526020600020905b81548152906001019060200180831161321c57829003601f168201915b5050505050815260200160078201805461325290613ef6565b80601f016020809104026020016040519081016040528092919081815260200182805461327e90613ef6565b80156132cb5780601f106132a0576101008083540402835291602001916132cb565b820191906000526020600020905b8154815290600101906020018083116132ae57829003601f168201915b505050505081525050905090565b5080546132e590613ef6565b6000825580601f106132f5575050565b601f0160209004906000526020600020908101906133139190613455565b50565b6040518060a001604052806060815260200160608152602001606081526020016060815260200160006001600160a01b031681525090565b8280548282559060005260206000209060080281019282156134455760005260206000209160080282015b8281111561344557825482548491849160ff90911690829060ff191660018360028111156133a9576133a9613788565b02179055506001818101906133c090840182614093565b506002818101906133d390840182614093565b5060038281015490820180546001600160a01b0319166001600160a01b03909216919091179055600480830154908201556005808301549082015560068082019061342090840182614093565b5060078181019061343390840182614093565b50505091600801919060080190613379565b5061345192915061346a565b5090565b5b808211156134515760008155600101613456565b8082111561345157805460ff19168155600061348960018301826132d9565b6134976002830160006132d9565b6003820180546001600160a01b0319169055600060048301819055600583018190556134c79060068401906132d9565b6134d56007830160006132d9565b5060080161346a565b634e487b7160e01b600052604160045260246000fd5b604051610100810167ffffffffffffffff81118282101715613518576135186134de565b60405290565b604051601f8201601f1916810167ffffffffffffffff81118282101715613547576135476134de565b604052919050565b600082601f83011261356057600080fd5b813567ffffffffffffffff81111561357a5761357a6134de565b61358d601f8201601f191660200161351e565b8181528460208386010111156135a257600080fd5b816020850160208301376000918101602001919091529392505050565b600080600080600080600060e0888a0312156135da57600080fd5b873567ffffffffffffffff808211156135f257600080fd5b6135fe8b838c0161354f565b985060208a0135975060408a013591508082111561361b57600080fd5b6136278b838c0161354f565b965060608a013591508082111561363d57600080fd5b6136498b838c0161354f565b955060808a0135945060a08a013591508082111561366657600080fd5b6136728b838c0161354f565b935060c08a013591508082111561368857600080fd5b506136958a828b0161354f565b91505092959891949750929550565b80356001600160a01b03811681146136bb57600080fd5b919050565b6000602082840312156136d257600080fd5b611255826136a4565b600080600080608085870312156136f157600080fd5b843567ffffffffffffffff8082111561370957600080fd5b6137158883890161354f565b9550602087013591508082111561372b57600080fd5b6137378883890161354f565b9450604087013591508082111561374d57600080fd5b6137598883890161354f565b9350606087013591508082111561376f57600080fd5b5061377c8782880161354f565b91505092959194509250565b634e487b7160e01b600052602160045260246000fd5b600381106137bc57634e487b7160e01b600052602160045260246000fd5b9052565b60005b838110156137db5781810151838201526020016137c3565b50506000910152565b600081518084526137fc8160208601602086016137c0565b601f01601f19169290920160200192915050565b60006020808301818452808551808352604092508286019150828160051b87010184880160005b838110156139a357603f198984030185528151805160a0808652815190860181905260c0600582901b87018101928b01919087019060005b818110156139365760bf19898603018352835161388d86825161379e565b8d8101516101008f8801526138a66101008801826137e4565b90508d8201518782038f8901526138bd82826137e4565b91505060608201516138da60608901826001600160a01b03169052565b506080820151608088015260a082015160a088015260c082015187820360c089015261390682826137e4565b91505060e0820151915086810360e088015261392281836137e4565b96505050928c0192918c019160010161386f565b50505050888201518582038a87015261394f82826137e4565b915050878201518582038987015261396782826137e4565b915050606082015161398460608701826001600160a01b03169052565b5060809182015194909101939093529386019390860190600101613837565b509098975050505050505050565b600060208083016020845280855180835260408601915060408160051b87010192506020870160005b82811015613a0857603f198886030184526139f68583516137e4565b945092850192908501906001016139da565b5092979650505050505050565b600060208284031215613a2757600080fd5b813567ffffffffffffffff811115613a3e57600080fd5b613a4a8482850161354f565b949350505050565b6000815160a08452613a6760a08501826137e4565b905060208301518482036020860152613a8082826137e4565b91505060408301518482036040860152613a9a82826137e4565b91505060608301518482036060860152613ab482826137e4565b6080948501516001600160a01b03169590940194909452509092915050565b6020815260006112556020830184613a52565b600060208083016020845280855180835260408601915060408160051b87010192506020870160005b82811015613a0857603f19888603018452613b2b858351613a52565b94509285019290850190600101613b0f565b600080600060608486031215613b5257600080fd5b833567ffffffffffffffff80821115613b6a57600080fd5b613b768783880161354f565b94506020860135915080821115613b8c57600080fd5b613b988783880161354f565b93506040860135915080821115613bae57600080fd5b50613bbb8682870161354f565b9150509250925092565b600060208083016020845280855180835260408601915060408160051b87010192506020870160005b82811015613a0857603f19888603018452613c0a858351613a52565b94509285019290850190600101613bee565b8035600381106136bb57600080fd5b60008060008060808587031215613c4157600080fd5b67ffffffffffffffff8086351115613c5857600080fd5b8535860187601f820112613c6b57600080fd5b8181351115613c7c57613c7c6134de565b613c8c6020823560051b0161351e565b81358082526020808301929160051b8401018a811115613cab57600080fd5b602084015b81811015613dcc578581351115613cc657600080fd5b80358501610100818e03601f19011215613cdf57600080fd5b613ce76134f4565b613cf360208301613c1c565b81528760408301351115613d0657600080fd5b613d198e6020604085013585010161354f565b60208201528760608301351115613d2f57600080fd5b613d428e6020606085013585010161354f565b6040820152613d53608083016136a4565b606082015260a0820135608082015260c082013560a08201528760e08301351115613d7d57600080fd5b613d908e602060e085013585010161354f565b60c082015261010082013588811115613da857600080fd5b613db78f60208386010161354f565b60e08301525085525060209384019301613cb0565b50508097505050508060208701351115613de557600080fd5b613df5876020880135880161354f565b9350604086013592508060608701351115613e0f57600080fd5b50613e20866060870135870161354f565b905092959194509250565b60208152613e456020820183516001600160a01b03169052565b60006020830151610100806040850152613e636101208501836137e4565b9150604085015160608501526060850151601f1980868503016080870152613e8b84836137e4565b935060808701519150808685030160a0870152613ea884836137e4565b935060a087015160c087015260c08701519150808685030160e0870152613ecf84836137e4565b935060e0870151915080868503018387015250613eec83826137e4565b9695505050505050565b600181811c90821680613f0a57607f821691505b602082108103610e2457634e487b7160e01b600052602260045260246000fd5b601f821115613f76576000816000526020600020601f850160051c81016020861015613f535750805b601f850160051c820191505b81811015613f7257828155600101613f5f565b5050505b505050565b815167ffffffffffffffff811115613f9557613f956134de565b613fa981613fa38454613ef6565b84613f2a565b602080601f831160018114613fde5760008415613fc65750858301515b600019600386901b1c1916600185901b178555613f72565b600085815260208120601f198616915b8281101561400d57888601518255948401946001909101908401613fee565b508582101561402b5787850151600019600388901b60f8161c191681555b5050505050600190811b01905550565b634e487b7160e01b600052603260045260246000fd5b634e487b7160e01b600052601160045260246000fd5b8181038181111561407a5761407a614051565b92915050565b8082018082111561407a5761407a614051565b81810361409e575050565b6140a88254613ef6565b67ffffffffffffffff8111156140c0576140c06134de565b6140ce81613fa38454613ef6565b6000601f82116001811461410257600083156140ea5750848201545b600019600385901b1c1916600184901b178455614167565b600085815260209020601f19841690600086815260209020845b8381101561413c578286015482556001958601959091019060200161411c565b508583101561415a5781850154600019600388901b60f8161c191681555b50505060018360011b0184555b5050505050565b634e487b7160e01b600052603160045260246000fd5b60609190911b6bffffffffffffffffffffffff1916815260140190565b6080815260006141b460808301876137e4565b82810360208401526141c681876137e4565b905082810360408401526141da81866137e4565b905082810360608401526141ee81856137e4565b979650505050505050565b6000825161420b8184602087016137c0565b9190910192915050565b600080835461422381613ef6565b6001828116801561423b57600181146142505761427f565b60ff198416875282151583028701945061427f565b8760005260208060002060005b858110156142765781548a82015290840190820161425d565b50505082870194505b5092969550505050505056fea26469706673582212209ac8fb3254c614bb0bb7879f889faab752426bf5c98481dcf061de62ca3e421d64736f6c63430008180033",
  "linkReferences": {},
  "deployedLinkReferences": {}
}