{
  "_format": "hh-sol-artifact-1",
  "contractName": "UserManager",
  "sourceName": "contracts/UserManager.sol",
  "abi": [
    {
      "anonymous": false,
      "inputs": [
        {
          "indexed": false,
          "internalType": "string",
          "name": "name",
          "type": "string"
        },
        {
          "indexed": false,
          "internalType": "string",
          "name": "email",
          "type": "string"
        },
        {
          "indexed": false,
          "internalType": "string",
          "name": "password",
          "type": "string"
        },
        {
          "indexed": false,
          "internalType": "string",
          "name": "role",
          "type": "string"
        }
      ],
      "name": "createAuthorityEvent",
      "type": "event"
    },
    {
      "anonymous": false,
      "inputs": [
        {
          "indexed": false,
          "internalType": "string",
          "name": "name",
          "type": "string"
        },
        {
          "indexed": false,
          "internalType": "string",
          "name": "email",
          "type": "string"
        },
        {
          "indexed": false,
          "internalType": "string",
          "name": "password",
          "type": "string"
        },
        {
          "indexed": false,
          "internalType": "string",
          "name": "role",
          "type": "string"
        }
      ],
      "name": "createCourierEvent",
      "type": "event"
    },
    {
      "anonymous": false,
      "inputs": [
        {
          "indexed": false,
          "internalType": "string",
          "name": "name",
          "type": "string"
        },
        {
          "indexed": false,
          "internalType": "string",
          "name": "email",
          "type": "string"
        },
        {
          "indexed": false,
          "internalType": "string",
          "name": "password",
          "type": "string"
        },
        {
          "indexed": false,
          "internalType": "string",
          "name": "role",
          "type": "string"
        }
      ],
      "name": "createCustomerEvent",
      "type": "event"
    },
    {
      "anonymous": false,
      "inputs": [
        {
          "indexed": false,
          "internalType": "string",
          "name": "name",
          "type": "string"
        },
        {
          "indexed": false,
          "internalType": "string",
          "name": "email",
          "type": "string"
        },
        {
          "indexed": false,
          "internalType": "string",
          "name": "password",
          "type": "string"
        },
        {
          "indexed": false,
          "internalType": "string",
          "name": "role",
          "type": "string"
        }
      ],
      "name": "createFarmerEvent",
      "type": "event"
    },
    {
      "anonymous": false,
      "inputs": [],
      "name": "orderPickedEvent",
      "type": "event"
    },
    {
      "anonymous": false,
      "inputs": [],
      "name": "orderProductEvent",
      "type": "event"
    },
    {
      "anonymous": false,
      "inputs": [],
      "name": "productDeliveredEvent",
      "type": "event"
    },
    {
      "inputs": [
        {
          "internalType": "string",
          "name": "name",
          "type": "string"
        },
        {
          "internalType": "string",
          "name": "email",
          "type": "string"
        },
        {
          "internalType": "string",
          "name": "password",
          "type": "string"
        },
        {
          "internalType": "string",
          "name": "role",
          "type": "string"
        }
      ],
      "name": "createAuthority",
      "outputs": [],
      "stateMutability": "nonpayable",
      "type": "function"
    },
    {
      "inputs": [
        {
          "internalType": "string",
          "name": "name",
          "type": "string"
        },
        {
          "internalType": "string",
          "name": "email",
          "type": "string"
        },
        {
          "internalType": "string",
          "name": "password",
          "type": "string"
        },
        {
          "internalType": "string",
          "name": "role",
          "type": "string"
        }
      ],
      "name": "createCourier",
      "outputs": [],
      "stateMutability": "nonpayable",
      "type": "function"
    },
    {
      "inputs": [
        {
          "internalType": "string",
          "name": "name",
          "type": "string"
        },
        {
          "internalType": "string",
          "name": "email",
          "type": "string"
        },
        {
          "internalType": "string",
          "name": "password",
          "type": "string"
        },
        {
          "internalType": "string",
          "name": "role",
          "type": "string"
        }
      ],
      "name": "createCustomer",
      "outputs": [],
      "stateMutability": "nonpayable",
      "type": "function"
    },
    {
      "inputs": [
        {
          "internalType": "string",
          "name": "name",
          "type": "string"
        },
        {
          "internalType": "string",
          "name": "email",
          "type": "string"
        },
        {
          "internalType": "string",
          "name": "password",
          "type": "string"
        },
        {
          "internalType": "string",
          "name": "role",
          "type": "string"
        }
      ],
      "name": "createFarmer",
      "outputs": [],
      "stateMutability": "nonpayable",
      "type": "function"
    },
    {
      "inputs": [],
      "name": "getAllOrderIds",
      "outputs": [
        {
          "internalType": "string[]",
          "name": "",
          "type": "string[]"
        }
      ],
      "stateMutability": "view",
      "type": "function"
    },
    {
      "inputs": [
        {
          "internalType": "string",
          "name": "password",
          "type": "string"
        }
      ],
      "name": "getAuthority",
      "outputs": [
        {
          "components": [
            {
              "internalType": "string",
              "name": "name",
              "type": "string"
            },
            {
              "internalType": "string",
              "name": "email",
              "type": "string"
            },
            {
              "internalType": "string",
              "name": "password",
              "type": "string"
            },
            {
              "internalType": "string",
              "name": "role",
              "type": "string"
            },
            {
              "internalType": "address",
              "name": "ETHAddress",
              "type": "address"
            }
          ],
          "internalType": "struct UserManager.Authority",
          "name": "",
          "type": "tuple"
        }
      ],
      "stateMutability": "view",
      "type": "function"
    },
    {
      "inputs": [
        {
          "internalType": "string",
          "name": "password",
          "type": "string"
        }
      ],
      "name": "getCourier",
      "outputs": [
        {
          "components": [
            {
              "internalType": "string",
              "name": "name",
              "type": "string"
            },
            {
              "internalType": "string",
              "name": "email",
              "type": "string"
            },
            {
              "internalType": "string",
              "name": "password",
              "type": "string"
            },
            {
              "internalType": "string",
              "name": "role",
              "type": "string"
            },
            {
              "internalType": "address",
              "name": "ETHAddress",
              "type": "address"
            }
          ],
          "internalType": "struct UserManager.Courier",
          "name": "",
          "type": "tuple"
        }
      ],
      "stateMutability": "view",
      "type": "function"
    },
    {
      "inputs": [
        {
          "internalType": "string",
          "name": "password",
          "type": "string"
        }
      ],
      "name": "getCustomer",
      "outputs": [
        {
          "components": [
            {
              "internalType": "string",
              "name": "name",
              "type": "string"
            },
            {
              "internalType": "string",
              "name": "email",
              "type": "string"
            },
            {
              "internalType": "string",
              "name": "password",
              "type": "string"
            },
            {
              "internalType": "string",
              "name": "role",
              "type": "string"
            },
            {
              "internalType": "address",
              "name": "ETHAddress",
              "type": "address"
            }
          ],
          "internalType": "struct UserManager.Customer",
          "name": "",
          "type": "tuple"
        }
      ],
      "stateMutability": "view",
      "type": "function"
    },
    {
      "inputs": [
        {
          "internalType": "string",
          "name": "password",
          "type": "string"
        }
      ],
      "name": "getFarmer",
      "outputs": [
        {
          "components": [
            {
              "internalType": "string",
              "name": "name",
              "type": "string"
            },
            {
              "internalType": "string",
              "name": "email",
              "type": "string"
            },
            {
              "internalType": "string",
              "name": "password",
              "type": "string"
            },
            {
              "internalType": "string",
              "name": "role",
              "type": "string"
            },
            {
              "internalType": "address",
              "name": "ETHAddress",
              "type": "address"
            }
          ],
          "internalType": "struct UserManager.Farmer",
          "name": "",
          "type": "tuple"
        }
      ],
      "stateMutability": "view",
      "type": "function"
    },
    {
      "inputs": [],
      "name": "getOrders",
      "outputs": [
        {
          "components": [
            {
              "components": [
                {
                  "internalType": "enum PaymentContract.OrderStatus",
                  "name": "status",
                  "type": "uint8"
                },
                {
                  "internalType": "string",
                  "name": "productId",
                  "type": "string"
                },
                {
                  "internalType": "string",
                  "name": "productName",
                  "type": "string"
                },
                {
                  "internalType": "address",
                  "name": "farmer",
                  "type": "address"
                },
                {
                  "internalType": "address",
                  "name": "customer",
                  "type": "address"
                },
                {
                  "internalType": "uint256",
                  "name": "totalPrice",
                  "type": "uint256"
                },
                {
                  "internalType": "uint256",
                  "name": "totalQuantity",
                  "type": "uint256"
                },
                {
                  "internalType": "string",
                  "name": "timeofOrdered",
                  "type": "string"
                },
                {
                  "internalType": "string",
                  "name": "timeofPicked",
                  "type": "string"
                },
                {
                  "internalType": "string",
                  "name": "timeofDelivered",
                  "type": "string"
                }
              ],
              "internalType": "struct PaymentContract.Item[]",
              "name": "items",
              "type": "tuple[]"
            },
            {
              "internalType": "string",
              "name": "orderId",
              "type": "string"
            },
            {
              "internalType": "uint256",
              "name": "totalPrice",
              "type": "uint256"
            },
            {
              "internalType": "address",
              "name": "customer",
              "type": "address"
            },
            {
              "internalType": "address",
              "name": "courier",
              "type": "address"
            }
          ],
          "internalType": "struct PaymentContract.Order[]",
          "name": "",
          "type": "tuple[]"
        }
      ],
      "stateMutability": "view",
      "type": "function"
    },
    {
      "inputs": [
        {
          "internalType": "string",
          "name": "pid",
          "type": "string"
        },
        {
          "internalType": "string",
          "name": "oid",
          "type": "string"
        },
        {
          "internalType": "string",
          "name": "time",
          "type": "string"
        }
      ],
      "name": "orderPicked",
      "outputs": [],
      "stateMutability": "nonpayable",
      "type": "function"
    },
    {
      "inputs": [
        {
          "internalType": "string",
          "name": "pid",
          "type": "string"
        },
        {
          "internalType": "string",
          "name": "oid",
          "type": "string"
        },
        {
          "internalType": "string",
          "name": "time",
          "type": "string"
        }
      ],
      "name": "productDelivered",
      "outputs": [],
      "stateMutability": "nonpayable",
      "type": "function"
    }
  ],
  "bytecode": "0x608060405234801561001057600080fd5b50612363806100206000396000f3fe608060405234801561001057600080fd5b50600436106100b45760003560e01c80635e94d720116100715780635e94d720146101475780635f6f80cc1461015a57806384bdfcd71461016d5780638ba407f914610180578063b151494214610193578063b51ca0af146101a657600080fd5b8063200d6de7146100b95780632e2dc43e146100ce5780634b2b612a146100ec5780635087e66814610101578063518bddd9146101215780635baef56d14610134575b600080fd5b6100cc6100c7366004611bc2565b6101b9565b005b6100d661035d565b6040516100e39190611cf7565b60405180910390f35b6100f461081f565b6040516100e39190611ed2565b61011461010f366004611f36565b61095a565b6040516100e39190611ff4565b61011461012f366004611f36565b610d36565b6100cc610142366004611bc2565b610ebe565b6100cc610155366004611bc2565b611052565b6100cc61016836600461200e565b6111e6565b61011461017b366004611f36565b61142f565b6100cc61018e36600461200e565b6115b6565b6101146101a1366004611f36565b6117ff565b6100cc6101b4366004611bc2565b611986565b336040516020016101ca9190612096565b60408051601f198184030181528282528051602091820120336000908152600283529290922060040154919261020a926001600160a01b03169101612096565b604051602081830303815290604052805190602001200361026a5760405162461bcd60e51b81526020600482015260156024820152744661726d657220616c72656164792065786973742160581b60448201526064015b60405180910390fd5b6040805160a08101825285815260208082018690528183018590526060820184905233608083018190526000908152600290915291909120815181906102b09082612138565b50602082015160018201906102c59082612138565b50604082015160028201906102da9082612138565b50606082015160038201906102ef9082612138565b5060809190910151600490910180546001600160a01b0319166001600160a01b039092169190911790556040517f5c47ff0a569e587692da604d2bf92787dd7f006684698dbd8c59539be7e35a749061034f9086908690869086906121f8565b60405180910390a150505050565b60606000805480602002602001604051908101604052809291908181526020016000905b8282101561081657838290600052602060002090600502016040518060a001604052908160008201805480602002602001604051908101604052809291908181526020016000905b8282101561073b57600084815260209020604080516101408101909152600a84029091018054829060ff16600281111561040557610405611c6f565b600281111561041657610416611c6f565b815260200160018201805461042a906120b3565b80601f0160208091040260200160405190810160405280929190818152602001828054610456906120b3565b80156104a35780601f10610478576101008083540402835291602001916104a3565b820191906000526020600020905b81548152906001019060200180831161048657829003601f168201915b505050505081526020016002820180546104bc906120b3565b80601f01602080910402602001604051908101604052809291908181526020018280546104e8906120b3565b80156105355780601f1061050a57610100808354040283529160200191610535565b820191906000526020600020905b81548152906001019060200180831161051857829003601f168201915b505050918352505060038201546001600160a01b0390811660208301526004830154166040820152600582015460608201526006820154608082015260078201805460a090920191610586906120b3565b80601f01602080910402602001604051908101604052809291908181526020018280546105b2906120b3565b80156105ff5780601f106105d4576101008083540402835291602001916105ff565b820191906000526020600020905b8154815290600101906020018083116105e257829003601f168201915b50505050508152602001600882018054610618906120b3565b80601f0160208091040260200160405190810160405280929190818152602001828054610644906120b3565b80156106915780601f1061066657610100808354040283529160200191610691565b820191906000526020600020905b81548152906001019060200180831161067457829003601f168201915b505050505081526020016009820180546106aa906120b3565b80601f01602080910402602001604051908101604052809291908181526020018280546106d6906120b3565b80156107235780601f106106f857610100808354040283529160200191610723565b820191906000526020600020905b81548152906001019060200180831161070657829003601f168201915b505050505081525050815260200190600101906103c9565b505050508152602001600182018054610753906120b3565b80601f016020809104026020016040519081016040528092919081815260200182805461077f906120b3565b80156107cc5780601f106107a1576101008083540402835291602001916107cc565b820191906000526020600020905b8154815290600101906020018083116107af57829003601f168201915b5050509183525050600282015460208083019190915260038301546001600160a01b0390811660408401526004909301549092166060909101529082526001929092019101610381565b50505050905090565b600080546060919067ffffffffffffffff81111561083f5761083f611b1f565b60405190808252806020026020018201604052801561087257816020015b606081526020019060019003908161085d5790505b50905060005b600054811015610954576000818154811061089557610895612250565b906000526020600020906005020160010180546108b1906120b3565b80601f01602080910402602001604051908101604052809291908181526020018280546108dd906120b3565b801561092a5780601f106108ff5761010080835404028352916020019161092a565b820191906000526020600020905b81548152906001019060200180831161090d57829003601f168201915b505050505082828151811061094157610941612250565b6020908102919091010152600101610878565b50919050565b6109956040518060a001604052806060815260200160608152602001606081526020016060815260200160006001600160a01b031681525090565b336040516020016109a69190612096565b60408051601f19818403018152828252805160209182012033600090815260038352929092206004015491926109e6926001600160a01b03169101612096565b6040516020818303038152906040528051906020012014610a405760405162461bcd60e51b8152602060048201526014602482015273417574686f72697479204e6f742065786973742160601b6044820152606401610261565b81604051602001610a519190612266565b60408051601f19818403018152828252805160209182012033600090815260038352929092209192610a87926002019101612282565b6040516020818303038152906040528051906020012014610aba5760405162461bcd60e51b8152600401610261906122f8565b3360009081526003602052604090819020815160a08101909252805482908290610ae3906120b3565b80601f0160208091040260200160405190810160405280929190818152602001828054610b0f906120b3565b8015610b5c5780601f10610b3157610100808354040283529160200191610b5c565b820191906000526020600020905b815481529060010190602001808311610b3f57829003601f168201915b50505050508152602001600182018054610b75906120b3565b80601f0160208091040260200160405190810160405280929190818152602001828054610ba1906120b3565b8015610bee5780601f10610bc357610100808354040283529160200191610bee565b820191906000526020600020905b815481529060010190602001808311610bd157829003601f168201915b50505050508152602001600282018054610c07906120b3565b80601f0160208091040260200160405190810160405280929190818152602001828054610c33906120b3565b8015610c805780601f10610c5557610100808354040283529160200191610c80565b820191906000526020600020905b815481529060010190602001808311610c6357829003601f168201915b50505050508152602001600382018054610c99906120b3565b80601f0160208091040260200160405190810160405280929190818152602001828054610cc5906120b3565b8015610d125780601f10610ce757610100808354040283529160200191610d12565b820191906000526020600020905b815481529060010190602001808311610cf557829003601f168201915b5050509183525050600491909101546001600160a01b031660209091015292915050565b610d716040518060a001604052806060815260200160608152602001606081526020016060815260200160006001600160a01b031681525090565b33604051602001610d829190612096565b60408051601f1981840301815282825280516020918201203360009081526001835292909220600401549192610dc2926001600160a01b03169101612096565b6040516020818303038152906040528051906020012014610e1b5760405162461bcd60e51b8152602060048201526013602482015272437573746f6d6572204e6f742065786973742160681b6044820152606401610261565b81604051602001610e2c9190612266565b60408051601f19818403018152828252805160209182012033600090815260018352929092209192610e62926002019101612282565b6040516020818303038152906040528051906020012014610e955760405162461bcd60e51b8152600401610261906122f8565b3360009081526001602052604090819020815160a08101909252805482908290610ae3906120b3565b33604051602001610ecf9190612096565b60408051601f1981840301815282825280516020918201203360009081526003835292909220600401549192610f0f926001600160a01b03169101612096565b6040516020818303038152906040528051906020012003610f6d5760405162461bcd60e51b8152602060048201526018602482015277417574686f7269747920616c72656164792065786973742160401b6044820152606401610261565b6040805160a0810182528581526020808201869052818301859052606082018490523360808301819052600090815260039091529190912081518190610fb39082612138565b5060208201516001820190610fc89082612138565b5060408201516002820190610fdd9082612138565b5060608201516003820190610ff29082612138565b5060809190910151600490910180546001600160a01b0319166001600160a01b039092169190911790556040517fc5818d9d7df1d0bdb4144d2e0d9ca09a1d5b05dbaea4477c8e49131d5b6623ad9061034f9086908690869086906121f8565b336040516020016110639190612096565b60408051601f19818403018152828252805160209182012033600090815260048084529390209092015491926110a3926001600160a01b03169101612096565b60405160208183030381529060405280519060200120036111015760405162461bcd60e51b8152602060048201526018602482015277417574686f7269747920616c72656164792065786973742160401b6044820152606401610261565b6040805160a08101825285815260208082018690528183018590526060820184905233608083018190526000908152600490915291909120815181906111479082612138565b506020820151600182019061115c9082612138565b50604082015160028201906111719082612138565b50606082015160038201906111869082612138565b5060809190910151600490910180546001600160a01b0319166001600160a01b039092169190911790556040517f14910ef2263f83cc85289fa1244f2f612575d7ee261d2f3b223a0943f05a0b149061034f9086908690869086906121f8565b60005b60005481101561140057826040516020016112049190612266565b604051602081830303815290604052805190602001206000828154811061122d5761122d612250565b906000526020600020906005020160010160405160200161124e9190612282565b60405160208183030381529060405280519060200120036113f85760005b6000828154811061127f5761127f612250565b60009182526020909120600590910201548110156113f657846040516020016112a89190612266565b60405160208183030381529060405280519060200120600083815481106112d1576112d1612250565b906000526020600020906005020160000182815481106112f3576112f3612250565b90600052602060002090600a02016001016040516020016113149190612282565b60405160208183030381529060405280519060200120036113ee5760026000838154811061134457611344612250565b9060005260206000209060050201600001828154811061136657611366612250565b60009182526020909120600a90910201805460ff1916600183600281111561139057611390611c6f565b021790555082600083815481106113a9576113a9612250565b906000526020600020906005020160000182815481106113cb576113cb612250565b90600052602060002090600a020160080190816113e89190612138565b506113f6565b60010161126c565b505b6001016111e9565b506040517f74cd5e7dfebb0156a786c55b52978ae798c1c2003fdd43701e11ea011d8c56cf90600090a1505050565b61146a6040518060a001604052806060815260200160608152602001606081526020016060815260200160006001600160a01b031681525090565b3360405160200161147b9190612096565b60408051601f19818403018152828252805160209182012033600090815260048084529390209092015491926114bb926001600160a01b03169101612096565b60405160208183030381529060405280519060200120146115135760405162461bcd60e51b8152602060048201526012602482015271436f7572696572204e6f742065786973742160701b6044820152606401610261565b816040516020016115249190612266565b60408051601f1981840301815282825280516020918201203360009081526004835292909220919261155a926002019101612282565b604051602081830303815290604052805190602001201461158d5760405162461bcd60e51b8152600401610261906122f8565b3360009081526004602052604090819020815160a08101909252805482908290610ae3906120b3565b60005b6000548110156117d057826040516020016115d49190612266565b60405160208183030381529060405280519060200120600082815481106115fd576115fd612250565b906000526020600020906005020160010160405160200161161e9190612282565b60405160208183030381529060405280519060200120036117c85760005b6000828154811061164f5761164f612250565b60009182526020909120600590910201548110156117c657846040516020016116789190612266565b60405160208183030381529060405280519060200120600083815481106116a1576116a1612250565b906000526020600020906005020160000182815481106116c3576116c3612250565b90600052602060002090600a02016001016040516020016116e49190612282565b60405160208183030381529060405280519060200120036117be5760016000838154811061171457611714612250565b9060005260206000209060050201600001828154811061173657611736612250565b60009182526020909120600a90910201805460ff1916600183600281111561176057611760611c6f565b0217905550826000838154811061177957611779612250565b9060005260206000209060050201600001828154811061179b5761179b612250565b90600052602060002090600a020160080190816117b89190612138565b506117c6565b60010161163c565b505b6001016115b9565b506040517f1e42b37ca27154dd8a086c1eebd42531ad87a2a5d1c3cd991b385bb7a02c8abe90600090a1505050565b61183a6040518060a001604052806060815260200160608152602001606081526020016060815260200160006001600160a01b031681525090565b3360405160200161184b9190612096565b60408051601f198184030181528282528051602091820120336000908152600283529290922060040154919261188b926001600160a01b03169101612096565b60405160208183030381529060405280519060200120146118e25760405162461bcd60e51b81526020600482015260116024820152704661726d6572204e6f742065786973742160781b6044820152606401610261565b816040516020016118f39190612266565b60408051601f1981840301815282825280516020918201203360009081526002808452939020909361192a93919091019101612282565b604051602081830303815290604052805190602001201461195d5760405162461bcd60e51b8152600401610261906122f8565b3360009081526002602052604090819020815160a08101909252805482908290610ae3906120b3565b336040516020016119979190612096565b60408051601f19818403018152828252805160209182012033600090815260018352929092206004015491926119d7926001600160a01b03169101612096565b6040516020818303038152906040528051906020012003611a3a5760405162461bcd60e51b815260206004820152601760248201527f437573746f6d657220616c7265616479206578697374210000000000000000006044820152606401610261565b6040805160a0810182528581526020808201869052818301859052606082018490523360808301819052600090815260019091529190912081518190611a809082612138565b5060208201516001820190611a959082612138565b5060408201516002820190611aaa9082612138565b5060608201516003820190611abf9082612138565b5060809190910151600490910180546001600160a01b0319166001600160a01b039092169190911790556040517f1b4cea3558a9e0c9f742c904e361522d01633b394adf89f8b91d8a50df89117a9061034f9086908690869086906121f8565b634e487b7160e01b600052604160045260246000fd5b600082601f830112611b4657600080fd5b813567ffffffffffffffff80821115611b6157611b61611b1f565b604051601f8301601f19908116603f01168101908282118183101715611b8957611b89611b1f565b81604052838152866020858801011115611ba257600080fd5b836020870160208301376000602085830101528094505050505092915050565b60008060008060808587031215611bd857600080fd5b843567ffffffffffffffff80821115611bf057600080fd5b611bfc88838901611b35565b95506020870135915080821115611c1257600080fd5b611c1e88838901611b35565b94506040870135915080821115611c3457600080fd5b611c4088838901611b35565b93506060870135915080821115611c5657600080fd5b50611c6387828801611b35565b91505092959194509250565b634e487b7160e01b600052602160045260246000fd5b60038110611ca357634e487b7160e01b600052602160045260246000fd5b9052565b60005b83811015611cc2578181015183820152602001611caa565b50506000910152565b60008151808452611ce3816020860160208601611ca7565b601f01601f19169290920160200192915050565b60006020808301818452808551808352604092508286019150828160051b87010184880160005b83811015611ec457603f198984030185528151805160a0808652815190860181905260c0600582901b87018101928b01919087019060005b81811015611e565760bf198986030183528351611d74868251611c85565b8d8101516101408f880152611d8d610140880182611ccb565b90508d8201518782038f890152611da48282611ccb565b9150506060820151611dc160608901826001600160a01b03169052565b506080820151611ddc60808901826001600160a01b03169052565b5060a082015160a088015260c082015160c088015260e082015187820360e0890152611e088282611ccb565b91505061010080830151888303828a0152611e238382611ccb565b925050506101208083015192508782038189015250611e428183611ccb565b96505050928c0192918c0191600101611d56565b50505050888201518582038a870152611e6f8282611ccb565b91505087820151888601526060820151611e9460608701826001600160a01b03169052565b5060808201519150611eb160808601836001600160a01b03169052565b9588019593505090860190600101611d1e565b509098975050505050505050565b600060208083016020845280855180835260408601915060408160051b87010192506020870160005b82811015611f2957603f19888603018452611f17858351611ccb565b94509285019290850190600101611efb565b5092979650505050505050565b600060208284031215611f4857600080fd5b813567ffffffffffffffff811115611f5f57600080fd5b611f6b84828501611b35565b949350505050565b6000815160a08452611f8860a0850182611ccb565b905060208301518482036020860152611fa18282611ccb565b91505060408301518482036040860152611fbb8282611ccb565b91505060608301518482036060860152611fd58282611ccb565b6080948501516001600160a01b03169590940194909452509092915050565b6020815260006120076020830184611f73565b9392505050565b60008060006060848603121561202357600080fd5b833567ffffffffffffffff8082111561203b57600080fd5b61204787838801611b35565b9450602086013591508082111561205d57600080fd5b61206987838801611b35565b9350604086013591508082111561207f57600080fd5b5061208c86828701611b35565b9150509250925092565b60609190911b6bffffffffffffffffffffffff1916815260140190565b600181811c908216806120c757607f821691505b60208210810361095457634e487b7160e01b600052602260045260246000fd5b601f821115612133576000816000526020600020601f850160051c810160208610156121105750805b601f850160051c820191505b8181101561212f5782815560010161211c565b5050505b505050565b815167ffffffffffffffff81111561215257612152611b1f565b6121668161216084546120b3565b846120e7565b602080601f83116001811461219b57600084156121835750858301515b600019600386901b1c1916600185901b17855561212f565b600085815260208120601f198616915b828110156121ca578886015182559484019460019091019084016121ab565b50858210156121e85787850151600019600388901b60f8161c191681555b5050505050600190811b01905550565b60808152600061220b6080830187611ccb565b828103602084015261221d8187611ccb565b905082810360408401526122318186611ccb565b905082810360608401526122458185611ccb565b979650505050505050565b634e487b7160e01b600052603260045260246000fd5b60008251612278818460208701611ca7565b9190910192915050565b6000808354612290816120b3565b600182811680156122a857600181146122bd576122ec565b60ff19841687528215158302870194506122ec565b8760005260208060002060005b858110156122e35781548a8201529084019082016122ca565b50505082870194505b50929695505050505050565b6020808252818101527f57726f6e672070617373776f72642c506c656173652054727920416761696e2160408201526060019056fea264697066735822122088150099add49e9b3364ad8283200fbe59b6ebd21a3f55ac244ad3448a3dca6564736f6c63430008180033",
  "linkReferences": {},
  "deployedLinkReferences": {}
}