{
  "_format": "hh-sol-artifact-1",
  "contractName": "UserManager",
  "sourceName": "contracts/UserManager.sol",
  "abi": [
    {
      "anonymous": false,
      "inputs": [],
      "name": "addCartEvent",
      "type": "event"
    },
    {
      "anonymous": false,
      "inputs": [
        {
          "indexed": false,
          "internalType": "string",
          "name": "name",
          "type": "string"
        },
        {
          "indexed": false,
          "internalType": "string",
          "name": "email",
          "type": "string"
        },
        {
          "indexed": false,
          "internalType": "string",
          "name": "password",
          "type": "string"
        },
        {
          "indexed": false,
          "internalType": "string",
          "name": "role",
          "type": "string"
        }
      ],
      "name": "createAuthorityEvent",
      "type": "event"
    },
    {
      "anonymous": false,
      "inputs": [
        {
          "indexed": false,
          "internalType": "string",
          "name": "name",
          "type": "string"
        },
        {
          "indexed": false,
          "internalType": "string",
          "name": "email",
          "type": "string"
        },
        {
          "indexed": false,
          "internalType": "string",
          "name": "password",
          "type": "string"
        },
        {
          "indexed": false,
          "internalType": "string",
          "name": "role",
          "type": "string"
        }
      ],
      "name": "createCustomerEvent",
      "type": "event"
    },
    {
      "anonymous": false,
      "inputs": [
        {
          "indexed": false,
          "internalType": "string",
          "name": "name",
          "type": "string"
        },
        {
          "indexed": false,
          "internalType": "string",
          "name": "email",
          "type": "string"
        },
        {
          "indexed": false,
          "internalType": "string",
          "name": "password",
          "type": "string"
        },
        {
          "indexed": false,
          "internalType": "string",
          "name": "role",
          "type": "string"
        }
      ],
      "name": "createFarmerEvent",
      "type": "event"
    },
    {
      "anonymous": false,
      "inputs": [],
      "name": "removeProductEvent",
      "type": "event"
    },
    {
      "anonymous": false,
      "inputs": [],
      "name": "updateCartEvent",
      "type": "event"
    },
    {
      "inputs": [
        {
          "internalType": "string",
          "name": "id",
          "type": "string"
        },
        {
          "internalType": "uint256",
          "name": "quantity",
          "type": "uint256"
        }
      ],
      "name": "addCart",
      "outputs": [],
      "stateMutability": "nonpayable",
      "type": "function"
    },
    {
      "inputs": [
        {
          "internalType": "string",
          "name": "name",
          "type": "string"
        },
        {
          "internalType": "string",
          "name": "email",
          "type": "string"
        },
        {
          "internalType": "string",
          "name": "password",
          "type": "string"
        },
        {
          "internalType": "string",
          "name": "role",
          "type": "string"
        }
      ],
      "name": "createAuthority",
      "outputs": [],
      "stateMutability": "nonpayable",
      "type": "function"
    },
    {
      "inputs": [
        {
          "internalType": "string",
          "name": "name",
          "type": "string"
        },
        {
          "internalType": "string",
          "name": "email",
          "type": "string"
        },
        {
          "internalType": "string",
          "name": "password",
          "type": "string"
        },
        {
          "internalType": "string",
          "name": "role",
          "type": "string"
        }
      ],
      "name": "createCustomer",
      "outputs": [],
      "stateMutability": "nonpayable",
      "type": "function"
    },
    {
      "inputs": [
        {
          "internalType": "string",
          "name": "name",
          "type": "string"
        },
        {
          "internalType": "string",
          "name": "email",
          "type": "string"
        },
        {
          "internalType": "string",
          "name": "password",
          "type": "string"
        },
        {
          "internalType": "string",
          "name": "role",
          "type": "string"
        }
      ],
      "name": "createFarmer",
      "outputs": [],
      "stateMutability": "nonpayable",
      "type": "function"
    },
    {
      "inputs": [
        {
          "internalType": "string",
          "name": "password",
          "type": "string"
        }
      ],
      "name": "getAuthority",
      "outputs": [
        {
          "components": [
            {
              "internalType": "string",
              "name": "name",
              "type": "string"
            },
            {
              "internalType": "string",
              "name": "email",
              "type": "string"
            },
            {
              "internalType": "string",
              "name": "password",
              "type": "string"
            },
            {
              "internalType": "string",
              "name": "role",
              "type": "string"
            },
            {
              "internalType": "address",
              "name": "ETHAddress",
              "type": "address"
            }
          ],
          "internalType": "struct UserManager.Authority",
          "name": "",
          "type": "tuple"
        }
      ],
      "stateMutability": "view",
      "type": "function"
    },
    {
      "inputs": [],
      "name": "getCart",
      "outputs": [
        {
          "components": [
            {
              "internalType": "string",
              "name": "id",
              "type": "string"
            },
            {
              "internalType": "uint256",
              "name": "quantity",
              "type": "uint256"
            }
          ],
          "internalType": "struct UserManager.Item[]",
          "name": "",
          "type": "tuple[]"
        }
      ],
      "stateMutability": "view",
      "type": "function"
    },
    {
      "inputs": [
        {
          "internalType": "string",
          "name": "password",
          "type": "string"
        }
      ],
      "name": "getCustomer",
      "outputs": [
        {
          "components": [
            {
              "internalType": "string",
              "name": "name",
              "type": "string"
            },
            {
              "internalType": "string",
              "name": "email",
              "type": "string"
            },
            {
              "internalType": "string",
              "name": "password",
              "type": "string"
            },
            {
              "internalType": "string",
              "name": "role",
              "type": "string"
            },
            {
              "internalType": "address",
              "name": "ETHAddress",
              "type": "address"
            }
          ],
          "internalType": "struct UserManager.Customer",
          "name": "",
          "type": "tuple"
        }
      ],
      "stateMutability": "view",
      "type": "function"
    },
    {
      "inputs": [
        {
          "internalType": "string",
          "name": "password",
          "type": "string"
        }
      ],
      "name": "getFarmer",
      "outputs": [
        {
          "components": [
            {
              "internalType": "string",
              "name": "name",
              "type": "string"
            },
            {
              "internalType": "string",
              "name": "email",
              "type": "string"
            },
            {
              "internalType": "string",
              "name": "password",
              "type": "string"
            },
            {
              "internalType": "string",
              "name": "role",
              "type": "string"
            },
            {
              "internalType": "address",
              "name": "ETHAddress",
              "type": "address"
            }
          ],
          "internalType": "struct UserManager.Farmer",
          "name": "",
          "type": "tuple"
        }
      ],
      "stateMutability": "view",
      "type": "function"
    },
    {
      "inputs": [
        {
          "internalType": "string",
          "name": "id",
          "type": "string"
        }
      ],
      "name": "removeProduct",
      "outputs": [],
      "stateMutability": "nonpayable",
      "type": "function"
    },
    {
      "inputs": [
        {
          "components": [
            {
              "internalType": "string",
              "name": "id",
              "type": "string"
            },
            {
              "internalType": "uint256",
              "name": "quantity",
              "type": "uint256"
            }
          ],
          "internalType": "struct UserManager.Item[]",
          "name": "items",
          "type": "tuple[]"
        }
      ],
      "name": "updateCart",
      "outputs": [],
      "stateMutability": "nonpayable",
      "type": "function"
    }
  ],
  "bytecode": "0x608060405234801561001057600080fd5b50611b7e806100206000396000f3fe608060405234801561001057600080fd5b506004361061009e5760003560e01c80635baef56d116100665780635baef56d1461011c5780636257bb641461012f5780639726dd1914610142578063b151494214610155578063b51ca0af1461016857600080fd5b8063200d6de7146100a357806321627dad146100b857806333bf3ee2146100d65780635087e668146100e9578063518bddd914610109575b600080fd5b6100b66100b13660046113fe565b61017b565b005b6100c061031f565b6040516100cd91906114fb565b60405180910390f35b6100b66100e4366004611573565b610425565b6100fc6100f73660046115b8565b6105c6565b6040516100cd9190611676565b6100fc6101173660046115b8565b6109a3565b6100b661012a3660046113fe565b610b29565b6100b661013d366004611690565b610cc2565b6100b66101503660046115b8565b610e17565b6100fc6101633660046115b8565b610fe8565b6100b66101763660046113fe565b61116e565b3360405160200161018c9190611705565b60408051601f19818403018152828252805160209182012033600090815260018352929092206004015491926101cc926001600160a01b03169101611705565b604051602081830303815290604052805190602001200361022c5760405162461bcd60e51b81526020600482015260156024820152744661726d657220616c72656164792065786973742160581b60448201526064015b60405180910390fd5b6040805160a081018252858152602080820186905281830185905260608201849052336080830181905260009081526001909152919091208151819061027290826117ac565b506020820151600182019061028790826117ac565b506040820151600282019061029c90826117ac565b50606082015160038201906102b190826117ac565b5060809190910151600490910180546001600160a01b0319166001600160a01b039092169190911790556040517f5c47ff0a569e587692da604d2bf92787dd7f006684698dbd8c59539be7e35a749061031190869086908690869061186c565b60405180910390a150505050565b336000908152600360209081526040808320805482518185028101850190935280835260609492939192909184015b8282101561041c578382906000526020600020906002020160405180604001604052908160008201805461038190611722565b80601f01602080910402602001604051908101604052809291908181526020018280546103ad90611722565b80156103fa5780601f106103cf576101008083540402835291602001916103fa565b820191906000526020600020905b8154815290600101906020018083116103dd57829003601f168201915b505050505081526020016001820154815250508152602001906001019061034e565b50505050905090565b6000805b336000908152600360205260409020548110156104d5578360405160200161045191906118c4565b60408051601f19818403018152918152815160209283012033600090815260039093529120805483908110610488576104886118e0565b90600052602060002090600202016000016040516020016104a991906118f6565b60405160208183030381529060405280519060200120036104cd57600191506104d5565b600101610429565b5080156105245760405162461bcd60e51b815260206004820152601760248201527f70726f6475637420616c726561647920696e20636172740000000000000000006044820152606401610223565b3360009081526003602090815260408083208151808301909252868252818301869052805460018101825590845291909220825160029092020190819061056b90826117ac565b506020918201516001918201553360008181526003909352604080842090920180546001600160a01b0319169091179055517fa46323904629c5a10eff2de9a42dd39fc6ad2d1b5fc30eb094c7b7f4934923a99190a1505050565b6106016040518060a001604052806060815260200160608152602001606081526020016060815260200160006001600160a01b031681525090565b336040516020016106129190611705565b60408051601f1981840301815282825280516020918201203360009081526002835292909220600401549192610652926001600160a01b03169101611705565b60405160208183030381529060405280519060200120146106ac5760405162461bcd60e51b8152602060048201526014602482015273417574686f72697479204e6f742065786973742160601b6044820152606401610223565b816040516020016106bd91906118c4565b60408051601f198184030181528282528051602091820120336000908152600280845293902090936106f4939190910191016118f6565b60405160208183030381529060405280519060200120146107275760405162461bcd60e51b81526004016102239061196c565b3360009081526002602052604090819020815160a0810190925280548290829061075090611722565b80601f016020809104026020016040519081016040528092919081815260200182805461077c90611722565b80156107c95780601f1061079e576101008083540402835291602001916107c9565b820191906000526020600020905b8154815290600101906020018083116107ac57829003601f168201915b505050505081526020016001820180546107e290611722565b80601f016020809104026020016040519081016040528092919081815260200182805461080e90611722565b801561085b5780601f106108305761010080835404028352916020019161085b565b820191906000526020600020905b81548152906001019060200180831161083e57829003601f168201915b5050505050815260200160028201805461087490611722565b80601f01602080910402602001604051908101604052809291908181526020018280546108a090611722565b80156108ed5780601f106108c2576101008083540402835291602001916108ed565b820191906000526020600020905b8154815290600101906020018083116108d057829003601f168201915b5050505050815260200160038201805461090690611722565b80601f016020809104026020016040519081016040528092919081815260200182805461093290611722565b801561097f5780601f106109545761010080835404028352916020019161097f565b820191906000526020600020905b81548152906001019060200180831161096257829003601f168201915b5050509183525050600491909101546001600160a01b031660209091015292915050565b6109de6040518060a001604052806060815260200160608152602001606081526020016060815260200160006001600160a01b031681525090565b336040516020016109ef9190611705565b60408051601f19818403018152828252805160209182012033600090815280835292909220600401549192610a2e926001600160a01b03169101611705565b6040516020818303038152906040528051906020012014610a875760405162461bcd60e51b8152602060048201526013602482015272437573746f6d6572204e6f742065786973742160681b6044820152606401610223565b81604051602001610a9891906118c4565b60408051601f198184030181528282528051602091820120336000908152808352929092209192610acd9260020191016118f6565b6040516020818303038152906040528051906020012014610b005760405162461bcd60e51b81526004016102239061196c565b3360009081526020819052604090819020815160a0810190925280548290829061075090611722565b33604051602001610b3a9190611705565b60408051601f1981840301815282825280516020918201203360009081526002835292909220600401549192610b7a926001600160a01b03169101611705565b6040516020818303038152906040528051906020012003610bdd5760405162461bcd60e51b815260206004820152601860248201527f417574686f7269747920616c72656164792065786973742100000000000000006044820152606401610223565b6040805160a0810182528581526020808201869052818301859052606082018490523360808301819052600090815260029091529190912081518190610c2390826117ac565b5060208201516001820190610c3890826117ac565b5060408201516002820190610c4d90826117ac565b5060608201516003820190610c6290826117ac565b5060809190910151600490910180546001600160a01b0319166001600160a01b039092169190911790556040517fc5818d9d7df1d0bdb4144d2e0d9ca09a1d5b05dbaea4477c8e49131d5b6623ad9061031190869086908690869061186c565b60005b81811015610e125760005b33600090815260036020526040902054811015610e0957838383818110610cf957610cf96118e0565b9050602002810190610d0b91906119a1565b610d1590806119b7565b604051602001610d26929190611a05565b60408051601f19818403018152918152815160209283012033600090815260039093529120805483908110610d5d57610d5d6118e0565b9060005260206000209060020201600001604051602001610d7e91906118f6565b6040516020818303038152906040528051906020012003610e0157838383818110610dab57610dab6118e0565b9050602002810190610dbd91906119a1565b336000908152600360209081526040909120805492909101359183908110610de757610de76118e0565b906000526020600020906002020160010181905550610e09565b600101610cd0565b50600101610cc5565b505050565b60005b33600090815260036020526040902054811015610fbb5781604051602001610e4291906118c4565b60408051601f19818403018152918152815160209283012033600090815260039093529120805483908110610e7957610e796118e0565b9060005260206000209060020201600001604051602001610e9a91906118f6565b6040516020818303038152906040528051906020012003610fb357805b33600090815260036020526040902054610ed390600190611a2b565b811015610f6357336000908152600360205260409020610ef4826001611a44565b81548110610f0457610f046118e0565b600091825260208083203384526003909152604090922080546002909202909201919083908110610f3757610f376118e0565b6000918252602090912060029091020180610f528382611a57565b506001918201549082015501610eb7565b50336000908152600360205260409020805480610f8257610f82611b32565b60008281526020812060001990920191600283020190610fa28282611305565b600182016000905550509055610fbb565b600101610e1a565b506040517fc5b87bed07a482ededce1576f924b1d6cdf6e498d73e35c8b02bcc736ac205a390600090a150565b6110236040518060a001604052806060815260200160608152602001606081526020016060815260200160006001600160a01b031681525090565b336040516020016110349190611705565b60408051601f1981840301815282825280516020918201203360009081526001835292909220600401549192611074926001600160a01b03169101611705565b60405160208183030381529060405280519060200120146110cb5760405162461bcd60e51b81526020600482015260116024820152704661726d6572204e6f742065786973742160781b6044820152606401610223565b816040516020016110dc91906118c4565b60408051601f198184030181528282528051602091820120336000908152600183529290922091926111129260020191016118f6565b60405160208183030381529060405280519060200120146111455760405162461bcd60e51b81526004016102239061196c565b3360009081526001602052604090819020815160a0810190925280548290829061075090611722565b3360405160200161117f9190611705565b60408051601f198184030181528282528051602091820120336000908152808352929092206004015491926111be926001600160a01b03169101611705565b60405160208183030381529060405280519060200120036112215760405162461bcd60e51b815260206004820152601760248201527f437573746f6d657220616c7265616479206578697374210000000000000000006044820152606401610223565b6040805160a0810182528581526020808201869052818301859052606082018490523360808301819052600090815290819052919091208151819061126690826117ac565b506020820151600182019061127b90826117ac565b506040820151600282019061129090826117ac565b50606082015160038201906112a590826117ac565b5060809190910151600490910180546001600160a01b0319166001600160a01b039092169190911790556040517f1b4cea3558a9e0c9f742c904e361522d01633b394adf89f8b91d8a50df89117a9061031190869086908690869061186c565b50805461131190611722565b6000825580601f10611321575050565b601f01602090049060005260206000209081019061133f9190611342565b50565b5b808211156113575760008155600101611343565b5090565b634e487b7160e01b600052604160045260246000fd5b600082601f83011261138257600080fd5b813567ffffffffffffffff8082111561139d5761139d61135b565b604051601f8301601f19908116603f011681019082821181831017156113c5576113c561135b565b816040528381528660208588010111156113de57600080fd5b836020870160208301376000602085830101528094505050505092915050565b6000806000806080858703121561141457600080fd5b843567ffffffffffffffff8082111561142c57600080fd5b61143888838901611371565b9550602087013591508082111561144e57600080fd5b61145a88838901611371565b9450604087013591508082111561147057600080fd5b61147c88838901611371565b9350606087013591508082111561149257600080fd5b5061149f87828801611371565b91505092959194509250565b60005b838110156114c65781810151838201526020016114ae565b50506000910152565b600081518084526114e78160208601602086016114ab565b601f01601f19169290920160200192915050565b600060208083018184528085518083526040925060408601915060408160051b87010184880160005b8381101561156557888303603f1901855281518051878552611548888601826114cf565b918901519489019490945294870194925090860190600101611524565b509098975050505050505050565b6000806040838503121561158657600080fd5b823567ffffffffffffffff81111561159d57600080fd5b6115a985828601611371565b95602094909401359450505050565b6000602082840312156115ca57600080fd5b813567ffffffffffffffff8111156115e157600080fd5b6115ed84828501611371565b949350505050565b6000815160a0845261160a60a08501826114cf565b90506020830151848203602086015261162382826114cf565b9150506040830151848203604086015261163d82826114cf565b9150506060830151848203606086015261165782826114cf565b6080948501516001600160a01b03169590940194909452509092915050565b60208152600061168960208301846115f5565b9392505050565b600080602083850312156116a357600080fd5b823567ffffffffffffffff808211156116bb57600080fd5b818501915085601f8301126116cf57600080fd5b8135818111156116de57600080fd5b8660208260051b85010111156116f357600080fd5b60209290920196919550909350505050565b60609190911b6bffffffffffffffffffffffff1916815260140190565b600181811c9082168061173657607f821691505b60208210810361175657634e487b7160e01b600052602260045260246000fd5b50919050565b601f821115610e12576000816000526020600020601f850160051c810160208610156117855750805b601f850160051c820191505b818110156117a457828155600101611791565b505050505050565b815167ffffffffffffffff8111156117c6576117c661135b565b6117da816117d48454611722565b8461175c565b602080601f83116001811461180f57600084156117f75750858301515b600019600386901b1c1916600185901b1785556117a4565b600085815260208120601f198616915b8281101561183e5788860151825594840194600190910190840161181f565b508582101561185c5787850151600019600388901b60f8161c191681555b5050505050600190811b01905550565b60808152600061187f60808301876114cf565b828103602084015261189181876114cf565b905082810360408401526118a581866114cf565b905082810360608401526118b981856114cf565b979650505050505050565b600082516118d68184602087016114ab565b9190910192915050565b634e487b7160e01b600052603260045260246000fd5b600080835461190481611722565b6001828116801561191c576001811461193157611960565b60ff1984168752821515830287019450611960565b8760005260208060002060005b858110156119575781548a82015290840190820161193e565b50505082870194505b50929695505050505050565b6020808252818101527f57726f6e672070617373776f72642c506c656173652054727920416761696e21604082015260600190565b60008235603e198336030181126118d657600080fd5b6000808335601e198436030181126119ce57600080fd5b83018035915067ffffffffffffffff8211156119e957600080fd5b6020019150368190038213156119fe57600080fd5b9250929050565b8183823760009101908152919050565b634e487b7160e01b600052601160045260246000fd5b81810381811115611a3e57611a3e611a15565b92915050565b80820180821115611a3e57611a3e611a15565b818103611a62575050565b611a6c8254611722565b67ffffffffffffffff811115611a8457611a8461135b565b611a92816117d48454611722565b6000601f821160018114611ac65760008315611aae5750848201545b600019600385901b1c1916600184901b178455611b2b565b600085815260209020601f19841690600086815260209020845b83811015611b005782860154825560019586019590910190602001611ae0565b5085831015611b1e5781850154600019600388901b60f8161c191681555b50505060018360011b0184555b5050505050565b634e487b7160e01b600052603160045260246000fdfea26469706673582212203eae5eec7e2d9c682a209a4202fdc3459f05d67095c3eaf4df4fe7ee8054070a64736f6c63430008180033",
  "linkReferences": {},
  "deployedLinkReferences": {}
}